4939ARIF KHADIJA                  XX000000000654952001020920000
4939QASSAQ BOUCHRA                XX000000000654972001020920100
4939BAHTAT HASSANE                XX000000000657142001020920200
4939EZZAMRANI RACHIDA             XX000000000657192001020920300
4939OUHADI MBARK                  XX000000000657222001020920400
4939SIMOU MOHAMMED                XX000000000657342001020920500
4939MAGHRI ABDELAZIZ              XX000000000657412001020920600
4939EL YOUSFI SAMIRA              XX000000000658292001020920700
4939ADDAR ALI                     XX000000000658452001020920800
4939IKNIOUAN AMINA                XX000000000658952001020920900
4939EL MESNAOUI NOUZHA            XX000000000659002001020921000
4939YOUSSEFI LALLA MINA           XX000000000659062001020921100
4939EL ALAMI MALIKA               XX000000000659172001020921200
4939EL HADRY ABDELOUAHED          XX000000000659442001020921300
4939SALAMI LARBI                  XX000000000659592001020921400
4939GHALIBI MBARK                 XX000000000659962001020921500
4939ALAOUI LALLA KHADIJA          XX000000000660452001020921600
4939KESTRAOUI MARIA               XX000000000661882001020921700
4939EL HANOUICHI HAFIDA           XX000000000661912001020921800
4939ERRAHIOUI KHADIJA             XX000000000661962001020921900
4939BEN ALLA KARIMA               XX000000000661972001020922000
4939EL KHAFIF SOUAD               XX000000000662002001020922100
4939EL WARRASS ABDELKRIM          XX000000000664852001020922200
4939EL MAMOUN ZAHRA               XX000000000665612001020922300
4939RAKIE SAID                    XX000000000665632001020922400
4939EL BOURKHISSI FATIMA          XX000000000688142001020922500
4939ABOUKAL AICHA                 XX000000000709362001020922600
4939EL MAGOURI SAIDA              XX000000000709482001020922700
4939AMDHOUSSI ZAHRA               XX000000000709522001020922800
4939OUCHHI DRISS                  XX000000000709542001020922900
4939MESSAOUDI FATIMA ZAHRA        XX000000000709682001020923000
4939DAOUI REDOUAN                 XX000000000709812001020923100
4939BOUANGA ISMAIL                XX000000000709822001020923200
4939QAOUJI SAMIRA                 XX000000000712242001020923300
4939MOUYANE LATIFA                XX000000000712262001020923400
4939OUAZIZ DRISS                  XX000000000712352001020923500
4939SKIOUS ABDERRAHMANE           XX000000000712362001020923600
4939ZERFAOUI MERIEM               XX000000000712472001020923800
4939ABDELMALEK ABDESLAM           XX000000000712492001020923900
4939ALLAOUI MOHAMED               XX000000000712522001020924000
4939SABIR SALOUA                  XX000000000712592001020924100
4939OULAD SIDI AISSA EL IDRISSI ZAXX000000000712792001020924200
4939BEDDOUCH FATIMA               XX000000000712852001020924300
4939EL AIDOUNI SALOUA             XX000000000712902001020924400
4939ALOUANE LATIFA                XX000000000712912001020924500
4939EL EDRISSI EL HASSAN          XX000000000713352001020924700
4939CHOUIEKH ABDELAZIZ            XX000000000713512001020924800
4939AMECHIR AMINA                 XX000000000713522001020924900
4939SADEQ ABDELMAJID              XX000000000713572001020925000
4939BOUKAABA FOUAD                XX000000000713582001020925100
4939BOUGASSA ABDELAAZIZ           XX000000000713602001020925200
4939CHEBBAR ABDELHAQ              XX000000000713612001020925300
4939AOURAGH ABDESSAMAD            XX000000000713672001020925400
4939BEN HADDOU ALLAL              XX000000000715002001020925500
4939LEBBACHE FATIHA               XX000000000715082001020925600
4939EL MOUTANABBIH TOURIA         XX000000000715172001020925700
4939GHANI M HAMED                 XX000000000715182001020925800
4939AKRAB ZAID                    XX000000000715292001020925900
4939BOUAZZAOUI ABDELFATAH         XX000000000715912001020926100
4939SAIYED KHALID                 XX000000000716012001020926200
4939AYOUBI MUSTAPHA               XX000000000716312001020926300
4939OUARGAGA IDDIR                XX000000000716332001020926400
4939NACIRI HAMID                  XX000000000716442001020926500
4939EL HAMIDI MOULAY EL MAHDI     XX000000000716492001020926600
4939MEQBOUL YAHYA                 XX000000000716842001020926700
4939ABDELLAOUI SAIDA              XX000000000755182001020926800
4939JORIO CHARAF                  XX000000000755192001020926900
4939BOUALLOU MOHAMMED             XX000000000758162001020927000
4939EL MOUTAKI MOHAMED            XX000000000758642001020927100
4939OUHAMOU GHIZLANE              XX000000000758972001020927200
4939KHERAZI MOLOUD                XX000000000759382001020927300
4939KOULAN FADILA                 XX000000000759392001020927400
4939MAADANI HAFIDA                XX000000000759982001020927500
4939AIT ALI OUHMED ABDERRAHIM     XX000000000772102001020927600
4939BAKALI EL HOUSSNI             XX000000000787262001020927900
4939EL ADILA AICHA                XX000000000787482001020928100
4939LAHYANI BOUZIAN               XX000000000802332001020928200
4939JAOUATE HICHAM                XX000000000802622001020928300
4939KANDIL MOHAMMED               XX000000000806482001020928400
4939BOUHLAL KAOUTAR               XX000000000806662001020928500
4939SITLI FATIHA                  XX000000000813712001020928600
4939SAKIT RABIA                   XX000000000813882001020928700
4939LAMINE MALIKA                 XX000000000813942001020928800
4939ESSATTE BOUCHRA               XX000000000813952001020928900
4939ATIK LATIFA                   XX000000000821212001020929000
4939NAKACH NAIMA                  XX000000000821362001020929100
4939HATTAB ZAHIRA                 XX000000000821382001020929200
4939BELFATHA KARIMA               XX000000000821502001020929300
4939EL OUAHBI NAJOUA              XX000000000821532001020929400
4939JABBOUJ HALIMA                XX000000000821572001020929600
4939FATIH SAADIA                  XX000000000821582001020929700
4939RACHID ABDELOIHID             XX000000000821622001020929800
4939DEMNANE SAADIA                XX000000000821642001020929900
4939RIAJI MAJDA                   XX000000000821682001020930000
4939KHAIDARI ASMA                 XX000000000821722001020930100
4939EL HAMSS RACHIDA              XX000000000821762001020930200
4939EL BAHLOULI KHADIJA           XX000000000821782001020930300
4939EL AMRAOUI KARIMA             XX000000000826762001020930400
4939BCHIRI NADIA                  XX000000000826862001020930500
4939ZERRAB AICHA                  XX000000000838772001020930600
4939WAJFI REDOUANE                XX000000000839462001020930700
4939BOUCHRA BELMAJDOUB            XX000000000839482001020930800
4939HABLI SMAIL                   XX000000000839842001020930900
4939BEKRI AICHA                   XX000000000867012001020931000
4939LAKHDAR LAHCEN                XX000000000868552001020931100
4939EL GOUMI EL AYECH             XX000000000966062001020931200
4939SALLAY MOHAMED                XX000000000966982001020931300
4939OUMAIR YOUSSEF                XX000000000967922001020931400
4939OUIRDANI HABIB                XX000000000987402001020931500
4939BADRAOUI OMAR                 XX000000000987592001020931600
4939AISSAOUI AMAR                 XX000000001121722001020931700
4939M TALSSI HOUARI               XX000000001243662001020931800
4939LAFROUHI ABDELKADER           XX000000001260052001020931900
4939MEZIANE NOUR EDDINE           XX000000001339582001020932000
4939EL ALLAOUI JAMAL              XX000000001362672001020932100
4939EL MOUFTAHI MUSTAPHA          XX000000001363052001020932200
4939BAAMAR MOHAMED SALEM          XX000000001363182001020932300
4939HAJJI DRISS                   XX000000001363572001020932400
4939TAMIRO LHOUARI                XX000000001363602001020932500
4939KHALDI RACHID                 XX000000001425322001020932600
4939TAHAR MOHAMED                 XX000000001428032001020932700
4939FANNICH HAFID                 XX000000001592012001020932800
4939EL MAHI BOUMEDIENE            XX000000001623162001020932900
4939HENNOU ALI                    XX000000001658562001020933000
4939SRIARI CHARKI                 XX000000001835062001020933100
4939OUAGAGUE TAIEB                XX000000001835112001020933200
4939JAMALI RACHID                 XX000000001835152001020933300
4939BENHADDI ABDELALI             XX000000001835402001020933400
4939YAFOU ALLAH YASSINE           XX000000001835742001020933500
4939OULD OUADDA HASSANE           XX000000001836042001020933600
4939ELHAYA ABDELOUAHAD            XX000000001836122001020933700
4939EL MANSOURY ALI               XX000000001836542001020933800
4939ACHCHAK MOHAMED REDA          XX000000001836832001020933900
4939KHARRAZ KASSEM                XX000000001892562001020934000
4939MANSOURI MOHAMED              XX000000001892962001020934100
4939ZERYOUH MOHAMMED              XX000000001895862001020934200
4939ALIOUI REDOUANE               XX000000002196272001020934300
4939FAL COU OMAR                  XX000000002196352001020934400
4939ARAB ABDELKADER               XX000000002196442001020934500
4939DAOUDI MOHAMED                XX000000002196892001020934600
4939EL BOUKHARI HADJ BEN SELLAM   XX000000002197532001020934700
4939HAY ALLAHI MOHAMMED EL AMINE  XX000000002251072001020934800
4939BOUAZIZI MOHAMED              XX000000002252482001020934900
4939CHOUKRI JALAL                 XX000000002252712001020935000
4939EL MAYMOUNI AHMED             XX000000002253432001020935100
4939ZAHRI ABDERRAHIM              XX000000002253962001020935200
4939EL JANATI EL IDRISSI HAMID    XX000000002286542001020935300
4939ERRAMI MOHAMED                XX000000002354402001020935400
4939ID HAMOU JAMAA MOHAMED        XX000000002354922001020935500
4939SAIDI ABDELAZIZ               XX000000002469172001020935600
4939OUIDIR LAHOUCINE              XX000000002469232001020935700
4939BOULAHSEN M HAMED             XX000000002469282001020935800
4939JABBOUR RACHID                XX000000002550832001020935900
4939EL YOUSSOUFI CHERIF           XX000000002551772001020936000
4939ZIDOUNI EL MOSTAFA            XX000000002654742001020936100
4939CHEMSY ABDELALEM              XX000000002654832001020936200
4939EL AMINE ABDALLAH             XX000000002691992001020936300
4939EL BOUZIDI MOHAMED            XX000000002695562001020936400
4939RAJI ABDEL ILAH               XX000000002697962001020936500
4939MADANI ALAOUI LALLA AICHA     XX000000002790662001020936600
4939NINEFLAS RACHIDA              XX000000002790672001020936700
4939ELZZAYIA MAYMOUNA             XX000000002791712001020936800
4939OUAZZANI CHAHDI MALIKA        XX000000002791942001020936900
4939SEBBATA HASSAN                XX000000002820062001020937000
4939RHIZLANE ABOUBKER             XX000000002820092001020937100
4939OUADIFI MOHAMMED              XX000000002860222001020937200
4939ADAOUI FATIMA                 XX000000002957042001020937300
4939RAI MOUKHTAR                  XX000000002957242001020937400
4939HAJJAMI LAILA                 XX000000002988612001020937500
4939LISSAN EL HAK BOUCHRA         XX000000002989942001020937600
4939JOHRI MOHAMMED                XX000000003005432001020937700
4939IREKMANE LHOUCINE             XX000000003012352001020937800
4939ZIANI FAKHAR CHAKIB           XX000000003120482001020937900
4939MERIMI MIMOUN                 XX000000003120512001020938000
4939TAIBI CHOUAIB                 XX000000003154282001020938100
4939HADDI LALLA TFARAH            XX000000003167802001020938200
4939BERRI FATIMA                  XX000000003182872001020938400
4939ADOU RACHID                   XX000000003185362001020938500
4939MEKENCY FATIMA ZAHRA          XX000000003186132001020938600
4939MOUJERIFE ZINEB               XX000000003186292001020938700
4939AGRAT KHADIJA                 XX000000003186312001020938800
4939EL JAI MERIEM                 XX000000003186842001020938900
4939HDA NADIA                     XX000000003186922001020939000
4939HASNAOUI KHADIJA              XX000000003239032001020939100
4939SADNI HAFIDA                  XX000000003239072001020939200
4939SLIMANI LATIFA                XX000000003239202001020939300
4939OUDAHA RACHIDA                XX000000003239302001020939400
4939AZEROUAL FATIMA               XX000000003239352001020939500
4939FORCA EL KBIRA                XX000000003239552001020939600
4939EN NHIRI RACHIDA              XX000000003239752001020939700
4939ZIHA DRISS                    XX000000003239772001020939800
4939MOUTTOU OMAR                  XX000000003239782001020939900
4939TAYEB MINA                    XX000000003240852001020940000
4939MOKHTARI AICHA                XX000000003263112001020940100
4939BOUAB SALWA                   XX000000003275262001020940200
4939BRITEL NAJIB                  XX000000003275722001020940300
4939JAMAL HAFIDA                  XX000000003276142001020940400
4939LAMSIKINE HAFIDA              XX000000003276432001020940500
4939SAOUDI FATIHA                 XX000000003276592001020940600
4939GUANNI RACHID                 XX000000003276862001020940700
4939ZENFOUD MOSTAFA               XX000000003318032001020940800
4939RAQI ABDERRAZZAK              XX000000003318072001020940900
4939TAHDI HASSAN                  XX000000003318452001020941000
4939CHEIKHE MAOULAININE MIMOUNA   XX000000003319182001020941100
4939SBAI ABDELMOURHIT             XX000000003366852001020941200
4939ADOU JAMAL                    XX000000003460132001020941300
4939AOUNE HOURIA                  XX000000003461022001020941400
4939EL BAYENA EL BATOUL           XX000000003461162001020941500
4939LAMGHARI MOHAMMED             XX000000003461262001020941600
4939ZOUHAILI SAADIA               XX000000003461492001020941700
4939OUANZIL MAJDA                 XX000000003462162001020941800
4939EL KOUACH EL HASSANIA         XX000000003462222001020941900
4939EL HAMZAOUI TOURIA            XX000000003462242001020942000
4939SAHMAOUI MALIKA               XX000000003462622001020942100
4939BELLORHZAL HOURIA             XX000000003462972001020942200
4939IBRAHIMI ABDELGHANI           XX000000003505392001020942300
4939BENJILALI SABAH               XX000000003505472001020942400
4939MOUTAI ABDELHAQ               XX000000003538062001020942500
4939HACHABI ABDELKRIM             XX000000003703012001020942600
4939NOUSSAIR ALI                  XX000000003703752001020942700
4939MAMMAD AHMED                  XX000000003704022001020942800
4939EL ALAOUI LALLA SAADIA        XX000000003704032001020942900
4939BOUSSELHAM LATIFA             XX000000003704042001020943000
4939TAHIR ABDESSAMAD              XX000000003704062001020943100
4939MALIKI LALLA AMINA            XX000000003704092001020943200
4939AGOURAM KENZA                 XX000000003704182001020943300
4939BOUKAL MOHAMED                XX000000003705102001020943400
4939BENSALEM ABDELILAH            XX000000003705352001020943500
4939EL OUADI OUAFAA               XX000000003706462001020943600
4939BAMENSOUR JEMAA               XX000000003706482001020943700
4939BOULAOUI ABDELKRIM            XX000000003710042001020943800
4939RAHALI IDRISSI NADIA          XX000000003710192001020943900
4939TASSETTATE BRAHIM             XX000000003710332001020944000
4939ANIBA ABDELILAH               XX000000003711022001020944100
4939BOUNANI MAIMOUNA              XX000000003711042001020944200
4939GOURJEM ZINEB                 XX000000003711732001020944300
4939MYATT SAID                    XX000000003712112001020944400
4939EL MANSOUR ABDERRAHIM         XX000000003712412001020944500
4939DAR EL AIN MOHAMED            XX000000003722372001020944600
4939CHAKI ABDENNAIM               XX000000003722412001020944700
4939SOLO AZZOUZ                   XX000000003722422001020944800
4939NADER MOKHTAR                 XX000000003722452001020944900
4939IMEZAR ZINEB                  XX000000003722502001020945000
4939BENQASSMI SAAIDA              XX000000003722542001020945100
4939ABDELKHALEK EL MAHJOUB        XX000000003722552001020945200
4939SABER MUSTAPHA                XX000000003722602001020945300
4939EZZEBBOURI RACHID             XX000000003722752001020945400
4939EL FAROUKI ABID               XX000000003722762001020945500
4939BOULAID KHALIDA               XX000000003763302001020945600
4939JILBAB FATIMA                 XX000000003809112001020945700
4939ELOUARRADI FATIMA             XX000000003811192001020945800
4939LAHDA KHADIJA                 XX000000003811762001020945900
4939RAZZOUKI FATIMA               XX000000003811772001020946000
4939BENCHERQUI MOHAMMED           XX000000003885662001020946100
4939AIT EL MOUDEN MOHAMMED        XX000000003885682001020946200
4939JANDALI ABDERRAHIM            XX000000003904292001020946300
4939MOUHSINE AHMED                XX000000003904442001020946400
4939BOUNADEM FATIMA               XX000000003905252001020946500
4939MENSKI AZIZ                   XX000000003905452001020946600
4939CHOUAA ABDELOUAHED            XX000000003941972001020946700
4939EL BELGHITI MOHAMED           XX000000003942722001020946800
4939MENGOUCHI KHADIJA             XX000000003943692001020946900
4939ECHCHAHDI NEZHA               XX000000003943762001020947000
4939JAKANI JAMAA                  XX000000003947022001020947100
4939EL KHAIR YATTOU               XX000000003948902001020947200
4939BENHAMAD ZAHRA                XX000000003962392001020947300
4939BOUHAMIDI LALLA MERIEM        XX000000003962452001020947400
4939BAHAJJI NADIA                 XX000000003963752001020947500
4939HIDARE KHALID                 XX000000003964872001020947600
4939ARJAOUI FATIMA                XX000000003968022001020947700
4939BOUNADAH MOHAMED              XX000000003968172001020947800
4939ABDEDAIM NAIMA                XX000000003968222001020947900
4939ZIANI MOHAMMED                XX000000003968562001020948000
4939ELATI SAKINA                  XX000000003970192001020948100
4939MRANI RACHIDA                 XX000000003970222001020948200
4939AMHOUD MINA                   XX000000003970492001020948300
4939BOUSSAQSOU ABDELLAH           XX000000003970592001020948400
4939JANNAD ABDERRAHIM             XX000000003970682001020948500
4939LEMSELLAK EL MAHDI            XX000000003970772001020948600
4939BOUQARTACHA CHAFIQ            XX000000003971462001020948700
4939CHERKAOUI LALLA NEZHA         XX000000003971532001020948800
4939KOUZA FOUZIA                  XX000000003971552001020948900
4939ABBADI MUSTAPHA               XX000000003971842001020949000
4939MOUSSAOUI HASSAN              XX000000003971862001020949100
4939ALLAOUI ADDI                  XX000000003978932001020949200
4939LACHHEB ABDELAZIZ             XX000000003993132001020949300
4939HAMRI MOHAMED                 XX000000003993392001020949400
4939CHEMLAL AICHA                 XX000000003997712001020949500
4939CHARKANI ZHOR                 XX000000003997722001020949600
4939HABBAS YAMNA                  XX000000003997752001020949700
4939BENASSOU ADDI                 XX000000003998222001020949800
4939AIT HASSOU YOUSSEF            XX000000003998422001020949900
4939SAFDI JAMILA                  XX000000003998922001020950000
4939EL YAHYAOUI MOHAMED           XX000000006568162001020950100
4939DOUIRAT HAMID                 XX000000001836132001020950200
4939ESSADIK KHADIJA               XX000000007081692001020950300
4939BENRADI SAIDA                 XX000000007081842001020950400
4939BOURRAGAT JAMILA              XX000000007081882001020950500
4939DRISSI MY OMAR                XX000000007083272001020950600
4939DAFALI MY ABDERRAHMAN         XX000000007083702001020950700
4939DBIYEB SOUAD                  XX000000007115392001020950800
4939IBRAHIMI SAID                 XX000000007115922001020950900
4939BICHOU SEKKOU                 XX000000007135762001020951000
4939LAKHRISSI FARAJY              XX000000007137382001020951100
4939OUZZIR SIHAM                  XX000000007137902001020951300
4939ZEBBADI TAMOU                 XX000000007138422001020951400
4939ABRADA MOHAMED                XX000000007139672001020951500
4939MENTAGUI YOUNES               XX000000007145492001020951600
4939BOUHRIGA ABDELLAHI            XX000000007145652001020951700
4939AFARIAD EL MOSTAFA            XX000000007145802001020951800
4939EL MAKAOUI OMAR               XX000000007150912001020951900
4939EL WADNAKSSI NAJIA            XX000000007150932001020952000
4939BOUMEDIENE RACHID             XX000000007169882001020952100
4939EL HARRARI RKIA               XX000000007169912001020952200
4939OUABID NAJAT                  XX000000007184072001020952300
4939NAYMI MUSTAPHA                XX000000007184112001020952400
4939FARIDI ABDELOUAHID            XX000000007184122001020952500
4939SAHRAOUI HADDOU               XX000000007184132001020952600
4939SAMOUT TAHAR                  XX000000007206482001020952700
4939HSAINE LATIFA                 XX000000007206532001020952800
4939ENNAFFATI KHADIJA             XX000000007207502001020952900
4939MAMOUNI ALAOUI IDRISS         XX000000007243112001020953000
4939AYYAD YAMINA                  XX000000007243642001020953100
4939REGHAI ABDELILAH              XX000000007245682001020953200
4939M HAIDRA SAADIA               XX000000007245802001020953300
4939EL GARRAB FATIMA              XX000000007246482001020953400
4939QACI MOHAMMED                 XX000000007246492001020953500
4939RAOUNI ABDELHAKIM             XX000000007246612001020953600
4939CHOUAIBI EL MAHJOUB           XX000000007246622001020953700
4939MAROUAN MOHAMMED              XX000000007246802001020953800
4939MAKHLOUFI ABDELGHANI          XX000000007246902001020953900
4939LAAROUSSI LARBI               XX000000007247652001020954100
4939TAKI ABDELKRIM                XX000000007247712001020954200
4939SABRI MUSTAPHA                XX000000007248892001020954300
4939ADERMANE AOMAR                XX000000007248912001020954400
4939AMEURAOUI ZEHRA               XX000000007264472001020954500
4939LAMINI LALLA ZINEB            XX000000007264522001020954600
4939ABDOU MUSTAPHA                XX000000007265142001020954700
4939LYAMANI HALIMA                XX000000007265652001020954800
4939LAGHRIRI LHASSANE             XX000000007267052001020954900
4939BOUHADDOUCH EL HADI           XX000000007267182001020955000
4939OUADDA MIMOUN                 XX000000007267252001020955100
4939EL GHACHOUI FATIHA            XX000000007267702001020955200
4939REKAB MOHAMED                 XX000000007316402001020955300
4939BOURHIM MBAREK                XX000000007316712001020955400
4939ADDAHBI EL KOURI              XX000000007317572001020955500
4939JAMALI SAADIA                 XX000000007318742001020955600
4939SADEK HALIMA                  XX000000007322142001020955700
4939EL GHARRAS HAFIDA             XX000000007326562001020955800
4939MISKIN TOURIA                 XX000000007327562001020955900
4939ISAFIANI MALIKA               XX000000007327592001020956000
4939AZIZI JAMILA                  XX000000007328762001020956100
4939AIT ALLA MOHAMED              XX000000007446662001020956300
4939LIAMANI KHALID                XX000000007447432001020956400
4939ALLIOUI MOHAMED               XX000000007449232001020956500
4939BOUAICHI SOUMIA               XX000000007449602001020956600
4939LIMAM BRAHIM                  XX000000007586112001020956700
4939KHALDI FATIMA                 XX000000007586122001020956800
4939LHAMDANIA MUSTAPHA            XX000000007587012001020956900
4939LOUKILI HAFIDA                XX000000007587042001020957000
4939LAMRABET ABDELOUAHID          XX000000007587052001020957100
4939ANHARI MOHAMED                XX000000001893262001020957200
4939ADDAOU ASMAE                  XX000000007598042001020957300
4939IBN EL AMIN EL AALAMI A       XX000000007599582001020957400
4939LAHMAR NOURDINE               XX000000007599592001020957500
4939BERKAOUI RABHA                XX000000007599722001020957600
4939EZZINE ABDERRAHIM             XX000000007603082001020957700
4939MOUNTAKA AHMED                XX000000007603292001020957800
4939LISSER NADIA                  XX000000007603672001020957900
4939IBADISSEN HACHEM              XX000000007603682001020958000
4939CHEMITE MOHAMMED              XX000000007604292001020958200
4939ZAHRANE SAID                  XX000000007604402001020958300
4939KACIMI MUSTAPHA               XX000000007604482001020958400
4939OUARBIA MOHAMED               XX000000007604832001020958600
4939GUERRANI MOHAMED              XX000000007604882001020958700
4939SALIMI SAIDA                  XX000000007606362001020958800
4939BOUDAK ELHASSANE              XX000000007606372001020958900
4939EL KORAANI FATIMA             XX000000007693002001020959000
4939EL AMROUSSI KHALID            XX000000007693182001020959100
4939SIHI KHADIJA                  XX000000007693382001020959200
4939DRISSI FATIMA                 XX000000007730162001020959300
4939DRISSI EL MEHDI               XX000000007730172001020959400
4939BOUDDIN HLIMA                 XX000000007730332001020959500
4939AMHARECH ABDELMAJD            XX000000007731212001020959700
4939KHETTOUCH RABIA               XX000000007731222001020959800
4939AIT BOUHLAL SIDI YOUSSEF      XX000000007731462001020959900
4939ALAOUI HAKIM MOULAY HFID      XX000000007731492001020960000
4939AFKIR ABDELKRIM               XX000000007745112001020960100
4939SIAD MOULAY MOSTAPHA          XX000000007745542001020960200
4939MAGGA MOHAMED                 XX000000007745862001020960300
4939BOUMEZZOUGH KHADIJA           XX000000007745902001020960400
4939BELHAOU HALIMA                XX000000007745972001020960500
4939BOUTALEB LALLA ASMAA          XX000000007746142001020960600
4939BOUKADDOUR SAMIRA             XX000000007746152001020960700
4939AIT SAID MOHAMED              XX000000007747962001020960800
4939NFISSI NADIA                  XX000000007762522001020960900
4939BENCHRIF MOULAY EL HASSAN     XX000000007762532001020961000
4939LAKHNOUSSI ALI                XX000000002283202001020961100
4939MAROUI DRISS                  XX000000007778082001020961200
4939EL FHAIEL ABDELAZIZ           XX000000007778242001020961300
4939EL KHAOUDI KANZA              XX000000007778772001020961400
4939EL FAIDI FATIMA               XX000000007778952001020961500
4939ABDERASSOUL KHADIJA           XX000000007778972001020961600
4939BENNANI ABDELALI              XX000000007779002001020961700
4939EZZAHID OMAR                  XX000000007779072001020961800
4939ABDATI SIDATI                 XX000000007779522001020961900
4939IMOURIG MINA                  XX000000007779552001020962000
4939BAHOUH HAMID                  XX000000007779592001020962100
4939TAZROUTI ABDELKADER           XX000000007779652001020962200
4939BECHANI MOHAMED               XX000000002286342001020962400
4939ZAIDI SOUAAD                  XX000000007780212001020962500
4939AMMAR MAJIDA                  XX000000007780402001020962600
4939BELGUITI LAYLA                XX000000007780462001020962700
4939HASNI HAMID                   XX000000007780772001020962800
4939JORJI MUSTAPHA                XX000000007823462001020962900
4939FARIDI RQUIA                  XX000000007824802001020963000
4939ABKARI AHMED                  XX000000007824922001020963100
4939BENJEBBOUR LARBI              XX000000007825172001020963200
4939EL MAAROUFI MOHAMED           XX000000007825352001020963300
4939EL JAIDI KHADIJA              XX000000007825802001020963400
4939EL BARAKA NOUREDDINE          XX000000007828042001020963500
4939EL YAZIDI MOUNIR              XX000000007828082001020963600
4939MKIKA ZOHRA                   XX000000007828122001020963700
4939AYAD ILHAM                    XX000000007828152001020963800
4939AHADAOUI HASSAN               XX000000007828202001020963900
4939CHAOU NAIMA                   XX000000007828292001020964000
4939NACIRI ABDELJALIL             XX000000007828372001020964100
4939ANOUAR SALAH                  XX000000007828462001020964200
4939HAJJAMI MOHAMMED              XX000000007828612001020964300
4939MOUNIR ABDELKARIM             XX000000007829232001020964400
4939CHOUKRI HASSAN                XX000000007829312001020964500
4939EL BOUANANI NAJAT             XX000000007862422001020964600
4939SAID JAMILA                   XX000000007862682001020964700
4939EL HARA SOUAD                 XX000000007862762001020964800
4939LAADIM HLIMA                  XX000000007863032001020964900
4939DAAYF SOUAD                   XX000000007863102001020965000
4939FELLAH NASSIRA                XX000000007863122001020965100
4939ISMAILI ALAOUI HASSANIA       XX000000007863202001020965300
4939NAAIM MOULOUD                 XX000000007863232001020965400
4939BENAISSA FATIMA               XX000000007863282001020965500
4939HASMI ABDELMJID               XX000000007863292001020965600
4939BENBAKH NADIA                 XX000000007863372001020965700
4939ZEHRAOUI MUSTAPHA             XX000000007863382001020965800
4939EL MHAMMEDI BOCHRA            XX000000007863402001020965900
4939SIDI ATHMANE ABDESLAME        XX000000007863412001020966000
4939AHLRGUIBI MAIMOUNA SALMA      XX000000007863432001020966100
4939KHARIJAH MINA                 XX000000007863462001020966200
4939EZZINE ELMOSTAFA              XX000000007863472001020966300
4939ERRAHMOUNI RQUIA              XX000000007863502001020966400
4939CHAMRANI ZAHRA                XX000000007863532001020966500
4939EL BOUKILI SAID               XX000000007863582001020966600
4939MOUDDEN MILOUD                XX000000007863612001020966700
4939AKTAINI ABDELAZIZ             XX000000007864092001020966800
4939JMILI FATIMA                  XX000000007864172001020966900
4939DOUIEB SOAD                   XX000000007864192001020967000
4939REMAOUI LATIFA                XX000000007864242001020967100
4939ABID LATIFA                   XX000000007864262001020967200
4939EL FAZAZI ZOUBIDA             XX000000007864522001020967300
4939TOUGHZAOUI MUSTAPHA           XX000000007889352001020967400
4939ESSABBAK LAILA                XX000000007889912001020967500
4939EZ ZAIDI JILALI               XX000000007889932001020967600
4939AIT LARBI MOHAMED             XX000000007890452001020967700
4939KHLIFI ZAHRA                  XX000000007890962001020967800
4939KALKHA HANIA                  XX000000007890972001020967900
4939ENNAOUI ABDELHAQ              XX000000007891412001020968000
4939ESSOULI ABOUBAKER             XX000000007891432001020968100
4939SALAMA FATIMA                 XX000000007891482001020968200
4939ISMAILI LEKBIR                XX000000007891532001020968300
4939AMINOU RABHA                  XX000000007892512001020968400
4939BOUHADDOU HASSANIA            XX000000007892522001020968500
4939BEDDOUZ BRAHIM                XX000000007892842001020968600
4939SAMMAH FATIHA                 XX000000008354872001020968700
4939AHL MBAREK MOHAMED            XX000000008355002001020968800
4939BELKHALFI ZAKIA               XX000000008356032001020969000
4939IGHACHANE KASSEM              XX000000008356482001020969100
4939OUJEDDI ABDELAAZIZ            XX000000008356842001020969200
4939DINIA HANA                    XX000000008357422001020969300
4939EL ABDELLAOUI FATIMA ZOHRA    XX000000008369122001020969400
4939ZAOUG KALTOUME                XX000000008369282001020969500
4939ESSOFI AHMED                  XX000000008371132001020969600
4939JOHRI NADIA                   XX000000008371182001020969700
4939EL FHAIEL OIFAE               XX000000008371202001020969800
4939LEKHBIA NOUR REDINE           XX000000008371242001020970000
4939IDRISSI TAFRAOUTI SAMIRA      XX000000008371262001020970100
4939JAAFARI RACHID                XX000000008371272001020970200
4939DIHI YOUSSEF                  XX000000008371892001020970300
4939KHAZZARI AHMED                XX000000008371972001020970500
4939DAOUDI FATMA                  XX000000008372022001020970600
4939HOUMARE NAJAT                 XX000000008372062001020970700
4939FADIL MOHAMMED                XX000000008373332001020970800
4939MOUKDAD SALIMA                XX000000008373342001020970900
4939BENSASSI KHADIJA              XX000000008373982001020971000
4939ACHEHROUR YOUNESS             XX000000008374212001020971100
4939KHALYL ABDELHAMID             XX000000008374272001020971200
4939LAMRABET MOHAMMED             XX000000008374712001020971300
4939ICHOUHAR ABDELKRIM            XX000000008374722001020971400
4939EL AMRANI WAFAA               XX000000008375002001020971500
4939CHAQUOUR LHOUCINE             XX000000008375042001020971600
4939OUKHAYI LAHOUSSINE            XX000000008375052001020971700
4939SELLAKMINE MOHAMED            XX000000008375122001020971800
4939FOUASSI NAIMA                 XX000000008375152001020971900
4939LACHANE ISMAIL                XX000000008375232001020972000
4939MAHRI MOHAMED                 XX000000008375392001020972100
4939SOUNI MUSTAPHA                XX000000008376922001020972200
4939INEFLASS HOUDA                XX000000008380102001020972300
4939OUAGAGUE ABDERRAHMANE         XX000000008380642001020972400
4939ZANAFI YOUSSEF                XX000000008446092001020972500
4939OUALI FATIMA                  XX000000008448012001020972600
4939TAHNINE KHADIJA               XX000000008448592001020972700
4939ASSILA MAHJOUBA               XX000000008464852001020972800
4939BENYOUCEF ABDERRAZZAK         XX000000008466602001020972900
4939CHALLA NEZHA                  XX000000008467692001020973000
4939CHABBAK DRISS                 XX000000008471012001020973100
4939DRISSI FATIMA                 XX000000008479542001020973200
4939AZOKA RKIA                    XX000000008552482001020973300
4939GHALMI ZINEB                  XX000000008552562001020973400
4939ZOUGAT NAJIA                  XX000000008552782001020973500
4939AADIDOU NEZHA                 XX000000008552822001020973600
4939EL HAY MALIKA                 XX000000008552852001020973700
4939SAFIR AICHA                   XX000000008554312001020973800
4939SEFRAOUI ASMAHANE             XX000000008564252001020973900
4939GNAOUI SAADIA                 XX000000008564642001020974000
4939BAKKARI HOURIA                XX000000008620562001020974100
4939EL MENANI NADIA               XX000000008620582001020974200
4939SIDQI KHADIJA                 XX000000008620622001020974300
4939CHAMANE MINA                  XX000000008685582001020974400
4939BARAD SAIDA                   XX000000008691822001020974500
4939RAHMANI KHADIJA               XX000000008692092001020974600
4939EL MALKI EL HAJ               XX000000002651362001020974700
4939AMRANI RACHIDA                XX000000008692392001020974800
4939GHASSOULI HAFIDA              XX000000008692472001020974900
4939ZIAT FILALI FATIHA            XX000000008692512001020975000
4939EL MOUSTAQIM YAMNA            XX000000008692522001020975100
4939SOULEIMANI KELTOUM            XX000000008716652001020975200
4939KOUISSEH KHADDOUJ             XX000000008720972001020975300
4939EL MOUHALHAL SAIDA            XX000000008729132001020975400
4939MANNA EL HAIBA                XX000000008729452001020975500
4939JAMALI WAFAA                  XX000000008757552001020975600
4939OUAMMAR KHADIJA               XX000000008757642001020975700
4939BOUSSAHFA KHADIJA             XX000000008760712001020975800
4939DARDAK AATIKA                 XX000000008760922001020976000
4939ZAIMI HANANE                  XX000000008761522001020976100
4939LAHLOU BAHIJA                 XX000000008761562001020976200
4939TAHRI RABIA                   XX000000008761602001020976300
4939TAOUFIKI OMAR                 XX000000008935312001020976400
4939BELBEKR NAJI                  XX000000008937042001020976500
4939OUBELLA TAYEB                 XX000000008937892001020976700
4939ELHARBI MALIKA                XX000000008939132001020976800
4939EL KHALLADI ALLAL             XX000000003239562001020976900
4939GHAZI SAID                    XX000000003505262001020977000
4939AIT NASSER BRAHIM             XX000000006960562001020977100
4939GHARIOUI FATIMA               XX000000008965222001020977200
4939HOU ABDELKADER                XX000000008965372001020977300
4939AMARIR MOHAMMED               XX000000008965402001020977400
4939EL QADDOURI FATNA             XX000000008965472001020977500
4939MABROUK MOHAMED               XX000000008965752001020977600
4939AIT OUKHALI LATIFA            XX000000008965802001020977700
4939ABAHAZEM ABDATI               XX000000008965822001020977800
4939HARNAFI LATIFA                XX000000008968652001020977900
4939ABDATI MALIKA                 XX000000008979962001020978000
4939LGO MIMOUN                    XX000000008983362001020978100
4939MARCHICH MOHAMED              XX000000008983522001020978200
4939BARRAMI FATIHA                XX000000008983652001020978300
4939KDAD FATIMA                   XX000000008997402001020978400
4939BAHAJ NADIA                   XX000000007587892001020978500
4939ELIDRISSI MEKKI               XX000000008997942001020978600
4939BERKAL AICHA                  XX000000008997952001020978700
4939EL OUTMANI ZOHRA              XX000000009462702001020978800
4939CHAKI EZZEHIRA                XX000000009531982001020978900
4939BOUKADDOUR ZOULIKHA           XX000000009625532001020979100
4939CHIGUER AICHA                 XX000000009661812001020979200
4939ESSAADI MARIA                 XX000000009763602001020979300
4939DADDA FATIHA                  XX000000009766072001020979400
4939ALIOUA KHADIJA                XX000000009772132001020979500
4939BOURHIM M HAMED               XX000000008942292001020979600
4939NAKHILI FATIMA                XX000000009787392001020979700
4939BOULAHIA FOUZIYA              XX000000009787412001020979800
4939EL FANFANI SAIDA              XX000000009787502001020979900
4939OUCHAO ZAHRA                  XX000000009796802001020980000
4939RMICH MINA                    XX000000009797832001020980100
4939NIGGA MALIKA                  XX000000009797852001020980200
4939NABIL NADIA                   XX000000009797882001020980300
4939SABRI BOUCHAIB                XX000000010000812001020980400
4939BARKA FATIMA                  XX000000010000962001020980500
4939ABAHAR BOUCHRA                XX000000010001172001020980600
4939EL BOURAKADI KHADIJA          XX000000010001182001020980700
4939MAHBOUB FATIMA                XX000000010008032001020980800
4939RHADBANE MINA                 XX000000010008082001020980900
4939BENNOUR SELOUA                XX000000010008112001020981000
4939LAKHLAIDI TOURIYA             XX000000010008172001020981100
4939ENNABATE FATIHA               XX000000010008272001020981200
4939LAKHAL ABDELLAH               XX000000010008292001020981300
4939LAMHIOUI FATIMA               XX000000010008302001020981400
4939KHAI KHADIJA                  XX000000010012972001020981500
4939FENNOUS MALIKA                XX000000010013052001020981600
4939LAZAR AICHA                   XX000000010013112001020981700
4939HOUCAIN HANANE                XX000000010013842001020981800
4939EL KEOUALI LATIFA             XX000000010013942001020981900
4939YASSINE ZOUHRA                XX000000010013992001020982000
4939QOTBI MOUNIA                  XX000000010014062001020982100
4939BOUKHENFAR AICHA              XX000000010014602001020982200
4939SAHIL ABDESLAM                XX000000010023402001020982300
4939MALKI MOHAMMED                XX000000010023702001020982400
4939BROURI FATIMA                 XX000000010025032001020982500
4939MERZGUIOUI MOHAMED            XX000000010432582001020982600
4939FAKHIR EDDINE SOUAD           XX000000010543852001020982700
4939ELKADDOURI RACHIDA            XX000000010546232001020982900
4939CHARIAI ABDERRAHIM            XX000000010546272001020983000
4939RJIMATI HASSAN                XX000000010546292001020983100
4939ZAHRI ABDERRAZAK              XX000000010546312001020983200
4939RIKHAT MINA                   XX000000010546332001020983300
4939AGOURRAM ABDERRAHIM           XX000000010546382001020983400
4939BENHIDA ABDELGHANI            XX000000010546472001020983500
4939MOUH ABDELAZIZ                XX000000010546542001020983600
4939DOGHMI MOHAMMED               XX000000010546612001020983700
4939KHADDOU OMAR                  XX000000010546652001020983800
4939EL MESBAHI MOHAMED            XX000000010546662001020983900
4939HOUR HAKIMA                   XX000000010546722001020984000
4939KINANY MOHAMMED               XX000000010546812001020984100
4939BENRHMOUCHE MOHAMMED          XX000000010546822001020984200
4939EL MAHI MOUSSA                XX000000010546842001020984300
4939AZIM AICHA                    XX000000010546972001020984400
4939MEKOUAR ADIL                  XX000000010546992001020984500
4939ABERDIN ZAHRA                 XX000000010547242001020984600
4939BENNASSEF EL GHLIMI           XX000000010547262001020984700
4939EL AIZA SAID                  XX000000010547282001020984800
4939DAFANI RAHHAL                 XX000000010547302001020984900
4939KREKER BAHIJA                 XX000000010547702001020985000
4939LAMGHARI NAZHA                XX000000010547712001020985100
4939ELMARZAK FATIMA               XX000000010547742001020985200
4939BELMAHJOUB JAMAL              XX000000010547902001020985300
4939SABRI FAWZIA                  XX000000010547942001020985400
4939BOUISSA SOUMIA                XX000000010547952001020985500
4939BOUALLAGA AMINA               XX000000010548032001020985600
4939LAHRICHI IMANE                XX000000010548102001020985700
4939ABRADA FATIMA                 XX000000010548122001020985800
4939BENAZZI MINA                  XX000000010548132001020985900
4939ES SEMLALI AICHA              XX000000010548142001020986000
4939EL OUFIR SOUAD                XX000000010548152001020986100
4939BAROURI AZIZ                  XX000000010548272001020986200
4939CHERQAOUI MOHAMMED ETTAHIR    XX000000010548382001020986300
4939EDDAH EL HAJ                  XX000000010548402001020986400
4939BOUKHARI JAOUAD               XX000000010548512001020986500
4939DAOUDI MOHAMMED               XX000000010548862001020986600
4939MORCHID HAYAT                 XX000000010548942001020986700
4939RACHIDI ZINEB                 XX000000010548982001020986800
4939YOUSFI AMAL                   XX000000010549872001020986900
4939RGUIBI DRISSIA                XX000000010549972001020987000
4939ID ELKACHA AICHA              XX000000010550032001020987100
4939TOUBAJI MAHJOUBA              XX000000010550052001020987200
4939HAMANI MOHAMED                XX000000010550082001020987300
4939SEKKAT MOUNA                  XX000000010550112001020987400
4939RHIDOUANI MOHAMMED            XX000000010550122001020987500
4939ENNOUHI SAADEDDINE            XX000000010550372001020987600
4939AZOUA MOHAMED                 XX000000010550382001020987700
4939HAJJI YOUNESS                 XX000000010551542001020987800
4939BOUSSETA MOUNIA               XX000000010551562001020987900
4939LHAINI KHADIJA                XX000000010551982001020988000
4939HAYATE MOHAMMED               XX000000010552192001020988100
4939EL MOKH HOUDA                 XX000000010552632001020988200
4939CHERTI TAZI OUADIA            XX000000010552662001020988300
4939BENNOUNA TOURIYA              XX000000010552712001020988400
4939EL MEJJATI KHALID             XX000000010552802001020988500
4939MAROUAN NAJAT                 XX000000010552812001020988600
4939NAJI FATIMA                   XX000000010552862001020988700
4939BRITEL DRISS                  XX000000010552882001020988800
4939HAMMOUR AHMED                 XX000000010552892001020988900
4939BACHIRI EL BAUCHTAOUI         XX000000010552902001020989000
4939TOUZANI NADIA                 XX000000010552912001020989100
4939BENRHMOUCHE KARIM             XX000000010553072001020989200
4939EL HMIM SAIDA                 XX000000010553142001020989300
4939DRISSI BELGASMI SIDI MOHAMME  XX000000010553192001020989400
4939BOULAAMANE RAHMA              XX000000010553202001020989500
4939ABAKARIM MINA                 XX000000010553302001020989600
4939SABRI LAHOUCINE               XX000000010553462001020989700
4939RIBGOU NAIMA                  XX000000010553562001020989900
4939ABOUHRIA SAMIA                XX000000010553592001020990000
4939SLAMA MOHAMED                 XX000000010553612001020990100
4939DHAIBI SARA                   XX000000010553792001020990300
4939ES SAID AHMED                 XX000000010553842001020990400
4939FADIL ABDELMJID               XX000000010553852001020990500
4939HRIMACHE ABDELKADER           XX000000010553882001020990600
4939CHERQAOUI MOHAMMED            XX000000010553912001020990700
4939EL AJROUDI DRISS              XX000000010553922001020990800
4939EDDOQ TOURIA                  XX000000010554062001020990900
4939FATHI AZIZA                   XX000000010554072001020991000
4939IAZOUZAN FATIMA               XX000000010554082001020991100
4939BENMESSAOUD ABDERRAHIM        XX000000010554092001020991200
4939HIMDI FATIHA                  XX000000010554102001020991300
4939OUAFI KARIMA                  XX000000011298252001020991400
4939BOURJLATE ISMAIL              XX000000011426472001020991500
4939BENKHALLOUQ MOHAMED           XX000000011426712001020991600
4939ABDELHAQ KHADIR               XX000000011426752001020991700
4939MAZIGHA MOHAMMED              XX000000011426772001020991800
4939ANOUAR MOHAMED CHAFIQ         XX000000011426872001020992000
4939AZOUA MUSTAPHA                XX000000011426912001020992100
4939FAIK BOUCHRA                  XX000000011427132001020992300
4939ZIKAR FATNA                   XX000000011427222001020992400
4939MACHFOUA NABILA               XX000000011427292001020992500
4939KHATORI NAIMA                 XX000000011427352001020992600
4939BENNANI IMANE                 XX000000011427552001020992700
4939NOUIJI HAYAT                  XX000000011427582001020992800
4939AIT BOUICHCHOU BOUCHRA        XX000000011427662001020992900
4939EL MOUTAOUKIL LAMIAA          XX000000011427752001020993000
4939MAGANI RACHIDA                XX000000011427892001020993100
4939HASSANE NORA                  XX000000011428022001020993300
4939HAMOUROU JAMILA               XX000000011428032001020993400
4939EL MASYKY FATIHA              XX000000011428072001020993500
4939RAFIK AICHA                   XX000000011428172001020993600
4939KASSIMI KHALID                XX000000011428212001020993700
4939ESSENOUSI FATIMA ZOHRA        XX000000011428242001020993800
4939EL HALIMI RIDA                XX000000011428262001020993900
4939BOUMNIDEL ANISSA              XX000000011428292001020994000
4939TALHA SOUMAYA                 XX000000011428302001020994100
4939BERD HANANE                   XX000000011428362001020994200
4939YASSINE KARIMA                XX000000011428372001020994300
4939SENHAJI AICHA                 XX000000011428412001020994400
4939SLAOUI KHADIJA                XX000000011428452001020994500
4939ABADY MOHAMED                 XX000000011429152001020994600
4939OULABASSE KHADOUJ             XX000000011429252001020994700
4939GUERTITE IDRISS               XX000000011429342001020994900
4939SEBBAR LOUBNA                 XX000000011430422001020995000
4939ZAROUALI CHAKKORI OTMAN       XX000000011430442001020995100
4939EL JARHAOUI NEZHA             XX000000011430512001020995200
4939TAHIRI MY ABDELAZIZ           XX000000011430542001020995300
4939BOUDIR FATIHA                 XX000000011430612001020995500
4939TAHIRI NOURA                  XX000000011430652001020995600
4939CHTATOU HASSANE               XX000000011430662001020995700
4939AIT IDER KHADIJA              XX000000011430682001020995800
4939IDHAMOUJAMA LAHCEN            XX000000011430742001020996000
4939EL KEMIA BENAISSA             XX000000011430802001020996100
4939OUAZZANI TOUHAMI FOUAD        XX000000011430812001020996200
4939TANTANE ABDELALI              XX000000011430962001020996300
4939OUDRHIRI KHADIJA              XX000000011431002001020996400
4939LAMZOURI SAID                 XX000000011431262001020996500
4939MOUAILY SAID                  XX000000011431302001020996600
4939CHAKIR NADIA                  XX000000011431432001020996700
4939ZIOUANI MOURAD                XX000000011431492001020996800
4939BENTAYEK HAFID                XX000000011433182001020996900
4939KLIBI HATIM                   XX000000011433202001020997000
4939EZ ZITOUNI HABBAZ             XX000000011433222001020997100
4939QESSAD HASSAN                 XX000000011433282001020997200
4939RAKCHO MOHAMMED               XX000000011433302001020997300
4939AIT BOUDAR RABHA              XX000000011433312001020997400
4939MOFADEL HASSAN                XX000000011433332001020997500
4939JANATI NAJAT                  XX000000011433382001020997600
4939OUMARI LAHOUCINE              XX000000011433682001020997800
4939ACHABAK ABDELILAH             XX000000011433692001020997900
4939SAKINE NOURADDINE             XX000000011433852001020998300
4939EL KAMLI SAID                 XX000000011433912001020998400
4939FAIZ FARIDA                   XX000000011433922001020998500
4939EL KHARBOUCHI HAMID           XX000000011433972001020998600
4939ERRADE BENAISSA               XX000000011688082001020998700
4939EL BADAOUI ABDELLAH           XX000000011688232001020998800
4939BOUJEMRI LAHOUCINE            XX000000011688242001020998900
4939ZERDAHI NADIA                 XX000000011688312001020999000
4939ZAIOUD FATIHA                 XX000000011688322001020999100
4939MARHBA MALIKA                 XX000000011688372001020999200
4939TAJE EDDINE FAIZA             XX000000011688382001020999300
4939BACHKAR ZAHIRA                XX000000011688432001020999400
4939RADI FATIMA                   XX000000011688442001020999500
4939JABIR RACHIDA                 XX000000011688482001020999600
4939OURIZ LATIFA                  XX000000011688622001020999700
4939MEROUANE MBARKA               XX000000011688642001020999800
4939LAGHMADI SAMIRA               XX000000011688672001020999900
4939HILAL BADIA                   XX000000011688732001021000000
4939LAGRAMEH RABIA                XX000000011688862001021000100
4939BIADI ILHAM                   XX000000011688872001021000200
4939ZAID LATIFA                   XX000000011688902001021000300
4939NASSIHI RABIAA                XX000000011688932001021000400
4939FOUADI NAJAT                  XX000000011688942001021000500
4939ABIDA SOUAD                   XX000000011688952001021000600
4939EL HABCHI KHADIJA             XX000000011689002001021000700
4939BENABBOU SOUAD                XX000000011689052001021000800
4939BENHAMOU KARIMA               XX000000011689062001021000900
4939CHIGUER BELAID                XX000000011689142001021001000
4939LABIYAD BOUCHRA               XX000000011689152001021001100
4939EZZIDOUNI ELMIMOUNI NAIMA     XX000000011689162001021001200
4939SAAJI MINA                    XX000000011689182001021001300
4939ESSABI ZAHRA                  XX000000011689212001021001400
4939BOUMENJEL NAJAT               XX000000011689252001021001500
4939SBAA NAJAT                    XX000000011689392001021001600
4939EL MELLIHI SAMIRA             XX000000011689422001021001700
4939MAIMOUNI MOHAMMED             XX000000011689462001021001800
4939IGIOUI LATIFA                 XX000000011689562001021001900
4939ARHIL KHADIJA                 XX000000011689602001021002000
4939AL KADAOUI SAMIRA             XX000000011690112001021002100
4939LAAZIBI NAJIHA                XX000000011690132001021002200
4939MIZOU ADIL                    XX000000011690292001021002300
4939SALHI HASSANE                 XX000000011690352001021002400
4939BOUTKROUMT FOUAD              XX000000011690542001021002500
4939RGHIOUI KAOUTAR               XX000000011690582001021002600
4939MOUSSAOUI MOHAMED             XX000000011690692001021002700
4939BOUSSENNA MINA                XX000000011690732001021002800
4939BOULAHLIB LALLA SAADIA        XX000000011690812001021002900
4939BANA ABDELOUAHED              XX000000011690822001021003000
4939ACHANDIR ABDELLAH             XX000000011690852001021003100
4939HAFDI MOHAMED                 XX000000011691092001021003200
4939KHALOUTA ABDELOUAHED          XX000000011691132001021003300
4939BAHLOU HAFIDA                 XX000000011691292001021003400
4939HAMEDDINE ABDELMJID           XX000000011691332001021003500
4939SOUIBA MERIEM                 XX000000011691362001021003600
4939EL HAIBA KHALID               XX000000011691802001021003700
4939ACHAK RIDOINE                 XX000000011692052001021003800
4939REDDAD MOHAMED                XX000000011692082001021003900
4939MAIDEN ADIL                   XX000000011692162001021004000
4939JAMJAMA SAID                  XX000000011692182001021004100
4939EL JAHOUANI NOUR EDDINE       XX000000011692242001021004200
4939IBNECHRYF HASNA               XX000000011692422001021004300
4939DAMKAL MOHAMED                XX000000011692522001021004400
4939NIFI RADOUANE                 XX000000011692702001021004500
4939LAAFISSE HICHAM               XX000000011692762001021004600
4939KALOULI ABDELKADER            XX000000011692952001021004700
4939TLOUSSI LAAZIZA               XX000000011692972001021004800
4939EL HARRADI KHADIJA            XX000000011692992001021004900
4939HAMDOUCH MALIKA               XX000000011693072001021005000
4939MERNISSI BOUJAMAA             XX000000011693082001021005100
4939ADDOU HASSAN                  XX000000011693112001021005200
4939BOULAALA BOUBCHER             XX000000011693172001021005300
4939LAABOUDI IBTIHAJ              XX000000011693272001021005400
4939HAMITI AMAL                   XX000000011693312001021005500
4939BOUAROUQ AZIZA                XX000000011693322001021005600
4939DOUKKALI SAIDA                XX000000011693332001021005700
4939EL IDRISSI MOULAY IDRISS      XX000000011693542001021005800
4939BNINECH HASSAN                XX000000011693642001021005900
4939MRANI MERYEME                 XX000000011693832001021006000
4939EL FARGALI MOHAMED            XX000000011694002001021006100
4939BENALI FATIMA ZOHRA           XX000000011694502001021006200
4939LAARIBI ABDELKADER            XX000000011694592001021006300
4939AKERMACH ISSAM                XX000000011694702001021006400
4939EL FILALI YOUSSEF             XX000000011694802001021006500
4939RHOUNI MUSTAPHA               XX000000011694862001021006600
4939ESSERADI MOHAMED              XX000000011694902001021006700
4939FETTAH ALI                    XX000000011695042001021006800
4939EL BOUKFAOUI MY RACHID        XX000000011695062001021006900
4939BARKA HASSAN                  XX000000011695112001021007000
4939CHAQRI YOUSSEF                XX000000011695202001021007100
4939NAFZAOUI HASSANIA             XX000000011695212001021007200
4939CHAHID MOHAMED                XX000000011695232001021007300
4939KHRIBECH AZYZ                 XX000000011695242001021007400
4939LAMINI SIDI MOHAMED           XX000000011695282001021007500
4939BOURAMDANE ABDELAAZIZ         XX000000011695322001021007600
4939BADRI OMAR                    XX000000011695342001021007700
4939AKDIM AHMED                   XX000000011695372001021007800
4939DAHMANI NAJIM                 XX000000011695422001021007900
4939ES SOULAMI ABDERRAHIM         XX000000011695552001021008000
4939QADRI NOR EDDINE              XX000000011695592001021008100
4939BAKKACHI MOHAMED              XX000000011695602001021008200
4939ZIANI AICHA                   XX000000011695692001021008300
4939ELOUARDI TOURIA               XX000000011695802001021008400
4939MRIBAT NAIMA                  XX000000011695832001021008500
4939ANAIOUB FATIMA ZAHRA          XX000000011695852001021008600
4939EL OIROIR MBARK               XX000000011695942001021008700
4939BEN LAZRAK FATIMA             XX000000011695962001021008800
4939SLIMANI BOUCHRA               XX000000011696002001021008900
4939IDELMOU ZAHRA                 XX000000011696022001021009000
4939EL HALOUANI JAMILA            XX000000011696172001021009100
4939AYYAD ZOUBIDA                 XX000000011696332001021009200
4939EL ABKARI NAJIA               XX000000011696382001021009300
4939RHARARA KHADIJA               XX000000011696392001021009400
4939ESSAOUDI ABDELTIF             XX000000011696512001021009500
4939CHAABI BADIAA                 XX000000011696612001021009600
4939KANNANE ZOHRA                 XX000000011696632001021009700
4939HANDAZE RAJAA                 XX000000011696672001021009800
4939OUENZA HOUDA                  XX000000011696682001021009900
4939SANAA MAKANI                  XX000000011696692001021010000
4939BAYADARA RACHIDA              XX000000011696712001021010100
4939SAMIT MALIKA                  XX000000011696742001021010200
4939CHARKI ASMAE                  XX000000011696842001021010300
4939KHADIJA TIOUASSIOUINE         XX000000011696892001021010400
4939BAROUDA SOUAD                 XX000000011696952001021010500
4939CHAOUKI HAKIMA                XX000000011696962001021010600
4939ESHAIMI ASMAE                 XX000000011697022001021010700
4939BEN HSAIN HOUDA               XX000000011697032001021010800
4939HAJJAJ NOUR EL HOUDA          XX000000011697142001021010900
4939LAZRAGUE LAAZIZA              XX000000011697202001021011000
4939BEN HADDADI SAMIRA            XX000000011697212001021011100
4939TAMOUH KELTOUM                XX000000011697232001021011200
4939LAROUSSI HASSAN               XX000000011697342001021011300
4939EL AMRAOUI SIDI MOUH          XX000000011697422001021011400
4939SAHRAOUI HANANE               XX000000011697442001021011500
4939OUARAINI FATIMA               XX000000011697472001021011600
4939MAAZOUZ NAIMA                 XX000000011697512001021011700
4939EL MOUNACHIT FADNA            XX000000011697542001021011800
4939ARDDICHE LAHCEN               XX000000011697912001021011900
4939RIKHAT FATIMA                 XX000000008997442001021012000
4939ABDELKAHAR NACEUR             XX000000012297482001021012100
4939BOUTAKY YOUNES                XX000000012297552001021012200
4939KRAICHY ABDELKABIR            XX000000012297572001021012300
4939BEN YACHOU AHMED              XX000000012297582001021012400
4939JAIT HICHAM                   XX000000012297672001021012500
4939DARDOURI MOHAMED              XX000000012297682001021012600
4939BOUGDALI MOHAMED              XX000000012297722001021012700
4939BOUSSAKKA MOHAMED ALI         XX000000012297802001021012900
4939BOUJOUJOU BRAHIM              XX000000012297812001021013000
4939HMAMOU BRAHIM                 XX000000012297882001021013100
4939BENBRAHIM EL HASSAN           XX000000012297892001021013200
4939LAGHZAL SOUILEM               XX000000012297922001021013300
4939BOUMATA EL HASSAN             XX000000012297982001021013600
4939MUSTAPHA EL ANSARI            XX000000012298332001021013700
4939LALLA LADIBA MAALAININE       XX000000012298352001021013800
4939NAJEM BRAHIM                  XX000000012298382001021013900
4939ACHBANI BRAHIM                XX000000012298462001021014000
4939BELAYDI YOUNESS               XX000000012298532001021014100
4939ARSSI FAHD                    XX000000012298542001021014200
4939MAKBOULI KHADIJA              XX000000012298642001021014300
4939WAHIB HASSAN                  XX000000012298662001021014400
4939BOUAIADI NOUZHA               XX000000012298752001021014500
4939SOUIYAH MAHMOUD               XX000000012298842001021014600
4939EZZAHOULI BRAHIM              XX000000012298912001021014700
4939BOUTEMNI M BAREK              XX000000012298932001021014800
4939AYZOUK MOHAMED                XX000000012298982001021014900
4939EL FATOUAKI ABDERRAHIM        XX000000012299022001021015000
4939RAMZANE CHAFIK                XX000000012299062001021015100
4939MELLAGUI KHALID               XX000000012299072001021015200
4939TOUIL HICHAM                  XX000000012299152001021015300
4939BENALLAL ABDELLAH             XX000000012299952001021015400
4939AIT AADI RABIAA               XX000000012300002001021015500
4939ESMAALI FOUZIYA               XX000000012300052001021015600
4939BENIZ ABDELLAH                XX000000012300452001021015700
4939SHIMI MOHAMED                 XX000000012300602001021015800
4939JBOUB MOHAMED                 XX000000012300722001021015900
4939OUAHMANE BRAHIM               XX000000012300972001021016000
4939ZAID RAHAL                    XX000000012301132001021016100
4939BENLEHROUKI LAHSEN            XX000000012301412001021016200
4939TOUATI LMEHDI                 XX000000012301542001021016300
4939BAKOUH FARIDA                 XX000000012301762001021016400
4939HALIM DRISS                   XX000000012302062001021016600
4939BRICHA SAID                   XX000000012302182001021016700
4939OULAOUCH NABIL                XX000000012302242001021016800
4939ESSOUBKI ABDERRAHIM           XX000000012303092001021016900
4939MACHFOUA MUSTAPHA             XX000000012303102001021017000
4939QADI HANANE                   XX000000012303112001021017100
4939NAKACH ABDERRAHMAN            XX000000012303172001021017200
4939OUMIMOUNE FATIMA              XX000000012304702001021017300
4939MANSOURI YASSIN               XX000000012304742001021017400
4939RAHMANI FATNA                 XX000000012304752001021017500
4939KESSOU KHADIJA                XX000000012304792001021017600
4939ALAHOUI KAMAL                 XX000000012304812001021017700
4939ABKARI BOUAMAR                XX000000012304882001021017800
4939MOUNIM RACHID                 XX000000012305002001021017900
4939ASSEFIANI MOHAMMED LARBI      XX000000012305162001021018000
4939BENBA ESSAID                  XX000000012305212001021018100
4939BENHIDA MOHAMED HALIM         XX000000012305232001021018200
4939ACHERGUI RACHID               XX000000012305262001021018300
4939AIT BOULAID MOHAMED           XX000000012305302001021018400
4939EL HASSANE RIDOUANE           XX000000012305312001021018500
4939ABOULISSANE SAID              XX000000012305332001021018600
4939MEKAOUI TAOUFIK               XX000000012305472001021018700
4939ZEJLY FATIMA                  XX000000012305572001021018800
4939BENHIDA NAJAT                 XX000000012305622001021018900
4939NEMROUCH NAOUFAL              XX000000012305752001021019000
4939ZHAD ALI                      XX000000012306162001021019100
4939TAH MOSTAFA                   XX000000012306172001021019200
4939MACHE HANANE                  XX000000012306312001021019300
4939SAMI FATIHA                   XX000000012306412001021019400
4939ERRACHIDI FAOUZIA             XX000000012306442001021019500
4939ZAGHI NAOUAL                  XX000000012306502001021019600
4939MORJANE AICHA                 XX000000012306692001021019700
4939MEADANI FIHRIA                XX000000012306702001021019800
4939ALIF JAMILA                   XX000000012306712001021019900
4939SAIDI HANANE                  XX000000012306722001021020000
4939EL QANDALI SAMIRA             XX000000012306752001021020100
4939RIZQI DALILA                  XX000000012306792001021020200
4939NAIT MOUSSA AICHA             XX000000012306802001021020300
4939CHEMAA LATIFA                 XX000000012306872001021020400
4939CHAIRI SAMIRA                 XX000000012306892001021020500
4939SAAD FOUZIA                   XX000000012426422001021020600
4939EL MESSAOUDI ABDELLAH         XX000000012466502001021020700
4939MALIKI NEZHA                  XX000000012722712001021020800
4939HIJAZI KARIMA                 XX000000012722802001021020900
4939BANNID YAMINA                 XX000000012722852001021021000
4939ZITOUNI JAMILA                XX000000012722862001021021100
4939EL YAZIOUI KARIM              XX000000012722872001021021200
4939ELOUAHDI LATIFA               XX000000012722882001021021300
4939KACHADE KHADIJA               XX000000012722932001021021400
4939RAMLY CHAIBIA                 XX000000012723142001021021500
4939EL KAHL MOHAMED LAGHDAF       XX000000012723242001021021600
4939IZIKI NAJIMA                  XX000000012724742001021021700
4939CHAFI HAMID                   XX000000012724842001021021800
4939EL MENSIFI BRAHIME            XX000000012724982001021021900
4939ZENATI SABRINE                XX000000012724992001021022000
4939ILLOUSSAMEN NOUAMA            XX000000012726202001021022100
4939OUTROUHALTE FATIMA            XX000000009786932001021022200
4939BRITEL KHADIJA                XX000000012726702001021022300
4939EL BOUZIDI ABDELILAH          XX000000012726712001021022400
4939EL KOSS SIF-EDDINE            XX000000012726742001021022500
4939SERKOUH LAHBIB                XX000000012728192001021022600
4939EL MAANAOUI EL GHALIA         XX000000012728202001021022700
4939LAKHAL ZINEB                  XX000000012728212001021022800
4939MAGANI MALIKA                 XX000000012728252001021022900
4939EL FATIMI SAADIA              XX000000012728332001021023000
4939OUSBAAI AICHA                 XX000000012728382001021023100
4939TAHIRI KARIMA                 XX000000012728412001021023200
4939ELOUATY MOHAMED               XX000000012728512001021023300
4939HAMLI FATNA                   XX000000012728592001021023400
4939ARRAJI YOUSSEF                XX000000012728612001021023500
4939EL JAMAAI NAJAT               XX000000012728672001021023600
4939EL KHATTAB KHADIJA            XX000000012728702001021023700
4939RIACHE JAMILA                 XX000000012728712001021023800
4939BAJAD KHADIJA                 XX000000012728762001021023900
4939EL ARAJI R KIA                XX000000012728772001021024000
4939KAZ BOUCHRA                   XX000000012728782001021024100
4939AIT ABDELLAH LAHBIB           XX000000012728832001021024200
4939AMAGAR FATIMA                 XX000000012728882001021024300
4939TIMNOUNI FATIHA               XX000000012728892001021024400
4939BCHIRI SAMIRA                 XX000000012728942001021024500
4939AIT OULAHYANI MUSTAPHA        XX000000012729002001021024600
4939EL ANSARI ZINEB               XX000000012729162001021024700
4939KRIMAS ASMAE                  XX000000012729172001021024800
4939EL HARRAK SOUMAYA             XX000000012729192001021024900
4939BENAISSA NADIA                XX000000012729272001021025000
4939EL KOUCHI MALIKA              XX000000012729292001021025100
4939EL KARKACHI AMAL              XX000000012729322001021025200
4939BELAFKIH LAILA                XX000000012729362001021025300
4939BIFENZI YOUSSEF               XX000000012729382001021025400
4939AFROUKH BRAHIM                XX000000012729392001021025500
4939EL AIMOURI MOHAMMED           XX000000012729422001021025600
4939ALZARI NAJOUA                 XX000000012729542001021025700
4939SABBOURI SAIDA                XX000000012729572001021025800
4939BAYCHOU ALLAL                 XX000000012729582001021025900
4939ARCHOUNE YOUSSEF              XX000000012729712001021026000
4939MAAMOUR LAILA                 XX000000012729732001021026100
4939HAZIM NAJIA                   XX000000012729782001021026200
4939LOISKARI REDOUANE             XX000000012729862001021026300
4939SAIDI FATIMA                  XX000000012729872001021026400
4939KARA ABDELLAH                 XX000000012729952001021026500
4939MOUMINE RAJA                  XX000000012730032001021026600
4939LAHOUIYAT HANANE              XX000000012730582001021026700
4939OUAID SAID                    XX000000012730722001021026800
4939BOUSSAG SAID                  XX000000012731042001021026900
4939BOUFELJA RACHIDA              XX000000012731102001021027000
4939IGHIRIGUEN SAID               XX000000012731132001021027100
4939OUGUNIR RKIA                  XX000000012731142001021027200
4939MOUDNI AHMED                  XX000000012732342001021027400
4939EL AJROUDI MOUNIR             XX000000012732392001021027500
4939OUHAMOU FATIMA                XX000000012732602001021027600
4939AHAMAM MINA                   XX000000012732652001021027700
4939OUJAK YOUSSEF                 XX000000012745462001021027800
4939BOURJA YOUSSEF                XX000000013187142001021027900
4939BENABBOU NABIL                XX000000013554832001021028000
4939ZIYANI EL FATMI               XX000000013753822001021028100
4939ASSOUANE KHADIJA              XX000000013753852001021028200
4939BOUCHALGA MANAFAL             XX000000013753872001021028300
4939SANOUAR NOURA                 XX000000013753932001021028400
4939LAGNAOUI ABDERRAHIM           XX000000013754002001021028500
4939LAHFIDI YOUSSEF               XX000000013754052001021028600
4939BOUIKOURDASSEN AHMED          XX000000013754292001021028700
4939MOUMENE BRAHIM                XX000000013754322001021028800
4939AIT SAID ADIL                 XX000000013754362001021028900
4939DAROUICH YOUNS                XX000000013754382001021029000
4939IKHLEF SOAD                   XX000000013754422001021029100
4939KHALIL HASNA                  XX000000013754502001021029200
4939BORJA RACHID                  XX000000013754532001021029400
4939OUIRRA FATIHA                 XX000000013754552001021029500
4939SAAI EL HAQ HOURIA            XX000000013754562001021029600
4939BAKHTAOUI FOUAD               XX000000013754572001021029700
4939GHAZOUANI MOHAMMED AMINE      XX000000013754632001021029800
4939ALLACH NOURA EHSAN            XX000000013754752001021029900
4939NAJJAT SOUMIA                 XX000000013754782001021030000
4939BOURQUIZ HICHAM               XX000000013754802001021030100
4939BENKRIOU SAIDA                XX000000013754812001021030200
4939SALIM YOUNESS                 XX000000013754842001021030300
4939EL MOSTAKSI SANA              XX000000013754852001021030400
4939HORR BOUTHEINA                XX000000013754882001021030500
4939BAJOURI TAMOU                 XX000000013754912001021030600
4939EL HOUARI SAID                XX000000013754952001021030700
4939ZAMAOUI MOHAMED               XX000000013754992001021030800
4939AIT HAMMOU KHADIJA            XX000000013755002001021030900
4939LAAFOUI BTISSAM               XX000000013755082001021031000
4939MAIMOUNI MERIEM               XX000000013755172001021031100
4939IMEZIREN RAMZI                XX000000013755202001021031200
4939ROUDI SAMIRA                  XX000000013755392001021031300
4939CHEIKH YOUSSEF                XX000000013755712001021031400
4939MOUSTACHI SALMAA              XX000000013755722001021031500
4939SEBBAR MARIAM                 XX000000013755782001021031600
4939BOU OUKHERS ASMA              XX000000013755792001021031700
4939DAFANI YOUSSEF                XX000000013755802001021031800
4939ELMADANI OUMNIA               XX000000013755812001021031900
4939MOHAMED OMAR-OU-BRAHIM        XX000000013755832001021032000
4939BENJELLOUL NAJOUA             XX000000013755932001021032100
4939KADDAR RACHID                 XX000000013755952001021032200
4939EL FETKHANI AMINA             XX000000013756052001021032300
4939SOUFIANE FARID                XX000000013756162001021032400
4939ENNABOULSSI FOUZIA            XX000000013756192001021032500
4939MACHROUHI MOHAMMED            XX000000013756232001021032600
4939BETIT EL MOKHTAR              XX000000013756252001021032700
4939NAJATI GHIZLANE               XX000000013756312001021032800
4939EL MOUFLIH ASMAA              XX000000013756322001021032900
4939BOUREZZA ELMOUSTAFA           XX000000013756402001021033000
4939KHAYATI LAHCEN                XX000000013757552001021033100
4939ELAIDOUNI HICHAM              XX000000013757742001021033200
4939TAKI NOURA                    XX000000013758022001021033300
4939ZAID MOHAMED                  XX000000013758032001021033400
4939FASKA ILHAM                   XX000000013758362001021033500
4939EL KARYANI AZIZ               XX000000013758452001021033600
4939SIFI HASSAN                   XX000000013758542001021033700
4939EL HARROUACH BRAHIM           XX000000013758782001021033800
4939LAMJADI BRAHIM                XX000000013759062001021033900
4939BELMEKKI LAILA                XX000000013759352001021034000
4939EL YADDALI MAHICHAINA         XX000000013759402001021034100
4939MANSOURI FATIMA ZAHRA         XX000000013761362001021034200
4939OUMEZZI HICHAM                XX000000013761422001021034300
4939ABOUTAYEB MUSTAPHA            XX000000014076842001021034400
4939OUAHID ISMAIL                 XX000000014621142001021034500
4939KHOUFALLAH HASNA              XX000000015135072001021034600
4939BENMABROUK SABAH              XX000000015135142001021034700
4939ELFAIZ SAADIA                 XX000000015135212001021034800
4939BOUALLOUCHI MOHAMED           XX000000015135642001021034900
4939AHOURRI LAILA                 XX000000015135722001021035000
4939EL AADMI MOHAMED              XX000000015135742001021035100
4939CHAMIL EL MEHDI               XX000000015135782001021035200
4939EL AKKARI HASNA               XX000000015135812001021035300
4939ABDELKHALAK YOUNES            XX000000015135832001021035400
4939BOUMEDIANE HAMID              XX000000015135902001021035500
4939MAZZAL CHEAIB                 XX000000015135972001021035600
4939RHABBARI NABIL                XX000000015135982001021035700
4939FARAS MOHAMMED                XX000000015136002001021035800
4939DAAMACH YOUSSEF               XX000000015136032001021035900
4939BAKAOUA KELTOUM               XX000000015136132001021036000
4939CHATOUANE AHMED               XX000000015136382001021036100
4939LABBAR MOHAMMED               XX000000015136392001021036200
4939LAMRAOUI BOUCHRA              XX000000015136522001021036300
4939SBAY NAIMA                    XX000000015136532001021036400
4939BANJAJ ABDENBI                XX000000015136702001021036500
4939ACHNINE RACHID                XX000000015136932001021036600
4939SOUJAA AMAL                   XX000000015137072001021036700
4939ELKHAOUAJA RADOUANE           XX000000015137142001021036800
4939MILOUDI YOUSSEF               XX000000015137162001021036900
4939BADIL MOHAMMED                XX000000015137332001021037000
4939LAFKIR RACHIDA                XX000000015137382001021037100
4939ACHIK MY ISMAIL               XX000000015137402001021037200
4939GHAOUAT MOHAMMED              XX000000015137412001021037300
4939BLATSOU TASLEM                XX000000015137432001021037400
4939EL AILI MOHAMMED              XX000000015137512001021037500
4939ABDELMOUTTALIB NAJIB          XX000000015137552001021037600
4939CHARAQA YOUNESS               XX000000015137592001021037700
4939MAZZAR HAMZAE                 XX000000015137642001021037800
4939NOUINI MOHAMMED               XX000000015137672001021037900
4939EL JALILI ILIASS              XX000000015137762001021038000
4939BOUKRIM YASSINE               XX000000015137822001021038100
4939MAJBER MOUNIR                 XX000000015137832001021038200
4939MIMOUNI YASSINE               XX000000015137872001021038300
4939MOUSTAFI ADIL                 XX000000015137962001021038400
4939EL FOUHI MOHAMMED AMINE       XX000000015137992001021038500
4939AZIZI AHMED MOHAMMED          XX000000015138042001021038600
4939NADDAM FATIMA EZZAHRA         XX000000015138072001021038700
4939EL HADOUCHI REDOUANE          XX000000015138112001021038800
4939BAKHTAOUI AMINE               XX000000015138162001021038900
4939AKOUAM SAID                   XX000000015138182001021039000
4939YANNA HANANE                  XX000000015138232001021039200
4939BERNAOUI ZINEB                XX000000015139912001021039300
4939LAROUI ZEHOUA                 XX000000015139932001021039400
4939RICH RAHMA                    XX000000015140112001021039500
4939BERNI WAFA                    XX000000015140182001021039600
4939SOUHDI SAID                   XX000000015140272001021039700
4939MOUFAKKIR ADIL                XX000000015140432001021039800
4939BAAJI SAID                    XX000000015140442001021039900
4939EL AMRI MUSTAPHA              XX000000015140452001021040000
4939BENBELAID AICHA               XX000000015140472001021040100
4939BOUAJAJ SABAH                 XX000000015140502001021040200
4939HARATI NAIMA                  XX000000015140612001021040300
4939HAMMOUCH HASNAE               XX000000015140652001021040400
4939CHAIRI AMAL                   XX000000015140682001021040500
4939BENBELAID NADIYA              XX000000015140742001021040600
4939LAGNAOUI LOUBNA               XX000000015140832001021040700
4939BOULISSE LAILA                XX000000015140862001021040800
4939OURDAL NADIA                  XX000000015140952001021040900
4939BOUGHDAD ADIL                 XX000000015140962001021041000
4939DIHAJI LAMYAE                 XX000000015141062001021041100
4939EL HAFDI ADIL                 XX000000015141092001021041200
4939MAHBOUB NAOUAL                XX000000015141122001021041300
4939EZZRHARI NADIA                XX000000015141142001021041400
4939BITCHOU SIHAM                 XX000000015141152001021041500
4939EL HAMMOUDI ASSIYA            XX000000015141192001021041600
4939EL ALAOUI HAJAR               XX000000015141212001021041700
4939CHAHID HALIMA                 XX000000015141232001021041800
4939MOUJIB RACHID                 XX000000015141292001021041900
4939ISMAOUI RACHID                XX000000015141302001021042000
4939MOUHARRIR ASMAA               XX000000015141312001021042100
4939CHTIOUI ADIL                  XX000000015141362001021042200
4939LAFTIMI RACHID                XX000000015141372001021042300
4939BENABBOU SAMYA                XX000000015141382001021042400
4939NABBAR WAFAA                  XX000000015141442001021042500
4939KAIDI YAMNA                   XX000000015141472001021042600
4939EL IDRYSY FATIMA              XX000000015141512001021042700
4939AIT IDDER NOURA               XX000000015141522001021042800
4939LASFAR DRISS                  XX000000015141562001021042900
4939NEBDAOUI NORA                 XX000000015141652001021043000
4939MABSOR SAMIRA                 XX000000015141712001021043100
4939KAHLAOUI KHADIJA              XX000000015141832001021043200
4939AMAHOUL HASSAN                XX000000015142012001021043300
4939LAMRANI LALLA HASNA           XX000000015142072001021043400
4939AZOUGUEGH EL MUSTAPHA         XX000000015142082001021043500
4939EL BACHIRY SAIDA              XX000000015142132001021043600
4939BEKRY ADYL                    XX000000015142222001021043700
4939ADEL FATIMA ZAHRA             XX000000015142252001021043800
4939BOUCHEDOR NAIMA               XX000000015142282001021043900
4939MASSAOUDI SANA                XX000000015142292001021044000
4939BAROUDA FARIDA                XX000000015142342001021044100
4939EL MANSOURI FATIMA            XX000000015142362001021044200
4939EL GHAZI SAIDA                XX000000015142402001021044300
4939HADDAD LOUBNA                 XX000000015142462001021044400
4939MEZAREA MERYEM                XX000000015142492001021044500
4939TAOUIL FATIMA                 XX000000015142502001021044600
4939EL GHAZAL SIHAM               XX000000015142612001021044700
4939SOMATI HOURIA                 XX000000015142712001021044800
4939SANDALI MOHAMED               XX000000015142802001021044900
4939ACHCHAOUI FATIMA              XX000000015142812001021045000
4939FELGHAT ABDELLAH              XX000000015142822001021045100
4939ACHEHAL MOHAMED               XX000000015142842001021045200
4939MOURHARH BOUCHRA              XX000000015142852001021045300
4939EL BIDANI FOUZI               XX000000015142872001021045400
4939EL MANDILI LALLA HASNA        XX000000015142942001021045500
4939BOUCETTA NEZHA                XX000000015142972001021045600
4939AQNOUCH MALIKA                XX000000015142982001021045700
4939HANDAJI AHLAM                 XX000000015143002001021045800
4939EL IBRAHIMI LATIFA            XX000000015143012001021045900
4939ARRAHI AZIZA                  XX000000015143022001021046000
4939LAAOUINA WAFA                 XX000000015143052001021046100
4939OUMANSOUR REDOUANE            XX000000015143102001021046200
4939EL BOUCHNANI RACHIDA          XX000000015143182001021046300
4939OUMLIL AICHA                  XX000000015143202001021046400
4939LACHGAR NAJAT                 XX000000015143392001021046500
4939LAMBARKI BATOUL               XX000000015143402001021046600
4939MAYARA AICHA                  XX000000015143412001021046700
4939EL KHOLTI KHADIJA             XX000000015143422001021046800
4939ADNAN MARIAM                  XX000000015143442001021046900
4939EDDAOUDI HASNA                XX000000015143502001021047000
4939ENNAFFAA LAMINA               XX000000015143512001021047100
4939HRIACH SOUMIA                 XX000000015143622001021047200
4939BOUKOUS RAJAA                 XX000000015143902001021047300
4939CHALLOUH HANANE               XX000000015143972001021047400
4939BENBACHIR SAMIRA              XX000000015143992001021047500
4939ZRIOUEL MERIEME               XX000000015144032001021047600
4939LAHNINE IMANE                 XX000000015144092001021047700
4939BOULAHKA HOUDA                XX000000015144112001021047800
4939LAMARTI KAOUTAR               XX000000015144122001021047900
4939BAHDA MAJDA                   XX000000015144152001021048000
4939EL BAHJA NAWAL                XX000000015144192001021048100
4939ABOUHMAD MINA                 XX000000015144242001021048200
4939FOUKAL AMAL                   XX000000015144292001021048300
4939EL BAOUDI AMINA               XX000000015144312001021048400
4939ASSAD BOUCHRA                 XX000000015144402001021048500
4939NASEF BADIA                   XX000000015144472001021048600
4939AGNAOU AICHA                  XX000000015144492001021048700
4939EL OUAHAB SAMIRA              XX000000015144642001021048800
4939KHEROUAA LOUBNA               XX000000015144852001021048900
4939CHEKYO FATIMA ZAHRA           XX000000015144882001021049000
4939TAMAOUI FARIDA                XX000000015532512001021049100
4939HAMMAD LAILA                  XX000000015532622001021049200
4939BAKKACHA LOUBNA               XX000000015532662001021049300
4939EL OUADI ZINEB                XX000000015532672001021049400
4939BELHADDAR KARIMA              XX000000015532732001021049500
4939AYCHATI MARIEM                XX000000015532742001021049600
4939ACHBOUQ NAIMA                 XX000000015532952001021049700
4939OUSBAA LOUBNA                 XX000000015532962001021049800
4939ASSAFFAR KHADIJA              XX000000015533022001021049900
4939AMZIL AZIZA                   XX000000015533072001021050000
4939CHENGLI KAOUTAR               XX000000015533082001021050100
4939NAJIA HADI                    XX000000015538042001021050200
4939FOUAD MOHSINI                 XX000000015538152001021050300
4939OUADIAE BOUKRI                XX000000015538172001021050400
4939EL MEHDI AMLOUK               XX000000015538572001021050500
4939ABDERRAHIM KARUM              XX000000015538602001021050600
4939MOSTAPHA ABDERZAK             XX000000015539042001021050700
4939FOUAD SAOUIR MANSORI          XX000000015539232001021050800
4939KHALID OUAAZIZI               XX000000015539702001021050900
4939ABDESSELAM EL WAHHABI         XX000000015539712001021051000
4939ABDALLAH MAHFOUD              XX000000015540122001021051100
4939AHMED MOUSTINE                XX000000015540432001021051200
4939SALEM BOUKHAIR                XX000000015540932001021051300
4939SAID BOUKTIB                  XX000000015541132001021051400
4939ABDESLAM ELKAMEL              XX000000015541262001021051500
4939ZAKARIA BATRAOUI              XX000000015541452001021051600
4939MOHAMED RIDA TIMLILTE         XX000000015541482001021051700
4939QADIR ABDELMAJID HICHAM       XX000000015541832001021051800
4939BELHARTI AMAL                 XX000000015541922001021051900
4939BEYAD AMINE                   XX000000015541942001021052000
4939ZIOUAL BRAHIM                 XX000000015541952001021052100
4939ELHARRAK MOHAMED              XX000000015541972001021052200
4939KACHROUD FADOUA               XX000000015542002001021052300
4939HADDIOUI ABDERRAZAK           XX000000015542032001021052400
4939BIRROU MOHAMMED               XX000000015542062001021052500
4939RGAIBI MOHAMMED SALEM         XX000000015542102001021052600
4939SAFSAFI FATIMA                XX000000015542152001021052700
4939BOUSSEKKINE ABDELLAH          XX000000015542222001021052800
4939EL-AZYZY MOULAYHFID           XX000000015542292001021052900
4939ELANSARI LOUBNA               XX000000015542302001021053000
4939ELHIMER SAIDA                 XX000000015542342001021053100
4939ABALIL ABDELAZIZ              XX000000015542372001021053200
4939KARIM MAHJOUBA                XX000000015542392001021053300
4939NAJAT JAMIL                   XX000000015542482001021053400
4939ASMA ADRAOUI                  XX000000015542512001021053500
4939AIDA JABRI                    XX000000015542522001021053600
4939FATIMA THAMMOU                XX000000015542592001021053700
4939MOHAMED ABLOUZE               XX000000015542612001021053800
4939SANAE KHALLOUQI               XX000000015542662001021053900
4939HANAN BOUTGARA                XX000000015542682001021054000
4939NORA TIZGUI                   XX000000015542742001021054100
4939ELMAHJOUB RAOUJ               XX000000015542762001021054200
4939ILHAM CHOUAOUTA               XX000000015542782001021054300
4939MARIEME HEDRANE               XX000000015542912001021054400
4939KHADIJA SAMAA                 XX000000015543002001021054500
4939NORA AKHMIM                   XX000000015543032001021054600
4939BOUCHRA HAFIDI                XX000000015543042001021054700
4939NAIMA ELAZZOUZI               XX000000015543212001021054800
4939MARIEM HAMMI                  XX000000015543342001021054900
4939MOHAMMED ELMEZIATI            XX000000015543442001021055000
4939BRAHIM MENAYCIR               XX000000015543452001021055100
4939ELMUSTAPHA SOUGRATI           XX000000015543462001021055200
4939AMINE ABID                    XX000000015543542001021055300
4939LAMIAE ELHASSNOUNI-EL-ALAOUI  XX000000015543592001021055400
4939JAMAL LOUTFI                  XX000000015543602001021055500
4939REDOUAN ALMANSUR              XX000000015543622001021055600
4939AHMED AIT TAAMART             XX000000015543762001021055700
4939MOULAY HICHAM SALFI           XX000000015543842001021055800
4939ABDELJALIL SKAITI             XX000000015543872001021056000
4939HIND FAYEK                    XX000000015543912001021056100
4939FATTOUMA ELMESBAHI            XX000000015543932001021056200
4939YOUSSEF BENIZZA               XX000000015544032001021056300
4939TAYB CHOUKRI                  XX000000015544052001021056400
4939LALLA-RAHMA EL AAKIF          XX000000015544162001021056500
4939ELMOSTAFA HIDARA              XX000000015544202001021056600
4939ILHAM ALLACH                  XX000000015544222001021056700
4939TARIK CHAHBANE                XX000000015544272001021056800
4939MOHAMMED STITOU               XX000000015544322001021056900
4939HAFID TOUGHZAOUI              XX000000015544332001021057000
4939FATIMA-ZAHRA BOUDLAL          XX000000015544462001021057100
4939HALIMA RADOUANE               XX000000015544502001021057200
4939YOUSSEF AIT DAOUA             XX000000015544522001021057300
4939ABDESSAMAD RAFI               XX000000015544572001021057400
4939BRAHIM HABLILI                XX000000015544582001021057500
4939ABDELAZIZ MOULOUADI           XX000000015544642001021057600
4939NABIL MOUJAHID                XX000000015544672001021057700
4939JAMAL EDIANI                  XX000000015544682001021057800
4939HICHAM ES-SALHI               XX000000015544742001021057900
4939AHMED BOURIAD                 XX000000015544812001021058000
4939SOUAD LAFKIR                  XX000000015544962001021058100
4939MUSTAPHA SALHI                XX000000015544972001021058200
4939HANANE JELLOULI               XX000000015545032001021058300
4939TOURIA ELFEKROUN              XX000000015545062001021058400
4939HANANE AZDAD                  XX000000015545142001021058500
4939TARIQ ELMOUSSAOUI             XX000000015545192001021058600
4939KHALID HAMZAOUI               XX000000015545222001021058700
4939ABDELILAH EL-AZZOUZY          XX000000015545242001021058800
4939SGIRI LALLA RKIA              XX000000015545292001021058900
4939AKROUCH KAMAL                 XX000000015545352001021059000
4939ZGANDOU ABDELHAK              XX000000015545402001021059100
4939BAKKAR OUAFAA                 XX000000015545422001021059200
4939FERDOUSS YASSINE              XX000000015545442001021059300
4939AFAGGOU ABDELLAH              XX000000015545452001021059400
4939ELBAHI HICHAM                 XX000000015545462001021059500
4939OUKHADACH YOUSSEF             XX000000015545472001021059600
4939AMZIR SOUFIANE                XX000000015545502001021059700
4939ERRIFAIY HAMID                XX000000015545532001021059800
4939BELHACHEMI SANAE              XX000000015545592001021059900
4939BATTOU HOURYA                 XX000000015545642001021060000
4939LARHBARI BRAHIM               XX000000015545732001021060100
4939BOUTAKNIOUI JAWAD             XX000000015545742001021060200
4939KHABA SAID                    XX000000015545782001021060300
4939ELBATTARI ABDELLAH            XX000000015545802001021060400
4939AFKKIR MUSTAPHA               XX000000015545812001021060500
4939NADIR SMAIL                   XX000000015545822001021060600
4939MESBAH HASNA                  XX000000015545832001021060700
4939ELKHARCHA YASSINE             XX000000015545872001021060800
4939TIAI KHADIJA                  XX000000015545882001021060900
4939MAHFOUDI AHMED                XX000000015545892001021061000
4939MASSKINE SANAE                XX000000015546012001021061100
4939DRIOUICH MOUHSIN              XX000000015546052001021061200
4939ELMOURABITINE RACHIDA         XX000000015546062001021061300
4939OUADGARE M'HAMED              XX000000015546072001021061400
4939BOUZIANE MUSTAPHA             XX000000015546082001021061500
4939SERSIF ILHAM                  XX000000015546122001021061600
4939RBAH HICHAM                   XX000000015546152001021061700
4939AZZIMANI ADNANE               XX000000015546162001021061800
4939SAYAD FATIMATOU               XX000000015546362001021062000
4939EL MOUSSAOUI SIDI MOHAMED SALEXX000000015546942001021062100
4939ZAMTA SAMIH                   XX000000015546962001021062200
4939CHOULI OUASSIMA               XX000000015548882001021062300
4939BELABBES SANAE                XX000000015548912001021062400
4939KOUIS HAJIBA                  XX000000015549032001021062500
4939EL FETKHANI LOUBNA            XX000000015549072001021062600
4939MILALI SAMIRA                 XX000000015549122001021062700
4939KHARRAF NADIA                 XX000000015549152001021062800
4939BENTEBIB KHADIJA              XX000000015549282001021062900
4939MOUHSSINE YOUNESS             XX000000015549292001021063000
4939EL HASNAOUI RAHMA             XX000000015549302001021063100
4939EZZAH MARYEM                  XX000000015549332001021063200
4939SEMLALI KHADIJA               XX000000015549382001021063300
4939ELOUAQOUAQI LAILA             XX000000015549402001021063400
4939SLIMANI HICHAM                XX000000015549442001021063500
4939CHERKAOUI FATIMA-ZOHRA        XX000000015549482001021063700
4939ABOULFADL SOUAD               XX000000015549522001021063800
4939BEN BOUIHATE MALIKA           XX000000015549572001021063900
4939ELHAIJ NAJIBA                 XX000000015549602001021064000
4939CHATIB SIHAM                  XX000000015549622001021064100
4939NAHHAL ABDERRAHIM             XX000000015549632001021064200
4939HARIMECH HOUDA                XX000000015549732001021064300
4939ELABDERRAHMANI HICHAM         XX000000015549832001021064400
4939ACHBOUQ BAHIA                 XX000000015549872001021064500
4939ELHANTATI WAFAE               XX000000015549962001021064600
4939BEN HAKIM IBTISSAM            XX000000015550002001021064700
4939CHOUKRI YOUSSEF               XX000000015550012001021064800
4939MAHRAZ NOUFISSA               XX000000015550022001021064900
4939CHIBI FATIMA                  XX000000015550152001021065000
4939LEILI LALLA SOUAD             XX000000015550222001021065100
4939DOUBLALI IKRAM                XX000000015550422001021065200
4939ELHADDAD ZHOUR                XX000000015550442001021065300
4939MOUANE CHAFIA                 XX000000015550512001021065400
4939ABDELLAOUI-EL-ALAOUI KHADIJA  XX000000015550562001021065500
4939ZAMANI ABDELLAH               XX000000015550592001021065600
4939AIT BENLHOUCINE SOUMIA        XX000000015550622001021065700
4939CHIBI ASSMA                   XX000000015550632001021065800
4939CHARAFI GHOUIYA               XX000000015550652001021065900
4939CHARAF BOUCHRA                XX000000015550662001021066000
4939MAKHLOUFI RACHID              XX000000015550732001021066100
4939ELMAATAOUI FATIMA             XX000000015550782001021066200
4939BENSEDDIQ LALLA MERYEM        XX000000015550832001021066300
4939SALHA KHADIJA                 XX000000015550872001021066400
4939BOUHAMIDI MOULAY RCHID        XX000000015550882001021066500
4939AZERGUI OUMLAKHOUT            XX000000015550932001021066600
4939NTIFI AMAL                    XX000000015550952001021066700
4939SEKKOURI KAWTAR               XX000000015550972001021066800
4939AZHARI HIND                   XX000000015550982001021066900
4939MADID SAMRA                   XX000000015551052001021067000
4939ELFQIER KAOUTAR               XX000000015551092001021067100
4939ELACHKER FADMA                XX000000015551162001021067200
4939ZRIKTI NAJAT                  XX000000015551212001021067300
4939BEN ABDELMOGHNI HAYAT         XX000000015551222001021067400
4939OUBELLA ABDELAAZIZ            XX000000015551282001021067500
4939ELFATMI LEKBIRA               XX000000015551302001021067600
4939CHATBANE WAFA                 XX000000015551362001021067700
4939NOUBI NARJESS                 XX000000015551392001021067800
4939LAKHDAR YOUSSEF               XX000000015551422001021067900
4939ABBA NABIHA                   XX000000015551442001021068000
4939BAHJI SANAE                   XX000000015551492001021068100
4939LAMRABETE MUSTAPHA            XX000000015551552001021068200
4939BOUNANI OUMELFADLI            XX000000015551582001021068300
4939SIDIHAMAD MAHJOUBA            XX000000015551622001021068400
4939RITOUI SIHAM                  XX000000015551702001021068500
4939ALAIDI HANANE                 XX000000015551722001021068600
4939DEMISSI MAYMINA               XX000000015551782001021068700
4939GHAZOUANI AZZOUHA             XX000000015551802001021068800
4939HMIDDOUCHE ABDELAZIZ          XX000000015551842001021068900
4939DILAL MOHAMED                 XX000000015551852001021069000
4939KRITA MUSTAPHA                XX000000015551882001021069100
4939BENNINE MONSIF                XX000000015551902001021069200
4939AGOULIF HASSAN                XX000000015551932001021069300
4939FAIDA KHALID                  XX000000015552112001021069400
4939BOUZANDAG MOHAMMAD            XX000000015552162001021069500
4939JAMAA SALOUKA                 XX000000015552192001021069600
4939LYAZILI HICHAM                XX000000015552252001021069700
4939ADDOU HANANE                  XX000000015552292001021069800
4939CHARQUI HAFIDA                XX000000015552372001021069900
4939STITOU FATIMA                 XX000000015552452001021070000
4939ARAB LAYLA                    XX000000015552482001021070100
4939EL AMARI NADIA                XX000000015552512001021070200
4939TIJANI KHADIJA                XX000000015552552001021070300
4939LACHHAB RACHIDA               XX000000015552572001021070400
4939ELHALLAB FADOUA               XX000000015552672001021070500
4939LAMGHARI ESSAADIA             XX000000015552712001021070600
4939BOURHIL LOUBNA                XX000000015552742001021070700
4939YAZZA ADIL                    XX000000015552852001021070800
4939NAJJARI RAJAA                 XX000000015552872001021070900
4939EL FALLOUS SANA               XX000000015552922001021071000
4939BAKKACHA SANAA                XX000000015552932001021071100
4939DIRAA HABBOUHA                XX000000015552942001021071200
4939HANTARA MOHAMMED              XX000000015552952001021071300
4939TRIYEH SOFIA                  XX000000015553022001021071400
4939EL MALKI FATIMA               XX000000015553072001021071500
4939AIT OUMGHAR NAIMA             XX000000015553122001021071600
4939SANGAD ZAINIBA                XX000000015553142001021071700
4939OULADALI HAYAT                XX000000015553152001021071800
4939HAFID FAISSAL                 XX000000015553192001021071900
4939TAMART FATIMA                 XX000000015553212001021072000
4939SELOUANI FOUZIA               XX000000015553242001021072100
4939TABBADIN MOHAMED              XX000000015553252001021072200
4939ELKOSTASSI ASMA               XX000000015553292001021072300
4939ESSAID HAKIM                  XX000000015553312001021072400
4939EZRAIGINATTE NAJAT            XX000000015553322001021072500
4939MOUHCINE KAMAL                XX000000015553342001021072600
4939LARHZAOUI HASSAN              XX000000015553382001021072700
4939IMIRSID HAYAT                 XX000000015553392001021072800
4939HACHIMI KHALID                XX000000015553422001021072900
4939BAIDAR KHALID                 XX000000015553442001021073000
4939EL HAOUASSI NAIMA             XX000000015553452001021073100
4939LEILI NAAMA                   XX000000015553542001021073200
4939BOUMASSAOUD NOUR ELHOUDA      XX000000015553572001021073300
4939EL-OIROIR FATIHA              XX000000015553612001021073400
4939ES-SADIA DAOU                 XX000000015553642001021073500
4939EDDHOUIR ETTALYA              XX000000015553652001021073600
4939AFIFI SOUNDOUSSE              XX000000015553882001021073700
4939SADAK ABDELMOUNIM             XX000000015554002001021073800
4939ELMORSLI MAROUAN              XX000000015554012001021073900
4939TOUFIK HOUDA                  XX000000015554082001021074000
4939EL BAKKOUCHI SANAE            XX000000015554102001021074100
4939AHLSBAI ELBACHIR              XX000000015554152001021074200
4939AIT LAHJ HAFIDA               XX000000015554252001021074300
4939ZIANI NADIA                   XX000000015554292001021074400
4939ZOUAKI MOUNIA                 XX000000015554302001021074500
4939SAKHRI HASSNA                 XX000000015554352001021074600
4939EL BAZ HAYAT                  XX000000015554362001021074700
4939BENHAKAM ZAHRA                XX000000015554452001021074800
4939ELAMIRI LAILA                 XX000000015554492001021074900
4939ELHADDAD FETHI                XX000000015554522001021075000
4939ZAARAT DRISS                  XX000000015554572001021075100
4939TARMOUN KHADIJA               XX000000015554592001021075200
4939MANSSOURI BENHACHEM           XX000000015554622001021075300
4939KHAIBER FATIHA                XX000000015554732001021075400
4939ELMAHMOUDI SIADA              XX000000015554762001021075500
4939BENMALLOUK RACHIDA            XX000000015554772001021075600
4939RABAH MOHAMED                 XX000000015554782001021075700
4939BOUNAAJ R'GUIA                XX000000015554792001021075800
4939LAGHZAOUI YASSINE             XX000000015554822001021075900
4939LAMGHAOUER RACHID             XX000000015554832001021076000
4939KHOUADRI YASSINE              XX000000015554842001021076100
4939ELBAZ YOUNES                  XX000000015554862001021076200
4939LAHFID HICHAM                 XX000000015554912001021076300
4939EL HAMYANI MOSTAFA            XX000000015554962001021076400
4939BENSARDI RABIE                XX000000015555032001021076500
4939ABIBI SOUMIA                  XX000000015555082001021076600
4939ADARDOUR MOHAMED              XX000000015555102001021076700
4939SARRAJI FOUAD                 XX000000015555152001021076800
4939RHARBI ABDERRAHIM             XX000000015555242001021076900
4939MARZOUG HANAE                 XX000000015555322001021077000
4939BEN-ALI YACINE                XX000000015555362001021077100
4939ER-RADI RAJAA                 XX000000015555392001021077200
4939ELAINI FATIMA                 XX000000015555502001021077300
4939ZAHAR SOUMIA                  XX000000015555542001021077400
4939TOUMI RAJAA                   XX000000015555812001021077500
4939FAKHRI SOUMYA                 XX000000015555862001021077600
4939WADIH MERYEM                  XX000000015555882001021077700
4939NOQRA SANA                    XX000000015555982001021077800
4939HMAIMID HASSAN                XX000000015555992001021077900
4939ELOUFIR ZAKARIA               XX000000015556072001021078000
4939CHEIKH M HAMMED               XX000000015556082001021078100
4939REMAHI HIND                   XX000000015556322001021078300
4939BADR AYYAD                    XX000000015556532001021078400
4939KHORBI LAHBIB                 XX000000015559852001021078500
4939BIKITARNE SAMIR               XX000000015723172001021078600
4939ABIDAR MOHAMED                XX000000016049492001021078700
4939BAB ALLAH RACHIDA             XX000000016091622001021078800
4939EJJABRI MOHAMED               XX000000016092252001021078900
4939AIT JKEN NOUZHA               XX000000016092322001021079000
4939KORAICHI TAOUFIQ              XX000000016092352001021079100
4939AIT LAHCEN HAJAR              XX000000016092442001021079200
4939EL YAMNI HAMID                XX000000016092452001021079300
4939EL BADRAOUY YOUNESS           XX000000016092502001021079400
4939BEN YECHRAQ MOHAMED           XX000000016092522001021079500
4939FOUZI ADIL                    XX000000016092552001021079600
4939BOUARGUAN OMAR                XX000000016092682001021079700
4939AFARYAD HAYAT                 XX000000016092752001021079800
4939BOUAILA MOHAMED               XX000000016092862001021079900
4939KOUMINA AHMED ZAKARIA         XX000000016092892001021080000
4939TABTI MOHAMED AMINE           XX000000016093002001021080100
4939EL KAB ZINEB                  XX000000016093022001021080200
4939JAOUAD BRAHIM                 XX000000016093122001021080300
4939BIOUGHAN RACHID               XX000000016093222001021080400
4939EL AIMECHE HICHAM             XX000000016093242001021080500
4939BERKHOUCH YOUSSEF             XX000000016093272001021080600
4939LAAMRANI ZINEB                XX000000016093362001021080700
