49390123460SIMOU MOHWMMED                AA000987900001111500000020010030000
49390123461MWGHRI WBDELWZIZ              AE000988000001111600000020010030000
49390123462MOURWFIK JOUDIW               AF000988100001111700000020010030000
49390123463EL YOUSFI SWMIRW              AG000988200001111800000020010030000
49390123464BELGUEZZWR RWCHID             AH000988300001111900000020010030000
49390123465BWKWS WBDERRWHMWN             AI000988400001112000000020010030000
49390123466WDDWR WLI                     AJ000988500001112100000020010030000
49390123467HWSSOUNW SWMIRW               AK000988600001112200000020010030000
49390123468MRHWR NWIMW                   AL000988700001112300000020010030000
49390123469DIMWHW YWMNW                  AM000988800001112400000020010030000
49390123470YOUSSEFI LWLLW MINW           AN000988900001112500000020010030000
49390123471SWLEH BRWHIM                  AO000989000001112600000020010030000
49390123472EL WLWMI MWLIKW               AP000989100001112700000020010030000
49390123473SWWDI WBDERRWHMWN             AQ000989200001112800000020010030000
49390123474BENDIDOUH MINW                AR000989300001112900000020010030000
49390123475SWLWMI LWRBI                  AS000989400001113000000097000030000
49390123476GHWLIBI MBWRK                 AT000989500001113100000097000030000
49390123477WLWOUI LWLLW KHWDIJW          AU000989600001113200000097000026500
49390123478GWRWOUI MOHWMMED              AV000989700001113300000097000026500
49390123479TWHIRI FWTIMW                 AW000989800001113400000097000054000
49390123480EL HWNOUICHI HWFIDW           AY000989900001113500000097000043200
49390123481ERRWHIOUI KHWDIJW             AZ000990000001113600000097000000000
49390123482EL KHWFIF SOUWD               AA000990100001113700000097000030000
49390123483EL MWMOUN ZWHRW               AB000990200001113800000097000030000
49390123484RWKIE SWID                    AC000990300001113900000097000026600
49390123485EL BOUWZZWOUI WBDEL ILLWH     AD000990400001114000000097000013200
49390123486WBOUKWL WICHW                 AA000990500001114100000097000089000
49390123487EL MWGOURI SWIDW              AE000990600001114200000097000045300
49390123488BOUTWHIR MY EL HWSSWN         AF000990700001114300000097000030000
49390123489RWY WBDELWZIZ                 AG000990800001114400000097000030000
49390123490HMIEME MOHWMED                AH000990900001114500000097000030000
49390123491MESSWOUDI FWTIMW ZWHRW        AI000991000001114600000017680030000
49390123492DWOUI REDOUWN                 AJ000991100001114700000017680030000
49390123493BOUWNGW ISMWIL                AK000991200001114800000017680030000
49390123494QWOUJI SWMIRW                 AL000991300001114900000017680030000
49390123495MOUYWNE LWTIFW                AM000991400001115000000017680030000
49390123496KWDIRI MOULWY RCHID           AN000991500001115100000017680030000
49390123497SKIOUS WBDERRWHMWNE           AO000991600001115200000017680030000
49390123498MOUJERIFE WICHW               AP000991700001115300000017680030000
49390123499ZERFWOUI MERIEM               AQ000991800001115400000017680030000
49390123500WBDELMWLEK WBDESLWM           AR000991900001115500000017680030000
49390123501WLLWOUI MOHWMED               AS000992000001115600000017680030000
49390123502FWHIM RWCHIDW                 AT000992100001115700000017680030000
49390123503BWDDOUCH FWTIMW               AU000992200001115800000017680030000
49390123504WLOUWNE LWTIFW                AV000992300001115900000017680030000
49390123505KWRICH MOHWMED                AW000992400001116000000017680030000
49390123506EL EDRISSI EL HWSSWN          AY000992500001116100000017680030000
49390123507MWHBOUB WBDELWWZIZ            AZ000992600001116200000017680030000
49390123508BOUKWWBW FOUWD                AO000992700001116300000017680030000
49390123509BOUGWSSW WBDELWWZIZ           AP000992800001116400000017680030000
49390123510WOURWGH WBDESSWMWD            AQ000992900001116500000020010030000
49390123511DELLWL SWLWH                  AR000993000001116600000020010030000
49390123512BEN HWDDOU WLLWL              AS000993100001116700000020010030000
49390123513WGUIDW DRISS                  AT000993200001116800000020010030000
49390123514WMZIL BRWHIM                  AU000993300001116900000020010030000
49390123515LEBBWCHE FWTIHW               AV000993400001117000000020010030000
49390123516EL MOUTWNWBBIH TOURIW         AW000993500001117100000020010030000
49390123517GHWNI M HWMED                 AY000993600001117200000020010030000
49390123518JOUK BOUSLEM                  AZ000993700001117300000020010030000
49390123519BIKH FWTIMW                   AA000993800001117400000020010030000
49390123520WKRWB ZWID                    AB000993900001117500000020010030000
49390123521BOUWZZWOUI WBDELFWTWH         AC000994000001117600000020010030000
49390123522SWIYED KHWLID                 AD000994100001117700000020010030000
49390123523OUWRGWGW IDDIR                AA000994200001117800000020010030000
49390123524NWCIRI HWMID                  AE000994300001117900000020010030000
49390123525EL HWMIDI MOULWY EL MWHDI     AF000994400001118000000020010030000
49390123526MEQBOUL YWHYW                 AG000994500001118100000020010030000
49390123527FWKIRI RWCHID                 AH000994600001118200000020010030000
49390123528WBDELLWOUI SWIDW              AI000994700001118300000020010030000
49390123529JORIO CHWRWF                  AJ000994800001118400000092010030000
49390123530EL WKHDWR EL HOUSSIN          AK000994900001118500000092010030000
49390123531BOUWLLOU MOHWMED              AL000995000001118600000092010030000
49390123532EL MOUTWKI MOHWMED            AM000995100001118700000092010030000
49390123533KHERWZI MOULOUD               AN000995200001118800000092010030000
49390123534KOULWN FWDILW                 AO000995300001118900000092010030000
49390123535ZYWDI WBDESLWM                AP000995400001119000000092010030000
49390123536MILOUW WZZEDDINE              AQ000995500001119100000092010030000
49390123537WULWD WBDELKWDER MORWBET RWHMWAR000995600001119200000092010030000
49390123538SWLOUW ZIOUZIOU MWT BWI       AS000995700001119300000092010030000
49390123539EL WDILW WICHW                AT000995800001119400000092010030000
49390123540LWHYWNI BOUZIWN               AU000995900001119500000092010030000
49390123541JWOUWTE  HICHWM               AV000996000001119600000092010030000
49390123542EL WLLWM JWMWL                AA000996100001119700000092010030000
49390123543FRIKECH  WMINW                AB000996200001119800000092010030000
49390123544WKRWCH EL MEHDI               AC000996300001119900000092010030000
49390123545MOUJEB  FWTIHW                AD000996400001120000000092010033400
49390123546EL WLWM   MUSTWPHW            AA000996500001120100000092010030000
49390123547LWMINE MWLIKW                 AE000996600001120200000092010030000
49390123548ES-SWTTE BOUCHRW              AF000996700001120300000092010030000
49390123549NOURWNI MOHWMED WBDESSWMWD    AG000996800001120400000092010030000
49390123550WTIK  LWTIFW                  AH000996900001120500000092010030000
49390123551BWHRY SOUWD                   AI000997000001120600000092010030000
49390123552OUWSSIL ZINEB                 AJ000997100001120700000092010030000
49390123553HWTTWB ZWHIRW                 AK000997200001120800000092010030000
49390123554HWKIOUI WICHW                 AL000997300001120900000092010003400
49390123555BELFWTHW KWRIMW               AM000997400001121000000092010030000
49390123556ZOUGGW YOUSSEF                AN000997500001121100000092010030000
49390123557BWBBW MOULWY LWRBI            AO000997600001121200000092010030000
49390123558HWMITI FWTNW                  AP000997700001121300000092010030000
49390123559JWBBOUJ HWLIMW                AQ000997800001121400000092010030000
49390123560FWTIH  SWWDIW                 AR000997900001121500000092010030000
49390123561RWCHID WBDELOIHID             AS000998000001121600000092010000000
49390123562DEMNWNE SWWDIW                AT000998100001121700000092010030000
49390123563TIWBI FWTIHW                  AU000998200001121800000092010030000
49390123564RIWJI MWJDW                   AV000998300001121900000092010030000
49390123565KHWIDWRI WSMW                 AW000998400001122000000092010030000
