49390065495ARIF KHADIJA                  xx0000000000209200000000200115000
49390065497QASSAQ BOUCHRA                xx0000000000209201000000200115000
49390065714BAHTAT HASSANE                xx0000000000209202000000200115000
49390065719EZZAMRANI RACHIDA             xx0000000000209203000000200115000
49390065722OUHADI MBARK                  xx0000000000209204000000200115000
49390065734SIMOU MOHAMMED                xx0000000000209205000000200115000
49390065741MAGHRI ABDELAZIZ              xx0000000000209206000000200115000
49390065829EL YOUSFI SAMIRA              xx0000000000209207000000200115000
49390065845ADDAR ALI                     xx0000000000209208000000200115000
49390065895IKNIOUAN AMINA                xx0000000000209209000000200115000
49390065900EL MESNAOUI NOUZHA            xx0000000000209210000000200115000
49390065906YOUSSEFI LALLA MINA           xx0000000000209211000000200115000
49390065917EL ALAMI MALIKA               xx0000000000209212000000200115000
49390065944EL HADRY ABDELOUAHED          xx0000000000209213000000200115000
49390065959SALAMI LARBI                  xx0000000000209214000000200115000
49390065996GHALIBI MBARK                 xx0000000000209215000000200115000
49390066045ALAOUI LALLA KHADIJA          xx0000000000209216000000200115000
49390066188KESTRAOUI MARIA               xx0000000000209217000000200115000
49390066191EL HANOUICHI HAFIDA           xx0000000000209218000000200115000
49390066196ERRAHIOUI KHADIJA             xx0000000000209219000000200115000
49390066197BEN ALLA KARIMA               xx0000000000209220000000200115000
49390066200EL KHAFIF SOUAD               xx0000000000209221000000200115000
49390066485EL WARRASS ABDELKRIM          xx0000000000209222000000200115000
49390066561EL MAMOUN ZAHRA               xx0000000000209223000000200115000
49390066563RAKIE SAID                    xx0000000000209224000000200115000
49390068814EL BOURKHISSI FATIMA          xx0000000000209225000000200115000
49390070936ABOUKAL AICHA                 xx0000000000209226000000200115000
49390070948EL MAGOURI SAIDA              xx0000000000209227000000200115000
49390070952AMDHOUSSI ZAHRA               xx0000000000209228000000200115000
49390070954OUCHHI DRISS                  xx0000000000209229000000200115000
49390070968MESSAOUDI FATIMA ZAHRA        xx0000000000209230000000200115000
49390070981DAOUI REDOUAN                 xx0000000000209231000000200115000
49390070982BOUANGA ISMAIL                xx0000000000209232000000200115000
49390071224QAOUJI SAMIRA                 xx0000000000209233000000200115000
49390071226MOUYANE LATIFA                xx0000000000209234000000200115000
49390071235OUAZIZ DRISS                  xx0000000000209235000000200115000
49390071236SKIOUS ABDERRAHMANE           xx0000000000209236000000200115000
49390071247ZERFAOUI MERIEM               xx0000000000209238000000200115000
49390071249ABDELMALEK ABDESLAM           xx0000000000209239000000200115000
49390071252ALLAOUI MOHAMED               xx0000000000209240000000200115000
49390071259SABIR SALOUA                  xx0000000000209241000000200115000
49390071279OULAD SIDI AISSA EL IDRISSI ZAxx0000000000209242000000200115000
49390071285BEDDOUCH FATIMA               xx0000000000209243000000200115000
49390071290EL AIDOUNI SALOUA             xx0000000000209244000000200115000
49390071291ALOUANE LATIFA                xx0000000000209245000000200115000
49390071335EL EDRISSI EL HASSAN          xx0000000000209247000000200115000
49390071351CHOUIEKH ABDELAZIZ            xx0000000000209248000000200115000
49390071352AMECHIR AMINA                 xx0000000000209249000000200115000
49390071357SADEQ ABDELMAJID              xx0000000000209250000000200115000
49390071358BOUKAABA FOUAD                xx0000000000209251000000200115000
49390071360BOUGASSA ABDELAAZIZ           xx0000000000209252000000200115000
49390071361CHEBBAR ABDELHAQ              xx0000000000209253000000200115000
49390071367AOURAGH ABDESSAMAD            xx0000000000209254000000200115000
49390071500BEN HADDOU ALLAL              xx0000000000209255000000200115000
49390071508LEBBACHE FATIHA               xx0000000000209256000000200115000
49390071517EL MOUTANABBIH TOURIA         xx0000000000209257000000200115000
49390071518GHANI M HAMED                 xx0000000000209258000000200115000
49390071529AKRAB ZAID                    xx0000000000209259000000200115000
49390071591BOUAZZAOUI ABDELFATAH         xx0000000000209261000000200115000
49390071601SAIYED KHALID                 xx0000000000209262000000200115000
49390071631AYOUBI MUSTAPHA               xx0000000000209263000000200115000
49390071633OUARGAGA IDDIR                xx0000000000209264000000200115000
49390071644NACIRI HAMID                  xx0000000000209265000000200115000
49390071649EL HAMIDI MOULAY EL MAHDI     xx0000000000209266000000200115000
49390071684MEQBOUL YAHYA                 xx0000000000209267000000200115000
49390075518ABDELLAOUI SAIDA              xx0000000000209268000000200115000
49390075519JORIO CHARAF                  xx0000000000209269000000200115000
49390075816BOUALLOU MOHAMMED             xx0000000000209270000000200115000
49390075864EL MOUTAKI MOHAMED            xx0000000000209271000000200115000
49390075897OUHAMOU GHIZLANE              xx0000000000209272000000200115000
49390075938KHERAZI MOLOUD                xx0000000000209273000000200115000
49390075939KOULAN FADILA                 xx0000000000209274000000200115000
49390075998MAADANI HAFIDA                xx0000000000209275000000200115000
49390077210AIT ALI OUHMED ABDERRAHIM     xx0000000000209276000000200115000
49390078726BAKALI EL HOUSSNI             xx0000000000209279000000200115000
49390078748EL ADILA AICHA                xx0000000000209281000000200115000
49390080233LAHYANI BOUZIAN               xx0000000000209282000000200115000
49390080262JAOUATE HICHAM                xx0000000000209283000000200115000
49390080648KANDIL MOHAMMED               xx0000000000209284000000200115000
49390080666BOUHLAL KAOUTAR               xx0000000000209285000000200115000
49390081371SITLI FATIHA                  xx0000000000209286000000200115000
49390081388SAKIT RABIA                   xx0000000000209287000000200115000
49390081394LAMINE MALIKA                 xx0000000000209288000000200115000
49390081395ESSATTE BOUCHRA               xx0000000000209289000000200115000
49390082121ATIK LATIFA                   xx0000000000209290000000200115000
49390082136NAKACH NAIMA                  xx0000000000209291000000200115000
49390082138HATTAB ZAHIRA                 xx0000000000209292000000200115000
49390082150BELFATHA KARIMA               xx0000000000209293000000200115000
49390082153EL OUAHBI NAJOUA              xx0000000000209294000000200115000
49390082157JABBOUJ HALIMA                xx0000000000209296000000200115000
49390082158FATIH SAADIA                  xx0000000000209297000000200115000
49390082162RACHID ABDELOIHID             xx0000000000209298000000200115000
49390082164DEMNANE SAADIA                xx0000000000209299000000200115000
49390082168RIAJI MAJDA                   xx0000000000209300000000200115000
49390082172KHAIDARI ASMA                 xx0000000000209301000000200115000
49390082176EL HAMSS RACHIDA              xx0000000000209302000000200115000
49390082178EL BAHLOULI KHADIJA           xx0000000000209303000000200115000
49390082676EL AMRAOUI KARIMA             xx0000000000209304000000200115000
49390082686BCHIRI NADIA                  xx0000000000209305000000200115000
49390083877ZERRAB AICHA                  xx0000000000209306000000200115000
49390083946WAJFI REDOUANE                xx0000000000209307000000200115000
49390083948BOUCHRA BELMAJDOUB            xx0000000000209308000000200115000
49390083984HABLI SMAIL                   xx0000000000209309000000200115000
49390086701BEKRI AICHA                   xx0000000000209310000000200115000
49390086855LAKHDAR LAHCEN                xx0000000000209311000000200115000
49390096606EL GOUMI EL AYECH             xx0000000000209312000000200115000
49390096698SALLAY MOHAMED                xx0000000000209313000000200115000
49390096792OUMAIR YOUSSEF                xx0000000000209314000000200115000
49390098740OUIRDANI HABIB                xx0000000000209315000000200115000
49390098759BADRAOUI OMAR                 xx0000000000209316000000200115000
49390112172AISSAOUI AMAR                 xx0000000000209317000000200115000
49390124366M TALSSI HOUARI               xx0000000000209318000000200115000
49390126005LAFROUHI ABDELKADER           xx0000000000209319000000200115000
49390133958MEZIANE NOUR EDDINE           xx0000000000209320000000200115000
49390136267EL ALLAOUI JAMAL              xx0000000000209321000000200115000
49390136305EL MOUFTAHI MUSTAPHA          xx0000000000209322000000200115000
49390136318BAAMAR MOHAMED SALEM          xx0000000000209323000000200115000
49390136357HAJJI DRISS                   xx0000000000209324000000200115000
49390136360TAMIRO LHOUARI                xx0000000000209325000000200115000
49390142532KHALDI RACHID                 xx0000000000209326000000200115000
49390142803TAHAR MOHAMED                 xx0000000000209327000000200115000
49390159201FANNICH HAFID                 xx0000000000209328000000200115000
49390162316EL MAHI BOUMEDIENE            xx0000000000209329000000200115000
49390165856HENNOU ALI                    xx0000000000209330000000200115000
49390183506SRIARI CHARKI                 xx0000000000209331000000200115000
49390183511OUAGAGUE TAIEB                xx0000000000209332000000200115000
49390183515JAMALI RACHID                 xx0000000000209333000000200115000
49390183540BENHADDI ABDELALI             xx0000000000209334000000200115000
49390183574YAFOU ALLAH YASSINE           xx0000000000209335000000200115000
49390183604OULD OUADDA HASSANE           xx0000000000209336000000200115000
49390183612ELHAYA ABDELOUAHAD            xx0000000000209337000000200115000
49390183654EL MANSOURY ALI               xx0000000000209338000000200115000
49390183683ACHCHAK MOHAMED REDA          xx0000000000209339000000200115000
49390189256KHARRAZ KASSEM                xx0000000000209340000000200115000
49390189296MANSOURI MOHAMED              xx0000000000209341000000200115000
49390189586ZERYOUH MOHAMMED              xx0000000000209342000000200115000
49390219627ALIOUI REDOUANE               xx0000000000209343000000200115000
49390219635FAL COU OMAR                  xx0000000000209344000000200115000
49390219644ARAB ABDELKADER               xx0000000000209345000000200115000
49390219689DAOUDI MOHAMED                xx0000000000209346000000200115000
49390219753EL BOUKHARI HADJ BEN SELLAM   xx0000000000209347000000200115000
49390225107HAY ALLAHI MOHAMMED EL AMINE  xx0000000000209348000000200115000
49390225248BOUAZIZI MOHAMED              xx0000000000209349000000200115000
49390225271CHOUKRI JALAL                 xx0000000000209350000000200115000
49390225343EL MAYMOUNI AHMED             xx0000000000209351000000200115000
49390225396ZAHRI ABDERRAHIM              xx0000000000209352000000200115000
49390228654EL JANATI EL IDRISSI HAMID    xx0000000000209353000000200115000
49390235440ERRAMI MOHAMED                xx0000000000209354000000200115000
49390235492ID HAMOU JAMAA MOHAMED        xx0000000000209355000000200115000
49390246917SAIDI ABDELAZIZ               xx0000000000209356000000200115000
49390246923OUIDIR LAHOUCINE              xx0000000000209357000000200115000
49390246928BOULAHSEN M HAMED             xx0000000000209358000000200115000
49390255083JABBOUR RACHID                xx0000000000209359000000200115000
49390255177EL YOUSSOUFI CHERIF           xx0000000000209360000000200115000
49390265474ZIDOUNI EL MOSTAFA            xx0000000000209361000000200115000
49390265483CHEMSY ABDELALEM              xx0000000000209362000000200115000
49390269199EL AMINE ABDALLAH             xx0000000000209363000000200115000
49390269556EL BOUZIDI MOHAMED            xx0000000000209364000000200115000
49390269796RAJI ABDEL ILAH               xx0000000000209365000000200115000
49390279066MADANI ALAOUI LALLA AICHA     xx0000000000209366000000200115000
49390279067NINEFLAS RACHIDA              xx0000000000209367000000200115000
49390279171ELZZAYIA MAYMOUNA             xx0000000000209368000000200115000
49390279194OUAZZANI CHAHDI MALIKA        xx0000000000209369000000200115000
49390282006SEBBATA HASSAN                xx0000000000209370000000200115000
49390282009RHIZLANE ABOUBKER             xx0000000000209371000000200115000
49390286022OUADIFI MOHAMMED              xx0000000000209372000000200115000
49390295704ADAOUI FATIMA                 xx0000000000209373000000200115000
49390295724RAI MOUKHTAR                  xx0000000000209374000000200115000
49390298861HAJJAMI LAILA                 xx0000000000209375000000200115000
49390298994LISSAN EL HAK BOUCHRA         xx0000000000209376000000200115000
49390300543JOHRI MOHAMMED                xx0000000000209377000000200115000
49390301235IREKMANE LHOUCINE             xx0000000000209378000000200115000
49390312048ZIANI FAKHAR CHAKIB           xx0000000000209379000000200115000
49390312051MERIMI MIMOUN                 xx0000000000209380000000200115000
49390315428TAIBI CHOUAIB                 xx0000000000209381000000200115000
49390316780HADDI LALLA TFARAH            xx0000000000209382000000200115000
49390318287BERRI FATIMA                  xx0000000000209384000000200115000
49390318536ADOU RACHID                   xx0000000000209385000000200115000
49390318613MEKENCY FATIMA ZAHRA          xx0000000000209386000000200115000
49390318629MOUJERIFE ZINEB               xx0000000000209387000000200115000
49390318631AGRAT KHADIJA                 xx0000000000209388000000200115000
49390318684EL JAI MERIEM                 xx0000000000209389000000200115000
49390318692HDA NADIA                     xx0000000000209390000000200115000
49390323903HASNAOUI KHADIJA              xx0000000000209391000000200115000
49390323907SADNI HAFIDA                  xx0000000000209392000000200115000
49390323920SLIMANI LATIFA                xx0000000000209393000000200115000
49390323930OUDAHA RACHIDA                xx0000000000209394000000200115000
49390323935AZEROUAL FATIMA               xx0000000000209395000000200115000
49390323955FORCA EL KBIRA                xx0000000000209396000000200115000
49390323975EN NHIRI RACHIDA              xx0000000000209397000000200115000
49390323977ZIHA DRISS                    xx0000000000209398000000200115000
49390323978MOUTTOU OMAR                  xx0000000000209399000000200115000
49390324085TAYEB MINA                    xx0000000000209400000000200115000
49390326311MOKHTARI AICHA                xx0000000000209401000000200115000
49390327526BOUAB SALWA                   xx0000000000209402000000200115000
49390327572BRITEL NAJIB                  xx0000000000209403000000200115000
49390327614JAMAL HAFIDA                  xx0000000000209404000000200115000
49390327643LAMSIKINE HAFIDA              xx0000000000209405000000200115000
49390327659SAOUDI FATIHA                 xx0000000000209406000000200115000
49390327686GUANNI RACHID                 xx0000000000209407000000200115000
49390331803ZENFOUD MOSTAFA               xx0000000000209408000000200115000
49390331807RAQI ABDERRAZZAK              xx0000000000209409000000200115000
49390331845TAHDI HASSAN                  xx0000000000209410000000200115000
49390331918CHEIKHE MAOULAININE MIMOUNA   xx0000000000209411000000200115000
49390336685SBAI ABDELMOURHIT             xx0000000000209412000000200115000
49390346013ADOU JAMAL                    xx0000000000209413000000200115000
49390346102AOUNE HOURIA                  xx0000000000209414000000200115000
49390346116EL BAYENA EL BATOUL           xx0000000000209415000000200115000
49390346126LAMGHARI MOHAMMED             xx0000000000209416000000200115000
49390346149ZOUHAILI SAADIA               xx0000000000209417000000200115000
49390346216OUANZIL MAJDA                 xx0000000000209418000000200115000
49390346222EL KOUACH EL HASSANIA         xx0000000000209419000000200115000
49390346224EL HAMZAOUI TOURIA            xx0000000000209420000000200115000
49390346262SAHMAOUI MALIKA               xx0000000000209421000000200115000
49390346297BELLORHZAL HOURIA             xx0000000000209422000000200115000
49390350539IBRAHIMI ABDELGHANI           xx0000000000209423000000200115000
49390350547BENJILALI SABAH               xx0000000000209424000000200115000
49390353806MOUTAI ABDELHAQ               xx0000000000209425000000200115000
49390370301HACHABI ABDELKRIM             xx0000000000209426000000200115000
49390370375NOUSSAIR ALI                  xx0000000000209427000000200115000
49390370402MAMMAD AHMED                  xx0000000000209428000000200115000
49390370403EL ALAOUI LALLA SAADIA        xx0000000000209429000000200115000
49390370404BOUSSELHAM LATIFA             xx0000000000209430000000200115000
49390370406TAHIR ABDESSAMAD              xx0000000000209431000000200115000
49390370409MALIKI LALLA AMINA            xx0000000000209432000000200115000
49390370418AGOURAM KENZA                 xx0000000000209433000000200115000
49390370510BOUKAL MOHAMED                xx0000000000209434000000200115000
49390370535BENSALEM ABDELILAH            xx0000000000209435000000200115000
49390370646EL OUADI OUAFAA               xx0000000000209436000000200115000
49390370648BAMENSOUR JEMAA               xx0000000000209437000000200115000
49390371004BOULAOUI ABDELKRIM            xx0000000000209438000000200115000
49390371019RAHALI IDRISSI NADIA          xx0000000000209439000000200115000
49390371033TASSETTATE BRAHIM             xx0000000000209440000000200115000
49390371102ANIBA ABDELILAH               xx0000000000209441000000200115000
49390371104BOUNANI MAIMOUNA              xx0000000000209442000000200115000
49390371173GOURJEM ZINEB                 xx0000000000209443000000200115000
49390371211MYATT SAID                    xx0000000000209444000000200115000
49390371241EL MANSOUR ABDERRAHIM         xx0000000000209445000000200115000
49390372237DAR EL AIN MOHAMED            xx0000000000209446000000200115000
49390372241CHAKI ABDENNAIM               xx0000000000209447000000200115000
49390372242SOLO AZZOUZ                   xx0000000000209448000000200115000
49390372245NADER MOKHTAR                 xx0000000000209449000000200115000
49390372250IMEZAR ZINEB                  xx0000000000209450000000200115000
49390372254BENQASSMI SAAIDA              xx0000000000209451000000200115000
49390372255ABDELKHALEK EL MAHJOUB        xx0000000000209452000000200115000
49390372260SABER MUSTAPHA                xx0000000000209453000000200115000
49390372275EZZEBBOURI RACHID             xx0000000000209454000000200115000
49390372276EL FAROUKI ABID               xx0000000000209455000000200115000
49390376330BOULAID KHALIDA               xx0000000000209456000000200115000
49390380911JILBAB FATIMA                 xx0000000000209457000000200115000
49390381119ELOUARRADI FATIMA             xx0000000000209458000000200115000
49390381176LAHDA KHADIJA                 xx0000000000209459000000200115000
49390381177RAZZOUKI FATIMA               xx0000000000209460000000200115000
49390388566BENCHERQUI MOHAMMED           xx0000000000209461000000200115000
49390388568AIT EL MOUDEN MOHAMMED        xx0000000000209462000000200115000
49390390429JANDALI ABDERRAHIM            xx0000000000209463000000200115000
49390390444MOUHSINE AHMED                xx0000000000209464000000200115000
49390390525BOUNADEM FATIMA               xx0000000000209465000000200115000
49390390545MENSKI AZIZ                   xx0000000000209466000000200115000
49390394197CHOUAA ABDELOUAHED            xx0000000000209467000000200115000
49390394272EL BELGHITI MOHAMED           xx0000000000209468000000200115000
49390394369MENGOUCHI KHADIJA             xx0000000000209469000000200115000
49390394376ECHCHAHDI NEZHA               xx0000000000209470000000200115000
49390394702JAKANI JAMAA                  xx0000000000209471000000200115000
49390394890EL KHAIR YATTOU               xx0000000000209472000000200115000
49390396239BENHAMAD ZAHRA                xx0000000000209473000000200115000
49390396245BOUHAMIDI LALLA MERIEM        xx0000000000209474000000200115000
49390396375BAHAJJI NADIA                 xx0000000000209475000000200115000
49390396487HIDARE KHALID                 xx0000000000209476000000200115000
49390396802ARJAOUI FATIMA                xx0000000000209477000000200115000
49390396817BOUNADAH MOHAMED              xx0000000000209478000000200115000
49390396822ABDEDAIM NAIMA                xx0000000000209479000000200115000
49390396856ZIANI MOHAMMED                xx0000000000209480000000200115000
49390397019ELATI SAKINA                  xx0000000000209481000000200115000
49390397022MRANI RACHIDA                 xx0000000000209482000000200115000
49390397049AMHOUD MINA                   xx0000000000209483000000200115000
49390397059BOUSSAQSOU ABDELLAH           xx0000000000209484000000200115000
49390397068JANNAD ABDERRAHIM             xx0000000000209485000000200115000
49390397077LEMSELLAK EL MAHDI            xx0000000000209486000000200115000
49390397146BOUQARTACHA CHAFIQ            xx0000000000209487000000200115000
49390397153CHERKAOUI LALLA NEZHA         xx0000000000209488000000200115000
49390397155KOUZA FOUZIA                  xx0000000000209489000000200115000
49390397184ABBADI MUSTAPHA               xx0000000000209490000000200115000
49390397186MOUSSAOUI HASSAN              xx0000000000209491000000200115000
49390397893ALLAOUI ADDI                  xx0000000000209492000000200115000
49390399313LACHHEB ABDELAZIZ             xx0000000000209493000000200115000
49390399339HAMRI MOHAMED                 xx0000000000209494000000200115000
49390399771CHEMLAL AICHA                 xx0000000000209495000000200115000
49390399772CHARKANI ZHOR                 xx0000000000209496000000200115000
49390399775HABBAS YAMNA                  xx0000000000209497000000200115000
49390399822BENASSOU ADDI                 xx0000000000209498000000200115000
49390399842AIT HASSOU YOUSSEF            xx0000000000209499000000200115000
49390399892SAFDI JAMILA                  xx0000000000209500000000200115000
49390656816EL YAHYAOUI MOHAMED           xx0000000000209501000000200115000
49390183613DOUIRAT HAMID                 xx0000000000209502000000200115000
49390708169ESSADIK KHADIJA               xx0000000000209503000000200115000
49390708184BENRADI SAIDA                 xx0000000000209504000000200115000
49390708188BOURRAGAT JAMILA              xx0000000000209505000000200115000
49390708327DRISSI MY OMAR                xx0000000000209506000000200115000
49390708370DAFALI MY ABDERRAHMAN         xx0000000000209507000000200115000
49390711539DBIYEB SOUAD                  xx0000000000209508000000200115000
49390711592IBRAHIMI SAID                 xx0000000000209509000000200115000
49390713576BICHOU SEKKOU                 xx0000000000209510000000200115000
49390713738LAKHRISSI FARAJY              xx0000000000209511000000200115000
49390713790OUZZIR SIHAM                  xx0000000000209513000000200115000
49390713842ZEBBADI TAMOU                 xx0000000000209514000000200115000
49390713967ABRADA MOHAMED                xx0000000000209515000000200115000
49390714549MENTAGUI YOUNES               xx0000000000209516000000200115000
49390714565BOUHRIGA ABDELLAHI            xx0000000000209517000000200115000
49390714580AFARIAD EL MOSTAFA            xx0000000000209518000000200115000
49390715091EL MAKAOUI OMAR               xx0000000000209519000000200115000
49390715093EL WADNAKSSI NAJIA            xx0000000000209520000000200115000
49390716988BOUMEDIENE RACHID             xx0000000000209521000000200115000
49390716991EL HARRARI RKIA               xx0000000000209522000000200115000
49390718407OUABID NAJAT                  xx0000000000209523000000200115000
49390718411NAYMI MUSTAPHA                xx0000000000209524000000200115000
49390718412FARIDI ABDELOUAHID            xx0000000000209525000000200115000
49390718413SAHRAOUI HADDOU               xx0000000000209526000000200115000
49390720648SAMOUT TAHAR                  xx0000000000209527000000200115000
49390720653HSAINE LATIFA                 xx0000000000209528000000200115000
49390720750ENNAFFATI KHADIJA             xx0000000000209529000000200115000
49390724311MAMOUNI ALAOUI IDRISS         xx0000000000209530000000200115000
49390724364AYYAD YAMINA                  xx0000000000209531000000200115000
49390724568REGHAI ABDELILAH              xx0000000000209532000000200115000
49390724580M HAIDRA SAADIA               xx0000000000209533000000200115000
49390724648EL GARRAB FATIMA              xx0000000000209534000000200115000
49390724649QACI MOHAMMED                 xx0000000000209535000000200115000
49390724661RAOUNI ABDELHAKIM             xx0000000000209536000000200115000
49390724662CHOUAIBI EL MAHJOUB           xx0000000000209537000000200115000
49390724680MAROUAN MOHAMMED              xx0000000000209538000000200115000
49390724690MAKHLOUFI ABDELGHANI          xx0000000000209539000000200115000
49390724765LAAROUSSI LARBI               xx0000000000209541000000200115000
49390724771TAKI ABDELKRIM                xx0000000000209542000000200115000
49390724889SABRI MUSTAPHA                xx0000000000209543000000200115000
49390724891ADERMANE AOMAR                xx0000000000209544000000200115000
49390726447AMEURAOUI ZEHRA               xx0000000000209545000000200115000
49390726452LAMINI LALLA ZINEB            xx0000000000209546000000200115000
49390726514ABDOU MUSTAPHA                xx0000000000209547000000200115000
49390726565LYAMANI HALIMA                xx0000000000209548000000200115000
49390726705LAGHRIRI LHASSANE             xx0000000000209549000000200115000
49390726718BOUHADDOUCH EL HADI           xx0000000000209550000000200115000
49390726725OUADDA MIMOUN                 xx0000000000209551000000200115000
49390726770EL GHACHOUI FATIHA            xx0000000000209552000000200115000
49390731640REKAB MOHAMED                 xx0000000000209553000000200115000
49390731671BOURHIM MBAREK                xx0000000000209554000000200115000
49390731757ADDAHBI EL KOURI              xx0000000000209555000000200115000
49390731874JAMALI SAADIA                 xx0000000000209556000000200115000
49390732214SADEK HALIMA                  xx0000000000209557000000200115000
49390732656EL GHARRAS HAFIDA             xx0000000000209558000000200115000
49390732756MISKIN TOURIA                 xx0000000000209559000000200115000
49390732759ISAFIANI MALIKA               xx0000000000209560000000200115000
49390732876AZIZI JAMILA                  xx0000000000209561000000200115000
49390744666AIT ALLA MOHAMED              xx0000000000209563000000200115000
49390744743LIAMANI KHALID                xx0000000000209564000000200115000
49390744923ALLIOUI MOHAMED               xx0000000000209565000000200115000
49390744960BOUAICHI SOUMIA               xx0000000000209566000000200115000
49390758611LIMAM BRAHIM                  xx0000000000209567000000200115000
49390758612KHALDI FATIMA                 xx0000000000209568000000200115000
49390758701LHAMDANIA MUSTAPHA            xx0000000000209569000000200115000
49390758704LOUKILI HAFIDA                xx0000000000209570000000200115000
49390758705LAMRABET ABDELOUAHID          xx0000000000209571000000200115000
49390189326ANHARI MOHAMED                xx0000000000209572000000200115000
49390759804ADDAOU ASMAE                  xx0000000000209573000000200115000
49390759958IBN EL AMIN EL AALAMI A       xx0000000000209574000000200115000
49390759959LAHMAR NOURDINE               xx0000000000209575000000200115000
49390759972BERKAOUI RABHA                xx0000000000209576000000200115000
49390760308EZZINE ABDERRAHIM             xx0000000000209577000000200115000
49390760329MOUNTAKA AHMED                xx0000000000209578000000200115000
49390760367LISSER NADIA                  xx0000000000209579000000200115000
49390760368IBADISSEN HACHEM              xx0000000000209580000000200115000
49390760429CHEMITE MOHAMMED              xx0000000000209582000000200115000
49390760440ZAHRANE SAID                  xx0000000000209583000000200115000
49390760448KACIMI MUSTAPHA               xx0000000000209584000000200115000
49390760483OUARBIA MOHAMED               xx0000000000209586000000200115000
49390760488GUERRANI MOHAMED              xx0000000000209587000000200115000
49390760636SALIMI SAIDA                  xx0000000000209588000000200115000
49390760637BOUDAK ELHASSANE              xx0000000000209589000000200115000
49390769300EL KORAANI FATIMA             xx0000000000209590000000200115000
49390769318EL AMROUSSI KHALID            xx0000000000209591000000200115000
49390769338SIHI KHADIJA                  xx0000000000209592000000200115000
49390773016DRISSI FATIMA                 xx0000000000209593000000200115000
49390773017DRISSI EL MEHDI               xx0000000000209594000000200115000
49390773033BOUDDIN HLIMA                 xx0000000000209595000000200115000
49390773121AMHARECH ABDELMAJD            xx0000000000209597000000200115000
49390773122KHETTOUCH RABIA               xx0000000000209598000000200115000
49390773146AIT BOUHLAL SIDI YOUSSEF      xx0000000000209599000000200115000
49390773149ALAOUI HAKIM MOULAY HFID      xx0000000000209600000000200115000
49390774511AFKIR ABDELKRIM               xx0000000000209601000000200115000
49390774554SIAD MOULAY MOSTAPHA          xx0000000000209602000000200115000
49390774586MAGGA MOHAMED                 xx0000000000209603000000200115000
49390774590BOUMEZZOUGH KHADIJA           xx0000000000209604000000200115000
49390774597BELHAOU HALIMA                xx0000000000209605000000200115000
49390774614BOUTALEB LALLA ASMAA          xx0000000000209606000000200115000
49390774615BOUKADDOUR SAMIRA             xx0000000000209607000000200115000
49390774796AIT SAID MOHAMED              xx0000000000209608000000200115000
49390776252NFISSI NADIA                  xx0000000000209609000000200115000
49390776253BENCHRIF MOULAY EL HASSAN     xx0000000000209610000000200115000
49390228320LAKHNOUSSI ALI                xx0000000000209611000000200115000
49390777808MAROUI DRISS                  xx0000000000209612000000200115000
49390777824EL FHAIEL ABDELAZIZ           xx0000000000209613000000200115000
49390777877EL KHAOUDI KANZA              xx0000000000209614000000200115000
49390777895EL FAIDI FATIMA               xx0000000000209615000000200115000
49390777897ABDERASSOUL KHADIJA           xx0000000000209616000000200115000
49390777900BENNANI ABDELALI              xx0000000000209617000000200115000
49390777907EZZAHID OMAR                  xx0000000000209618000000200115000
49390777952ABDATI SIDATI                 xx0000000000209619000000200115000
49390777955IMOURIG MINA                  xx0000000000209620000000200115000
49390777959BAHOUH HAMID                  xx0000000000209621000000200115000
49390777965TAZROUTI ABDELKADER           xx0000000000209622000000200115000
49390228634BECHANI MOHAMED               xx0000000000209624000000200115000
49390778021ZAIDI SOUAAD                  xx0000000000209625000000200115000
49390778040AMMAR MAJIDA                  xx0000000000209626000000200115000
49390778046BELGUITI LAYLA                xx0000000000209627000000200115000
49390778077HASNI HAMID                   xx0000000000209628000000200115000
49390782346JORJI MUSTAPHA                xx0000000000209629000000200115000
49390782480FARIDI RQUIA                  xx0000000000209630000000200115000
49390782492ABKARI AHMED                  xx0000000000209631000000200115000
49390782517BENJEBBOUR LARBI              xx0000000000209632000000200115000
49390782535EL MAAROUFI MOHAMED           xx0000000000209633000000200115000
49390782580EL JAIDI KHADIJA              xx0000000000209634000000200115000
49390782804EL BARAKA NOUREDDINE          xx0000000000209635000000200115000
49390782808EL YAZIDI MOUNIR              xx0000000000209636000000200115000
49390782812MKIKA ZOHRA                   xx0000000000209637000000200115000
49390782815AYAD ILHAM                    xx0000000000209638000000200115000
49390782820AHADAOUI HASSAN               xx0000000000209639000000200115000
49390782829CHAOU NAIMA                   xx0000000000209640000000200115000
49390782837NACIRI ABDELJALIL             xx0000000000209641000000200115000
49390782846ANOUAR SALAH                  xx0000000000209642000000200115000
49390782861HAJJAMI MOHAMMED              xx0000000000209643000000200115000
49390782923MOUNIR ABDELKARIM             xx0000000000209644000000200115000
49390782931CHOUKRI HASSAN                xx0000000000209645000000200115000
49390786242EL BOUANANI NAJAT             xx0000000000209646000000200115000
49390786268SAID JAMILA                   xx0000000000209647000000200115000
49390786276EL HARA SOUAD                 xx0000000000209648000000200115000
49390786303LAADIM HLIMA                  xx0000000000209649000000200115000
49390786310DAAYF SOUAD                   xx0000000000209650000000200115000
49390786312FELLAH NASSIRA                xx0000000000209651000000200115000
49390786320ISMAILI ALAOUI HASSANIA       xx0000000000209653000000200115000
49390786323NAAIM MOULOUD                 xx0000000000209654000000200115000
49390786328BENAISSA FATIMA               xx0000000000209655000000200115000
49390786329HASMI ABDELMJID               xx0000000000209656000000200115000
49390786337BENBAKH NADIA                 xx0000000000209657000000200115000
49390786338ZEHRAOUI MUSTAPHA             xx0000000000209658000000200115000
49390786340EL MHAMMEDI BOCHRA            xx0000000000209659000000200115000
49390786341SIDI ATHMANE ABDESLAME        xx0000000000209660000000200115000
49390786343AHLRGUIBI MAIMOUNA SALMA      xx0000000000209661000000200115000
49390786346KHARIJAH MINA                 xx0000000000209662000000200115000
49390786347EZZINE ELMOSTAFA              xx0000000000209663000000200115000
49390786350ERRAHMOUNI RQUIA              xx0000000000209664000000200115000
49390786353CHAMRANI ZAHRA                xx0000000000209665000000200115000
49390786358EL BOUKILI SAID               xx0000000000209666000000200115000
49390786361MOUDDEN MILOUD                xx0000000000209667000000200115000
49390786409AKTAINI ABDELAZIZ             xx0000000000209668000000200115000
49390786417JMILI FATIMA                  xx0000000000209669000000200115000
49390786419DOUIEB SOAD                   xx0000000000209670000000200115000
49390786424REMAOUI LATIFA                xx0000000000209671000000200115000
49390786426ABID LATIFA                   xx0000000000209672000000200115000
49390786452EL FAZAZI ZOUBIDA             xx0000000000209673000000200115000
49390788935TOUGHZAOUI MUSTAPHA           xx0000000000209674000000200115000
49390788991ESSABBAK LAILA                xx0000000000209675000000200115000
49390788993EZ ZAIDI JILALI               xx0000000000209676000000200115000
49390789045AIT LARBI MOHAMED             xx0000000000209677000000200115000
49390789096KHLIFI ZAHRA                  xx0000000000209678000000200115000
49390789097KALKHA HANIA                  xx0000000000209679000000200115000
49390789141ENNAOUI ABDELHAQ              xx0000000000209680000000200115000
49390789143ESSOULI ABOUBAKER             xx0000000000209681000000200115000
49390789148SALAMA FATIMA                 xx0000000000209682000000200115000
49390789153ISMAILI LEKBIR                xx0000000000209683000000200115000
49390789251AMINOU RABHA                  xx0000000000209684000000200115000
49390789252BOUHADDOU HASSANIA            xx0000000000209685000000200115000
49390789284BEDDOUZ BRAHIM                xx0000000000209686000000200115000
49390835487SAMMAH FATIHA                 xx0000000000209687000000200115000
49390835500AHL MBAREK MOHAMED            xx0000000000209688000000200115000
49390835603BELKHALFI ZAKIA               xx0000000000209690000000200115000
49390835648IGHACHANE KASSEM              xx0000000000209691000000200115000
49390835684OUJEDDI ABDELAAZIZ            xx0000000000209692000000200115000
49390835742DINIA HANA                    xx0000000000209693000000200115000
49390836912EL ABDELLAOUI FATIMA ZOHRA    xx0000000000209694000000200115000
49390836928ZAOUG KALTOUME                xx0000000000209695000000200115000
49390837113ESSOFI AHMED                  xx0000000000209696000000200115000
49390837118JOHRI NADIA                   xx0000000000209697000000200115000
49390837120EL FHAIEL OIFAE               xx0000000000209698000000200115000
49390837124LEKHBIA NOUR REDINE           xx0000000000209700000000200115000
49390837126IDRISSI TAFRAOUTI SAMIRA      xx0000000000209701000000200115000
49390837127JAAFARI RACHID                xx0000000000209702000000200115000
49390837189DIHI YOUSSEF                  xx0000000000209703000000200115000
49390837197KHAZZARI AHMED                xx0000000000209705000000200115000
49390837202DAOUDI FATMA                  xx0000000000209706000000200115000
49390837206HOUMARE NAJAT                 xx0000000000209707000000200115000
49390837333FADIL MOHAMMED                xx0000000000209708000000200115000
49390837334MOUKDAD SALIMA                xx0000000000209709000000200115000
49390837398BENSASSI KHADIJA              xx0000000000209710000000200115000
49390837421ACHEHROUR YOUNESS             xx0000000000209711000000200115000
49390837427KHALYL ABDELHAMID             xx0000000000209712000000200115000
49390837471LAMRABET MOHAMMED             xx0000000000209713000000200115000
49390837472ICHOUHAR ABDELKRIM            xx0000000000209714000000200115000
49390837500EL AMRANI WAFAA               xx0000000000209715000000200115000
49390837504CHAQUOUR LHOUCINE             xx0000000000209716000000200115000
49390837505OUKHAYI LAHOUSSINE            xx0000000000209717000000200115000
49390837512SELLAKMINE MOHAMED            xx0000000000209718000000200115000
49390837515FOUASSI NAIMA                 xx0000000000209719000000200115000
49390837523LACHANE ISMAIL                xx0000000000209720000000200115000
49390837539MAHRI MOHAMED                 xx0000000000209721000000200115000
49390837692SOUNI MUSTAPHA                xx0000000000209722000000200115000
49390838010INEFLASS HOUDA                xx0000000000209723000000200115000
49390838064OUAGAGUE ABDERRAHMANE         xx0000000000209724000000200115000
49390844609ZANAFI YOUSSEF                xx0000000000209725000000200115000
49390844801OUALI FATIMA                  xx0000000000209726000000200115000
49390844859TAHNINE KHADIJA               xx0000000000209727000000200115000
49390846485ASSILA MAHJOUBA               xx0000000000209728000000200115000
49390846660BENYOUCEF ABDERRAZZAK         xx0000000000209729000000200115000
49390846769CHALLA NEZHA                  xx0000000000209730000000200115000
49390847101CHABBAK DRISS                 xx0000000000209731000000200115000
49390847954DRISSI FATIMA                 xx0000000000209732000000200115000
49390855248AZOKA RKIA                    xx0000000000209733000000200115000
49390855256GHALMI ZINEB                  xx0000000000209734000000200115000
49390855278ZOUGAT NAJIA                  xx0000000000209735000000200115000
49390855282AADIDOU NEZHA                 xx0000000000209736000000200115000
49390855285EL HAY MALIKA                 xx0000000000209737000000200115000
49390855431SAFIR AICHA                   xx0000000000209738000000200115000
49390856425SEFRAOUI ASMAHANE             xx0000000000209739000000200115000
49390856464GNAOUI SAADIA                 xx0000000000209740000000200115000
49390862056BAKKARI HOURIA                xx0000000000209741000000200115000
49390862058EL MENANI NADIA               xx0000000000209742000000200115000
49390862062SIDQI KHADIJA                 xx0000000000209743000000200115000
49390868558CHAMANE MINA                  xx0000000000209744000000200115000
49390869182BARAD SAIDA                   xx0000000000209745000000200115000
49390869209RAHMANI KHADIJA               xx0000000000209746000000200115000
49390265136EL MALKI EL HAJ               xx0000000000209747000000200115000
49390869239AMRANI RACHIDA                xx0000000000209748000000200115000
49390869247GHASSOULI HAFIDA              xx0000000000209749000000200115000
49390869251ZIAT FILALI FATIHA            xx0000000000209750000000200115000
49390869252EL MOUSTAQIM YAMNA            xx0000000000209751000000200115000
49390871665SOULEIMANI KELTOUM            xx0000000000209752000000200115000
49390872097KOUISSEH KHADDOUJ             xx0000000000209753000000200115000
49390872913EL MOUHALHAL SAIDA            xx0000000000209754000000200115000
49390872945MANNA EL HAIBA                xx0000000000209755000000200115000
49390875755JAMALI WAFAA                  xx0000000000209756000000200115000
49390875764OUAMMAR KHADIJA               xx0000000000209757000000200115000
49390876071BOUSSAHFA KHADIJA             xx0000000000209758000000200115000
49390876092DARDAK AATIKA                 xx0000000000209760000000200115000
49390876152ZAIMI HANANE                  xx0000000000209761000000200115000
49390876156LAHLOU BAHIJA                 xx0000000000209762000000200115000
49390876160TAHRI RABIA                   xx0000000000209763000000200115000
49390893531TAOUFIKI OMAR                 xx0000000000209764000000200115000
49390893704BELBEKR NAJI                  xx0000000000209765000000200115000
49390893789OUBELLA TAYEB                 xx0000000000209767000000200115000
49390893913ELHARBI MALIKA                xx0000000000209768000000200115000
49390323956EL KHALLADI ALLAL             xx0000000000209769000000200115000
49390350526GHAZI SAID                    xx0000000000209770000000200115000
49390696056AIT NASSER BRAHIM             xx0000000000209771000000200115000
49390896522GHARIOUI FATIMA               xx0000000000209772000000200115000
49390896537HOU ABDELKADER                xx0000000000209773000000200115000
49390896540AMARIR MOHAMMED               xx0000000000209774000000200115000
49390896547EL QADDOURI FATNA             xx0000000000209775000000200115000
49390896575MABROUK MOHAMED               xx0000000000209776000000200115000
49390896580AIT OUKHALI LATIFA            xx0000000000209777000000200115000
49390896582ABAHAZEM ABDATI               xx0000000000209778000000200115000
49390896865HARNAFI LATIFA                xx0000000000209779000000200115000
49390897996ABDATI MALIKA                 xx0000000000209780000000200115000
49390898336LGO MIMOUN                    xx0000000000209781000000200115000
49390898352MARCHICH MOHAMED              xx0000000000209782000000200115000
49390898365BARRAMI FATIHA                xx0000000000209783000000200115000
49390899740KDAD FATIMA                   xx0000000000209784000000200115000
49390758789BAHAJ NADIA                   xx0000000000209785000000200115000
49390899794ELIDRISSI MEKKI               xx0000000000209786000000200115000
49390899795BERKAL AICHA                  xx0000000000209787000000200115000
49390946270EL OUTMANI ZOHRA              xx0000000000209788000000200115000
49390953198CHAKI EZZEHIRA                xx0000000000209789000000200115000
49390962553BOUKADDOUR ZOULIKHA           xx0000000000209791000000200115000
49390966181CHIGUER AICHA                 xx0000000000209792000000200115000
49390976360ESSAADI MARIA                 xx0000000000209793000000200115000
49390976607DADDA FATIHA                  xx0000000000209794000000200115000
49390977213ALIOUA KHADIJA                xx0000000000209795000000200115000
49390894229BOURHIM M HAMED               xx0000000000209796000000200115000
49390978739NAKHILI FATIMA                xx0000000000209797000000200115000
49390978741BOULAHIA FOUZIYA              xx0000000000209798000000200115000
49390978750EL FANFANI SAIDA              xx0000000000209799000000200115000
49390979680OUCHAO ZAHRA                  xx0000000000209800000000200115000
49390979783RMICH MINA                    xx0000000000209801000000200115000
49390979785NIGGA MALIKA                  xx0000000000209802000000200115000
49390979788NABIL NADIA                   xx0000000000209803000000200115000
49391000081SABRI BOUCHAIB                xx0000000000209804000000200115000
49391000096BARKA FATIMA                  xx0000000000209805000000200115000
49391000117ABAHAR BOUCHRA                xx0000000000209806000000200115000
49391000118EL BOURAKADI KHADIJA          xx0000000000209807000000200115000
49391000803MAHBOUB FATIMA                xx0000000000209808000000200115000
49391000808RHADBANE MINA                 xx0000000000209809000000200115000
49391000811BENNOUR SELOUA                xx0000000000209810000000200115000
49391000817LAKHLAIDI TOURIYA             xx0000000000209811000000200115000
49391000827ENNABATE FATIHA               xx0000000000209812000000200115000
49391000829LAKHAL ABDELLAH               xx0000000000209813000000200115000
49391000830LAMHIOUI FATIMA               xx0000000000209814000000200115000
49391001297KHAI KHADIJA                  xx0000000000209815000000200115000
49391001305FENNOUS MALIKA                xx0000000000209816000000200115000
49391001311LAZAR AICHA                   xx0000000000209817000000200115000
49391001384HOUCAIN HANANE                xx0000000000209818000000200115000
49391001394EL KEOUALI LATIFA             xx0000000000209819000000200115000
49391001399YASSINE ZOUHRA                xx0000000000209820000000200115000
49391001406QOTBI MOUNIA                  xx0000000000209821000000200115000
49391001460BOUKHENFAR AICHA              xx0000000000209822000000200115000
49391002340SAHIL ABDESLAM                xx0000000000209823000000200115000
49391002370MALKI MOHAMMED                xx0000000000209824000000200115000
49391002503BROURI FATIMA                 xx0000000000209825000000200115000
49391043258MERZGUIOUI MOHAMED            xx0000000000209826000000200115000
49391054385FAKHIR EDDINE SOUAD           xx0000000000209827000000200115000
49391054623ELKADDOURI RACHIDA            xx0000000000209829000000200115000
49391054627CHARIAI ABDERRAHIM            xx0000000000209830000000200115000
49391054629RJIMATI HASSAN                xx0000000000209831000000200115000
49391054631ZAHRI ABDERRAZAK              xx0000000000209832000000200115000
49391054633RIKHAT MINA                   xx0000000000209833000000200115000
49391054638AGOURRAM ABDERRAHIM           xx0000000000209834000000200115000
49391054647BENHIDA ABDELGHANI            xx0000000000209835000000200115000
49391054654MOUH ABDELAZIZ                xx0000000000209836000000200115000
49391054661DOGHMI MOHAMMED               xx0000000000209837000000200115000
49391054665KHADDOU OMAR                  xx0000000000209838000000200115000
49391054666EL MESBAHI MOHAMED            xx0000000000209839000000200115000
49391054672HOUR HAKIMA                   xx0000000000209840000000200115000
49391054681KINANY MOHAMMED               xx0000000000209841000000200115000
49391054682BENRHMOUCHE MOHAMMED          xx0000000000209842000000200115000
49391054684EL MAHI MOUSSA                xx0000000000209843000000200115000
49391054697AZIM AICHA                    xx0000000000209844000000200115000
49391054699MEKOUAR ADIL                  xx0000000000209845000000200115000
49391054724ABERDIN ZAHRA                 xx0000000000209846000000200115000
49391054726BENNASSEF EL GHLIMI           xx0000000000209847000000200115000
49391054728EL AIZA SAID                  xx0000000000209848000000200115000
49391054730DAFANI RAHHAL                 xx0000000000209849000000200115000
49391054770KREKER BAHIJA                 xx0000000000209850000000200115000
49391054771LAMGHARI NAZHA                xx0000000000209851000000200115000
49391054774ELMARZAK FATIMA               xx0000000000209852000000200115000
49391054790BELMAHJOUB JAMAL              xx0000000000209853000000200115000
49391054794SABRI FAWZIA                  xx0000000000209854000000200115000
49391054795BOUISSA SOUMIA                xx0000000000209855000000200115000
49391054803BOUALLAGA AMINA               xx0000000000209856000000200115000
49391054810LAHRICHI IMANE                xx0000000000209857000000200115000
49391054812ABRADA FATIMA                 xx0000000000209858000000200115000
49391054813BENAZZI MINA                  xx0000000000209859000000200115000
49391054814ES SEMLALI AICHA              xx0000000000209860000000200115000
49391054815EL OUFIR SOUAD                xx0000000000209861000000200115000
49391054827BAROURI AZIZ                  xx0000000000209862000000200115000
49391054838CHERQAOUI MOHAMMED ETTAHIR    xx0000000000209863000000200115000
49391054840EDDAH EL HAJ                  xx0000000000209864000000200115000
49391054851BOUKHARI JAOUAD               xx0000000000209865000000200115000
49391054886DAOUDI MOHAMMED               xx0000000000209866000000200115000
49391054894MORCHID HAYAT                 xx0000000000209867000000200115000
49391054898RACHIDI ZINEB                 xx0000000000209868000000200115000
49391054987YOUSFI AMAL                   xx0000000000209869000000200115000
49391054997RGUIBI DRISSIA                xx0000000000209870000000200115000
49391055003ID ELKACHA AICHA              xx0000000000209871000000200115000
49391055005TOUBAJI MAHJOUBA              xx0000000000209872000000200115000
49391055008HAMANI MOHAMED                xx0000000000209873000000200115000
49391055011SEKKAT MOUNA                  xx0000000000209874000000200115000
49391055012RHIDOUANI MOHAMMED            xx0000000000209875000000200115000
49391055037ENNOUHI SAADEDDINE            xx0000000000209876000000200115000
49391055038AZOUA MOHAMED                 xx0000000000209877000000200115000
49391055154HAJJI YOUNESS                 xx0000000000209878000000200115000
49391055156BOUSSETA MOUNIA               xx0000000000209879000000200115000
49391055198LHAINI KHADIJA                xx0000000000209880000000200115000
49391055219HAYATE MOHAMMED               xx0000000000209881000000200115000
49391055263EL MOKH HOUDA                 xx0000000000209882000000200115000
49391055266CHERTI TAZI OUADIA            xx0000000000209883000000200115000
49391055271BENNOUNA TOURIYA              xx0000000000209884000000200115000
49391055280EL MEJJATI KHALID             xx0000000000209885000000200115000
49391055281MAROUAN NAJAT                 xx0000000000209886000000200115000
49391055286NAJI FATIMA                   xx0000000000209887000000200115000
49391055288BRITEL DRISS                  xx0000000000209888000000200115000
49391055289HAMMOUR AHMED                 xx0000000000209889000000200115000
49391055290BACHIRI EL BAUCHTAOUI         xx0000000000209890000000200115000
49391055291TOUZANI NADIA                 xx0000000000209891000000200115000
49391055307BENRHMOUCHE KARIM             xx0000000000209892000000200115000
49391055314EL HMIM SAIDA                 xx0000000000209893000000200115000
49391055319DRISSI BELGASMI SIDI MOHAMME  xx0000000000209894000000200115000
49391055320BOULAAMANE RAHMA              xx0000000000209895000000200115000
49391055330ABAKARIM MINA                 xx0000000000209896000000200115000
49391055346SABRI LAHOUCINE               xx0000000000209897000000200115000
49391055356RIBGOU NAIMA                  xx0000000000209899000000200115000
49391055359ABOUHRIA SAMIA                xx0000000000209900000000200115000
49391055361SLAMA MOHAMED                 xx0000000000209901000000200115000
49391055379DHAIBI SARA                   xx0000000000209903000000200115000
49391055384ES SAID AHMED                 xx0000000000209904000000200115000
49391055385FADIL ABDELMJID               xx0000000000209905000000200115000
49391055388HRIMACHE ABDELKADER           xx0000000000209906000000200115000
49391055391CHERQAOUI MOHAMMED            xx0000000000209907000000200115000
49391055392EL AJROUDI DRISS              xx0000000000209908000000200115000
49391055406EDDOQ TOURIA                  xx0000000000209909000000200115000
49391055407FATHI AZIZA                   xx0000000000209910000000200115000
49391055408IAZOUZAN FATIMA               xx0000000000209911000000200115000
49391055409BENMESSAOUD ABDERRAHIM        xx0000000000209912000000200115000
49391055410HIMDI FATIHA                  xx0000000000209913000000200115000
49391129825OUAFI KARIMA                  xx0000000000209914000000200115000
49391142647BOURJLATE ISMAIL              xx0000000000209915000000200115000
49391142671BENKHALLOUQ MOHAMED           xx0000000000209916000000200115000
49391142675ABDELHAQ KHADIR               xx0000000000209917000000200115000
49391142677MAZIGHA MOHAMMED              xx0000000000209918000000200115000
49391142687ANOUAR MOHAMED CHAFIQ         xx0000000000209920000000200115000
49391142691AZOUA MUSTAPHA                xx0000000000209921000000200115000
49391142713FAIK BOUCHRA                  xx0000000000209923000000200115000
49391142722ZIKAR FATNA                   xx0000000000209924000000200115000
49391142729MACHFOUA NABILA               xx0000000000209925000000200115000
49391142735KHATORI NAIMA                 xx0000000000209926000000200115000
49391142755BENNANI IMANE                 xx0000000000209927000000200115000
49391142758NOUIJI HAYAT                  xx0000000000209928000000200115000
49391142766AIT BOUICHCHOU BOUCHRA        xx0000000000209929000000200115000
49391142775EL MOUTAOUKIL LAMIAA          xx0000000000209930000000200115000
49391142789MAGANI RACHIDA                xx0000000000209931000000200115000
49391142802HASSANE NORA                  xx0000000000209933000000200115000
49391142803HAMOUROU JAMILA               xx0000000000209934000000200115000
49391142807EL MASYKY FATIHA              xx0000000000209935000000200115000
49391142817RAFIK AICHA                   xx0000000000209936000000200115000
49391142821KASSIMI KHALID                xx0000000000209937000000200115000
49391142824ESSENOUSI FATIMA ZOHRA        xx0000000000209938000000200115000
49391142826EL HALIMI RIDA                xx0000000000209939000000200115000
49391142829BOUMNIDEL ANISSA              xx0000000000209940000000200115000
49391142830TALHA SOUMAYA                 xx0000000000209941000000200115000
49391142836BERD HANANE                   xx0000000000209942000000200115000
49391142837YASSINE KARIMA                xx0000000000209943000000200115000
49391142841SENHAJI AICHA                 xx0000000000209944000000200115000
49391142845SLAOUI KHADIJA                xx0000000000209945000000200115000
49391142915ABADY MOHAMED                 xx0000000000209946000000200115000
49391142925OULABASSE KHADOUJ             xx0000000000209947000000200115000
49391142934GUERTITE IDRISS               xx0000000000209949000000200115000
49391143042SEBBAR LOUBNA                 xx0000000000209950000000200115000
49391143044ZAROUALI CHAKKORI OTMAN       xx0000000000209951000000200115000
49391143051EL JARHAOUI NEZHA             xx0000000000209952000000200115000
49391143054TAHIRI MY ABDELAZIZ           xx0000000000209953000000200115000
49391143061BOUDIR FATIHA                 xx0000000000209955000000200115000
49391143065TAHIRI NOURA                  xx0000000000209956000000200115000
49391143066CHTATOU HASSANE               xx0000000000209957000000200115000
49391143068AIT IDER KHADIJA              xx0000000000209958000000200115000
49391143074IDHAMOUJAMA LAHCEN            xx0000000000209960000000200115000
49391143080EL KEMIA BENAISSA             xx0000000000209961000000200115000
49391143081OUAZZANI TOUHAMI FOUAD        xx0000000000209962000000200115000
49391143096TANTANE ABDELALI              xx0000000000209963000000200115000
49391143100OUDRHIRI KHADIJA              xx0000000000209964000000200115000
49391143126LAMZOURI SAID                 xx0000000000209965000000200115000
49391143130MOUAILY SAID                  xx0000000000209966000000200115000
49391143143CHAKIR NADIA                  xx0000000000209967000000200115000
49391143149ZIOUANI MOURAD                xx0000000000209968000000200115000
49391143318BENTAYEK HAFID                xx0000000000209969000000200115000
49391143320KLIBI HATIM                   xx0000000000209970000000200115000
49391143322EZ ZITOUNI HABBAZ             xx0000000000209971000000200115000
49391143328QESSAD HASSAN                 xx0000000000209972000000200115000
49391143330RAKCHO MOHAMMED               xx0000000000209973000000200115000
49391143331AIT BOUDAR RABHA              xx0000000000209974000000200115000
49391143333MOFADEL HASSAN                xx0000000000209975000000200115000
49391143338JANATI NAJAT                  xx0000000000209976000000200115000
49391143368OUMARI LAHOUCINE              xx0000000000209978000000200115000
49391143369ACHABAK ABDELILAH             xx0000000000209979000000200115000
49391143385SAKINE NOURADDINE             xx0000000000209983000000200115000
49391143391EL KAMLI SAID                 xx0000000000209984000000200115000
49391143392FAIZ FARIDA                   xx0000000000209985000000200115000
49391143397EL KHARBOUCHI HAMID           xx0000000000209986000000200115000
49391168808ERRADE BENAISSA               xx0000000000209987000000200115000
49391168823EL BADAOUI ABDELLAH           xx0000000000209988000000200115000
49391168824BOUJEMRI LAHOUCINE            xx0000000000209989000000200115000
49391168831ZERDAHI NADIA                 xx0000000000209990000000200115000
49391168832ZAIOUD FATIHA                 xx0000000000209991000000200115000
49391168837MARHBA MALIKA                 xx0000000000209992000000200115000
49391168838TAJE EDDINE FAIZA             xx0000000000209993000000200115000
49391168843BACHKAR ZAHIRA                xx0000000000209994000000200115000
49391168844RADI FATIMA                   xx0000000000209995000000200115000
49391168848JABIR RACHIDA                 xx0000000000209996000000200115000
49391168862OURIZ LATIFA                  xx0000000000209997000000200115000
49391168864MEROUANE MBARKA               xx0000000000209998000000200115000
49391168867LAGHMADI SAMIRA               xx0000000000209999000000200115000
49391168873HILAL BADIA                   xx0000000000210000000000200115000
49391168886LAGRAMEH RABIA                xx0000000000210001000000200115000
49391168887BIADI ILHAM                   xx0000000000210002000000200115000
49391168890ZAID LATIFA                   xx0000000000210003000000200115000
49391168893NASSIHI RABIAA                xx0000000000210004000000200115000
49391168894FOUADI NAJAT                  xx0000000000210005000000200115000
49391168895ABIDA SOUAD                   xx0000000000210006000000200115000
49391168900EL HABCHI KHADIJA             xx0000000000210007000000200115000
49391168905BENABBOU SOUAD                xx0000000000210008000000200115000
49391168906BENHAMOU KARIMA               xx0000000000210009000000200115000
49391168914CHIGUER BELAID                xx0000000000210010000000200115000
49391168915LABIYAD BOUCHRA               xx0000000000210011000000200115000
49391168916EZZIDOUNI ELMIMOUNI NAIMA     xx0000000000210012000000200115000
49391168918SAAJI MINA                    xx0000000000210013000000200115000
49391168921ESSABI ZAHRA                  xx0000000000210014000000200115000
49391168925BOUMENJEL NAJAT               xx0000000000210015000000200115000
49391168939SBAA NAJAT                    xx0000000000210016000000200115000
49391168942EL MELLIHI SAMIRA             xx0000000000210017000000200115000
49391168946MAIMOUNI MOHAMMED             xx0000000000210018000000200115000
49391168956IGIOUI LATIFA                 xx0000000000210019000000200115000
49391168960ARHIL KHADIJA                 xx0000000000210020000000200115000
49391169011AL KADAOUI SAMIRA             xx0000000000210021000000200115000
49391169013LAAZIBI NAJIHA                xx0000000000210022000000200115000
49391169029MIZOU ADIL                    xx0000000000210023000000200115000
49391169035SALHI HASSANE                 xx0000000000210024000000200115000
49391169054BOUTKROUMT FOUAD              xx0000000000210025000000200115000
49391169058RGHIOUI KAOUTAR               xx0000000000210026000000200115000
49391169069MOUSSAOUI MOHAMED             xx0000000000210027000000200115000
49391169073BOUSSENNA MINA                xx0000000000210028000000200115000
49391169081BOULAHLIB LALLA SAADIA        xx0000000000210029000000200115000
49391169082BANA ABDELOUAHED              xx0000000000210030000000200115000
49391169085ACHANDIR ABDELLAH             xx0000000000210031000000200115000
49391169109HAFDI MOHAMED                 xx0000000000210032000000200115000
49391169113KHALOUTA ABDELOUAHED          xx0000000000210033000000200115000
49391169129BAHLOU HAFIDA                 xx0000000000210034000000200115000
49391169133HAMEDDINE ABDELMJID           xx0000000000210035000000200115000
49391169136SOUIBA MERIEM                 xx0000000000210036000000200115000
49391169180EL HAIBA KHALID               xx0000000000210037000000200115000
49391169205ACHAK RIDOINE                 xx0000000000210038000000200115000
49391169208REDDAD MOHAMED                xx0000000000210039000000200115000
49391169216MAIDEN ADIL                   xx0000000000210040000000200115000
49391169218JAMJAMA SAID                  xx0000000000210041000000200115000
49391169224EL JAHOUANI NOUR EDDINE       xx0000000000210042000000200115000
49391169242IBNECHRYF HASNA               xx0000000000210043000000200115000
49391169252DAMKAL MOHAMED                xx0000000000210044000000200115000
49391169270NIFI RADOUANE                 xx0000000000210045000000200115000
49391169276LAAFISSE HICHAM               xx0000000000210046000000200115000
49391169295KALOULI ABDELKADER            xx0000000000210047000000200115000
49391169297TLOUSSI LAAZIZA               xx0000000000210048000000200115000
49391169299EL HARRADI KHADIJA            xx0000000000210049000000200115000
49391169307HAMDOUCH MALIKA               xx0000000000210050000000200115000
49391169308MERNISSI BOUJAMAA             xx0000000000210051000000200115000
49391169311ADDOU HASSAN                  xx0000000000210052000000200115000
49391169317BOULAALA BOUBCHER             xx0000000000210053000000200115000
49391169327LAABOUDI IBTIHAJ              xx0000000000210054000000200115000
49391169331HAMITI AMAL                   xx0000000000210055000000200115000
49391169332BOUAROUQ AZIZA                xx0000000000210056000000200115000
49391169333DOUKKALI SAIDA                xx0000000000210057000000200115000
49391169354EL IDRISSI MOULAY IDRISS      xx0000000000210058000000200115000
49391169364BNINECH HASSAN                xx0000000000210059000000200115000
49391169383MRANI MERYEME                 xx0000000000210060000000200115000
49391169400EL FARGALI MOHAMED            xx0000000000210061000000200115000
49391169450BENALI FATIMA ZOHRA           xx0000000000210062000000200115000
49391169459LAARIBI ABDELKADER            xx0000000000210063000000200115000
49391169470AKERMACH ISSAM                xx0000000000210064000000200115000
49391169480EL FILALI YOUSSEF             xx0000000000210065000000200115000
49391169486RHOUNI MUSTAPHA               xx0000000000210066000000200115000
49391169490ESSERADI MOHAMED              xx0000000000210067000000200115000
49391169504FETTAH ALI                    xx0000000000210068000000200115000
49391169506EL BOUKFAOUI MY RACHID        xx0000000000210069000000200115000
49391169511BARKA HASSAN                  xx0000000000210070000000200115000
49391169520CHAQRI YOUSSEF                xx0000000000210071000000200115000
49391169521NAFZAOUI HASSANIA             xx0000000000210072000000200115000
49391169523CHAHID MOHAMED                xx0000000000210073000000200115000
49391169524KHRIBECH AZYZ                 xx0000000000210074000000200115000
49391169528LAMINI SIDI MOHAMED           xx0000000000210075000000200115000
49391169532BOURAMDANE ABDELAAZIZ         xx0000000000210076000000200115000
49391169534BADRI OMAR                    xx0000000000210077000000200115000
49391169537AKDIM AHMED                   xx0000000000210078000000200115000
49391169542DAHMANI NAJIM                 xx0000000000210079000000200115000
49391169555ES SOULAMI ABDERRAHIM         xx0000000000210080000000200115000
49391169559QADRI NOR EDDINE              xx0000000000210081000000200115000
49391169560BAKKACHI MOHAMED              xx0000000000210082000000200115000
49391169569ZIANI AICHA                   xx0000000000210083000000200115000
49391169580ELOUARDI TOURIA               xx0000000000210084000000200115000
49391169583MRIBAT NAIMA                  xx0000000000210085000000200115000
49391169585ANAIOUB FATIMA ZAHRA          xx0000000000210086000000200115000
49391169594EL OIROIR MBARK               xx0000000000210087000000200115000
49391169596BEN LAZRAK FATIMA             xx0000000000210088000000200115000
49391169600SLIMANI BOUCHRA               xx0000000000210089000000200115000
49391169602IDELMOU ZAHRA                 xx0000000000210090000000200115000
49391169617EL HALOUANI JAMILA            xx0000000000210091000000200115000
49391169633AYYAD ZOUBIDA                 xx0000000000210092000000200115000
49391169638EL ABKARI NAJIA               xx0000000000210093000000200115000
49391169639RHARARA KHADIJA               xx0000000000210094000000200115000
49391169651ESSAOUDI ABDELTIF             xx0000000000210095000000200115000
49391169661CHAABI BADIAA                 xx0000000000210096000000200115000
49391169663KANNANE ZOHRA                 xx0000000000210097000000200115000
49391169667HANDAZE RAJAA                 xx0000000000210098000000200115000
49391169668OUENZA HOUDA                  xx0000000000210099000000200115000
49391169669SANAA MAKANI                  xx0000000000210100000000200115000
49391169671BAYADARA RACHIDA              xx0000000000210101000000200115000
49391169674SAMIT MALIKA                  xx0000000000210102000000200115000
49391169684CHARKI ASMAE                  xx0000000000210103000000200115000
49391169689KHADIJA TIOUASSIOUINE         xx0000000000210104000000200115000
49391169695BAROUDA SOUAD                 xx0000000000210105000000200115000
49391169696CHAOUKI HAKIMA                xx0000000000210106000000200115000
49391169702ESHAIMI ASMAE                 xx0000000000210107000000200115000
49391169703BEN HSAIN HOUDA               xx0000000000210108000000200115000
49391169714HAJJAJ NOUR EL HOUDA          xx0000000000210109000000200115000
49391169720LAZRAGUE LAAZIZA              xx0000000000210110000000200115000
49391169721BEN HADDADI SAMIRA            xx0000000000210111000000200115000
49391169723TAMOUH KELTOUM                xx0000000000210112000000200115000
49391169734LAROUSSI HASSAN               xx0000000000210113000000200115000
49391169742EL AMRAOUI SIDI MOUH          xx0000000000210114000000200115000
49391169744SAHRAOUI HANANE               xx0000000000210115000000200115000
49391169747OUARAINI FATIMA               xx0000000000210116000000200115000
49391169751MAAZOUZ NAIMA                 xx0000000000210117000000200115000
49391169754EL MOUNACHIT FADNA            xx0000000000210118000000200115000
49391169791ARDDICHE LAHCEN               xx0000000000210119000000200115000
49390899744RIKHAT FATIMA                 xx0000000000210120000000200115000
49391229748ABDELKAHAR NACEUR             xx0000000000210121000000200115000
49391229755BOUTAKY YOUNES                xx0000000000210122000000200115000
49391229757KRAICHY ABDELKABIR            xx0000000000210123000000200115000
49391229758BEN YACHOU AHMED              xx0000000000210124000000200115000
49391229767JAIT HICHAM                   xx0000000000210125000000200115000
49391229768DARDOURI MOHAMED              xx0000000000210126000000200115000
49391229772BOUGDALI MOHAMED              xx0000000000210127000000200115000
49391229780BOUSSAKKA MOHAMED ALI         xx0000000000210129000000200115000
49391229781BOUJOUJOU BRAHIM              xx0000000000210130000000200115000
49391229788HMAMOU BRAHIM                 xx0000000000210131000000200115000
49391229789BENBRAHIM EL HASSAN           xx0000000000210132000000200115000
49391229792LAGHZAL SOUILEM               xx0000000000210133000000200115000
49391229798BOUMATA EL HASSAN             xx0000000000210136000000200115000
49391229833MUSTAPHA EL ANSARI            xx0000000000210137000000200115000
49391229835LALLA LADIBA MAALAININE       xx0000000000210138000000200115000
49391229838NAJEM BRAHIM                  xx0000000000210139000000200115000
49391229846ACHBANI BRAHIM                xx0000000000210140000000200115000
49391229853BELAYDI YOUNESS               xx0000000000210141000000200115000
49391229854ARSSI FAHD                    xx0000000000210142000000200115000
49391229864MAKBOULI KHADIJA              xx0000000000210143000000200115000
49391229866WAHIB HASSAN                  xx0000000000210144000000200115000
49391229875BOUAIADI NOUZHA               xx0000000000210145000000200115000
49391229884SOUIYAH MAHMOUD               xx0000000000210146000000200115000
49391229891EZZAHOULI BRAHIM              xx0000000000210147000000200115000
49391229893BOUTEMNI M BAREK              xx0000000000210148000000200115000
49391229898AYZOUK MOHAMED                xx0000000000210149000000200115000
49391229902EL FATOUAKI ABDERRAHIM        xx0000000000210150000000200115000
49391229906RAMZANE CHAFIK                xx0000000000210151000000200115000
49391229907MELLAGUI KHALID               xx0000000000210152000000200115000
49391229915TOUIL HICHAM                  xx0000000000210153000000200115000
49391229995BENALLAL ABDELLAH             xx0000000000210154000000200115000
49391230000AIT AADI RABIAA               xx0000000000210155000000200115000
49391230005ESMAALI FOUZIYA               xx0000000000210156000000200115000
49391230045BENIZ ABDELLAH                xx0000000000210157000000200115000
49391230060SHIMI MOHAMED                 xx0000000000210158000000200115000
49391230072JBOUB MOHAMED                 xx0000000000210159000000200115000
49391230097OUAHMANE BRAHIM               xx0000000000210160000000200115000
49391230113ZAID RAHAL                    xx0000000000210161000000200115000
49391230141BENLEHROUKI LAHSEN            xx0000000000210162000000200115000
49391230154TOUATI LMEHDI                 xx0000000000210163000000200115000
49391230176BAKOUH FARIDA                 xx0000000000210164000000200115000
49391230206HALIM DRISS                   xx0000000000210166000000200115000
49391230218BRICHA SAID                   xx0000000000210167000000200115000
49391230224OULAOUCH NABIL                xx0000000000210168000000200115000
49391230309ESSOUBKI ABDERRAHIM           xx0000000000210169000000200115000
49391230310MACHFOUA MUSTAPHA             xx0000000000210170000000200115000
49391230311QADI HANANE                   xx0000000000210171000000200115000
49391230317NAKACH ABDERRAHMAN            xx0000000000210172000000200115000
49391230470OUMIMOUNE FATIMA              xx0000000000210173000000200115000
49391230474MANSOURI YASSIN               xx0000000000210174000000200115000
49391230475RAHMANI FATNA                 xx0000000000210175000000200115000
49391230479KESSOU KHADIJA                xx0000000000210176000000200115000
49391230481ALAHOUI KAMAL                 xx0000000000210177000000200115000
49391230488ABKARI BOUAMAR                xx0000000000210178000000200115000
49391230500MOUNIM RACHID                 xx0000000000210179000000200115000
49391230516ASSEFIANI MOHAMMED LARBI      xx0000000000210180000000200115000
49391230521BENBA ESSAID                  xx0000000000210181000000200115000
49391230523BENHIDA MOHAMED HALIM         xx0000000000210182000000200115000
49391230526ACHERGUI RACHID               xx0000000000210183000000200115000
49391230530AIT BOULAID MOHAMED           xx0000000000210184000000200115000
49391230531EL HASSANE RIDOUANE           xx0000000000210185000000200115000
49391230533ABOULISSANE SAID              xx0000000000210186000000200115000
49391230547MEKAOUI TAOUFIK               xx0000000000210187000000200115000
49391230557ZEJLY FATIMA                  xx0000000000210188000000200115000
49391230562BENHIDA NAJAT                 xx0000000000210189000000200115000
49391230575NEMROUCH NAOUFAL              xx0000000000210190000000200115000
49391230616ZHAD ALI                      xx0000000000210191000000200115000
49391230617TAH MOSTAFA                   xx0000000000210192000000200115000
49391230631MACHE HANANE                  xx0000000000210193000000200115000
49391230641SAMI FATIHA                   xx0000000000210194000000200115000
49391230644ERRACHIDI FAOUZIA             xx0000000000210195000000200115000
49391230650ZAGHI NAOUAL                  xx0000000000210196000000200115000
49391230669MORJANE AICHA                 xx0000000000210197000000200115000
49391230670MEADANI FIHRIA                xx0000000000210198000000200115000
49391230671ALIF JAMILA                   xx0000000000210199000000200115000
49391230672SAIDI HANANE                  xx0000000000210200000000200115000
49391230675EL QANDALI SAMIRA             xx0000000000210201000000200115000
49391230679RIZQI DALILA                  xx0000000000210202000000200115000
49391230680NAIT MOUSSA AICHA             xx0000000000210203000000200115000
49391230687CHEMAA LATIFA                 xx0000000000210204000000200115000
49391230689CHAIRI SAMIRA                 xx0000000000210205000000200115000
49391242642SAAD FOUZIA                   xx0000000000210206000000200115000
49391246650EL MESSAOUDI ABDELLAH         xx0000000000210207000000200115000
49391272271MALIKI NEZHA                  xx0000000000210208000000200115000
49391272280HIJAZI KARIMA                 xx0000000000210209000000200115000
49391272285BANNID YAMINA                 xx0000000000210210000000200115000
49391272286ZITOUNI JAMILA                xx0000000000210211000000200115000
49391272287EL YAZIOUI KARIM              xx0000000000210212000000200115000
49391272288ELOUAHDI LATIFA               xx0000000000210213000000200115000
49391272293KACHADE KHADIJA               xx0000000000210214000000200115000
49391272314RAMLY CHAIBIA                 xx0000000000210215000000200115000
49391272324EL KAHL MOHAMED LAGHDAF       xx0000000000210216000000200115000
49391272474IZIKI NAJIMA                  xx0000000000210217000000200115000
49391272484CHAFI HAMID                   xx0000000000210218000000200115000
49391272498EL MENSIFI BRAHIME            xx0000000000210219000000200115000
49391272499ZENATI SABRINE                xx0000000000210220000000200115000
49391272620ILLOUSSAMEN NOUAMA            xx0000000000210221000000200115000
49390978693OUTROUHALTE FATIMA            xx0000000000210222000000200115000
49391272670BRITEL KHADIJA                xx0000000000210223000000200115000
49391272671EL BOUZIDI ABDELILAH          xx0000000000210224000000200115000
49391272674EL KOSS SIF-EDDINE            xx0000000000210225000000200115000
49391272819SERKOUH LAHBIB                xx0000000000210226000000200115000
49391272820EL MAANAOUI EL GHALIA         xx0000000000210227000000200115000
49391272821LAKHAL ZINEB                  xx0000000000210228000000200115000
49391272825MAGANI MALIKA                 xx0000000000210229000000200115000
49391272833EL FATIMI SAADIA              xx0000000000210230000000200115000
49391272838OUSBAAI AICHA                 xx0000000000210231000000200115000
49391272841TAHIRI KARIMA                 xx0000000000210232000000200115000
49391272851ELOUATY MOHAMED               xx0000000000210233000000200115000
49391272859HAMLI FATNA                   xx0000000000210234000000200115000
49391272861ARRAJI YOUSSEF                xx0000000000210235000000200115000
49391272867EL JAMAAI NAJAT               xx0000000000210236000000200115000
49391272870EL KHATTAB KHADIJA            xx0000000000210237000000200115000
49391272871RIACHE JAMILA                 xx0000000000210238000000200115000
49391272876BAJAD KHADIJA                 xx0000000000210239000000200115000
49391272877EL ARAJI R KIA                xx0000000000210240000000200115000
49391272878KAZ BOUCHRA                   xx0000000000210241000000200115000
49391272883AIT ABDELLAH LAHBIB           xx0000000000210242000000200115000
49391272888AMAGAR FATIMA                 xx0000000000210243000000200115000
49391272889TIMNOUNI FATIHA               xx0000000000210244000000200115000
49391272894BCHIRI SAMIRA                 xx0000000000210245000000200115000
49391272900AIT OULAHYANI MUSTAPHA        xx0000000000210246000000200115000
49391272916EL ANSARI ZINEB               xx0000000000210247000000200115000
49391272917KRIMAS ASMAE                  xx0000000000210248000000200115000
49391272919EL HARRAK SOUMAYA             xx0000000000210249000000200115000
49391272927BENAISSA NADIA                xx0000000000210250000000200115000
49391272929EL KOUCHI MALIKA              xx0000000000210251000000200115000
49391272932EL KARKACHI AMAL              xx0000000000210252000000200115000
49391272936BELAFKIH LAILA                xx0000000000210253000000200115000
49391272938BIFENZI YOUSSEF               xx0000000000210254000000200115000
49391272939AFROUKH BRAHIM                xx0000000000210255000000200115000
49391272942EL AIMOURI MOHAMMED           xx0000000000210256000000200115000
49391272954ALZARI NAJOUA                 xx0000000000210257000000200115000
49391272957SABBOURI SAIDA                xx0000000000210258000000200115000
49391272958BAYCHOU ALLAL                 xx0000000000210259000000200115000
49391272971ARCHOUNE YOUSSEF              xx0000000000210260000000200115000
49391272973MAAMOUR LAILA                 xx0000000000210261000000200115000
49391272978HAZIM NAJIA                   xx0000000000210262000000200115000
49391272986LOISKARI REDOUANE             xx0000000000210263000000200115000
49391272987SAIDI FATIMA                  xx0000000000210264000000200115000
49391272995KARA ABDELLAH                 xx0000000000210265000000200115000
49391273003MOUMINE RAJA                  xx0000000000210266000000200115000
49391273058LAHOUIYAT HANANE              xx0000000000210267000000200115000
49391273072OUAID SAID                    xx0000000000210268000000200115000
49391273104BOUSSAG SAID                  xx0000000000210269000000200115000
49391273110BOUFELJA RACHIDA              xx0000000000210270000000200115000
49391273113IGHIRIGUEN SAID               xx0000000000210271000000200115000
49391273114OUGUNIR RKIA                  xx0000000000210272000000200115000
49391273234MOUDNI AHMED                  xx0000000000210274000000200115000
49391273239EL AJROUDI MOUNIR             xx0000000000210275000000200115000
49391273260OUHAMOU FATIMA                xx0000000000210276000000200115000
49391273265AHAMAM MINA                   xx0000000000210277000000200115000
49391274546OUJAK YOUSSEF                 xx0000000000210278000000200115000
49391318714BOURJA YOUSSEF                xx0000000000210279000000200115000
49391355483BENABBOU NABIL                xx0000000000210280000000200115000
49391375382ZIYANI EL FATMI               xx0000000000210281000000200115000
49391375385ASSOUANE KHADIJA              xx0000000000210282000000200115000
49391375387BOUCHALGA MANAFAL             xx0000000000210283000000200115000
49391375393SANOUAR NOURA                 xx0000000000210284000000200115000
49391375400LAGNAOUI ABDERRAHIM           xx0000000000210285000000200115000
49391375405LAHFIDI YOUSSEF               xx0000000000210286000000200115000
49391375429BOUIKOURDASSEN AHMED          xx0000000000210287000000200115000
49391375432MOUMENE BRAHIM                xx0000000000210288000000200115000
49391375436AIT SAID ADIL                 xx0000000000210289000000200115000
49391375438DAROUICH YOUNS                xx0000000000210290000000200115000
49391375442IKHLEF SOAD                   xx0000000000210291000000200115000
49391375450KHALIL HASNA                  xx0000000000210292000000200115000
49391375453BORJA RACHID                  xx0000000000210294000000200115000
49391375455OUIRRA FATIHA                 xx0000000000210295000000200115000
49391375456SAAI EL HAQ HOURIA            xx0000000000210296000000200115000
49391375457BAKHTAOUI FOUAD               xx0000000000210297000000200115000
49391375463GHAZOUANI MOHAMMED AMINE      xx0000000000210298000000200115000
49391375475ALLACH NOURA EHSAN            xx0000000000210299000000200115000
49391375478NAJJAT SOUMIA                 xx0000000000210300000000200115000
49391375480BOURQUIZ HICHAM               xx0000000000210301000000200115000
49391375481BENKRIOU SAIDA                xx0000000000210302000000200115000
49391375484SALIM YOUNESS                 xx0000000000210303000000200115000
49391375485EL MOSTAKSI SANA              xx0000000000210304000000200115000
49391375488HORR BOUTHEINA                xx0000000000210305000000200115000
49391375491BAJOURI TAMOU                 xx0000000000210306000000200115000
49391375495EL HOUARI SAID                xx0000000000210307000000200115000
49391375499ZAMAOUI MOHAMED               xx0000000000210308000000200115000
49391375500AIT HAMMOU KHADIJA            xx0000000000210309000000200115000
49391375508LAAFOUI BTISSAM               xx0000000000210310000000200115000
49391375517MAIMOUNI MERIEM               xx0000000000210311000000200115000
49391375520IMEZIREN RAMZI                xx0000000000210312000000200115000
49391375539ROUDI SAMIRA                  xx0000000000210313000000200115000
49391375571CHEIKH YOUSSEF                xx0000000000210314000000200115000
49391375572MOUSTACHI SALMAA              xx0000000000210315000000200115000
49391375578SEBBAR MARIAM                 xx0000000000210316000000200115000
49391375579BOU OUKHERS ASMA              xx0000000000210317000000200115000
49391375580DAFANI YOUSSEF                xx0000000000210318000000200115000
49391375581ELMADANI OUMNIA               xx0000000000210319000000200115000
49391375583MOHAMED OMAR-OU-BRAHIM        xx0000000000210320000000200115000
49391375593BENJELLOUL NAJOUA             xx0000000000210321000000200115000
49391375595KADDAR RACHID                 xx0000000000210322000000200115000
49391375605EL FETKHANI AMINA             xx0000000000210323000000200115000
49391375616SOUFIANE FARID                xx0000000000210324000000200115000
49391375619ENNABOULSSI FOUZIA            xx0000000000210325000000200115000
49391375623MACHROUHI MOHAMMED            xx0000000000210326000000200115000
49391375625BETIT EL MOKHTAR              xx0000000000210327000000200115000
49391375631NAJATI GHIZLANE               xx0000000000210328000000200115000
49391375632EL MOUFLIH ASMAA              xx0000000000210329000000200115000
49391375640BOUREZZA ELMOUSTAFA           xx0000000000210330000000200115000
49391375755KHAYATI LAHCEN                xx0000000000210331000000200115000
49391375774ELAIDOUNI HICHAM              xx0000000000210332000000200115000
49391375802TAKI NOURA                    xx0000000000210333000000200115000
49391375803ZAID MOHAMED                  xx0000000000210334000000200115000
49391375836FASKA ILHAM                   xx0000000000210335000000200115000
49391375845EL KARYANI AZIZ               xx0000000000210336000000200115000
49391375854SIFI HASSAN                   xx0000000000210337000000200115000
49391375878EL HARROUACH BRAHIM           xx0000000000210338000000200115000
49391375906LAMJADI BRAHIM                xx0000000000210339000000200115000
49391375935BELMEKKI LAILA                xx0000000000210340000000200115000
49391375940EL YADDALI MAHICHAINA         xx0000000000210341000000200115000
49391376136MANSOURI FATIMA ZAHRA         xx0000000000210342000000200115000
49391376142OUMEZZI HICHAM                xx0000000000210343000000200115000
49391407684ABOUTAYEB MUSTAPHA            xx0000000000210344000000200115000
49391462114OUAHID ISMAIL                 xx0000000000210345000000200115000
49391513507KHOUFALLAH HASNA              xx0000000000210346000000200115000
49391513514BENMABROUK SABAH              xx0000000000210347000000200115000
49391513521ELFAIZ SAADIA                 xx0000000000210348000000200115000
49391513564BOUALLOUCHI MOHAMED           xx0000000000210349000000200115000
49391513572AHOURRI LAILA                 xx0000000000210350000000200115000
49391513574EL AADMI MOHAMED              xx0000000000210351000000200115000
49391513578CHAMIL EL MEHDI               xx0000000000210352000000200115000
49391513581EL AKKARI HASNA               xx0000000000210353000000200115000
49391513583ABDELKHALAK YOUNES            xx0000000000210354000000200115000
49391513590BOUMEDIANE HAMID              xx0000000000210355000000200115000
49391513597MAZZAL CHEAIB                 xx0000000000210356000000200115000
49391513598RHABBARI NABIL                xx0000000000210357000000200115000
49391513600FARAS MOHAMMED                xx0000000000210358000000200115000
49391513603DAAMACH YOUSSEF               xx0000000000210359000000200115000
49391513613BAKAOUA KELTOUM               xx0000000000210360000000200115000
49391513638CHATOUANE AHMED               xx0000000000210361000000200115000
49391513639LABBAR MOHAMMED               xx0000000000210362000000200115000
49391513652LAMRAOUI BOUCHRA              xx0000000000210363000000200115000
49391513653SBAY NAIMA                    xx0000000000210364000000200115000
49391513670BANJAJ ABDENBI                xx0000000000210365000000200115000
49391513693ACHNINE RACHID                xx0000000000210366000000200115000
49391513707SOUJAA AMAL                   xx0000000000210367000000200115000
49391513714ELKHAOUAJA RADOUANE           xx0000000000210368000000200115000
49391513716MILOUDI YOUSSEF               xx0000000000210369000000200115000
49391513733BADIL MOHAMMED                xx0000000000210370000000200115000
49391513738LAFKIR RACHIDA                xx0000000000210371000000200115000
49391513740ACHIK MY ISMAIL               xx0000000000210372000000200115000
49391513741GHAOUAT MOHAMMED              xx0000000000210373000000200115000
49391513743BLATSOU TASLEM                xx0000000000210374000000200115000
49391513751EL AILI MOHAMMED              xx0000000000210375000000200115000
49391513755ABDELMOUTTALIB NAJIB          xx0000000000210376000000200115000
49391513759CHARAQA YOUNESS               xx0000000000210377000000200115000
49391513764MAZZAR HAMZAE                 xx0000000000210378000000200115000
49391513767NOUINI MOHAMMED               xx0000000000210379000000200115000
49391513776EL JALILI ILIASS              xx0000000000210380000000200115000
49391513782BOUKRIM YASSINE               xx0000000000210381000000200115000
49391513783MAJBER MOUNIR                 xx0000000000210382000000200115000
49391513787MIMOUNI YASSINE               xx0000000000210383000000200115000
49391513796MOUSTAFI ADIL                 xx0000000000210384000000200115000
49391513799EL FOUHI MOHAMMED AMINE       xx0000000000210385000000200115000
49391513804AZIZI AHMED MOHAMMED          xx0000000000210386000000200115000
49391513807NADDAM FATIMA EZZAHRA         xx0000000000210387000000200115000
49391513811EL HADOUCHI REDOUANE          xx0000000000210388000000200115000
49391513816BAKHTAOUI AMINE               xx0000000000210389000000200115000
49391513818AKOUAM SAID                   xx0000000000210390000000200115000
49391513823YANNA HANANE                  xx0000000000210392000000200115000
49391513991BERNAOUI ZINEB                xx0000000000210393000000200115000
49391513993LAROUI ZEHOUA                 xx0000000000210394000000200115000
49391514011RICH RAHMA                    xx0000000000210395000000200115000
49391514018BERNI WAFA                    xx0000000000210396000000200115000
49391514027SOUHDI SAID                   xx0000000000210397000000200115000
49391514043MOUFAKKIR ADIL                xx0000000000210398000000200115000
49391514044BAAJI SAID                    xx0000000000210399000000200115000
49391514045EL AMRI MUSTAPHA              xx0000000000210400000000200115000
49391514047BENBELAID AICHA               xx0000000000210401000000200115000
49391514050BOUAJAJ SABAH                 xx0000000000210402000000200115000
49391514061HARATI NAIMA                  xx0000000000210403000000200115000
49391514065HAMMOUCH HASNAE               xx0000000000210404000000200115000
49391514068CHAIRI AMAL                   xx0000000000210405000000200115000
49391514074BENBELAID NADIYA              xx0000000000210406000000200115000
49391514083LAGNAOUI LOUBNA               xx0000000000210407000000200115000
49391514086BOULISSE LAILA                xx0000000000210408000000200115000
49391514095OURDAL NADIA                  xx0000000000210409000000200115000
49391514096BOUGHDAD ADIL                 xx0000000000210410000000200115000
49391514106DIHAJI LAMYAE                 xx0000000000210411000000200115000
49391514109EL HAFDI ADIL                 xx0000000000210412000000200115000
49391514112MAHBOUB NAOUAL                xx0000000000210413000000200115000
49391514114EZZRHARI NADIA                xx0000000000210414000000200115000
49391514115BITCHOU SIHAM                 xx0000000000210415000000200115000
49391514119EL HAMMOUDI ASSIYA            xx0000000000210416000000200115000
49391514121EL ALAOUI HAJAR               xx0000000000210417000000200115000
49391514123CHAHID HALIMA                 xx0000000000210418000000200115000
49391514129MOUJIB RACHID                 xx0000000000210419000000200115000
49391514130ISMAOUI RACHID                xx0000000000210420000000200115000
49391514131MOUHARRIR ASMAA               xx0000000000210421000000200115000
49391514136CHTIOUI ADIL                  xx0000000000210422000000200115000
49391514137LAFTIMI RACHID                xx0000000000210423000000200115000
49391514138BENABBOU SAMYA                xx0000000000210424000000200115000
49391514144NABBAR WAFAA                  xx0000000000210425000000200115000
49391514147KAIDI YAMNA                   xx0000000000210426000000200115000
49391514151EL IDRYSY FATIMA              xx0000000000210427000000200115000
49391514152AIT IDDER NOURA               xx0000000000210428000000200115000
49391514156LASFAR DRISS                  xx0000000000210429000000200115000
49391514165NEBDAOUI NORA                 xx0000000000210430000000200115000
49391514171MABSOR SAMIRA                 xx0000000000210431000000200115000
49391514183KAHLAOUI KHADIJA              xx0000000000210432000000200115000
49391514201AMAHOUL HASSAN                xx0000000000210433000000200115000
49391514207LAMRANI LALLA HASNA           xx0000000000210434000000200115000
49391514208AZOUGUEGH EL MUSTAPHA         xx0000000000210435000000200115000
49391514213EL BACHIRY SAIDA              xx0000000000210436000000200115000
49391514222BEKRY ADYL                    xx0000000000210437000000200115000
49391514225ADEL FATIMA ZAHRA             xx0000000000210438000000200115000
49391514228BOUCHEDOR NAIMA               xx0000000000210439000000200115000
49391514229MASSAOUDI SANA                xx0000000000210440000000200115000
49391514234BAROUDA FARIDA                xx0000000000210441000000200115000
49391514236EL MANSOURI FATIMA            xx0000000000210442000000200115000
49391514240EL GHAZI SAIDA                xx0000000000210443000000200115000
49391514246HADDAD LOUBNA                 xx0000000000210444000000200115000
49391514249MEZAREA MERYEM                xx0000000000210445000000200115000
49391514250TAOUIL FATIMA                 xx0000000000210446000000200115000
49391514261EL GHAZAL SIHAM               xx0000000000210447000000200115000
49391514271SOMATI HOURIA                 xx0000000000210448000000200115000
49391514280SANDALI MOHAMED               xx0000000000210449000000200115000
49391514281ACHCHAOUI FATIMA              xx0000000000210450000000200115000
49391514282FELGHAT ABDELLAH              xx0000000000210451000000200115000
49391514284ACHEHAL MOHAMED               xx0000000000210452000000200115000
49391514285MOURHARH BOUCHRA              xx0000000000210453000000200115000
49391514287EL BIDANI FOUZI               xx0000000000210454000000200115000
49391514294EL MANDILI LALLA HASNA        xx0000000000210455000000200115000
49391514297BOUCETTA NEZHA                xx0000000000210456000000200115000
49391514298AQNOUCH MALIKA                xx0000000000210457000000200115000
49391514300HANDAJI AHLAM                 xx0000000000210458000000200115000
49391514301EL IBRAHIMI LATIFA            xx0000000000210459000000200115000
49391514302ARRAHI AZIZA                  xx0000000000210460000000200115000
49391514305LAAOUINA WAFA                 xx0000000000210461000000200115000
49391514310OUMANSOUR REDOUANE            xx0000000000210462000000200115000
49391514318EL BOUCHNANI RACHIDA          xx0000000000210463000000200115000
49391514320OUMLIL AICHA                  xx0000000000210464000000200115000
49391514339LACHGAR NAJAT                 xx0000000000210465000000200115000
49391514340LAMBARKI BATOUL               xx0000000000210466000000200115000
49391514341MAYARA AICHA                  xx0000000000210467000000200115000
49391514342EL KHOLTI KHADIJA             xx0000000000210468000000200115000
49391514344ADNAN MARIAM                  xx0000000000210469000000200115000
49391514350EDDAOUDI HASNA                xx0000000000210470000000200115000
49391514351ENNAFFAA LAMINA               xx0000000000210471000000200115000
49391514362HRIACH SOUMIA                 xx0000000000210472000000200115000
49391514390BOUKOUS RAJAA                 xx0000000000210473000000200115000
49391514397CHALLOUH HANANE               xx0000000000210474000000200115000
49391514399BENBACHIR SAMIRA              xx0000000000210475000000200115000
49391514403ZRIOUEL MERIEME               xx0000000000210476000000200115000
49391514409LAHNINE IMANE                 xx0000000000210477000000200115000
49391514411BOULAHKA HOUDA                xx0000000000210478000000200115000
49391514412LAMARTI KAOUTAR               xx0000000000210479000000200115000
49391514415BAHDA MAJDA                   xx0000000000210480000000200115000
49391514419EL BAHJA NAWAL                xx0000000000210481000000200115000
49391514424ABOUHMAD MINA                 xx0000000000210482000000200115000
49391514429FOUKAL AMAL                   xx0000000000210483000000200115000
49391514431EL BAOUDI AMINA               xx0000000000210484000000200115000
49391514440ASSAD BOUCHRA                 xx0000000000210485000000200115000
49391514447NASEF BADIA                   xx0000000000210486000000200115000
49391514449AGNAOU AICHA                  xx0000000000210487000000200115000
49391514464EL OUAHAB SAMIRA              xx0000000000210488000000200115000
49391514485KHEROUAA LOUBNA               xx0000000000210489000000200115000
49391514488CHEKYO FATIMA ZAHRA           xx0000000000210490000000200115000
49391553251TAMAOUI FARIDA                xx0000000000210491000000200115000
49391553262HAMMAD LAILA                  xx0000000000210492000000200115000
49391553266BAKKACHA LOUBNA               xx0000000000210493000000200115000
49391553267EL OUADI ZINEB                xx0000000000210494000000200115000
49391553273BELHADDAR KARIMA              xx0000000000210495000000200115000
49391553274AYCHATI MARIEM                xx0000000000210496000000200115000
49391553295ACHBOUQ NAIMA                 xx0000000000210497000000200115000
49391553296OUSBAA LOUBNA                 xx0000000000210498000000200115000
49391553302ASSAFFAR KHADIJA              xx0000000000210499000000200115000
49391553307AMZIL AZIZA                   xx0000000000210500000000200115000
49391553308CHENGLI KAOUTAR               xx0000000000210501000000200115000
49391553804NAJIA HADI                    xx0000000000210502000000200115000
49391553815FOUAD MOHSINI                 xx0000000000210503000000200115000
49391553817OUADIAE BOUKRI                xx0000000000210504000000200115000
49391553857EL MEHDI AMLOUK               xx0000000000210505000000200115000
49391553860ABDERRAHIM KARUM              xx0000000000210506000000200115000
49391553904MOSTAPHA ABDERZAK             xx0000000000210507000000200115000
49391553923FOUAD SAOUIR MANSORI          xx0000000000210508000000200115000
49391553970KHALID OUAAZIZI               xx0000000000210509000000200115000
49391553971ABDESSELAM EL WAHHABI         xx0000000000210510000000200115000
49391554012ABDALLAH MAHFOUD              xx0000000000210511000000200115000
49391554043AHMED MOUSTINE                xx0000000000210512000000200115000
49391554093SALEM BOUKHAIR                xx0000000000210513000000200115000
49391554113SAID BOUKTIB                  xx0000000000210514000000200115000
49391554126ABDESLAM ELKAMEL              xx0000000000210515000000200115000
49391554145ZAKARIA BATRAOUI              xx0000000000210516000000200115000
49391554148MOHAMED RIDA TIMLILTE         xx0000000000210517000000200115000
49391554183QADIR ABDELMAJID HICHAM       xx0000000000210518000000200115000
49391554192BELHARTI AMAL                 xx0000000000210519000000200115000
49391554194BEYAD AMINE                   xx0000000000210520000000200115000
49391554195ZIOUAL BRAHIM                 xx0000000000210521000000200115000
49391554197ELHARRAK MOHAMED              xx0000000000210522000000200115000
49391554200KACHROUD FADOUA               xx0000000000210523000000200115000
49391554203HADDIOUI ABDERRAZAK           xx0000000000210524000000200115000
49391554206BIRROU MOHAMMED               xx0000000000210525000000200115000
49391554210RGAIBI MOHAMMED SALEM         xx0000000000210526000000200115000
49391554215SAFSAFI FATIMA                xx0000000000210527000000200115000
49391554222BOUSSEKKINE ABDELLAH          xx0000000000210528000000200115000
49391554229EL-AZYZY MOULAYHFID           xx0000000000210529000000200115000
49391554230ELANSARI LOUBNA               xx0000000000210530000000200115000
49391554234ELHIMER SAIDA                 xx0000000000210531000000200115000
49391554237ABALIL ABDELAZIZ              xx0000000000210532000000200115000
49391554239KARIM MAHJOUBA                xx0000000000210533000000200115000
49391554248NAJAT JAMIL                   xx0000000000210534000000200115000
49391554251ASMA ADRAOUI                  xx0000000000210535000000200115000
49391554252AIDA JABRI                    xx0000000000210536000000200115000
49391554259FATIMA THAMMOU                xx0000000000210537000000200115000
49391554261MOHAMED ABLOUZE               xx0000000000210538000000200115000
49391554266SANAE KHALLOUQI               xx0000000000210539000000200115000
49391554268HANAN BOUTGARA                xx0000000000210540000000200115000
49391554274NORA TIZGUI                   xx0000000000210541000000200115000
49391554276ELMAHJOUB RAOUJ               xx0000000000210542000000200115000
49391554278ILHAM CHOUAOUTA               xx0000000000210543000000200115000
49391554291MARIEME HEDRANE               xx0000000000210544000000200115000
49391554300KHADIJA SAMAA                 xx0000000000210545000000200115000
49391554303NORA AKHMIM                   xx0000000000210546000000200115000
49391554304BOUCHRA HAFIDI                xx0000000000210547000000200115000
49391554321NAIMA ELAZZOUZI               xx0000000000210548000000200115000
49391554334MARIEM HAMMI                  xx0000000000210549000000200115000
49391554344MOHAMMED ELMEZIATI            xx0000000000210550000000200115000
49391554345BRAHIM MENAYCIR               xx0000000000210551000000200115000
49391554346ELMUSTAPHA SOUGRATI           xx0000000000210552000000200115000
49391554354AMINE ABID                    xx0000000000210553000000200115000
49391554359LAMIAE ELHASSNOUNI-EL-ALAOUI  xx0000000000210554000000200115000
49391554360JAMAL LOUTFI                  xx0000000000210555000000200115000
49391554362REDOUAN ALMANSUR              xx0000000000210556000000200115000
49391554376AHMED AIT TAAMART             xx0000000000210557000000200115000
49391554384MOULAY HICHAM SALFI           xx0000000000210558000000200115000
49391554387ABDELJALIL SKAITI             xx0000000000210560000000200115000
49391554391HIND FAYEK                    xx0000000000210561000000200115000
49391554393FATTOUMA ELMESBAHI            xx0000000000210562000000200115000
49391554403YOUSSEF BENIZZA               xx0000000000210563000000200115000
49391554405TAYB CHOUKRI                  xx0000000000210564000000200115000
49391554416LALLA-RAHMA EL AAKIF          xx0000000000210565000000200115000
49391554420ELMOSTAFA HIDARA              xx0000000000210566000000200115000
49391554422ILHAM ALLACH                  xx0000000000210567000000200115000
49391554427TARIK CHAHBANE                xx0000000000210568000000200115000
49391554432MOHAMMED STITOU               xx0000000000210569000000200115000
49391554433HAFID TOUGHZAOUI              xx0000000000210570000000200115000
49391554446FATIMA-ZAHRA BOUDLAL          xx0000000000210571000000200115000
49391554450HALIMA RADOUANE               xx0000000000210572000000200115000
49391554452YOUSSEF AIT DAOUA             xx0000000000210573000000200115000
49391554457ABDESSAMAD RAFI               xx0000000000210574000000200115000
49391554458BRAHIM HABLILI                xx0000000000210575000000200115000
