49390065495ARIF KHADIJA                  WB0036796000209200000000200115000
49390065497QASSAQ BOUCHRA                H0281762000209201000000200115000
49390065714BAHTAT HASSANE                FB0000583000209202000000200115000
49390065719EZZAMRANI RACHIDA             X0141551000209203000000200115000
49390065722OUHADI MBARK                  U0074168000209204000000200115000
49390065734SIMOU MOHAMMED                Y0098858000209205000000200115000
49390065741MAGHRI ABDELAZIZ              QA0025470000209206000000200115000
49390065829EL YOUSFI SAMIRA              U0099692000209207000000200115000
49390065845ADDAR ALI                     UA0015423000209208000000200115000
49390065895IKNIOUAN AMINA                FC0006154000209209000000200115000
49390065900EL MESNAOUI NOUZHA            C0432062000209210000000200115000
49390065906YOUSSEFI LALLA MINA           U0014668000209211000000200115000
49390065917EL ALAMI MALIKA               CB0025087000209212000000200115000
49390065944EL HADRY ABDELOUAHED          C0292909000209213000000200115000
49390065959SALAMI LARBI                  QA0006631000209214000000200115000
49390065996GHALIBI MBARK                 IA0016056000209215000000200115000
49390066045ALAOUI LALLA KHADIJA          U0091736000209216000000200115000
49390066188KESTRAOUI MARIA               E0340546000209217000000200115000
49390066191EL HANOUICHI HAFIDA           GM0024975000209218000000200115000
49390066196ERRAHIOUI KHADIJA             U0093185000209219000000200115000
49390066197BEN ALLA KARIMA               UB0022870000209220000000200115000
49390066200EL KHAFIF SOUAD               A0330735000209221000000200115000
49390066485EL WARRASS ABDELKRIM          BJ0190057000209222000000200115000
49390066561EL MAMOUN ZAHRA               AB0005466000209223000000200115000
49390066563RAKIE SAID                    TA0035940000209224000000200115000
49390068814EL BOURKHISSI FATIMA          U0013774000209225000000200115000
49390070936ABOUKAL AICHA                 P0068840000209226000000200115000
49390070948EL MAGOURI SAIDA              N0095776000209227000000200115000
49390070952AMDHOUSSI ZAHRA               U0073700000209228000000200115000
49390070954OUCHHI DRISS                  JC0080264000209229000000200115000
49390070968MESSAOUDI FATIMA ZAHRA        F0326847000209230000000200115000
49390070981DAOUI REDOUAN                 JB88458000209231000000200115000
49390070982BOUANGA ISMAIL                P0006222000209232000000200115000
49390071224QAOUJI SAMIRA                 IB0054647000209233000000200115000
49390071226MOUYANE LATIFA                P0113425000209234000000200115000
49390071235OUAZIZ DRISS                  UA0015782000209235000000200115000
49390071236SKIOUS ABDERRAHMANE           H0129010000209236000000200115000
49390071247ZERFAOUI MERIEM               H0193650000209238000000200115000
49390071249ABDELMALEK ABDESLAM           PA0008425000209239000000200115000
49390071252ALLAOUI MOHAMED               H0212082000209240000000200115000
49390071259SABIR SALOUA                  Y0125990000209241000000200115000
49390071279OULAD SIDI AISSA EL IDRISSI ZAC0375771000209242000000200115000
49390071285BEDDOUCH FATIMA               M0167580000209243000000200115000
49390071290EL AIDOUNI SALOUA             E0483647000209244000000200115000
49390071291ALOUANE LATIFA                H0215202000209245000000200115000
49390071335EL EDRISSI EL HASSAN          C0191319000209247000000200115000
49390071351CHOUIEKH ABDELAZIZ            C0037701000209248000000200115000
49390071352AMECHIR AMINA                 N0043425000209249000000200115000
49390071357SADEQ ABDELMAJID              C0660080000209250000000200115000
49390071358BOUKAABA FOUAD                Z0264425000209251000000200115000
49390071360BOUGASSA ABDELAAZIZ           E0517613000209252000000200115000
49390071361CHEBBAR ABDELHAQ              C0325068000209253000000200115000
49390071367AOURAGH ABDESSAMAD            E0471677000209254000000200115000
49390071500BEN HADDOU ALLAL              AB0019856000209255000000200115000
49390071508LEBBACHE FATIHA               BJ0140202000209256000000200115000
49390071517EL MOUTANABBIH TOURIA         E0003355000209257000000200115000
49390071518GHANI M HAMED                 M0028235000209258000000200115000
49390071529AKRAB ZAID                    UB0019152000209259000000200115000
49390071591BOUAZZAOUI ABDELFATAH         U0086882000209261000000200115000
49390071601SAIYED KHALID                 BE0632692000209262000000200115000
49390071631AYOUBI MUSTAPHA               A0024681000209263000000200115000
49390071633OUARGAGA IDDIR                UC0026835000209264000000200115000
49390071644NACIRI HAMID                  H0122083000209265000000200115000
49390071649EL HAMIDI MOULAY EL MAHDI     U0081867000209266000000200115000
49390071684MEQBOUL YAHYA                 F0298390000209267000000200115000
49390075518ABDELLAOUI SAIDA              L0037474000209268000000200115000
49390075519JORIO CHARAF                  A0042597000209269000000200115000
49390075816BOUALLOU MOHAMMED             C0376435000209270000000200115000
49390075864EL MOUTAKI MOHAMED            PB0010198000209271000000200115000
49390075897OUHAMOU GHIZLANE              A0072288000209272000000200115000
49390075938KHERAZI MOLOUD                U0074802000209273000000200115000
49390075939KOULAN FADILA                 A0596512000209274000000200115000
49390075998MAADANI HAFIDA                AB0112503000209275000000200115000
49390077210AIT ALI OUHMED ABDERRAHIM     A0782176000209276000000200115000
49390078726BAKALI EL HOUSSNI             GM0027571000209279000000200115000
49390078748EL ADILA AICHA                L0172665000209281000000200115000
49390080233LAHYANI BOUZIAN               S0123437000209282000000200115000
49390080262JAOUATE HICHAM                BH0112678000209283000000200115000
49390080648KANDIL MOHAMMED               LB0002155000209284000000200115000
49390080666BOUHLAL KAOUTAR               A0356302000209285000000200115000
49390081371SITLI FATIHA                  WA0026145000209286000000200115000
49390081388SAKIT RABIA                   A0041230000209287000000200115000
49390081394LAMINE MALIKA                 BH0303552000209288000000200115000
49390081395ESSATTE BOUCHRA               C0382157000209289000000200115000
49390082121ATIK LATIFA                   BE0416256000209290000000200115000
49390082136NAKACH NAIMA                  XA0023123000209291000000200115000
49390082138HATTAB ZAHIRA                 H0254555000209292000000200115000
49390082150BELFATHA KARIMA               H0253068000209293000000200115000
49390082153EL OUAHBI NAJOUA              AB0071648000209294000000200115000
49390082157JABBOUJ HALIMA                BE0577884000209296000000200115000
49390082158FATIH SAADIA                  BJ0081016000209297000000200115000
49390082162RACHID ABDELOIHID             J0170318000209298000000200115000
49390082164DEMNANE SAADIA                BK0045841000209299000000200115000
49390082168RIAJI MAJDA                   BH0171532000209300000000200115000
49390082172KHAIDARI ASMA                 K0188434000209301000000200115000
49390082176EL HAMSS RACHIDA              Z0125489000209302000000200115000
49390082178EL BAHLOULI KHADIJA           C0372991000209303000000200115000
49390082676EL AMRAOUI KARIMA             C0425586000209304000000200115000
49390082686BCHIRI NADIA                  BH0514813000209305000000200115000
49390083877ZERRAB AICHA                  M0196977000209306000000200115000
49390083946WAJFI REDOUANE                BK0109766000209307000000200115000
49390083948BOUCHRA BELMAJDOUB            A0462902000209308000000200115000
49390083984HABLI SMAIL                   B0623535000209309000000200115000
49390086701BEKRI AICHA                   BE0522213000209310000000200115000
49390086855LAKHDAR LAHCEN                AD0020740000209311000000200115000
49390096606EL GOUMI EL AYECH             U0096076000209312000000200115000
49390096698SALLAY MOHAMED                OD0020092000209313000000200115000
49390096792OUMAIR YOUSSEF                H0127865000209314000000200115000
49390098740OUIRDANI HABIB                QA0015331000209315000000200115000
49390098759BADRAOUI OMAR                 A0492572000209316000000200115000
49390112172AISSAOUI AMAR                 K0087329000209317000000200115000
49390124366M TALSSI HOUARI               I0076587000209318000000200115000
49390126005LAFROUHI ABDELKADER           A0225245000209319000000200115000
49390133958MEZIANE NOUR EDDINE           E0169968000209320000000200115000
49390136267EL ALLAOUI JAMAL              H0053184000209321000000200115000
49390136305EL MOUFTAHI MUSTAPHA          E0004178000209322000000200115000
49390136318BAAMAR MOHAMED SALEM          SH0021885000209323000000200115000
49390136357HAJJI DRISS                   BJ0028696000209324000000200115000
49390136360TAMIRO LHOUARI                F0099841000209325000000200115000
49390142532KHALDI RACHID                 J0243916000209326000000200115000
49390142803TAHAR MOHAMED                 OD0002298000209327000000200115000
49390159201FANNICH HAFID                 F0156067000209328000000200115000
49390162316EL MAHI BOUMEDIENE            A0290915000209329000000200115000
49390165856HENNOU ALI                    J0128189000209330000000200115000
49390183506SRIARI CHARKI                 Q0058321000209331000000200115000
49390183511OUAGAGUE TAIEB                J0099337000209332000000200115000
49390183515JAMALI RACHID                 Q0072183000209333000000200115000
49390183540BENHADDI ABDELALI             L0182272000209334000000200115000
49390183574YAFOU ALLAH YASSINE           A0149796000209335000000200115000
49390183604OULD OUADDA HASSANE           I0144767000209336000000200115000
49390183612ELHAYA ABDELOUAHAD            L0150136000209337000000200115000
49390183654EL MANSOURY ALI               I0122099000209338000000200115000
49390183683ACHCHAK MOHAMED REDA          E0015263000209339000000200115000
49390189256KHARRAZ KASSEM                GM0001019000209340000000200115000
49390189296MANSOURI MOHAMED              A0285344000209341000000200115000
49390189586ZERYOUH MOHAMMED              G0019741000209342000000200115000
49390219627ALIOUI REDOUANE               C0032032000209343000000200115000
49390219635FAL COU OMAR                  S0136328000209344000000200115000
49390219644ARAB ABDELKADER               X0006490000209345000000200115000
49390219689DAOUDI MOHAMED                S0130493000209346000000200115000
49390219753EL BOUKHARI HADJ BEN SELLAM   A0034708000209347000000200115000
49390225107HAY ALLAHI MOHAMMED EL AMINE  OD0000086000209348000000200115000
49390225248BOUAZIZI MOHAMED              J0024804000209349000000200115000
49390225271CHOUKRI JALAL                 E0134055000209350000000200115000
49390225343EL MAYMOUNI AHMED             F0183104000209351000000200115000
49390225396ZAHRI ABDERRAHIM              W0029019000209352000000200115000
49390228654EL JANATI EL IDRISSI HAMID    C0227465000209353000000200115000
49390235440ERRAMI MOHAMED                A0292794000209354000000200115000
49390235492ID HAMOU JAMAA MOHAMED        J0183603000209355000000200115000
49390246917SAIDI ABDELAZIZ               U0053283000209356000000200115000
49390246923OUIDIR LAHOUCINE              JE0004322000209357000000200115000
49390246928BOULAHSEN M HAMED             PA0001327000209358000000200115000
49390255083JABBOUR RACHID                L0011310000209359000000200115000
49390255177EL YOUSSOUFI CHERIF           U0053842000209360000000200115000
49390265474ZIDOUNI EL MOSTAFA            W0005278000209361000000200115000
49390265483CHEMSY ABDELALEM              T0025351000209362000000200115000
49390269199EL AMINE ABDALLAH             M0150458000209363000000200115000
49390269556EL BOUZIDI MOHAMED            D0157374000209364000000200115000
49390269796RAJI ABDEL ILAH               A0044832000209365000000200115000
49390279066MADANI ALAOUI LALLA AICHA     U0005790000209366000000200115000
49390279067NINEFLAS RACHIDA              J0259561000209367000000200115000
49390279171ELZZAYIA MAYMOUNA             SH0038332000209368000000200115000
49390279194OUAZZANI CHAHDI MALIKA        Z0006388000209369000000200115000
49390282006SEBBATA HASSAN                A0195744000209370000000200115000
49390282009RHIZLANE ABOUBKER             X0057720000209371000000200115000
49390286022OUADIFI MOHAMMED              A0310828000209372000000200115000
49390295704ADAOUI FATIMA                 I0075232000209373000000200115000
49390295724RAI MOUKHTAR                  C0245863000209374000000200115000
49390298861HAJJAMI LAILA                 DA0000400000209375000000200115000
49390298994LISSAN EL HAK BOUCHRA         T0071938000209376000000200115000
49390300543JOHRI MOHAMMED                T0013564000209377000000200115000
49390301235IREKMANE LHOUCINE             E0002800000209378000000200115000
49390312048ZIANI FAKHAR CHAKIB           A0250711000209379000000200115000
49390312051MERIMI MIMOUN                 F0245425000209380000000200115000
49390315428TAIBI CHOUAIB                 JE0004704000209381000000200115000
49390316780HADDI LALLA TFARAH            SH0062359000209382000000200115000
49390318287BERRI FATIMA                  A0567091000209384000000200115000
49390318536ADOU RACHID                   D0023063000209385000000200115000
49390318613MEKENCY FATIMA ZAHRA          T0086405000209386000000200115000
49390318629MOUJERIFE ZINEB               H0152732000209387000000200115000
49390318631AGRAT KHADIJA                 D0160359000209388000000200115000
49390318684EL JAI MERIEM                 C0375610000209389000000200115000
49390318692HDA NADIA                     D0310265000209390000000200115000
49390323903HASNAOUI KHADIJA              M0001990000209391000000200115000
49390323907SADNI HAFIDA                  H0124474000209392000000200115000
49390323920SLIMANI LATIFA                W0094089000209393000000200115000
49390323930OUDAHA RACHIDA                A0227659000209394000000200115000
49390323935AZEROUAL FATIMA               U0066240000209395000000200115000
49390323955FORCA EL KBIRA                A0228844000209396000000200115000
49390323975EN NHIRI RACHIDA              Z0095804000209397000000200115000
49390323977ZIHA DRISS                    F0138420000209398000000200115000
49390323978MOUTTOU OMAR                  C0122799000209399000000200115000
49390324085TAYEB MINA                    BH0055790000209400000000200115000
49390326311MOKHTARI AICHA                F0226459000209401000000200115000
49390327526BOUAB SALWA                   H0177178000209402000000200115000
49390327572BRITEL NAJIB                  G0137750000209403000000200115000
49390327614JAMAL HAFIDA                  X0007829000209404000000200115000
49390327643LAMSIKINE HAFIDA              E0158575000209405000000200115000
49390327659SAOUDI FATIHA                 Z0154167000209406000000200115000
49390327686GUANNI RACHID                 A0193576000209407000000200115000
49390331803ZENFOUD MOSTAFA               F0235230000209408000000200115000
49390331807RAQI ABDERRAZZAK              SH0056394000209409000000200115000
49390331845TAHDI HASSAN                  I0142469000209410000000200115000
49390331918CHEIKHE MAOULAININE MIMOUNA   JF0008415000209411000000200115000
49390336685SBAI ABDELMOURHIT             A0184687000209412000000200115000
49390346013ADOU JAMAL                    D0212597000209413000000200115000
49390346102AOUNE HOURIA                  A0478435000209414000000200115000
49390346116EL BAYENA EL BATOUL           JD0001053000209415000000200115000
49390346126LAMGHARI MOHAMMED             XA0002335000209416000000200115000
49390346149ZOUHAILI SAADIA               J0255969000209417000000200115000
49390346216OUANZIL MAJDA                 BK0005383000209418000000200115000
49390346222EL KOUACH EL HASSANIA         A0583038000209419000000200115000
49390346224EL HAMZAOUI TOURIA            A0269009000209420000000200115000
49390346262SAHMAOUI MALIKA               WA0004965000209421000000200115000
49390346297BELLORHZAL HOURIA             V0034208000209422000000200115000
49390350539IBRAHIMI ABDELGHANI           D0139806000209423000000200115000
49390350547BENJILALI SABAH               CB0027850000209424000000200115000
49390353806MOUTAI ABDELHAQ               A0315568000209425000000200115000
49390370301HACHABI ABDELKRIM             BJ0089532000209426000000200115000
49390370375NOUSSAIR ALI                  V0056117000209427000000200115000
49390370402MAMMAD AHMED                  G0225362000209428000000200115000
49390370403EL ALAOUI LALLA SAADIA        A0415085000209429000000200115000
49390370404BOUSSELHAM LATIFA             A0281639000209430000000200115000
49390370406TAHIR ABDESSAMAD              Y0032481000209431000000200115000
49390370409MALIKI LALLA AMINA            U0087427000209432000000200115000
49390370418AGOURAM KENZA                 A0045244000209433000000200115000
49390370510BOUKAL MOHAMED                U0007720000209434000000200115000
49390370535BENSALEM ABDELILAH            J0247352000209435000000200115000
49390370646EL OUADI OUAFAA               L0240104000209436000000200115000
49390370648BAMENSOUR JEMAA               JA0000123000209437000000200115000
49390371004BOULAOUI ABDELKRIM            UB0006484000209438000000200115000
49390371019RAHALI IDRISSI NADIA          A0042155000209439000000200115000
49390371033TASSETTATE BRAHIM             A0320633000209440000000200115000
49390371102ANIBA ABDELILAH               B0496363000209441000000200115000
49390371104BOUNANI MAIMOUNA              SH0062693000209442000000200115000
49390371173GOURJEM ZINEB                 S0219147000209443000000200115000
49390371211MYATT SAID                    I0021836000209444000000200115000
49390371241EL MANSOUR ABDERRAHIM         H0125759000209445000000200115000
49390372237DAR EL AIN MOHAMED            LB0004451000209446000000200115000
49390372241CHAKI ABDENNAIM               H0125784000209447000000200115000
49390372242SOLO AZZOUZ                   Z0086004000209448000000200115000
49390372245NADER MOKHTAR                 BH0044215000209449000000200115000
49390372250IMEZAR ZINEB                  J0225285000209450000000200115000
49390372254BENQASSMI SAAIDA              U0081451000209451000000200115000
49390372255ABDELKHALEK EL MAHJOUB        B0760541000209452000000200115000
49390372260SABER MUSTAPHA                I0063740000209453000000200115000
49390372275EZZEBBOURI RACHID             D0332533000209454000000200115000
49390372276EL FAROUKI ABID               AB0004381000209455000000200115000
49390376330BOULAID KHALIDA               AB0042151000209456000000200115000
49390380911JILBAB FATIMA                 D0149757000209457000000200115000
49390381119ELOUARRADI FATIMA             A0480470000209458000000200115000
49390381176LAHDA KHADIJA                 UA0004440000209459000000200115000
49390381177RAZZOUKI FATIMA               VA0001404000209460000000200115000
49390388566BENCHERQUI MOHAMMED           A0198746000209461000000200115000
49390388568AIT EL MOUDEN MOHAMMED        A0142761000209462000000200115000
49390390429JANDALI ABDERRAHIM            A0256376000209463000000200115000
49390390444MOUHSINE AHMED                IA0000308000209464000000200115000
49390390525BOUNADEM FATIMA               FL0008778000209465000000200115000
49390390545MENSKI AZIZ                   Q0113963000209466000000200115000
49390394197CHOUAA ABDELOUAHED            U0051168000209467000000200115000
49390394272EL BELGHITI MOHAMED           DA0001919000209468000000200115000
49390394369MENGOUCHI KHADIJA             F0039939000209469000000200115000
49390394376ECHCHAHDI NEZHA               I0223860000209470000000200115000
49390394702JAKANI JAMAA                  J0126844000209471000000200115000
49390394890EL KHAIR YATTOU               A0457387000209472000000200115000
49390396239BENHAMAD ZAHRA                A0484176000209473000000200115000
49390396245BOUHAMIDI LALLA MERIEM        U0082499000209474000000200115000
49390396375BAHAJJI NADIA                 D0366767000209475000000200115000
49390396487HIDARE KHALID                 A0238698000209476000000200115000
49390396802ARJAOUI FATIMA                UA0013335000209477000000200115000
49390396817BOUNADAH MOHAMED              C0026105000209478000000200115000
49390396822ABDEDAIM NAIMA                I0015845000209479000000200115000
49390396856ZIANI MOHAMMED                UC0011740000209480000000200115000
49390397019ELATI SAKINA                  E0212979000209481000000200115000
49390397022MRANI RACHIDA                 AB0066124000209482000000200115000
49390397049AMHOUD MINA                   D0374082000209483000000200115000
49390397059BOUSSAQSOU ABDELLAH           C0313077000209484000000200115000
49390397068JANNAD ABDERRAHIM             AB0008728000209485000000200115000
49390397077LEMSELLAK EL MAHDI            GM0001330000209486000000200115000
49390397146BOUQARTACHA CHAFIQ            D0365664000209487000000200115000
49390397153CHERKAOUI LALLA NEZHA         A0229268000209488000000200115000
49390397155KOUZA FOUZIA                  F0275752000209489000000200115000
49390397184ABBADI MUSTAPHA               PA0008122000209490000000200115000
49390397186MOUSSAOUI HASSAN              U0095020000209491000000200115000
49390397893ALLAOUI ADDI                  U0001939000209492000000200115000
49390399313LACHHEB ABDELAZIZ             BE0591287000209493000000200115000
49390399339HAMRI MOHAMED                 X0006882000209494000000200115000
49390399771CHEMLAL AICHA                 LE0002413000209495000000200115000
49390399772CHARKANI ZHOR                 V0088901000209496000000200115000
49390399775HABBAS YAMNA                  UB0004404000209497000000200115000
49390399822BENASSOU ADDI                 UA0021750000209498000000200115000
49390399842AIT HASSOU YOUSSEF            UB0014649000209499000000200115000
49390399892SAFDI JAMILA                  A0193459000209500000000200115000
49390656816EL YAHYAOUI MOHAMED           J0254621000209501000000200115000
49390183613DOUIRAT HAMID                 C0239615000209502000000200115000
49390708169ESSADIK KHADIJA               D0043235000209503000000200115000
49390708184BENRADI SAIDA                 D0351720000209504000000200115000
49390708188BOURRAGAT JAMILA              BK0085386000209505000000200115000
49390708327DRISSI MY OMAR                A0226927000209506000000200115000
49390708370DAFALI MY ABDERRAHMAN         E0339478000209507000000200115000
49390711539DBIYEB SOUAD                  AB0065601000209508000000200115000
49390711592IBRAHIMI SAID                 D0218613000209509000000200115000
49390713576BICHOU SEKKOU                 UA0009771000209510000000200115000
49390713738LAKHRISSI FARAJY              C0061520000209511000000200115000
49390713790OUZZIR SIHAM                  U0086597000209513000000200115000
49390713842ZEBBADI TAMOU                 M0171381000209514000000200115000
49390713967ABRADA MOHAMED                QA0025255000209515000000200115000
49390714549MENTAGUI YOUNES               D0329084000209516000000200115000
49390714565BOUHRIGA ABDELLAHI            OD0017718000209517000000200115000
49390714580AFARIAD EL MOSTAFA            D0382513000209518000000200115000
49390715091EL MAKAOUI OMAR               VA0025030000209519000000200115000
49390715093EL WADNAKSSI NAJIA            E0368023000209520000000200115000
49390716988BOUMEDIENE RACHID             X0013173000209521000000200115000
49390716991EL HARRARI RKIA               WB0016353000209522000000200115000
49390718407OUABID NAJAT                  U0059207000209523000000200115000
49390718411NAYMI MUSTAPHA                G0260082000209524000000200115000
49390718412FARIDI ABDELOUAHID            P0093847000209525000000200115000
49390718413SAHRAOUI HADDOU               UB0007022000209526000000200115000
49390720648SAMOUT TAHAR                  E0232863000209527000000200115000
49390720653HSAINE LATIFA                 A0486309000209528000000200115000
49390720750ENNAFFATI KHADIJA             A0484723000209529000000200115000
49390724311MAMOUNI ALAOUI IDRISS         UA0001462000209530000000200115000
49390724364AYYAD YAMINA                  F0223270000209531000000200115000
49390724568REGHAI ABDELILAH              A0272762000209532000000200115000
49390724580M HAIDRA SAADIA               A0052649000209533000000200115000
49390724648EL GARRAB FATIMA              A0298125000209534000000200115000
49390724649QACI MOHAMMED                 A0004515000209535000000200115000
49390724661RAOUNI ABDELHAKIM             E0496032000209536000000200115000
49390724662CHOUAIBI EL MAHJOUB           PA0011761000209537000000200115000
49390724680MAROUAN MOHAMMED              A0467704000209538000000200115000
49390724690MAKHLOUFI ABDELGHANI          Z0161953000209539000000200115000
49390724765LAAROUSSI LARBI               A0033114000209541000000200115000
49390724771TAKI ABDELKRIM                E0483189000209542000000200115000
49390724889SABRI MUSTAPHA                BE0566318000209543000000200115000
49390724891ADERMANE AOMAR                V0055179000209544000000200115000
49390726447AMEURAOUI ZEHRA               U0089987000209545000000200115000
49390726452LAMINI LALLA ZINEB            U0094588000209546000000200115000
49390726514ABDOU MUSTAPHA                UB0020696000209547000000200115000
49390726565LYAMANI HALIMA                CB0040013000209548000000200115000
49390726705LAGHRIRI LHASSANE             JC0084456000209549000000200115000
49390726718BOUHADDOUCH EL HADI           A0316746000209550000000200115000
49390726725OUADDA MIMOUN                 I0184299000209551000000200115000
49390726770EL GHACHOUI FATIHA            A0599886000209552000000200115000
49390731640REKAB MOHAMED                 H0170534000209553000000200115000
49390731671BOURHIM MBAREK                JC0035606000209554000000200115000
49390731757ADDAHBI EL KOURI              SH0082116000209555000000200115000
49390731874JAMALI SAADIA                 I0027504000209556000000200115000
49390732214SADEK HALIMA                  I0011769000209557000000200115000
49390732656EL GHARRAS HAFIDA             A0316971000209558000000200115000
49390732756MISKIN TOURIA                 LA0023687000209559000000200115000
49390732759ISAFIANI MALIKA               A0295275000209560000000200115000
49390732876AZIZI JAMILA                  A0466039000209561000000200115000
49390744666AIT ALLA MOHAMED              UC0029188000209563000000200115000
49390744743LIAMANI KHALID                I0196515000209564000000200115000
49390744923ALLIOUI MOHAMED               GM0023418000209565000000200115000
49390744960BOUAICHI SOUMIA               A0259444000209566000000200115000
49390758611LIMAM BRAHIM                  PB0005470000209567000000200115000
49390758612KHALDI FATIMA                 U0084308000209568000000200115000
49390758701LHAMDANIA MUSTAPHA            I0015335000209569000000200115000
49390758704LOUKILI HAFIDA                S0245426000209570000000200115000
49390758705LAMRABET ABDELOUAHID          L0150538000209571000000200115000
49390189326ANHARI MOHAMED                A0314293000209572000000200115000
49390759804ADDAOU ASMAE                  D0390784000209573000000200115000
49390759958IBN EL AMIN EL AALAMI A       L0169111000209574000000200115000
49390759959LAHMAR NOURDINE               Z0081620000209575000000200115000
49390759972BERKAOUI RABHA                H0130313000209576000000200115000
49390760308EZZINE ABDERRAHIM             E0175315000209577000000200115000
49390760329MOUNTAKA AHMED                UB0000906000209578000000200115000
49390760367LISSER NADIA                  A0263996000209579000000200115000
49390760368IBADISSEN HACHEM              D0317276000209580000000200115000
49390760429CHEMITE MOHAMMED              D0183181000209582000000200115000
49390760440ZAHRANE SAID                  BH0163730000209583000000200115000
49390760448KACIMI MUSTAPHA               P0016558000209584000000200115000
49390760483OUARBIA MOHAMED               FL0016222000209586000000200115000
49390760488GUERRANI MOHAMED              UB0010346000209587000000200115000
49390760636SALIMI SAIDA                  E0399127000209588000000200115000
49390760637BOUDAK ELHASSANE              C0179546000209589000000200115000
49390769300EL KORAANI FATIMA             I0192420000209590000000200115000
49390769318EL AMROUSSI KHALID            AB0122830000209591000000200115000
49390769338SIHI KHADIJA                  V0052537000209592000000200115000
49390773016DRISSI FATIMA                 FL0002988000209593000000200115000
49390773017DRISSI EL MEHDI               FL0003608000209594000000200115000
49390773033BOUDDIN HLIMA                 UB0005821000209595000000200115000
49390773121AMHARECH ABDELMAJD            D0095957000209597000000200115000
49390773122KHETTOUCH RABIA               UA0004426000209598000000200115000
49390773146AIT BOUHLAL SIDI YOUSSEF      U0059208000209599000000200115000
49390773149ALAOUI HAKIM MOULAY HFID      A0356588000209600000000200115000
49390774511AFKIR ABDELKRIM               P0044418000209601000000200115000
49390774554SIAD MOULAY MOSTAPHA          IB0024121000209602000000200115000
49390774586MAGGA MOHAMED                 U0058725000209603000000200115000
49390774590BOUMEZZOUGH KHADIJA           I0161021000209604000000200115000
49390774597BELHAOU HALIMA                A0281588000209605000000200115000
49390774614BOUTALEB LALLA ASMAA          A0652257000209606000000200115000
49390774615BOUKADDOUR SAMIRA             A0758912000209607000000200115000
49390774796AIT SAID MOHAMED              UB0017553000209608000000200115000
49390776252NFISSI NADIA                  F0178967000209609000000200115000
49390776253BENCHRIF MOULAY EL HASSAN     P0076985000209610000000200115000
49390228320LAKHNOUSSI ALI                Z0077768000209611000000200115000
49390777808MAROUI DRISS                  U0073179000209612000000200115000
49390777824EL FHAIEL ABDELAZIZ           A0538943000209613000000200115000
49390777877EL KHAOUDI KANZA              V0013399000209614000000200115000
49390777895EL FAIDI FATIMA               A0477205000209615000000200115000
49390777897ABDERASSOUL KHADIJA           PA0015057000209616000000200115000
49390777900BENNANI ABDELALI              H0193686000209617000000200115000
49390777907EZZAHID OMAR                  JB38957000209618000000200115000
49390777952ABDATI SIDATI                 JF0002826000209619000000200115000
49390777955IMOURIG MINA                  A0484277000209620000000200115000
49390777959BAHOUH HAMID                  D0117336000209621000000200115000
49390777965TAZROUTI ABDELKADER           AD0023708000209622000000200115000
49390228634BECHANI MOHAMED               G0117376000209624000000200115000
49390778021ZAIDI SOUAAD                  DA0001554000209625000000200115000
49390778040AMMAR MAJIDA                  M0181550000209626000000200115000
49390778046BELGUITI LAYLA                PA0012374000209627000000200115000
49390778077HASNI HAMID                   U0066017000209628000000200115000
49390782346JORJI MUSTAPHA                P0117470000209629000000200115000
49390782480FARIDI RQUIA                  UB0012130000209630000000200115000
49390782492ABKARI AHMED                  P0067472000209631000000200115000
49390782517BENJEBBOUR LARBI              U0079311000209632000000200115000
49390782535EL MAAROUFI MOHAMED           GM0027319000209633000000200115000
49390782580EL JAIDI KHADIJA              L0277146000209634000000200115000
49390782804EL BARAKA NOUREDDINE          I0259365000209635000000200115000
49390782808EL YAZIDI MOUNIR              AB0088379000209636000000200115000
49390782812MKIKA ZOHRA                   C0153707000209637000000200115000
49390782815AYAD ILHAM                    E0323352000209638000000200115000
49390782820AHADAOUI HASSAN               AB0121149000209639000000200115000
49390782829CHAOU NAIMA                   P0117927000209640000000200115000
49390782837NACIRI ABDELJALIL             JB24913000209641000000200115000
49390782846ANOUAR SALAH                  I0111787000209642000000200115000
49390782861HAJJAMI MOHAMMED              DA0014693000209643000000200115000
49390782923MOUNIR ABDELKARIM             CB0008073000209644000000200115000
49390782931CHOUKRI HASSAN                UA0017715000209645000000200115000
49390786242EL BOUANANI NAJAT             A0549477000209646000000200115000
49390786268SAID JAMILA                   C0035775000209647000000200115000
49390786276EL HARA SOUAD                 CB0021855000209648000000200115000
49390786303LAADIM HLIMA                  F0063682000209649000000200115000
49390786310DAAYF SOUAD                   JC0008245000209650000000200115000
49390786312FELLAH NASSIRA                ZG0017783000209651000000200115000
49390786320ISMAILI ALAOUI HASSANIA       C0363392000209653000000200115000
49390786323NAAIM MOULOUD                 UB0013726000209654000000200115000
49390786328BENAISSA FATIMA               X0122262000209655000000200115000
49390786329HASMI ABDELMJID               BJ0031346000209656000000200115000
49390786337BENBAKH NADIA                 A0043594000209657000000200115000
49390786338ZEHRAOUI MUSTAPHA             A0539072000209658000000200115000
49390786340EL MHAMMEDI BOCHRA            D0223097000209659000000200115000
49390786341SIDI ATHMANE ABDESLAME        OD0017387000209660000000200115000
49390786343AHLRGUIBI MAIMOUNA SALMA      OD0017195000209661000000200115000
49390786346KHARIJAH MINA                 A0454522000209662000000200115000
49390786347EZZINE ELMOSTAFA              D0367723000209663000000200115000
49390786350ERRAHMOUNI RQUIA              U0084550000209664000000200115000
49390786353CHAMRANI ZAHRA                Q0014103000209665000000200115000
49390786358EL BOUKILI SAID               V0051866000209666000000200115000
49390786361MOUDDEN MILOUD                G0271124000209667000000200115000
49390786409AKTAINI ABDELAZIZ             I0188969000209668000000200115000
49390786417JMILI FATIMA                  SH0064905000209669000000200115000
49390786419DOUIEB SOAD                   K0150202000209670000000200115000
49390786424REMAOUI LATIFA                M0029507000209671000000200115000
49390786426ABID LATIFA                   MC0031976000209672000000200115000
49390786452EL FAZAZI ZOUBIDA             D0197474000209673000000200115000
49390788935TOUGHZAOUI MUSTAPHA           DA0002458000209674000000200115000
49390788991ESSABBAK LAILA                J0127010000209675000000200115000
49390788993EZ ZAIDI JILALI               Y0073173000209676000000200115000
49390789045AIT LARBI MOHAMED             J0248886000209677000000200115000
49390789096KHLIFI ZAHRA                  C0425850000209678000000200115000
49390789097KALKHA HANIA                  AB0132268000209679000000200115000
49390789141ENNAOUI ABDELHAQ              B0485072000209680000000200115000
49390789143ESSOULI ABOUBAKER             H0180941000209681000000200115000
49390789148SALAMA FATIMA                 MC0043815000209682000000200115000
49390789153ISMAILI LEKBIR                E0357688000209683000000200115000
49390789251AMINOU RABHA                  U0043063000209684000000200115000
49390789252BOUHADDOU HASSANIA            A0478532000209685000000200115000
49390789284BEDDOUZ BRAHIM                UB0016187000209686000000200115000
49390835487SAMMAH FATIHA                 BH0050629000209687000000200115000
49390835500AHL MBAREK MOHAMED            OD0017553000209688000000200115000
49390835603BELKHALFI ZAKIA               E0282210000209690000000200115000
49390835648IGHACHANE KASSEM              G0021364000209691000000200115000
49390835684OUJEDDI ABDELAAZIZ            U0069793000209692000000200115000
49390835742DINIA HANA                    A0198516000209693000000200115000
49390836912EL ABDELLAOUI FATIMA ZOHRA    A0790331000209694000000200115000
49390836928ZAOUG KALTOUME                BE0557525000209695000000200115000
49390837113ESSOFI AHMED                  JC0077994000209696000000200115000
49390837118JOHRI NADIA                   G0320758000209697000000200115000
49390837120EL FHAIEL OIFAE               AB0011427000209698000000200115000
49390837124LEKHBIA NOUR REDINE           HA0017375000209700000000200115000
49390837126IDRISSI TAFRAOUTI SAMIRA      A0043584000209701000000200115000
49390837127JAAFARI RACHID                I0290403000209702000000200115000
49390837189DIHI YOUSSEF                  UA0010533000209703000000200115000
49390837197KHAZZARI AHMED                Q0092682000209705000000200115000
49390837202DAOUDI FATMA                  U0009251000209706000000200115000
49390837206HOUMARE NAJAT                 H0223139000209707000000200115000
49390837333FADIL MOHAMMED                A0286852000209708000000200115000
49390837334MOUKDAD SALIMA                A0422052000209709000000200115000
49390837398BENSASSI KHADIJA              A0221346000209710000000200115000
49390837421ACHEHROUR YOUNESS             A0723381000209711000000200115000
49390837427KHALYL ABDELHAMID             I0215630000209712000000200115000
49390837471LAMRABET MOHAMMED             C0428946000209713000000200115000
49390837472ICHOUHAR ABDELKRIM            JE0015656000209714000000200115000
49390837500EL AMRANI WAFAA               K0194949000209715000000200115000
49390837504CHAQUOUR LHOUCINE             U0082955000209716000000200115000
49390837505OUKHAYI LAHOUSSINE            JB80576000209717000000200115000
49390837512SELLAKMINE MOHAMED            E0140275000209718000000200115000
49390837515FOUASSI NAIMA                 BE0555117000209719000000200115000
49390837523LACHANE ISMAIL                E0323488000209720000000200115000
49390837539MAHRI MOHAMED                 BE0602532000209721000000200115000
49390837692SOUNI MUSTAPHA                A0277805000209722000000200115000
49390838010INEFLASS HOUDA                A0323477000209723000000200115000
49390838064OUAGAGUE ABDERRAHMANE         J0251423000209724000000200115000
49390844609ZANAFI YOUSSEF                D0229912000209725000000200115000
49390844801OUALI FATIMA                  D0459437000209726000000200115000
49390844859TAHNINE KHADIJA               A0461720000209727000000200115000
49390846485ASSILA MAHJOUBA               A0754285000209728000000200115000
49390846660BENYOUCEF ABDERRAZZAK         I0089079000209729000000200115000
49390846769CHALLA NEZHA                  V0061757000209730000000200115000
49390847101CHABBAK DRISS                 UA0021147000209731000000200115000
49390847954DRISSI FATIMA                 X0110055000209732000000200115000
49390855248AZOKA RKIA                    Q0082636000209733000000200115000
49390855256GHALMI ZINEB                  I0124598000209734000000200115000
49390855278ZOUGAT NAJIA                  D0116309000209735000000200115000
49390855282AADIDOU NEZHA                 D0153201000209736000000200115000
49390855285EL HAY MALIKA                 Y0033431000209737000000200115000
49390855431SAFIR AICHA                   Y0037708000209738000000200115000
49390856425SEFRAOUI ASMAHANE             C0143615000209739000000200115000
49390856464GNAOUI SAADIA                 W0055514000209740000000200115000
49390862056BAKKARI HOURIA                C0115669000209741000000200115000
49390862058EL MENANI NADIA               A0546941000209742000000200115000
49390862062SIDQI KHADIJA                 I0089046000209743000000200115000
49390868558CHAMANE MINA                  L0110134000209744000000200115000
49390869182BARAD SAIDA                   W0044860000209745000000200115000
49390869209RAHMANI KHADIJA               S0173517000209746000000200115000
49390265136EL MALKI EL HAJ               Q0095483000209747000000200115000
49390869239AMRANI RACHIDA                C0360668000209748000000200115000
49390869247GHASSOULI HAFIDA              H0087000000209749000000200115000
49390869251ZIAT FILALI FATIHA            C0363667000209750000000200115000
49390869252EL MOUSTAQIM YAMNA            A0257525000209751000000200115000
49390871665SOULEIMANI KELTOUM            A0027728000209752000000200115000
49390872097KOUISSEH KHADDOUJ             E0171903000209753000000200115000
49390872913EL MOUHALHAL SAIDA            A0227612000209754000000200115000
49390872945MANNA EL HAIBA                SH0010393000209755000000200115000
49390875755JAMALI WAFAA                  A0240522000209756000000200115000
49390875764OUAMMAR KHADIJA               Q0097756000209757000000200115000
49390876071BOUSSAHFA KHADIJA             L0021369000209758000000200115000
49390876092DARDAK AATIKA                 Q0006146000209760000000200115000
49390876152ZAIMI HANANE                  A0261805000209761000000200115000
49390876156LAHLOU BAHIJA                 A0581320000209762000000200115000
49390876160TAHRI RABIA                   AB0007086000209763000000200115000
49390893531TAOUFIKI OMAR                 J0128253000209764000000200115000
49390893704BELBEKR NAJI                  GK0006878000209765000000200115000
49390893789OUBELLA TAYEB                 JE0006650000209767000000200115000
49390893913ELHARBI MALIKA                X0006964000209768000000200115000
49390323956EL KHALLADI ALLAL             X0048376000209769000000200115000
49390350526GHAZI SAID                    G0125610000209770000000200115000
49390696056AIT NASSER BRAHIM             E0014971000209771000000200115000
49390896522GHARIOUI FATIMA               W0084489000209772000000200115000
49390896537HOU ABDELKADER                F0283510000209773000000200115000
49390896540AMARIR MOHAMMED               BE0453197000209774000000200115000
49390896547EL QADDOURI FATNA             A0036428000209775000000200115000
49390896575MABROUK MOHAMED               P0066714000209776000000200115000
49390896580AIT OUKHALI LATIFA            E0210976000209777000000200115000
49390896582ABAHAZEM ABDATI               J0152829000209778000000200115000
49390896865HARNAFI LATIFA                CB0003690000209779000000200115000
49390897996ABDATI MALIKA                 JF0006851000209780000000200115000
49390898336LGO MIMOUN                    A0007108000209781000000200115000
49390898352MARCHICH MOHAMED              A0294654000209782000000200115000
49390898365BARRAMI FATIHA                M0150440000209783000000200115000
49390899740KDAD FATIMA                   UA0002618000209784000000200115000
49390758789BAHAJ NADIA                   D0086282000209785000000200115000
49390899794ELIDRISSI MEKKI               A0545573000209786000000200115000
49390899795BERKAL AICHA                  I0099799000209787000000200115000
49390946270EL OUTMANI ZOHRA              SH0010175000209788000000200115000
49390953198CHAKI EZZEHIRA                C0154980000209789000000200115000
49390962553BOUKADDOUR ZOULIKHA           A0031838000209791000000200115000
49390966181CHIGUER AICHA                 BE0076910000209792000000200115000
49390976360ESSAADI MARIA                 H0097603000209793000000200115000
49390976607DADDA FATIHA                  V0027903000209794000000200115000
49390977213ALIOUA KHADIJA                BE0401818000209795000000200115000
49390894229BOURHIM M HAMED               JE0020683000209796000000200115000
49390978739NAKHILI FATIMA                C0312566000209797000000200115000
49390978741BOULAHIA FOUZIYA              C0168658000209798000000200115000
49390978750EL FANFANI SAIDA              E0192486000209799000000200115000
49390979680OUCHAO ZAHRA                  J0011859000209800000000200115000
49390979783RMICH MINA                    D0136060000209801000000200115000
49390979785NIGGA MALIKA                  P0044268000209802000000200115000
49390979788NABIL NADIA                   C0021259000209803000000200115000
49391000081SABRI BOUCHAIB                BE0518918000209804000000200115000
49391000096BARKA FATIMA                  BJ0122731000209805000000200115000
49391000117ABAHAR BOUCHRA                C0398284000209806000000200115000
49391000118EL BOURAKADI KHADIJA          Z0146956000209807000000200115000
49391000803MAHBOUB FATIMA                M0258177000209808000000200115000
49391000808RHADBANE MINA                 M0184055000209809000000200115000
49391000811BENNOUR SELOUA                D0324762000209810000000200115000
49391000817LAKHLAIDI TOURIYA             N0015527000209811000000200115000
49391000827ENNABATE FATIHA               C0159856000209812000000200115000
49391000829LAKHAL ABDELLAH               SH0048545000209813000000200115000
49391000830LAMHIOUI FATIMA               E0172482000209814000000200115000
49391001297KHAI KHADIJA                  C0342489000209815000000200115000
49391001305FENNOUS MALIKA                D0331224000209816000000200115000
49391001311LAZAR AICHA                   G0118085000209817000000200115000
49391001384HOUCAIN HANANE                A0653765000209818000000200115000
49391001394EL KEOUALI LATIFA             BE0530827000209819000000200115000
49391001399YASSINE ZOUHRA                QA0073095000209820000000200115000
49391001406QOTBI MOUNIA                  AB0099372000209821000000200115000
49391001460BOUKHENFAR AICHA              J0253153000209822000000200115000
49391002340SAHIL ABDESLAM                LB0044855000209823000000200115000
49391002370MALKI MOHAMMED                E0492146000209824000000200115000
49391002503BROURI FATIMA                 D0191910000209825000000200115000
49391043258MERZGUIOUI MOHAMED            KA0017432000209826000000200115000
49391054385FAKHIR EDDINE SOUAD           Q0163239000209827000000200115000
49391054623ELKADDOURI RACHIDA            AB0013662000209829000000200115000
49391054627CHARIAI ABDERRAHIM            M0168728000209830000000200115000
49391054629RJIMATI HASSAN                Q0163348000209831000000200115000
49391054631ZAHRI ABDERRAZAK              GN0003641000209832000000200115000
49391054633RIKHAT MINA                   WB0014375000209833000000200115000
49391054638AGOURRAM ABDERRAHIM           E0458875000209834000000200115000
49391054647BENHIDA ABDELGHANI            A0568655000209835000000200115000
49391054654MOUH ABDELAZIZ                BH0111253000209836000000200115000
49391054661DOGHMI MOHAMMED               TA0028840000209837000000200115000
49391054665KHADDOU OMAR                  TA0017965000209838000000200115000
49391054666EL MESBAHI MOHAMED            D0327791000209839000000200115000
49391054672HOUR HAKIMA                   D0396539000209840000000200115000
49391054681KINANY MOHAMMED               A0416057000209841000000200115000
49391054682BENRHMOUCHE MOHAMMED          A0632838000209842000000200115000
49391054684EL MAHI MOUSSA                A0493495000209843000000200115000
49391054697AZIM AICHA                    I0187102000209844000000200115000
49391054699MEKOUAR ADIL                  A0214977000209845000000200115000
49391054724ABERDIN ZAHRA                 PB0030841000209846000000200115000
49391054726BENNASSEF EL GHLIMI           BE0423590000209847000000200115000
49391054728EL AIZA SAID                  AD0029159000209848000000200115000
49391054730DAFANI RAHHAL                 J0275121000209849000000200115000
49391054770KREKER BAHIJA                 BJ0049171000209850000000200115000
49391054771LAMGHARI NAZHA                E0540933000209851000000200115000
49391054774ELMARZAK FATIMA               AD0048918000209852000000200115000
49391054790BELMAHJOUB JAMAL              A0212930000209853000000200115000
49391054794SABRI FAWZIA                  XA0017295000209854000000200115000
49391054795BOUISSA SOUMIA                FA0050156000209855000000200115000
49391054803BOUALLAGA AMINA               A0651681000209856000000200115000
49391054810LAHRICHI IMANE                A0414555000209857000000200115000
49391054812ABRADA FATIMA                 QA0057293000209858000000200115000
49391054813BENAZZI MINA                  G0273741000209859000000200115000
49391054814ES SEMLALI AICHA              AB0063169000209860000000200115000
49391054815EL OUFIR SOUAD                QA0036850000209861000000200115000
49391054827BAROURI AZIZ                  A0415172000209862000000200115000
49391054838CHERQAOUI MOHAMMED ETTAHIR    I0241708000209863000000200115000
49391054840EDDAH EL HAJ                  JF0002030000209864000000200115000
49391054851BOUKHARI JAOUAD               C0422937000209865000000200115000
49391054886DAOUDI MOHAMMED               D0174720000209866000000200115000
49391054894MORCHID HAYAT                 A0472270000209867000000200115000
49391054898RACHIDI ZINEB                 E0577746000209868000000200115000
49391054987YOUSFI AMAL                   A0456309000209869000000200115000
49391054997RGUIBI DRISSIA                D0375066000209870000000200115000
49391055003ID ELKACHA AICHA              PB0015890000209871000000200115000
49391055005TOUBAJI MAHJOUBA              X0061438000209872000000200115000
49391055008HAMANI MOHAMED                C0621067000209873000000200115000
49391055011SEKKAT MOUNA                  BJ0106691000209874000000200115000
49391055012RHIDOUANI MOHAMMED            C0297310000209875000000200115000
49391055037ENNOUHI SAADEDDINE            BH0170454000209876000000200115000
49391055038AZOUA MOHAMED                 X0126617000209877000000200115000
49391055154HAJJI YOUNESS                 A0467238000209878000000200115000
49391055156BOUSSETA MOUNIA               A0411696000209879000000200115000
49391055198LHAINI KHADIJA                BJ0077654000209880000000200115000
49391055219HAYATE MOHAMMED               BH0065635000209881000000200115000
49391055263EL MOKH HOUDA                 M0242609000209882000000200115000
49391055266CHERTI TAZI OUADIA            C0391554000209883000000200115000
49391055271BENNOUNA TOURIYA              H0199570000209884000000200115000
49391055280EL MEJJATI KHALID             A0417847000209885000000200115000
49391055281MAROUAN NAJAT                 A0473227000209886000000200115000
49391055286NAJI FATIMA                   A0063052000209887000000200115000
49391055288BRITEL DRISS                  G0222208000209888000000200115000
49391055289HAMMOUR AHMED                 Q0093968000209889000000200115000
49391055290BACHIRI EL BAUCHTAOUI         Q0094598000209890000000200115000
49391055291TOUZANI NADIA                 D0161272000209891000000200115000
49391055307BENRHMOUCHE KARIM             A0634837000209892000000200115000
49391055314EL HMIM SAIDA                 AB0046962000209893000000200115000
49391055319DRISSI BELGASMI SIDI MOHAMME  A0039202000209894000000200115000
49391055320BOULAAMANE RAHMA              A0417727000209895000000200115000
49391055330ABAKARIM MINA                 J0279451000209896000000200115000
49391055346SABRI LAHOUCINE               JE0002665000209897000000200115000
49391055356RIBGOU NAIMA                  B0489637000209899000000200115000
49391055359ABOUHRIA SAMIA                J0275308000209900000000200115000
49391055361SLAMA MOHAMED                 BJ0058024000209901000000200115000
49391055379DHAIBI SARA                   E0520989000209903000000200115000
49391055384ES SAID AHMED                 QA0047976000209904000000200115000
49391055385FADIL ABDELMJID               BH0058048000209905000000200115000
49391055388HRIMACHE ABDELKADER           E0224475000209906000000200115000
49391055391CHERQAOUI MOHAMMED            QA0022498000209907000000200115000
49391055392EL AJROUDI DRISS              GM0055623000209908000000200115000
49391055406EDDOQ TOURIA                  G0194090000209909000000200115000
49391055407FATHI AZIZA                   BE0473828000209910000000200115000
49391055408IAZOUZAN FATIMA               L0178199000209911000000200115000
49391055409BENMESSAOUD ABDERRAHIM        B0023436000209912000000200115000
49391055410HIMDI FATIHA                  A0455080000209913000000200115000
49391129825OUAFI KARIMA                  G0221453000209914000000200115000
49391142647BOURJLATE ISMAIL              JB67938000209915000000200115000
49391142671BENKHALLOUQ MOHAMED           AD0005172000209916000000200115000
49391142675ABDELHAQ KHADIR               A0469509000209917000000200115000
49391142677MAZIGHA MOHAMMED              C0187106000209918000000200115000
49391142687ANOUAR MOHAMED CHAFIQ         E0420213000209920000000200115000
49391142691AZOUA MUSTAPHA                X0136627000209921000000200115000
49391142713FAIK BOUCHRA                  QA0028555000209923000000200115000
49391142722ZIKAR FATNA                   BH0150298000209924000000200115000
49391142729MACHFOUA NABILA               BH0169552000209925000000200115000
49391142735KHATORI NAIMA                 TA0012276000209926000000200115000
49391142755BENNANI IMANE                 D0343892000209927000000200115000
49391142758NOUIJI HAYAT                  C0511447000209928000000200115000
49391142766AIT BOUICHCHOU BOUCHRA        FH0022561000209929000000200115000
49391142775EL MOUTAOUKIL LAMIAA          R0011522000209930000000200115000
49391142789MAGANI RACHIDA                Q0166434000209931000000200115000
49391142802HASSANE NORA                  EA0029546000209933000000200115000
49391142803HAMOUROU JAMILA               JE0143279000209934000000200115000
49391142807EL MASYKY FATIHA              J0003644000209935000000200115000
49391142817RAFIK AICHA                   P0115651000209936000000200115000
49391142821KASSIMI KHALID                LC0015616000209937000000200115000
49391142824ESSENOUSI FATIMA ZOHRA        L0315332000209938000000200115000
49391142826EL HALIMI RIDA                L0253265000209939000000200115000
49391142829BOUMNIDEL ANISSA              LC0039972000209940000000200115000
49391142830TALHA SOUMAYA                 L0263635000209941000000200115000
49391142836BERD HANANE                   K0320169000209942000000200115000
49391142837YASSINE KARIMA                K0272404000209943000000200115000
49391142841SENHAJI AICHA                 LB0007808000209944000000200115000
49391142845SLAOUI KHADIJA                LB0045427000209945000000200115000
49391142915ABADY MOHAMED                 I0247119000209946000000200115000
49391142925OULABASSE KHADOUJ             JC0175392000209947000000200115000
49391142934GUERTITE IDRISS               P0058492000209949000000200115000
49391143042SEBBAR LOUBNA                 E0586109000209950000000200115000
49391143044ZAROUALI CHAKKORI OTMAN       L0165034000209951000000200115000
49391143051EL JARHAOUI NEZHA             J0198760000209952000000200115000
49391143054TAHIRI MY ABDELAZIZ           JE0102856000209953000000200115000
49391143061BOUDIR FATIHA                 A0255631000209955000000200115000
49391143065TAHIRI NOURA                  JF0013354000209956000000200115000
49391143066CHTATOU HASSANE               A0147862000209957000000200115000
49391143068AIT IDER KHADIJA              JC0144507000209958000000200115000
49391143074IDHAMOUJAMA LAHCEN            JE0032199000209960000000200115000
49391143080EL KEMIA BENAISSA             C0683464000209961000000200115000
49391143081OUAZZANI TOUHAMI FOUAD        C0196923000209962000000200115000
49391143096TANTANE ABDELALI              AB0132215000209963000000200115000
49391143100OUDRHIRI KHADIJA              Z0273502000209964000000200115000
49391143126LAMZOURI SAID                 BH0131256000209965000000200115000
49391143130MOUAILY SAID                  B0571720000209966000000200115000
49391143143CHAKIR NADIA                  BJ0182222000209967000000200115000
49391143149ZIOUANI MOURAD                E0490177000209968000000200115000
49391143318BENTAYEK HAFID                A0489860000209969000000200115000
49391143320KLIBI HATIM                   C0776113000209970000000200115000
49391143322EZ ZITOUNI HABBAZ             W0074612000209971000000200115000
49391143328QESSAD HASSAN                 Q0116816000209972000000200115000
49391143330RAKCHO MOHAMMED               H0026415000209973000000200115000
49391143331AIT BOUDAR RABHA              UB0015273000209974000000200115000
49391143333MOFADEL HASSAN                J0146340000209975000000200115000
49391143338JANATI NAJAT                  C0515025000209976000000200115000
49391143368OUMARI LAHOUCINE              BE0589906000209978000000200115000
49391143369ACHABAK ABDELILAH             E0342665000209979000000200115000
49391143385SAKINE NOURADDINE             EB0000463000209983000000200115000
49391143391EL KAMLI SAID                 I0268870000209984000000200115000
49391143392FAIZ FARIDA                   PB0018713000209985000000200115000
49391143397EL KHARBOUCHI HAMID           Q0113120000209986000000200115000
49391168808ERRADE BENAISSA               D0054588000209987000000200115000
49391168823EL BADAOUI ABDELLAH           QA0037902000209988000000200115000
49391168824BOUJEMRI LAHOUCINE            J0219713000209989000000200115000
49391168831ZERDAHI NADIA                 BH0423178000209990000000200115000
49391168832ZAIOUD FATIHA                 BE0548413000209991000000200115000
49391168837MARHBA MALIKA                 BH0031962000209992000000200115000
49391168838TAJE EDDINE FAIZA             BK0076935000209993000000200115000
49391168843BACHKAR ZAHIRA                H0026690000209994000000200115000
49391168844RADI FATIMA                   BH0171235000209995000000200115000
49391168848JABIR RACHIDA                 BE0515845000209996000000200115000
49391168862OURIZ LATIFA                  BK0099012000209997000000200115000
49391168864MEROUANE MBARKA               BJ0152678000209998000000200115000
49391168867LAGHMADI SAMIRA               BJ0139124000209999000000200115000
49391168873HILAL BADIA                   BH0307409000210000000000200115000
49391168886LAGRAMEH RABIA                BK0059104000210001000000200115000
49391168887BIADI ILHAM                   H0284333000210002000000200115000
49391168890ZAID LATIFA                   E0437254000210003000000200115000
49391168893NASSIHI RABIAA                H0223185000210004000000200115000
49391168894FOUADI NAJAT                  HA0010773000210005000000200115000
49391168895ABIDA SOUAD                   Y0145644000210006000000200115000
49391168900EL HABCHI KHADIJA             AB0122294000210007000000200115000
49391168905BENABBOU SOUAD                X0118793000210008000000200115000
49391168906BENHAMOU KARIMA               A0424641000210009000000200115000
49391168914CHIGUER BELAID                G0231917000210010000000200115000
49391168915LABIYAD BOUCHRA               AB0130269000210011000000200115000
49391168916EZZIDOUNI ELMIMOUNI NAIMA     X0092238000210012000000200115000
49391168918SAAJI MINA                    D0227531000210013000000200115000
49391168921ESSABI ZAHRA                  G0314156000210014000000200115000
49391168925BOUMENJEL NAJAT               AB0125940000210015000000200115000
49391168939SBAA NAJAT                    LA0042781000210016000000200115000
49391168942EL MELLIHI SAMIRA             LA0030177000210017000000200115000
49391168946MAIMOUNI MOHAMMED             K0197919000210018000000200115000
49391168956IGIOUI LATIFA                 JB152609000210019000000200115000
49391168960ARHIL KHADIJA                 JE0135931000210020000000200115000
49391169011AL KADAOUI SAMIRA             S0351833000210021000000200115000
49391169013LAAZIBI NAJIHA                R0130964000210022000000200115000
49391169029MIZOU ADIL                    C0515479000210023000000200115000
49391169035SALHI HASSANE                 CB0084831000210024000000200115000
49391169054BOUTKROUMT FOUAD              JB158848000210025000000200115000
49391169058RGHIOUI KAOUTAR               K0033309000210026000000200115000
49391169069MOUSSAOUI MOHAMED             CB0039569000210027000000200115000
49391169073BOUSSENNA MINA                G0236025000210028000000200115000
49391169081BOULAHLIB LALLA SAADIA        E0428061000210029000000200115000
49391169082BANA ABDELOUAHED              H0027892000210030000000200115000
49391169085ACHANDIR ABDELLAH             JC0095467000210031000000200115000
49391169109HAFDI MOHAMED                 JE0128807000210032000000200115000
49391169113KHALOUTA ABDELOUAHED          H0114382000210033000000200115000
49391169129BAHLOU HAFIDA                 GA0071777000210034000000200115000
49391169133HAMEDDINE ABDELMJID           BH0066621000210035000000200115000
49391169136SOUIBA MERIEM                 BJ0217048000210036000000200115000
49391169180EL HAIBA KHALID               GB0030565000210037000000200115000
49391169205ACHAK RIDOINE                 DA0023605000210038000000200115000
49391169208REDDAD MOHAMED                GB0039842000210039000000200115000
49391169216MAIDEN ADIL                   GA0093116000210040000000200115000
49391169218JAMJAMA SAID                  MC0071770000210041000000200115000
49391169224EL JAHOUANI NOUR EDDINE       N0088078000210042000000200115000
49391169242IBNECHRYF HASNA               Q0214628000210043000000200115000
49391169252DAMKAL MOHAMED                WA0051552000210044000000200115000
49391169270NIFI RADOUANE                 WA0067175000210045000000200115000
49391169276LAAFISSE HICHAM               BH0137319000210046000000200115000
49391169295KALOULI ABDELKADER            E0558031000210047000000200115000
49391169297TLOUSSI LAAZIZA               E0479718000210048000000200115000
49391169299EL HARRADI KHADIJA            E0056192000210049000000200115000
49391169307HAMDOUCH MALIKA               Y0123665000210050000000200115000
49391169308MERNISSI BOUJAMAA             C0493135000210051000000200115000
49391169311ADDOU HASSAN                  DA0004509000210052000000200115000
49391169317BOULAALA BOUBCHER             Z0180139000210053000000200115000
49391169327LAABOUDI IBTIHAJ              GM0030790000210054000000200115000
49391169331HAMITI AMAL                   BH0424969000210055000000200115000
49391169332BOUAROUQ AZIZA                F0331748000210056000000200115000
49391169333DOUKKALI SAIDA                A0471080000210057000000200115000
49391169354EL IDRISSI MOULAY IDRISS      PA0000226000210058000000200115000
49391169364BNINECH HASSAN                BJ0151913000210059000000200115000
49391169383MRANI MERYEME                 A0586348000210060000000200115000
49391169400EL FARGALI MOHAMED            E0395796000210061000000200115000
49391169450BENALI FATIMA ZOHRA           FH0021354000210062000000200115000
49391169459LAARIBI ABDELKADER            DA0012115000210063000000200115000
49391169470AKERMACH ISSAM                A0333775000210064000000200115000
49391169480EL FILALI YOUSSEF             BE0724037000210065000000200115000
49391169486RHOUNI MUSTAPHA               BE0070448000210066000000200115000
49391169490ESSERADI MOHAMED              GM0033041000210067000000200115000
49391169504FETTAH ALI                    CB0065690000210068000000200115000
49391169506EL BOUKFAOUI MY RACHID        P0150027000210069000000200115000
49391169511BARKA HASSAN                  JB179935000210070000000200115000
49391169520CHAQRI YOUSSEF                H0234753000210071000000200115000
49391169521NAFZAOUI HASSANIA             H0311631000210072000000200115000
49391169523CHAHID MOHAMED                BJ0193062000210073000000200115000
49391169524KHRIBECH AZYZ                 M0269029000210074000000200115000
49391169528LAMINI SIDI MOHAMED           U0001785000210075000000200115000
49391169532BOURAMDANE ABDELAAZIZ         U0009950000210076000000200115000
49391169534BADRI OMAR                    U0092314000210077000000200115000
49391169537AKDIM AHMED                   JE0082340000210078000000200115000
49391169542DAHMANI NAJIM                 S0333491000210079000000200115000
49391169555ES SOULAMI ABDERRAHIM         E0594252000210080000000200115000
49391169559QADRI NOR EDDINE              Q0186258000210081000000200115000
49391169560BAKKACHI MOHAMED              Q0166938000210082000000200115000
49391169569ZIANI AICHA                   JA0036184000210083000000200115000
49391169580ELOUARDI TOURIA               A0654530000210084000000200115000
49391169583MRIBAT NAIMA                  A0762918000210085000000200115000
49391169585ANAIOUB FATIMA ZAHRA          A0075010000210086000000200115000
49391169594EL OIROIR MBARK               JF0014632000210087000000200115000
49391169596BEN LAZRAK FATIMA             JC0123784000210088000000200115000
49391169600SLIMANI BOUCHRA               BH0536656000210089000000200115000
49391169602IDELMOU ZAHRA                 BJ0151508000210090000000200115000
49391169617EL HALOUANI JAMILA            BE0629556000210091000000200115000
49391169633AYYAD ZOUBIDA                 GA0010902000210092000000200115000
49391169638EL ABKARI NAJIA               GK0035606000210093000000200115000
49391169639RHARARA KHADIJA               G0032195000210094000000200115000
49391169651ESSAOUDI ABDELTIF             DA0019062000210095000000200115000
49391169661CHAABI BADIAA                 IA0044582000210096000000200115000
49391169663KANNANE ZOHRA                 I0345274000210097000000200115000
49391169667HANDAZE RAJAA                 W0193846000210098000000200115000
49391169668OUENZA HOUDA                  W0174002000210099000000200115000
49391169669SANAA MAKANI                  W0023956000210100000000200115000
49391169671BAYADARA RACHIDA              M0293021000210101000000200115000
49391169674SAMIT MALIKA                  MC0076646000210102000000200115000
49391169684CHARKI ASMAE                  R0145349000210103000000200115000
49391169689KHADIJA TIOUASSIOUINE         F0068948000210104000000200115000
49391169695BAROUDA SOUAD                 S0394279000210105000000200115000
49391169696CHAOUKI HAKIMA                S40072199000210106000000200115000
49391169702ESHAIMI ASMAE                 R0130639000210107000000200115000
49391169703BEN HSAIN HOUDA               L0289343000210108000000200115000
49391169714HAJJAJ NOUR EL HOUDA          K0236160000210109000000200115000
49391169720LAZRAGUE LAAZIZA              E0492557000210110000000200115000
49391169721BEN HADDADI SAMIRA            E0466731000210111000000200115000
49391169723TAMOUH KELTOUM                EA0042015000210112000000200115000
49391169734LAROUSSI HASSAN               H0121267000210113000000200115000
49391169742EL AMRAOUI SIDI MOUH          PB0020400000210114000000200115000
49391169744SAHRAOUI HANANE               U0120056000210115000000200115000
49391169747OUARAINI FATIMA               U0096489000210116000000200115000
49391169751MAAZOUZ NAIMA                 JB176935000210117000000200115000
49391169754EL MOUNACHIT FADNA            JB86822000210118000000200115000
49391169791ARDDICHE LAHCEN               JB162116000210119000000200115000
49390899744RIKHAT FATIMA                 W0046595000210120000000200115000
49391229748ABDELKAHAR NACEUR             A0679653000210121000000200115000
49391229755BOUTAKY YOUNES                BL0034602000210122000000200115000
49391229757KRAICHY ABDELKABIR            TA0027082000210123000000200115000
49391229758BEN YACHOU AHMED              C0548559000210124000000200115000
49391229767JAIT HICHAM                   MC0061808000210125000000200115000
49391229768DARDOURI MOHAMED              Z0178613000210126000000200115000
49391229772BOUGDALI MOHAMED              E0275458000210127000000200115000
49391229780BOUSSAKKA MOHAMED ALI         PB0048672000210129000000200115000
49391229781BOUJOUJOU BRAHIM              PB0011463000210130000000200115000
49391229788HMAMOU BRAHIM                 QA0014738000210131000000200115000
49391229789BENBRAHIM EL HASSAN           R0125797000210132000000200115000
49391229792LAGHZAL SOUILEM               JA0008421000210133000000200115000
49391229798BOUMATA EL HASSAN             JA0011611000210136000000200115000
49391229833MUSTAPHA EL ANSARI            SH0098185000210137000000200115000
49391229835LALLA LADIBA MAALAININE       SH0097584000210138000000200115000
49391229838NAJEM BRAHIM                  V0014498000210139000000200115000
49391229846ACHBANI BRAHIM                J0249648000210140000000200115000
49391229853BELAYDI YOUNESS               C0068972000210141000000200115000
49391229854ARSSI FAHD                    C0043918000210142000000200115000
49391229864MAKBOULI KHADIJA              IA0016794000210143000000200115000
49391229866WAHIB HASSAN                  BH0069062000210144000000200115000
49391229875BOUAIADI NOUZHA               D0469997000210145000000200115000
49391229884SOUIYAH MAHMOUD               SH0054160000210146000000200115000
49391229891EZZAHOULI BRAHIM              E0765293000210147000000200115000
49391229893BOUTEMNI M BAREK              J0249645000210148000000200115000
49391229898AYZOUK MOHAMED                P0141719000210149000000200115000
49391229902EL FATOUAKI ABDERRAHIM        E0229684000210150000000200115000
49391229906RAMZANE CHAFIK                BK0219299000210151000000200115000
49391229907MELLAGUI KHALID               C0471970000210152000000200115000
49391229915TOUIL HICHAM                  BK0129080000210153000000200115000
49391229995BENALLAL ABDELLAH             F0337144000210154000000200115000
49391230000AIT AADI RABIAA               JC0156064000210155000000200115000
49391230005ESMAALI FOUZIYA               X0161995000210156000000200115000
49391230045BENIZ ABDELLAH                FL0033700000210157000000200115000
49391230060SHIMI MOHAMED                 ZG0033792000210158000000200115000
49391230072JBOUB MOHAMED                 H0174384000210159000000200115000
49391230097OUAHMANE BRAHIM               BJ0159950000210160000000200115000
49391230113ZAID RAHAL                    E0473067000210161000000200115000
49391230141BENLEHROUKI LAHSEN            D0655399000210162000000200115000
49391230154TOUATI LMEHDI                 VA0028025000210163000000200115000
49391230176BAKOUH FARIDA                 L0339476000210164000000200115000
49391230206HALIM DRISS                   C0269364000210166000000200115000
49391230218BRICHA SAID                   I0336471000210167000000200115000
49391230224OULAOUCH NABIL                IA0040055000210168000000200115000
49391230309ESSOUBKI ABDERRAHIM           BH0097267000210169000000200115000
49391230310MACHFOUA MUSTAPHA             BH0144560000210170000000200115000
49391230311QADI HANANE                   F0620072000210171000000200115000
49391230317NAKACH ABDERRAHMAN            B0734422000210172000000200115000
49391230470OUMIMOUNE FATIMA              X0061667000210173000000200115000
49391230474MANSOURI YASSIN               X0139918000210174000000200115000
49391230475RAHMANI FATNA                 A0753940000210175000000200115000
49391230479KESSOU KHADIJA                BH0175848000210176000000200115000
49391230481ALAHOUI KAMAL                 BH0237296000210177000000200115000
49391230488ABKARI BOUAMAR                X0156209000210178000000200115000
49391230500MOUNIM RACHID                 Q0160194000210179000000200115000
49391230516ASSEFIANI MOHAMMED LARBI      L0032140000210180000000200115000
49391230521BENBA ESSAID                  E0568947000210181000000200115000
49391230523BENHIDA MOHAMED HALIM         E0644921000210182000000200115000
49391230526ACHERGUI RACHID               E0532522000210183000000200115000
49391230530AIT BOULAID MOHAMED           P0137582000210184000000200115000
49391230531EL HASSANE RIDOUANE           P0121837000210185000000200115000
49391230533ABOULISSANE SAID              JC0155313000210186000000200115000
49391230547MEKAOUI TAOUFIK               C0392689000210187000000200115000
49391230557ZEJLY FATIMA                  Z0267664000210188000000200115000
49391230562BENHIDA NAJAT                 FL0028907000210189000000200115000
49391230575NEMROUCH NAOUFAL              E0006383000210190000000200115000
49391230616ZHAD ALI                      A0752783000210191000000200115000
49391230617TAH MOSTAFA                   BK0049789000210192000000200115000
49391230631MACHE HANANE                  BJ0264148000210193000000200115000
49391230641SAMI FATIHA                   BE0551679000210194000000200115000
49391230644ERRACHIDI FAOUZIA             BH0529311000210195000000200115000
49391230650ZAGHI NAOUAL                  BJ0274394000210196000000200115000
49391230669MORJANE AICHA                 GA0019066000210197000000200115000
49391230670MEADANI FIHRIA                GK0038312000210198000000200115000
49391230671ALIF JAMILA                   S40018800000210199000000200115000
49391230672SAIDI HANANE                  R0143160000210200000000200115000
49391230675EL QANDALI SAMIRA             H0266543000210201000000200115000
49391230679RIZQI DALILA                  JC0136450000210202000000200115000
49391230680NAIT MOUSSA AICHA             JC0108326000210203000000200115000
49391230687CHEMAA LATIFA                 I0035073000210204000000200115000
49391230689CHAIRI SAMIRA                 L0359984000210205000000200115000
49391242642SAAD FOUZIA                   A0770031000210206000000200115000
49391246650EL MESSAOUDI ABDELLAH         H0326049000210207000000200115000
49391272271MALIKI NEZHA                  BK0135126000210208000000200115000
49391272280HIJAZI KARIMA                 C0438436000210209000000200115000
49391272285BANNID YAMINA                 E0466411000210210000000200115000
49391272286ZITOUNI JAMILA                D0398777000210211000000200115000
49391272287EL YAZIOUI KARIM              DA0025730000210212000000200115000
49391272288ELOUAHDI LATIFA               D0620415000210213000000200115000
49391272293KACHADE KHADIJA               F0075022000210214000000200115000
49391272314RAMLY CHAIBIA                 T0132688000210215000000200115000
49391272324EL KAHL MOHAMED LAGHDAF       SH0071859000210216000000200115000
49391272474IZIKI NAJIMA                  A0489914000210217000000200115000
49391272484CHAFI HAMID                   C0357858000210218000000200115000
49391272498EL MENSIFI BRAHIME            L0252144000210219000000200115000
49391272499ZENATI SABRINE                A0724821000210220000000200115000
49391272620ILLOUSSAMEN NOUAMA            A0071523000210221000000200115000
49390978693OUTROUHALTE FATIMA            J0113950000210222000000200115000
49391272670BRITEL KHADIJA                G0193573000210223000000200115000
49391272671EL BOUZIDI ABDELILAH          D0390927000210224000000200115000
49391272674EL KOSS SIF-EDDINE            BK0097979000210225000000200115000
49391272819SERKOUH LAHBIB                JF0014580000210226000000200115000
49391272820EL MAANAOUI EL GHALIA         SH0096737000210227000000200115000
49391272821LAKHAL ZINEB                  SH0091280000210228000000200115000
49391272825MAGANI MALIKA                 CB0096608000210229000000200115000
49391272833EL FATIMI SAADIA              I0314002000210230000000200115000
49391272838OUSBAAI AICHA                 I0467105000210231000000200115000
49391272841TAHIRI KARIMA                 I0442098000210232000000200115000
49391272851ELOUATY MOHAMED               Z0273637000210233000000200115000
49391272859HAMLI FATNA                   F0351375000210234000000200115000
49391272861ARRAJI YOUSSEF                Q0196064000210235000000200115000
49391272867EL JAMAAI NAJAT               X0188667000210236000000200115000
49391272870EL KHATTAB KHADIJA            A0425283000210237000000200115000
49391272871RIACHE JAMILA                 A0658262000210238000000200115000
49391272876BAJAD KHADIJA                 N0130947000210239000000200115000
49391272877EL ARAJI R KIA                E0476646000210240000000200115000
49391272878KAZ BOUCHRA                   N0093208000210241000000200115000
49391272883AIT ABDELLAH LAHBIB           JC0049710000210242000000200115000
49391272888AMAGAR FATIMA                 JC0157161000210243000000200115000
49391272889TIMNOUNI FATIHA               JC0173684000210244000000200115000
49391272894BCHIRI SAMIRA                 K0292764000210245000000200115000
49391272900AIT OULAHYANI MUSTAPHA        E0475688000210246000000200115000
49391272916EL ANSARI ZINEB               U0123492000210247000000200115000
49391272917KRIMAS ASMAE                  L0266951000210248000000200115000
49391272919EL HARRAK SOUMAYA             LA0037421000210249000000200115000
49391272927BENAISSA NADIA                W0170705000210250000000200115000
49391272929EL KOUCHI MALIKA              M0274319000210251000000200115000
49391272932EL KARKACHI AMAL              M0009522000210252000000200115000
49391272936BELAFKIH LAILA                MC0074542000210253000000200115000
49391272938BIFENZI YOUSSEF               N0114314000210254000000200115000
49391272939AFROUKH BRAHIM                BJ0195408000210255000000200115000
49391272942EL AIMOURI MOHAMMED           N0096970000210256000000200115000
49391272954ALZARI NAJOUA                 BK0131860000210257000000200115000
49391272957SABBOURI SAIDA                BJ0246987000210258000000200115000
49391272958BAYCHOU ALLAL                 JC0009467000210259000000200115000
49391272971ARCHOUNE YOUSSEF              CB0070329000210260000000200115000
49391272973MAAMOUR LAILA                 D0345466000210261000000200115000
49391272978HAZIM NAJIA                   D0654796000210262000000200115000
49391272986LOISKARI REDOUANE             I0462437000210263000000200115000
49391272987SAIDI FATIMA                  QA0099845000210264000000200115000
49391272995KARA ABDELLAH                 Q0165111000210265000000200115000
49391273003MOUMINE RAJA                  H0322995000210266000000200115000
49391273058LAHOUIYAT HANANE              Z0325192000210267000000200115000
49391273072OUAID SAID                    W0251627000210268000000200115000
49391273104BOUSSAG SAID                  D0079985000210269000000200115000
49391273110BOUFELJA RACHIDA              F0350349000210270000000200115000
49391273113IGHIRIGUEN SAID               F0377024000210271000000200115000
49391273114OUGUNIR RKIA                  UC0038325000210272000000200115000
49391273234MOUDNI AHMED                  I0411174000210274000000200115000
49391273239EL AJROUDI MOUNIR             GM0049217000210275000000200115000
49391273260OUHAMOU FATIMA                A0722686000210276000000200115000
49391273265AHAMAM MINA                   XA0025623000210277000000200115000
49391274546OUJAK YOUSSEF                 I0349365000210278000000200115000
49391318714BOURJA YOUSSEF                BH0265311000210279000000200115000
49391355483BENABBOU NABIL                A0788190000210280000000200115000
49391375382ZIYANI EL FATMI               D0551889000210281000000200115000
49391375385ASSOUANE KHADIJA              JC0205766000210282000000200115000
49391375387BOUCHALGA MANAFAL             SH0097535000210283000000200115000
49391375393SANOUAR NOURA                 E0786943000210284000000200115000
49391375400LAGNAOUI ABDERRAHIM           Y0191454000210285000000200115000
49391375405LAHFIDI YOUSSEF               N0024790000210286000000200115000
49391375429BOUIKOURDASSEN AHMED          P0143400000210287000000200115000
49391375432MOUMENE BRAHIM                P0160200000210288000000200115000
49391375436AIT SAID ADIL                 WA0075647000210289000000200115000
49391375438DAROUICH YOUNS                W0151858000210290000000200115000
49391375442IKHLEF SOAD                   Q0196767000210291000000200115000
49391375450KHALIL HASNA                  IA0048494000210292000000200115000
49391375453BORJA RACHID                  I0455833000210294000000200115000
49391375455OUIRRA FATIHA                 I0432141000210295000000200115000
49391375456SAAI EL HAQ HOURIA            I0392289000210296000000200115000
49391375457BAKHTAOUI FOUAD               F0044691000210297000000200115000
49391375463GHAZOUANI MOHAMMED AMINE      F0513159000210298000000200115000
49391375475ALLACH NOURA EHSAN            R0139006000210299000000200115000
49391375478NAJJAT SOUMIA                 BJ0190760000210300000000200115000
49391375480BOURQUIZ HICHAM               BJ0197567000210301000000200115000
49391375481BENKRIOU SAIDA                BE0568749000210302000000200115000
49391375484SALIM YOUNESS                 BH0224712000210303000000200115000
49391375485EL MOSTAKSI SANA              M0293386000210304000000200115000
49391375488HORR BOUTHEINA                M0098171000210305000000200115000
49391375491BAJOURI TAMOU                 M0035161000210306000000200115000
49391375495EL HOUARI SAID                DA0036122000210307000000200115000
49391375499ZAMAOUI MOHAMED               DA0018427000210308000000200115000
49391375500AIT HAMMOU KHADIJA            DA0044450000210309000000200115000
49391375508LAAFOUI BTISSAM               U0014293000210310000000200115000
49391375517MAIMOUNI MERIEM               K0335648000210311000000200115000
49391375520IMEZIREN RAMZI                L0319246000210312000000200115000
49391375539ROUDI SAMIRA                  A0794389000210313000000200115000
49391375571CHEIKH YOUSSEF                A0493613000210314000000200115000
49391375572MOUSTACHI SALMAA              G0236440000210315000000200115000
49391375578SEBBAR MARIAM                 SH0114079000210316000000200115000
49391375579BOU OUKHERS ASMA              E0470141000210317000000200115000
49391375580DAFANI YOUSSEF                E0553079000210318000000200115000
49391375581ELMADANI OUMNIA               H0417799000210319000000200115000
49391375583MOHAMED OMAR-OU-BRAHIM        A0752147000210320000000200115000
49391375593BENJELLOUL NAJOUA             F0725949000210321000000200115000
49391375595KADDAR RACHID                 F0717544000210322000000200115000
49391375605EL FETKHANI AMINA             BE0759535000210323000000200115000
49391375616SOUFIANE FARID                V0127289000210324000000200115000
49391375619ENNABOULSSI FOUZIA            I0467095000210325000000200115000
49391375623MACHROUHI MOHAMMED            QA0053289000210326000000200115000
49391375625BETIT EL MOKHTAR              AB0320434000210327000000200115000
49391375631NAJATI GHIZLANE               A0726134000210328000000200115000
49391375632EL MOUFLIH ASMAA              G0369560000210329000000200115000
49391375640BOUREZZA ELMOUSTAFA           M0283327000210330000000200115000
49391375755KHAYATI LAHCEN                JA0057122000210331000000200115000
49391375774ELAIDOUNI HICHAM              E0590996000210332000000200115000
49391375802TAKI NOURA                    Y0195560000210333000000200115000
49391375803ZAID MOHAMED                  WB0058761000210334000000200115000
49391375836FASKA ILHAM                   E0059925000210335000000200115000
49391375845EL KARYANI AZIZ               D0334340000210336000000200115000
49391375854SIFI HASSAN                   VA0038354000210337000000200115000
49391375878EL HARROUACH BRAHIM           JA0017310000210338000000200115000
49391375906LAMJADI BRAHIM                SJ0004824000210339000000200115000
49391375935BELMEKKI LAILA                SH0109650000210340000000200115000
49391375940EL YADDALI MAHICHAINA         SH0112333000210341000000200115000
49391376136MANSOURI FATIMA ZAHRA         X0256551000210342000000200115000
49391376142OUMEZZI HICHAM                C0510276000210343000000200115000
49391407684ABOUTAYEB MUSTAPHA            P0215442000210344000000200115000
49391462114OUAHID ISMAIL                 CB0210372000210345000000200115000
49391513507KHOUFALLAH HASNA              E0642007000210346000000200115000
49391513514BENMABROUK SABAH              EE0037039000210347000000200115000
49391513521ELFAIZ SAADIA                 QA0078336000210348000000200115000
49391513564BOUALLOUCHI MOHAMED           J0245534000210349000000200115000
49391513572AHOURRI LAILA                 P0221202000210350000000200115000
49391513574EL AADMI MOHAMED              JA0097837000210351000000200115000
49391513578CHAMIL EL MEHDI               I0357906000210352000000200115000
49391513581EL AKKARI HASNA               AD0125223000210353000000200115000
49391513583ABDELKHALAK YOUNES            U0142325000210354000000200115000
49391513590BOUMEDIANE HAMID              AD0123669000210355000000200115000
49391513597MAZZAL CHEAIB                 V0128460000210356000000200115000
49391513598RHABBARI NABIL                D0539354000210357000000200115000
49391513600FARAS MOHAMMED                CB0066869000210358000000200115000
49391513603DAAMACH YOUSSEF               W0295998000210359000000200115000
49391513613BAKAOUA KELTOUM               AB0606220000210360000000200115000
49391513638CHATOUANE AHMED               I0471241000210361000000200115000
49391513639LABBAR MOHAMMED               M0099475000210362000000200115000
49391513652LAMRAOUI BOUCHRA              UB0020025000210363000000200115000
49391513653SBAY NAIMA                    JC0399670000210364000000200115000
49391513670BANJAJ ABDENBI                U0121291000210365000000200115000
49391513693ACHNINE RACHID                JA0096307000210366000000200115000
49391513707SOUJAA AMAL                   AB0326847000210367000000200115000
49391513714ELKHAOUAJA RADOUANE           C0514877000210368000000200115000
49391513716MILOUDI YOUSSEF               U0137502000210369000000200115000
49391513733BADIL MOHAMMED                Q0190960000210370000000200115000
49391513738LAFKIR RACHIDA                JF0013872000210371000000200115000
49391513740ACHIK MY ISMAIL               JB312247000210372000000200115000
49391513741GHAOUAT MOHAMMED              P0025570000210373000000200115000
49391513743BLATSOU TASLEM                SH0089728000210374000000200115000
49391513751EL AILI MOHAMMED              H0451139000210375000000200115000
49391513755ABDELMOUTTALIB NAJIB          SL0000770000210376000000200115000
49391513759CHARAQA YOUNESS               G0414353000210377000000200115000
49391513764MAZZAR HAMZAE                 D0665580000210378000000200115000
49391513767NOUINI MOHAMMED               W0255640000210379000000200115000
49391513776EL JALILI ILIASS              GM0098368000210380000000200115000
49391513782BOUKRIM YASSINE               BH0270832000210381000000200115000
49391513783MAJBER MOUNIR                 A0696579000210382000000200115000
49391513787MIMOUNI YASSINE               F0554569000210383000000200115000
49391513796MOUSTAFI ADIL                 Q0238081000210384000000200115000
49391513799EL FOUHI MOHAMMED AMINE       AD0145420000210385000000200115000
49391513804AZIZI AHMED MOHAMMED          D0532804000210386000000200115000
49391513807NADDAM FATIMA EZZAHRA         Q0255260000210387000000200115000
49391513811EL HADOUCHI REDOUANE          C0927812000210388000000200115000
49391513816BAKHTAOUI AMINE               FH0037870000210389000000200115000
49391513818AKOUAM SAID                   TA0087089000210390000000200115000
49391513823YANNA HANANE                  H0466513000210392000000200115000
49391513991BERNAOUI ZINEB                A0467758000210393000000200115000
49391513993LAROUI ZEHOUA                 AB0192637000210394000000200115000
49391514011RICH RAHMA                    A0733790000210395000000200115000
49391514018BERNI WAFA                    A0717414000210396000000200115000
49391514027SOUHDI SAID                   A0064250000210397000000200115000
49391514043MOUFAKKIR ADIL                AB0240617000210398000000200115000
49391514044BAAJI SAID                    A0672817000210399000000200115000
49391514045EL AMRI MUSTAPHA              AD0090721000210400000000200115000
49391514047BENBELAID AICHA               X0227663000210401000000200115000
49391514050BOUAJAJ SABAH                 A0770417000210402000000200115000
49391514061HARATI NAIMA                  AB0321426000210403000000200115000
49391514065HAMMOUCH HASNAE               AB0250706000210404000000200115000
49391514068CHAIRI AMAL                   L0346352000210405000000200115000
49391514074BENBELAID NADIYA              X0243602000210406000000200115000
49391514083LAGNAOUI LOUBNA               AB0219727000210407000000200115000
49391514086BOULISSE LAILA                A0678664000210408000000200115000
49391514095OURDAL NADIA                  AD0117125000210409000000200115000
49391514096BOUGHDAD ADIL                 GM0088878000210410000000200115000
49391514106DIHAJI LAMYAE                 AB0618670000210411000000200115000
49391514109EL HAFDI ADIL                 AD0117484000210412000000200115000
49391514112MAHBOUB NAOUAL                BJ0148894000210413000000200115000
49391514114EZZRHARI NADIA                M0272042000210414000000200115000
49391514115BITCHOU SIHAM                 M0003816000210415000000200115000
49391514119EL HAMMOUDI ASSIYA            H0423715000210416000000200115000
49391514121EL ALAOUI HAJAR               T0190179000210417000000200115000
49391514123CHAHID HALIMA                 JC0410750000210418000000200115000
49391514129MOUJIB RACHID                 BH0240625000210419000000200115000
49391514130ISMAOUI RACHID                BH0169429000210420000000200115000
49391514131MOUHARRIR ASMAA               BJ0339882000210421000000200115000
49391514136CHTIOUI ADIL                  BJ0264922000210422000000200115000
49391514137LAFTIMI RACHID                BJ0269691000210423000000200115000
49391514138BENABBOU SAMYA                I0489013000210424000000200115000
49391514144NABBAR WAFAA                  W0175116000210425000000200115000
49391514147KAIDI YAMNA                   IA0029269000210426000000200115000
49391514151EL IDRYSY FATIMA              W0283193000210427000000200115000
49391514152AIT IDDER NOURA               W0032976000210428000000200115000
49391514156LASFAR DRISS                  W0249404000210429000000200115000
49391514165NEBDAOUI NORA                 Q0214438000210430000000200115000
49391514171MABSOR SAMIRA                 I0511827000210431000000200115000
49391514183KAHLAOUI KHADIJA              U0096404000210432000000200115000
49391514201AMAHOUL HASSAN                X0000262000210433000000200115000
49391514207LAMRANI LALLA HASNA           DA0035348000210434000000200115000
49391514208AZOUGUEGH EL MUSTAPHA         V0131650000210435000000200115000
49391514213EL BACHIRY SAIDA              CB0094140000210436000000200115000
49391514222BEKRY ADYL                    CB0088031000210437000000200115000
49391514225ADEL FATIMA ZAHRA             U0150159000210438000000200115000
49391514228BOUCHEDOR NAIMA               U0134486000210439000000200115000
49391514229MASSAOUDI SANA                S0386636000210440000000200115000
49391514234BAROUDA FARIDA                S0369786000210441000000200115000
49391514236EL MANSOURI FATIMA            S0377600000210442000000200115000
49391514240EL GHAZI SAIDA                F0450684000210443000000200115000
49391514246HADDAD LOUBNA                 FB0057531000210444000000200115000
49391514249MEZAREA MERYEM                F0366445000210445000000200115000
49391514250TAOUIL FATIMA                 F0460742000210446000000200115000
49391514261EL GHAZAL SIHAM               Z0345990000210447000000200115000
49391514271SOMATI HOURIA                 J0269300000210448000000200115000
49391514280SANDALI MOHAMED               N0212633000210449000000200115000
49391514281ACHCHAOUI FATIMA              N0275066000210450000000200115000
49391514282FELGHAT ABDELLAH              I0351231000210451000000200115000
49391514284ACHEHAL MOHAMED               J0378801000210452000000200115000
49391514285MOURHARH BOUCHRA              E0523381000210453000000200115000
49391514287EL BIDANI FOUZI               Y0193236000210454000000200115000
49391514294EL MANDILI LALLA HASNA        E0793406000210455000000200115000
49391514297BOUCETTA NEZHA                EA0114417000210456000000200115000
49391514298AQNOUCH MALIKA                JF0018880000210457000000200115000
49391514300HANDAJI AHLAM                 N0284876000210458000000200115000
49391514301EL IBRAHIMI LATIFA            EA0085973000210459000000200115000
49391514302ARRAHI AZIZA                  H0420790000210460000000200115000
49391514305LAAOUINA WAFA                 H0482823000210461000000200115000
49391514310OUMANSOUR REDOUANE            J0386660000210462000000200115000
49391514318EL BOUCHNANI RACHIDA          FH0019197000210463000000200115000
49391514320OUMLIL AICHA                  JA0111750000210464000000200115000
49391514339LACHGAR NAJAT                 SH0120233000210465000000200115000
49391514340LAMBARKI BATOUL               SH0113637000210466000000200115000
49391514341MAYARA AICHA                  SH0124488000210467000000200115000
49391514342EL KHOLTI KHADIJA             SH0114011000210468000000200115000
49391514344ADNAN MARIAM                  SH0121944000210469000000200115000
49391514350EDDAOUDI HASNA                SH0110947000210470000000200115000
49391514351ENNAFFAA LAMINA               SH0079825000210471000000200115000
49391514362HRIACH SOUMIA                 GK0041688000210472000000200115000
49391514390BOUKOUS RAJAA                 AC0000652000210473000000200115000
49391514397CHALLOUH HANANE               AB0402637000210474000000200115000
49391514399BENBACHIR SAMIRA              AB0516712000210475000000200115000
49391514403ZRIOUEL MERIEME               AD0098136000210476000000200115000
49391514409LAHNINE IMANE                 GA0106234000210477000000200115000
49391514411BOULAHKA HOUDA                AB0620923000210478000000200115000
49391514412LAMARTI KAOUTAR               K0354127000210479000000200115000
49391514415BAHDA MAJDA                   AB0272397000210480000000200115000
49391514419EL BAHJA NAWAL                AD0129485000210481000000200115000
49391514424ABOUHMAD MINA                 AB0241876000210482000000200115000
49391514429FOUKAL AMAL                   AB0272873000210483000000200115000
49391514431EL BAOUDI AMINA               A0369483000210484000000200115000
49391514440ASSAD BOUCHRA                 G0379266000210485000000200115000
49391514447NASEF BADIA                   AB0614245000210486000000200115000
49391514449AGNAOU AICHA                  A0436853000210487000000200115000
49391514464EL OUAHAB SAMIRA              AB0612973000210488000000200115000
49391514485KHEROUAA LOUBNA               A0069716000210489000000200115000
49391514488CHEKYO FATIMA ZAHRA           G0414023000210490000000200115000
49391553251TAMAOUI FARIDA                M0378051000210491000000200115000
49391553262HAMMAD LAILA                  I0543903000210492000000200115000
49391553266BAKKACHA LOUBNA               QA0133422000210493000000200115000
49391553267EL OUADI ZINEB                Q0233528000210494000000200115000
49391553273BELHADDAR KARIMA              AB0179493000210495000000200115000
49391553274AYCHATI MARIEM                Q0262937000210496000000200115000
49391553295ACHBOUQ NAIMA                 E0450442000210497000000200115000
49391553296OUSBAA LOUBNA                 EE0080807000210498000000200115000
49391553302ASSAFFAR KHADIJA              JB364315000210499000000200115000
49391553307AMZIL AZIZA                   J0419228000210500000000200115000
49391553308CHENGLI KAOUTAR               H0410475000210501000000200115000
49391553804NAJIA HADI                    U0132918000210502000000200115000
49391553815FOUAD MOHSINI                 AD0114063000210503000000200115000
49391553817OUADIAE BOUKRI                GM0079590000210504000000200115000
49391553857EL MEHDI AMLOUK               UA0031035000210505000000200115000
49391553860ABDERRAHIM KARUM              AB0154120000210506000000200115000
49391553904MOSTAPHA ABDERZAK             L0379724000210507000000200115000
49391553923FOUAD SAOUIR MANSORI          K0277194000210508000000200115000
49391553970KHALID OUAAZIZI               K0186562000210509000000200115000
49391553971ABDESSELAM EL WAHHABI         L0383426000210510000000200115000
49391554012ABDALLAH MAHFOUD              BE0614971000210511000000200115000
49391554043AHMED MOUSTINE                Q0184306000210512000000200115000
49391554093SALEM BOUKHAIR                JA0117113000210513000000200115000
49391554113SAID BOUKTIB                  H0273843000210514000000200115000
49391554126ABDESLAM ELKAMEL              JE0073765000210515000000200115000
49391554145ZAKARIA BATRAOUI              E0416735000210516000000200115000
49391554148MOHAMED RIDA TIMLILTE         I0527164000210517000000200115000
49391554183QADIR ABDELMAJID HICHAM       Q0189642000210518000000200115000
49391554192BELHARTI AMAL                 Q0255231000210519000000200115000
49391554194BEYAD AMINE                   F0558065000210520000000200115000
49391554195ZIOUAL BRAHIM                 JB338044000210521000000200115000
49391554197ELHARRAK MOHAMED              Z0334113000210522000000200115000
49391554200KACHROUD FADOUA               AD0114815000210523000000200115000
49391554203HADDIOUI ABDERRAZAK           QA0072913000210524000000200115000
49391554206BIRROU MOHAMMED               FA0100005000210525000000200115000
49391554210RGAIBI MOHAMMED SALEM         JA0080447000210526000000200115000
49391554215SAFSAFI FATIMA                CB0200580000210527000000200115000
49391554222BOUSSEKKINE ABDELLAH          JC0414991000210528000000200115000
49391554229EL-AZYZY MOULAYHFID           PB0102126000210529000000200115000
49391554230ELANSARI LOUBNA               CC0026449000210530000000200115000
49391554234ELHIMER SAIDA                 SH0089409000210531000000200115000
49391554237ABALIL ABDELAZIZ              AB0707590000210532000000200115000
49391554239KARIM MAHJOUBA                SH0098564000210533000000200115000
49391554248NAJAT JAMIL                   AD0129263000210534000000200115000
49391554251ASMA ADRAOUI                  Q0257462000210535000000200115000
49391554252AIDA JABRI                    V0124916000210536000000200115000
49391554259FATIMA THAMMOU                IA0072968000210537000000200115000
49391554261MOHAMED ABLOUZE               JE0211924000210538000000200115000
49391554266SANAE KHALLOUQI               AB0522024000210539000000200115000
49391554268HANAN BOUTGARA                JB359085000210540000000200115000
49391554274NORA TIZGUI                   AB0527557000210541000000200115000
49391554276ELMAHJOUB RAOUJ               A0773678000210542000000200115000
49391554278ILHAM CHOUAOUTA               A0679397000210543000000200115000
49391554291MARIEME HEDRANE               P0243964000210544000000200115000
49391554300KHADIJA SAMAA                 Q0239212000210545000000200115000
49391554303NORA AKHMIM                   AB0624052000210546000000200115000
49391554304BOUCHRA HAFIDI                QA0106285000210547000000200115000
49391554321NAIMA ELAZZOUZI               X0003963000210548000000200115000
49391554334MARIEM HAMMI                  SH0087330000210549000000200115000
49391554344MOHAMMED ELMEZIATI            A0661074000210550000000200115000
49391554345BRAHIM MENAYCIR               SJ0010464000210551000000200115000
49391554346ELMUSTAPHA SOUGRATI           JC0316834000210552000000200115000
49391554354AMINE ABID                    V0195145000210553000000200115000
49391554359LAMIAE ELHASSNOUNI-EL-ALAOUI  DA0046767000210554000000200115000
49391554360JAMAL LOUTFI                  JB295006000210555000000200115000
49391554362REDOUAN ALMANSUR              L0346707000210556000000200115000
49391554376AHMED AIT TAAMART             CB0086210000210557000000200115000
49391554384MOULAY HICHAM SALFI           PB0082753000210558000000200115000
49391554387ABDELJALIL SKAITI             AB0215415000210560000000200115000
49391554391HIND FAYEK                    M0416752000210561000000200115000
49391554393FATTOUMA ELMESBAHI            E0530227000210562000000200115000
49391554403YOUSSEF BENIZZA               V0183642000210563000000200115000
49391554405TAYB CHOUKRI                  P0150353000210564000000200115000
49391554416LALLA-RAHMA EL AAKIF          JC0325735000210565000000200115000
49391554420ELMOSTAFA HIDARA              Q0194892000210566000000200115000
49391554422ILHAM ALLACH                  N0194166000210567000000200115000
49391554427TARIK CHAHBANE                WA0098706000210568000000200115000
49391554432MOHAMMED STITOU               D0639203000210569000000200115000
49391554433HAFID TOUGHZAOUI              DA0026253000210570000000200115000
49391554446FATIMA-ZAHRA BOUDLAL          F0460990000210571000000200115000
49391554450HALIMA RADOUANE               BB0006581000210572000000200115000
49391554452YOUSSEF AIT DAOUA             A0788750000210573000000200115000
49391554457ABDESSAMAD RAFI               CB0185218000210574000000200115000
49391554458BRAHIM HABLILI                VA0049161000210575000000200115000
49391554464ABDELAZIZ MOULOUADI           BJ0321575000210576000000200115000
49391554467NABIL MOUJAHID                D0643139000210577000000200115000
49391554468JAMAL EDIANI                  DA0050163000210578000000200115000
49391554474HICHAM ES-SALHI               QA0099294000210579000000200115000
49391554481AHMED BOURIAD                 CB0174469000210580000000200115000
49391554496SOUAD LAFKIR                  SH0086115000210581000000200115000
49391554497MUSTAPHA SALHI                J0388490000210582000000200115000
49391554503HANANE JELLOULI               IB0122684000210583000000200115000
49391554506TOURIA ELFEKROUN              AD0035433000210584000000200115000
49391554514HANANE AZDAD                  Q0227864000210585000000200115000
49391554519TARIQ ELMOUSSAOUI             CB0184429000210586000000200115000
