49391143079EL ASRI LATIFA                C 576290 0 0314100000020010030000
49391806821EL HASSANI ABDELLAH           C 236957 0 0314101000020010021451
49390760479EL ABBADI DRISS               C 501128 0 0314102000020010030000
49390744965ARHZROUQ SAID                 Z 94164  0 0314103000020010030000
49391143078EL AMARTY AMINA               C 652760 0 0314104000020010030000
49390777998JAI SOUAD                     C 461524 0 0314105000020010030000
49390189329KARROUM MOHAMMED              A 585834 0 0314106000020010030000
49390076177BELFQIH HALIMA                A 278524 0 0314107000020020030000
49390786338ZEHRAOUI MUSTAPHA             A 539072 0 0314108000020010030000
49390760480EL ATTAR FATIMA               C 239030 0 0314109000020010030000
49391513767NOUINI MOHAMMED               W 255640 0 0314110000020010030000
49391513564BOUALLOUCHI MOHAMED           J 245534 0 0314111000020010030000
49391554751KTITAB ABDELHAKIM             C 757382 0 0314112000020010030000
49390726803ENNAJI SAID                   PB23370  0 0314113000020010030000
49391001293BELGHITI ALAOUI MY MUSTAPHA   DA4691   0 0314114000020010030000
49391000813EL ARQEM FATIHA               A 312033 0 0314115000020010030000
49391230050LALLOUCHT LAHCEN              S 384472 0 0314116000020010030000
49391055223HANNOUN MUSTAPHA              A 596150 0 0314117000020010030000
49391611077ABAR MOUHSIN                  JC414003 0 0314118000020010030000
49391555112AFKIR SOUAD                   A 473743 0 0314119000020010030000
49391806697DRISSI EL BOUZAIDI            C 146331 0 0314120000020010030000
49391815373CHAAIBI MOHAMED               EE466176 0 0314121000020020030000
49390372181IOUI M HAMED                  E 259522 0 0314122000074010030000
49391573564BOUNRHAIZA NORDINE            GK65743  0 0314123000074010030000
49390279018CHAKIR MOHAMMED               A 271738 0 0314124000074010030000
49391571216MOUHTAMMI AYOUB               BH446068 0 0314125000074010030000
49391697880HEMMA SOUAD                   AB371565 0 0314126000074010030000
49391517451ABI ABDELAAZIZ                P 213085 0 0314127000074010030000
49391185394LHAOUATI ABDERRAHIM           GM20125  0 0314128000074010030000
49391143601YAMANI FATHALLAH              A 655119 0 0314129000074010030000
49391571116EL-HROUD SOUFIANE             AD133343 0 0314130000074010030000
49391610985KHOUMRI ASMAE                 Q 260981 0 0314131000020010030000
49391814768FAHIR JIHANE                  QB23230  0 0314132000020010030000
49391142926FADIL SAID                    A 474247 A 0314133000020010000000
49390071000ZORKANI HAFID                 VA25992  0 0314134000074010030000
49391698413OUAHMANE YASSINE              FH48753  0 0314135000074010030000
