49390065495ARIF KHADIJA                  XX0000000000209200000020010015000
49390065497QASSAQ BOUCHRA                XX0000000000209201000020010015000
49390065714BAHTAT HASSANE                XX0000000000209202000020010015000
49390065719EZZAMRANI RACHIDA             XX0000000000209203000020010015000
49390065722OUHADI MBARK                  XX0000000000209204000020010015000
49390065734SIMOU MOHAMMED                XX0000000000209205000020010015000
49390065741MAGHRI ABDELAZIZ              XX0000000000209206000020010015000
49390065829EL YOUSFI SAMIRA              XX0000000000209207000020010015000
49390065845ADDAR ALI                     XX0000000000209208000020010015000
49390065895IKNIOUAN AMINA                XX0000000000209209000020010015000
49390065900EL MESNAOUI NOUZHA            XX0000000000209210000020010015000
49390065906YOUSSEFI LALLA MINA           XX0000000000209211000020010015000
49390065917EL ALAMI MALIKA               XX0000000000209212000020010015000
49390065944EL HADRY ABDELOUAHED          XX0000000000209213000020010015000
49390065959SALAMI LARBI                  XX0000000000209214000020010015000
49390065996GHALIBI MBARK                 XX0000000000209215000020010015000
49390066045ALAOUI LALLA KHADIJA          XX0000000000209216000020010015000
49390066188KESTRAOUI MARIA               XX0000000000209217000020010015000
49390066191EL HANOUICHI HAFIDA           XX0000000000209218000020010015000
49390066196ERRAHIOUI KHADIJA             XX0000000000209219000020010015000
49390066197BEN ALLA KARIMA               XX0000000000209220000020010015000
49390066200EL KHAFIF SOUAD               XX0000000000209221000020010015000
49390066485EL WARRASS ABDELKRIM          XX0000000000209222000020010015000
49390066561EL MAMOUN ZAHRA               XX0000000000209223000020010015000
49390066563RAKIE SAID                    XX0000000000209224000020010015000
49390068814EL BOURKHISSI FATIMA          XX0000000000209225000020010015000
49390070936ABOUKAL AICHA                 XX0000000000209226000020010015000
49390070948EL MAGOURI SAIDA              XX0000000000209227000020010015000
49390070952AMDHOUSSI ZAHRA               XX0000000000209228000020010015000
49390070954OUCHHI DRISS                  XX0000000000209229000020010015000
49390070968MESSAOUDI FATIMA ZAHRA        XX0000000000209230000020010015000
49390070981DAOUI REDOUAN                 XX0000000000209231000020010015000
49390070982BOUANGA ISMAIL                XX0000000000209232000020010015000
49390071224QAOUJI SAMIRA                 XX0000000000209233000020010015000
49390071226MOUYANE LATIFA                XX0000000000209234000020010015000
49390071235OUAZIZ DRISS                  XX0000000000209235000020010015000
49390071236SKIOUS ABDERRAHMANE           XX0000000000209236000020010015000
49390071247ZERFAOUI MERIEM               XX0000000000209238000020010015000
49390071249ABDELMALEK ABDESLAM           XX0000000000209239000020010015000
49390071252ALLAOUI MOHAMED               XX0000000000209240000020010015000
49390071259SABIR SALOUA                  XX0000000000209241000020010015000
49390071279OULAD SIDI AISSA EL IDRISSI ZAXX0000000000209242000020010015000
49390071285BEDDOUCH FATIMA               XX0000000000209243000020010015000
49390071290EL AIDOUNI SALOUA             XX0000000000209244000020010015000
49390071291ALOUANE LATIFA                XX0000000000209245000020010015000
49390071335EL EDRISSI EL HASSAN          XX0000000000209247000020010015000
49390071351CHOUIEKH ABDELAZIZ            XX0000000000209248000020010015000
49390071352AMECHIR AMINA                 XX0000000000209249000020010015000
49390071357SADEQ ABDELMAJID              XX0000000000209250000020010015000
49390071358BOUKAABA FOUAD                XX0000000000209251000020010015000
49390071360BOUGASSA ABDELAAZIZ           XX0000000000209252000020010015000
49390071361CHEBBAR ABDELHAQ              XX0000000000209253000020010015000
49390071367AOURAGH ABDESSAMAD            XX0000000000209254000020010015000
49390071500BEN HADDOU ALLAL              XX0000000000209255000020010015000
49390071508LEBBACHE FATIHA               XX0000000000209256000020010015000
49390071517EL MOUTANABBIH TOURIA         XX0000000000209257000020010015000
49390071518GHANI M HAMED                 XX0000000000209258000020010015000
49390071529AKRAB ZAID                    XX0000000000209259000020010015000
49390071591BOUAZZAOUI ABDELFATAH         XX0000000000209261000020010015000
49390071601SAIYED KHALID                 XX0000000000209262000020010015000
49390071631AYOUBI MUSTAPHA               XX0000000000209263000020010015000
49390071633OUARGAGA IDDIR                XX0000000000209264000020010015000
49390071644NACIRI HAMID                  XX0000000000209265000020010015000
49390071649EL HAMIDI MOULAY EL MAHDI     XX0000000000209266000020010015000
49390071684MEQBOUL YAHYA                 XX0000000000209267000020010015000
49390075518ABDELLAOUI SAIDA              XX0000000000209268000020010015000
49390075519JORIO CHARAF                  XX0000000000209269000020010015000
49390075816BOUALLOU MOHAMMED             XX0000000000209270000020010015000
49390075864EL MOUTAKI MOHAMED            XX0000000000209271000020010015000
49390075897OUHAMOU GHIZLANE              XX0000000000209272000020010015000
49390075938KHERAZI MOLOUD                XX0000000000209273000020010015000
49390075939KOULAN FADILA                 XX0000000000209274000020010015000
49390075998MAADANI HAFIDA                XX0000000000209275000020010015000
49390077210AIT ALI OUHMED ABDERRAHIM     XX0000000000209276000020010015000
49390078726BAKALI EL HOUSSNI             XX0000000000209279000020010015000
49390078748EL ADILA AICHA                XX0000000000209281000020010015000
49390080233LAHYANI BOUZIAN               XX0000000000209282000020010015000
49390080262JAOUATE HICHAM                XX0000000000209283000020010015000
49390080648KANDIL MOHAMMED               XX0000000000209284000020010015000
49390080666BOUHLAL KAOUTAR               XX0000000000209285000020010015000
49390081371SITLI FATIHA                  XX0000000000209286000020010015000
49390081388SAKIT RABIA                   XX0000000000209287000020010015000
49390081394LAMINE MALIKA                 XX0000000000209288000020010015000
49390081395ESSATTE BOUCHRA               XX0000000000209289000020010015000
49390082121ATIK LATIFA                   XX0000000000209290000020010015000
49390082136NAKACH NAIMA                  XX0000000000209291000020010015000
49390082138HATTAB ZAHIRA                 XX0000000000209292000020010015000
49390082150BELFATHA KARIMA               XX0000000000209293000020010015000
49390082153EL OUAHBI NAJOUA              XX0000000000209294000020010015000
49390082157JABBOUJ HALIMA                XX0000000000209296000020010015000
49390082158FATIH SAADIA                  XX0000000000209297000020010015000
49390082162RACHID ABDELOIHID             XX0000000000209298000020010015000
49390082164DEMNANE SAADIA                XX0000000000209299000020010015000
49390082168RIAJI MAJDA                   XX0000000000209300000020010015000
49390082172KHAIDARI ASMA                 XX0000000000209301000020010015000
49390082176EL HAMSS RACHIDA              XX0000000000209302000020010015000
49390082178EL BAHLOULI KHADIJA           XX0000000000209303000020010015000
49390082676EL AMRAOUI KARIMA             XX0000000000209304000020010015000
49390082686BCHIRI NADIA                  XX0000000000209305000020010015000
49390083877ZERRAB AICHA                  XX0000000000209306000020010015000
49390083946WAJFI REDOUANE                XX0000000000209307000020010015000
49390083948BOUCHRA BELMAJDOUB            XX0000000000209308000020010015000
49390083984HABLI SMAIL                   XX0000000000209309000020010015000
49390086701BEKRI AICHA                   XX0000000000209310000020010015000
49390086855LAKHDAR LAHCEN                XX0000000000209311000020010015000
49390096606EL GOUMI EL AYECH             XX0000000000209312000020010015000
49390096698SALLAY MOHAMED                XX0000000000209313000020010015000
49390096792OUMAIR YOUSSEF                XX0000000000209314000020010015000
49390098740OUIRDANI HABIB                XX0000000000209315000020010015000
49390098759BADRAOUI OMAR                 XX0000000000209316000020010015000
49390112172AISSAOUI AMAR                 XX0000000000209317000020010015000
49390124366M TALSSI HOUARI               XX0000000000209318000020010015000
49390126005LAFROUHI ABDELKADER           XX0000000000209319000020010015000
49390133958MEZIANE NOUR EDDINE           XX0000000000209320000020010015000
49390136267EL ALLAOUI JAMAL              XX0000000000209321000020010015000
49390136305EL MOUFTAHI MUSTAPHA          XX0000000000209322000020010015000
49390136318BAAMAR MOHAMED SALEM          XX0000000000209323000020010015000
49390136357HAJJI DRISS                   XX0000000000209324000020010015000
49390136360TAMIRO LHOUARI                XX0000000000209325000020010015000
49390142532KHALDI RACHID                 XX0000000000209326000020010015000
49390142803TAHAR MOHAMED                 XX0000000000209327000020010015000
49390159201FANNICH HAFID                 XX0000000000209328000020010015000
49390162316EL MAHI BOUMEDIENE            XX0000000000209329000020010015000
49390165856HENNOU ALI                    XX0000000000209330000020010015000
49390183506SRIARI CHARKI                 XX0000000000209331000020010015000
49390183511OUAGAGUE TAIEB                XX0000000000209332000020010015000
49390183515JAMALI RACHID                 XX0000000000209333000020010015000
49390183540BENHADDI ABDELALI             XX0000000000209334000020010015000
49390183574YAFOU ALLAH YASSINE           XX0000000000209335000020010015000
49390183604OULD OUADDA HASSANE           XX0000000000209336000020010015000
49390183612ELHAYA ABDELOUAHAD            XX0000000000209337000020010015000
49390183654EL MANSOURY ALI               XX0000000000209338000020010015000
49390183683ACHCHAK MOHAMED REDA          XX0000000000209339000020010015000
49390189256KHARRAZ KASSEM                XX0000000000209340000020010015000
49390189296MANSOURI MOHAMED              XX0000000000209341000020010015000
49390189586ZERYOUH MOHAMMED              XX0000000000209342000020010015000
49390219627ALIOUI REDOUANE               XX0000000000209343000020010015000
49390219635FAL COU OMAR                  XX0000000000209344000020010015000
49390219644ARAB ABDELKADER               XX0000000000209345000020010015000
49390219689DAOUDI MOHAMED                XX0000000000209346000020010015000
49390219753EL BOUKHARI HADJ BEN SELLAM   XX0000000000209347000020010015000
49390225107HAY ALLAHI MOHAMMED EL AMINE  XX0000000000209348000020010015000
49390225248BOUAZIZI MOHAMED              XX0000000000209349000020010015000
49390225271CHOUKRI JALAL                 XX0000000000209350000020010015000
49390225343EL MAYMOUNI AHMED             XX0000000000209351000020010015000
49390225396ZAHRI ABDERRAHIM              XX0000000000209352000020010015000
49390228654EL JANATI EL IDRISSI HAMID    XX0000000000209353000020010015000
49390235440ERRAMI MOHAMED                XX0000000000209354000020010015000
49390235492ID HAMOU JAMAA MOHAMED        XX0000000000209355000020010015000
49390246917SAIDI ABDELAZIZ               XX0000000000209356000020010015000
49390246923OUIDIR LAHOUCINE              XX0000000000209357000020010015000
49390246928BOULAHSEN M HAMED             XX0000000000209358000020010015000
49390255083JABBOUR RACHID                XX0000000000209359000020010015000
49390255177EL YOUSSOUFI CHERIF           XX0000000000209360000020010015000
49390265474ZIDOUNI EL MOSTAFA            XX0000000000209361000020010015000
49390265483CHEMSY ABDELALEM              XX0000000000209362000020010015000
49390269199EL AMINE ABDALLAH             XX0000000000209363000020010015000
49390269556EL BOUZIDI MOHAMED            XX0000000000209364000020010015000
49390269796RAJI ABDEL ILAH               XX0000000000209365000020010015000
49390279066MADANI ALAOUI LALLA AICHA     XX0000000000209366000020010015000
49390279067NINEFLAS RACHIDA              XX0000000000209367000020010015000
49390279171ELZZAYIA MAYMOUNA             XX0000000000209368000020010015000
49390279194OUAZZANI CHAHDI MALIKA        XX0000000000209369000020010015000
49390282006SEBBATA HASSAN                XX0000000000209370000020010015000
49390282009RHIZLANE ABOUBKER             XX0000000000209371000020010015000
49390286022OUADIFI MOHAMMED              XX0000000000209372000020010015000
49390295704ADAOUI FATIMA                 XX0000000000209373000020010015000
49390295724RAI MOUKHTAR                  XX0000000000209374000020010015000
49390298861HAJJAMI LAILA                 XX0000000000209375000020010015000
49390298994LISSAN EL HAK BOUCHRA         XX0000000000209376000020010015000
49390300543JOHRI MOHAMMED                XX0000000000209377000020010015000
49390301235IREKMANE LHOUCINE             XX0000000000209378000020010015000
49390312048ZIANI FAKHAR CHAKIB           XX0000000000209379000020010015000
49390312051MERIMI MIMOUN                 XX0000000000209380000020010015000
49390315428TAIBI CHOUAIB                 XX0000000000209381000020010015000
49390316780HADDI LALLA TFARAH            XX0000000000209382000020010015000
49390318287BERRI FATIMA                  XX0000000000209384000020010015000
49390318536ADOU RACHID                   XX0000000000209385000020010015000
49390318613MEKENCY FATIMA ZAHRA          XX0000000000209386000020010015000
49390318629MOUJERIFE ZINEB               XX0000000000209387000020010015000
49390318631AGRAT KHADIJA                 XX0000000000209388000020010015000
49390318684EL JAI MERIEM                 XX0000000000209389000020010015000
49390318692HDA NADIA                     XX0000000000209390000020010015000
49390323903HASNAOUI KHADIJA              XX0000000000209391000020010015000
49390323907SADNI HAFIDA                  XX0000000000209392000020010015000
49390323920SLIMANI LATIFA                XX0000000000209393000020010015000
49390323930OUDAHA RACHIDA                XX0000000000209394000020010015000
49390323935AZEROUAL FATIMA               XX0000000000209395000020010015000
49390323955FORCA EL KBIRA                XX0000000000209396000020010015000
49390323975EN NHIRI RACHIDA              XX0000000000209397000020010015000
49390323977ZIHA DRISS                    XX0000000000209398000020010015000
49390323978MOUTTOU OMAR                  XX0000000000209399000020010015000
49390324085TAYEB MINA                    XX0000000000209400000020010015000
49390326311MOKHTARI AICHA                XX0000000000209401000020010015000
49390327526BOUAB SALWA                   XX0000000000209402000020010015000
49390327572BRITEL NAJIB                  XX0000000000209403000020010015000
49390327614JAMAL HAFIDA                  XX0000000000209404000020010015000
49390327643LAMSIKINE HAFIDA              XX0000000000209405000020010015000
49390327659SAOUDI FATIHA                 XX0000000000209406000020010015000
49390327686GUANNI RACHID                 XX0000000000209407000020010015000
49390331803ZENFOUD MOSTAFA               XX0000000000209408000020010015000
49390331807RAQI ABDERRAZZAK              XX0000000000209409000020010015000
49390331845TAHDI HASSAN                  XX0000000000209410000020010015000
49390331918CHEIKHE MAOULAININE MIMOUNA   XX0000000000209411000020010015000
49390336685SBAI ABDELMOURHIT             XX0000000000209412000020010015000
49390346013ADOU JAMAL                    XX0000000000209413000020010015000
49390346102AOUNE HOURIA                  XX0000000000209414000020010015000
49390346116EL BAYENA EL BATOUL           XX0000000000209415000020010015000
49390346126LAMGHARI MOHAMMED             XX0000000000209416000020010015000
49390346149ZOUHAILI SAADIA               XX0000000000209417000020010015000
49390346216OUANZIL MAJDA                 XX0000000000209418000020010015000
49390346222EL KOUACH EL HASSANIA         XX0000000000209419000020010015000
49390346224EL HAMZAOUI TOURIA            XX0000000000209420000020010015000
49390346262SAHMAOUI MALIKA               XX0000000000209421000020010015000
49390346297BELLORHZAL HOURIA             XX0000000000209422000020010015000
49390350539IBRAHIMI ABDELGHANI           XX0000000000209423000020010015000
49390350547BENJILALI SABAH               XX0000000000209424000020010015000
49390353806MOUTAI ABDELHAQ               XX0000000000209425000020010015000
49390370301HACHABI ABDELKRIM             XX0000000000209426000020010015000
49390370375NOUSSAIR ALI                  XX0000000000209427000020010015000
49390370402MAMMAD AHMED                  XX0000000000209428000020010015000
49390370403EL ALAOUI LALLA SAADIA        XX0000000000209429000020010015000
49390370404BOUSSELHAM LATIFA             XX0000000000209430000020010015000
49390370406TAHIR ABDESSAMAD              XX0000000000209431000020010015000
49390370409MALIKI LALLA AMINA            XX0000000000209432000020010015000
49390370418AGOURAM KENZA                 XX0000000000209433000020010015000
49390370510BOUKAL MOHAMED                XX0000000000209434000020010015000
49390370535BENSALEM ABDELILAH            XX0000000000209435000020010015000
49390370646EL OUADI OUAFAA               XX0000000000209436000020010015000
49390370648BAMENSOUR JEMAA               XX0000000000209437000020010015000
49390371004BOULAOUI ABDELKRIM            XX0000000000209438000020010015000
49390371019RAHALI IDRISSI NADIA          XX0000000000209439000020010015000
49390371033TASSETTATE BRAHIM             XX0000000000209440000020010015000
49390371102ANIBA ABDELILAH               XX0000000000209441000020010015000
49390371104BOUNANI MAIMOUNA              XX0000000000209442000020010015000
49390371173GOURJEM ZINEB                 XX0000000000209443000020010015000
49390371211MYATT SAID                    XX0000000000209444000020010015000
49390371241EL MANSOUR ABDERRAHIM         XX0000000000209445000020010015000
49390372237DAR EL AIN MOHAMED            XX0000000000209446000020010015000
49390372241CHAKI ABDENNAIM               XX0000000000209447000020010015000
49390372242SOLO AZZOUZ                   XX0000000000209448000020010015000
49390372245NADER MOKHTAR                 XX0000000000209449000020010015000
49390372250IMEZAR ZINEB                  XX0000000000209450000020010015000
49390372254BENQASSMI SAAIDA              XX0000000000209451000020010015000
49390372255ABDELKHALEK EL MAHJOUB        XX0000000000209452000020010015000
49390372260SABER MUSTAPHA                XX0000000000209453000020010015000
49390372275EZZEBBOURI RACHID             XX0000000000209454000020010015000
49390372276EL FAROUKI ABID               XX0000000000209455000020010015000
49390376330BOULAID KHALIDA               XX0000000000209456000020010015000
49390380911JILBAB FATIMA                 XX0000000000209457000020010015000
49390381119ELOUARRADI FATIMA             XX0000000000209458000020010015000
49390381176LAHDA KHADIJA                 XX0000000000209459000020010015000
49390381177RAZZOUKI FATIMA               XX0000000000209460000020010015000
49390388566BENCHERQUI MOHAMMED           XX0000000000209461000020010015000
49390388568AIT EL MOUDEN MOHAMMED        XX0000000000209462000020010015000
49390390429JANDALI ABDERRAHIM            XX0000000000209463000020010015000
49390390444MOUHSINE AHMED                XX0000000000209464000020010015000
49390390525BOUNADEM FATIMA               XX0000000000209465000020010015000
49390390545MENSKI AZIZ                   XX0000000000209466000020010015000
49390394197CHOUAA ABDELOUAHED            XX0000000000209467000020010015000
49390394272EL BELGHITI MOHAMED           XX0000000000209468000020010015000
49390394369MENGOUCHI KHADIJA             XX0000000000209469000020010015000
49390394376ECHCHAHDI NEZHA               XX0000000000209470000020010015000
49390394702JAKANI JAMAA                  XX0000000000209471000020010015000
49390394890EL KHAIR YATTOU               XX0000000000209472000020010015000
49390396239BENHAMAD ZAHRA                XX0000000000209473000020010015000
49390396245BOUHAMIDI LALLA MERIEM        XX0000000000209474000020010015000
49390396375BAHAJJI NADIA                 XX0000000000209475000020010015000
49390396487HIDARE KHALID                 XX0000000000209476000020010015000
49390396802ARJAOUI FATIMA                XX0000000000209477000020010015000
49390396817BOUNADAH MOHAMED              XX0000000000209478000020010015000
49390396822ABDEDAIM NAIMA                XX0000000000209479000020010015000
49390396856ZIANI MOHAMMED                XX0000000000209480000020010015000
49390397019ELATI SAKINA                  XX0000000000209481000020010015000
49390397022MRANI RACHIDA                 XX0000000000209482000020010015000
49390397049AMHOUD MINA                   XX0000000000209483000020010015000
49390397059BOUSSAQSOU ABDELLAH           XX0000000000209484000020010015000
49390397068JANNAD ABDERRAHIM             XX0000000000209485000020010015000
49390397077LEMSELLAK EL MAHDI            XX0000000000209486000020010015000
49390397146BOUQARTACHA CHAFIQ            XX0000000000209487000020010015000
49390397153CHERKAOUI LALLA NEZHA         XX0000000000209488000020010015000
49390397155KOUZA FOUZIA                  XX0000000000209489000020010015000
49390397184ABBADI MUSTAPHA               XX0000000000209490000020010015000
49390397186MOUSSAOUI HASSAN              XX0000000000209491000020010015000
49390397893ALLAOUI ADDI                  XX0000000000209492000020010015000
49390399313LACHHEB ABDELAZIZ             XX0000000000209493000020010015000
49390399339HAMRI MOHAMED                 XX0000000000209494000020010015000
49390399771CHEMLAL AICHA                 XX0000000000209495000020010015000
49390399772CHARKANI ZHOR                 XX0000000000209496000020010015000
49390399775HABBAS YAMNA                  XX0000000000209497000020010015000
49390399822BENASSOU ADDI                 XX0000000000209498000020010015000
49390399842AIT HASSOU YOUSSEF            XX0000000000209499000020010015000
49390399892SAFDI JAMILA                  XX0000000000209500000020010015000
49390656816EL YAHYAOUI MOHAMED           XX0000000000209501000020010015000
49390183613DOUIRAT HAMID                 XX0000000000209502000020010015000
49390708169ESSADIK KHADIJA               XX0000000000209503000020010015000
49390708184BENRADI SAIDA                 XX0000000000209504000020010015000
49390708188BOURRAGAT JAMILA              XX0000000000209505000020010015000
49390708327DRISSI MY OMAR                XX0000000000209506000020010015000
49390708370DAFALI MY ABDERRAHMAN         XX0000000000209507000020010015000
49390711539DBIYEB SOUAD                  XX0000000000209508000020010015000
49390711592IBRAHIMI SAID                 XX0000000000209509000020010015000
49390713576BICHOU SEKKOU                 XX0000000000209510000020010015000
49390713738LAKHRISSI FARAJY              XX0000000000209511000020010015000
49390713790OUZZIR SIHAM                  XX0000000000209513000020010015000
49390713842ZEBBADI TAMOU                 XX0000000000209514000020010015000
49390713967ABRADA MOHAMED                XX0000000000209515000020010015000
49390714549MENTAGUI YOUNES               XX0000000000209516000020010015000
49390714565BOUHRIGA ABDELLAHI            XX0000000000209517000020010015000
49390714580AFARIAD EL MOSTAFA            XX0000000000209518000020010015000
49390715091EL MAKAOUI OMAR               XX0000000000209519000020010015000
49390715093EL WADNAKSSI NAJIA            XX0000000000209520000020010015000
49390716988BOUMEDIENE RACHID             XX0000000000209521000020010015000
49390716991EL HARRARI RKIA               XX0000000000209522000020010015000
49390718407OUABID NAJAT                  XX0000000000209523000020010015000
49390718411NAYMI MUSTAPHA                XX0000000000209524000020010015000
49390718412FARIDI ABDELOUAHID            XX0000000000209525000020010015000
49390718413SAHRAOUI HADDOU               XX0000000000209526000020010015000
49390720648SAMOUT TAHAR                  XX0000000000209527000020010015000
49390720653HSAINE LATIFA                 XX0000000000209528000020010015000
49390720750ENNAFFATI KHADIJA             XX0000000000209529000020010015000
49390724311MAMOUNI ALAOUI IDRISS         XX0000000000209530000020010015000
49390724364AYYAD YAMINA                  XX0000000000209531000020010015000
49390724568REGHAI ABDELILAH              XX0000000000209532000020010015000
49390724580M HAIDRA SAADIA               XX0000000000209533000020010015000
49390724648EL GARRAB FATIMA              XX0000000000209534000020010015000
49390724649QACI MOHAMMED                 XX0000000000209535000020010015000
49390724661RAOUNI ABDELHAKIM             XX0000000000209536000020010015000
49390724662CHOUAIBI EL MAHJOUB           XX0000000000209537000020010015000
49390724680MAROUAN MOHAMMED              XX0000000000209538000020010015000
49390724690MAKHLOUFI ABDELGHANI          XX0000000000209539000020010015000
49390724765LAAROUSSI LARBI               XX0000000000209541000020010015000
49390724771TAKI ABDELKRIM                XX0000000000209542000020010015000
49390724889SABRI MUSTAPHA                XX0000000000209543000020010015000
49390724891ADERMANE AOMAR                XX0000000000209544000020010015000
49390726447AMEURAOUI ZEHRA               XX0000000000209545000020010015000
49390726452LAMINI LALLA ZINEB            XX0000000000209546000020010015000
49390726514ABDOU MUSTAPHA                XX0000000000209547000020010015000
49390726565LYAMANI HALIMA                XX0000000000209548000020010015000
49390726705LAGHRIRI LHASSANE             XX0000000000209549000020010015000
49390726718BOUHADDOUCH EL HADI           XX0000000000209550000020010015000
49390726725OUADDA MIMOUN                 XX0000000000209551000020010015000
49390726770EL GHACHOUI FATIHA            XX0000000000209552000020010015000
49390731640REKAB MOHAMED                 XX0000000000209553000020010015000
49390731671BOURHIM MBAREK                XX0000000000209554000020010015000
49390731757ADDAHBI EL KOURI              XX0000000000209555000020010015000
49390731874JAMALI SAADIA                 XX0000000000209556000020010015000
49390732214SADEK HALIMA                  XX0000000000209557000020010015000
49390732656EL GHARRAS HAFIDA             XX0000000000209558000020010015000
49390732756MISKIN TOURIA                 XX0000000000209559000020010015000
49390732759ISAFIANI MALIKA               XX0000000000209560000020010015000
49390732876AZIZI JAMILA                  XX0000000000209561000020010015000
49390744666AIT ALLA MOHAMED              XX0000000000209563000020010015000
49390744743LIAMANI KHALID                XX0000000000209564000020010015000
49390744923ALLIOUI MOHAMED               XX0000000000209565000020010015000
49390744960BOUAICHI SOUMIA               XX0000000000209566000020010015000
49390758611LIMAM BRAHIM                  XX0000000000209567000020010015000
49390758612KHALDI FATIMA                 XX0000000000209568000020010015000
49390758701LHAMDANIA MUSTAPHA            XX0000000000209569000020010015000
49390758704LOUKILI HAFIDA                XX0000000000209570000020010015000
49390758705LAMRABET ABDELOUAHID          XX0000000000209571000020010015000
49390189326ANHARI MOHAMED                XX0000000000209572000020010015000
49390759804ADDAOU ASMAE                  XX0000000000209573000020010015000
49390759958IBN EL AMIN EL AALAMI A       XX0000000000209574000020010015000
49390759959LAHMAR NOURDINE               XX0000000000209575000020010015000
49390759972BERKAOUI RABHA                XX0000000000209576000020010015000
49390760308EZZINE ABDERRAHIM             XX0000000000209577000020010015000
49390760329MOUNTAKA AHMED                XX0000000000209578000020010015000
49390760367LISSER NADIA                  XX0000000000209579000020010015000
49390760368IBADISSEN HACHEM              XX0000000000209580000020010015000
49390760429CHEMITE MOHAMMED              XX0000000000209582000020010015000
49390760440ZAHRANE SAID                  XX0000000000209583000020010015000
49390760448KACIMI MUSTAPHA               XX0000000000209584000020010015000
49390760483OUARBIA MOHAMED               XX0000000000209586000020010015000
49390760488GUERRANI MOHAMED              XX0000000000209587000020010015000
49390760636SALIMI SAIDA                  XX0000000000209588000020010015000
49390760637BOUDAK ELHASSANE              XX0000000000209589000020010015000
49390769300EL KORAANI FATIMA             XX0000000000209590000020010015000
49390769318EL AMROUSSI KHALID            XX0000000000209591000020010015000
49390769338SIHI KHADIJA                  XX0000000000209592000020010015000
49390773016DRISSI FATIMA                 XX0000000000209593000020010015000
49390773017DRISSI EL MEHDI               XX0000000000209594000020010015000
49390773033BOUDDIN HLIMA                 XX0000000000209595000020010015000
49390773121AMHARECH ABDELMAJD            XX0000000000209597000020010015000
49390773122KHETTOUCH RABIA               XX0000000000209598000020010015000
49390773146AIT BOUHLAL SIDI YOUSSEF      XX0000000000209599000020010015000
49390773149ALAOUI HAKIM MOULAY HFID      XX0000000000209600000020010015000
49390774511AFKIR ABDELKRIM               XX0000000000209601000020010015000
49390774554SIAD MOULAY MOSTAPHA          XX0000000000209602000020010015000
49390774586MAGGA MOHAMED                 XX0000000000209603000020010015000
49390774590BOUMEZZOUGH KHADIJA           XX0000000000209604000020010015000
49390774597BELHAOU HALIMA                XX0000000000209605000020010015000
49390774614BOUTALEB LALLA ASMAA          XX0000000000209606000020010015000
49390774615BOUKADDOUR SAMIRA             XX0000000000209607000020010015000
49390774796AIT SAID MOHAMED              XX0000000000209608000020010015000
49390776252NFISSI NADIA                  XX0000000000209609000020010015000
49390776253BENCHRIF MOULAY EL HASSAN     XX0000000000209610000020010015000
49390228320LAKHNOUSSI ALI                XX0000000000209611000020010015000
49390777808MAROUI DRISS                  XX0000000000209612000020010015000
49390777824EL FHAIEL ABDELAZIZ           XX0000000000209613000020010015000
49390777877EL KHAOUDI KANZA              XX0000000000209614000020010015000
49390777895EL FAIDI FATIMA               XX0000000000209615000020010015000
49390777897ABDERASSOUL KHADIJA           XX0000000000209616000020010015000
49390777900BENNANI ABDELALI              XX0000000000209617000020010015000
49390777907EZZAHID OMAR                  XX0000000000209618000020010015000
49390777952ABDATI SIDATI                 XX0000000000209619000020010015000
49390777955IMOURIG MINA                  XX0000000000209620000020010015000
49390777959BAHOUH HAMID                  XX0000000000209621000020010015000
49390777965TAZROUTI ABDELKADER           XX0000000000209622000020010015000
49390228634BECHANI MOHAMED               XX0000000000209624000020010015000
49390778021ZAIDI SOUAAD                  XX0000000000209625000020010015000
49390778040AMMAR MAJIDA                  XX0000000000209626000020010015000
49390778046BELGUITI LAYLA                XX0000000000209627000020010015000
49390778077HASNI HAMID                   XX0000000000209628000020010015000
49390782346JORJI MUSTAPHA                XX0000000000209629000020010015000
49390782480FARIDI RQUIA                  XX0000000000209630000020010015000
49390782492ABKARI AHMED                  XX0000000000209631000020010015000
49390782517BENJEBBOUR LARBI              XX0000000000209632000020010015000
49390782535EL MAAROUFI MOHAMED           XX0000000000209633000020010015000
49390782580EL JAIDI KHADIJA              XX0000000000209634000020010015000
49390782804EL BARAKA NOUREDDINE          XX0000000000209635000020010015000
49390782808EL YAZIDI MOUNIR              XX0000000000209636000020010015000
49390782812MKIKA ZOHRA                   XX0000000000209637000020010015000
49390782815AYAD ILHAM                    XX0000000000209638000020010015000
49390782820AHADAOUI HASSAN               XX0000000000209639000020010015000
49390782829CHAOU NAIMA                   XX0000000000209640000020010015000
49390782837NACIRI ABDELJALIL             XX0000000000209641000020010015000
49390782846ANOUAR SALAH                  XX0000000000209642000020010015000
49390782861HAJJAMI MOHAMMED              XX0000000000209643000020010015000
49390782923MOUNIR ABDELKARIM             XX0000000000209644000020010015000
49390782931CHOUKRI HASSAN                XX0000000000209645000020010015000
49390786242EL BOUANANI NAJAT             XX0000000000209646000020010015000
49390786268SAID JAMILA                   XX0000000000209647000020010015000
49390786276EL HARA SOUAD                 XX0000000000209648000020010015000
49390786303LAADIM HLIMA                  XX0000000000209649000020010015000
49390786310DAAYF SOUAD                   XX0000000000209650000020010015000
49390786312FELLAH NASSIRA                XX0000000000209651000020010015000
49390786320ISMAILI ALAOUI HASSANIA       XX0000000000209653000020010015000
49390786323NAAIM MOULOUD                 XX0000000000209654000020010015000
49390786328BENAISSA FATIMA               XX0000000000209655000020010015000
49390786329HASMI ABDELMJID               XX0000000000209656000020010015000
49390786337BENBAKH NADIA                 XX0000000000209657000020010015000
49390786338ZEHRAOUI MUSTAPHA             XX0000000000209658000020010015000
49390786340EL MHAMMEDI BOCHRA            XX0000000000209659000020010015000
49390786341SIDI ATHMANE ABDESLAME        XX0000000000209660000020010015000
49390786343AHLRGUIBI MAIMOUNA SALMA      XX0000000000209661000020010015000
49390786346KHARIJAH MINA                 XX0000000000209662000020010015000
49390786347EZZINE ELMOSTAFA              XX0000000000209663000020010015000
49390786350ERRAHMOUNI RQUIA              XX0000000000209664000020010015000
49390786353CHAMRANI ZAHRA                XX0000000000209665000020010015000
49390786358EL BOUKILI SAID               XX0000000000209666000020010015000
49390786361MOUDDEN MILOUD                XX0000000000209667000020010015000
49390786409AKTAINI ABDELAZIZ             XX0000000000209668000020010015000
49390786417JMILI FATIMA                  XX0000000000209669000020010015000
49390786419DOUIEB SOAD                   XX0000000000209670000020010015000
49390786424REMAOUI LATIFA                XX0000000000209671000020010015000
49390786426ABID LATIFA                   XX0000000000209672000020010015000
49390786452EL FAZAZI ZOUBIDA             XX0000000000209673000020010015000
49390788935TOUGHZAOUI MUSTAPHA           XX0000000000209674000020010015000
49390788991ESSABBAK LAILA                XX0000000000209675000020010015000
49390788993EZ ZAIDI JILALI               XX0000000000209676000020010015000
49390789045AIT LARBI MOHAMED             XX0000000000209677000020010015000
49390789096KHLIFI ZAHRA                  XX0000000000209678000020010015000
49390789097KALKHA HANIA                  XX0000000000209679000020010015000
49390789141ENNAOUI ABDELHAQ              XX0000000000209680000020010015000
49390789143ESSOULI ABOUBAKER             XX0000000000209681000020010015000
49390789148SALAMA FATIMA                 XX0000000000209682000020010015000
49390789153ISMAILI LEKBIR                XX0000000000209683000020010015000
49390789251AMINOU RABHA                  XX0000000000209684000020010015000
49390789252BOUHADDOU HASSANIA            XX0000000000209685000020010015000
49390789284BEDDOUZ BRAHIM                XX0000000000209686000020010015000
49390835487SAMMAH FATIHA                 XX0000000000209687000020010015000
49390835500AHL MBAREK MOHAMED            XX0000000000209688000020010015000
49390835603BELKHALFI ZAKIA               XX0000000000209690000020010015000
49390835648IGHACHANE KASSEM              XX0000000000209691000020010015000
49390835684OUJEDDI ABDELAAZIZ            XX0000000000209692000020010015000
49390835742DINIA HANA                    XX0000000000209693000020010015000
49390836912EL ABDELLAOUI FATIMA ZOHRA    XX0000000000209694000020010015000
49390836928ZAOUG KALTOUME                XX0000000000209695000020010015000
49390837113ESSOFI AHMED                  XX0000000000209696000020010015000
49390837118JOHRI NADIA                   XX0000000000209697000020010015000
49390837120EL FHAIEL OIFAE               XX0000000000209698000020010015000
49390837124LEKHBIA NOUR REDINE           XX0000000000209700000020010015000
49390837126IDRISSI TAFRAOUTI SAMIRA      XX0000000000209701000020010015000
49390837127JAAFARI RACHID                XX0000000000209702000020010015000
49390837189DIHI YOUSSEF                  XX0000000000209703000020010015000
49390837197KHAZZARI AHMED                XX0000000000209705000020010015000
49390837202DAOUDI FATMA                  XX0000000000209706000020010015000
49390837206HOUMARE NAJAT                 XX0000000000209707000020010015000
49390837333FADIL MOHAMMED                XX0000000000209708000020010015000
49390837334MOUKDAD SALIMA                XX0000000000209709000020010015000
49390837398BENSASSI KHADIJA              XX0000000000209710000020010015000
49390837421ACHEHROUR YOUNESS             XX0000000000209711000020010015000
49390837427KHALYL ABDELHAMID             XX0000000000209712000020010015000
49390837471LAMRABET MOHAMMED             XX0000000000209713000020010015000
49390837472ICHOUHAR ABDELKRIM            XX0000000000209714000020010015000
49390837500EL AMRANI WAFAA               XX0000000000209715000020010015000
49390837504CHAQUOUR LHOUCINE             XX0000000000209716000020010015000
49390837505OUKHAYI LAHOUSSINE            XX0000000000209717000020010015000
49390837512SELLAKMINE MOHAMED            XX0000000000209718000020010015000
49390837515FOUASSI NAIMA                 XX0000000000209719000020010015000
49390837523LACHANE ISMAIL                XX0000000000209720000020010015000
49390837539MAHRI MOHAMED                 XX0000000000209721000020010015000
49390837692SOUNI MUSTAPHA                XX0000000000209722000020010015000
49390838010INEFLASS HOUDA                XX0000000000209723000020010015000
49390838064OUAGAGUE ABDERRAHMANE         XX0000000000209724000020010015000
49390844609ZANAFI YOUSSEF                XX0000000000209725000020010015000
49390844801OUALI FATIMA                  XX0000000000209726000020010015000
49390844859TAHNINE KHADIJA               XX0000000000209727000020010015000
49390846485ASSILA MAHJOUBA               XX0000000000209728000020010015000
49390846660BENYOUCEF ABDERRAZZAK         XX0000000000209729000020010015000
49390846769CHALLA NEZHA                  XX0000000000209730000020010015000
49390847101CHABBAK DRISS                 XX0000000000209731000020010015000
49390847954DRISSI FATIMA                 XX0000000000209732000020010015000
49390855248AZOKA RKIA                    XX0000000000209733000020010015000
49390855256GHALMI ZINEB                  XX0000000000209734000020010015000
49390855278ZOUGAT NAJIA                  XX0000000000209735000020010015000
49390855282AADIDOU NEZHA                 XX0000000000209736000020010015000
49390855285EL HAY MALIKA                 XX0000000000209737000020010015000
49390855431SAFIR AICHA                   XX0000000000209738000020010015000
49390856425SEFRAOUI ASMAHANE             XX0000000000209739000020010015000
49390856464GNAOUI SAADIA                 XX0000000000209740000020010015000
49390862056BAKKARI HOURIA                XX0000000000209741000020010015000
49390862058EL MENANI NADIA               XX0000000000209742000020010015000
49390862062SIDQI KHADIJA                 XX0000000000209743000020010015000
49390868558CHAMANE MINA                  XX0000000000209744000020010015000
49390869182BARAD SAIDA                   XX0000000000209745000020010015000
49390869209RAHMANI KHADIJA               XX0000000000209746000020010015000
49390265136EL MALKI EL HAJ               XX0000000000209747000020010015000
49390869239AMRANI RACHIDA                XX0000000000209748000020010015000
49390869247GHASSOULI HAFIDA              XX0000000000209749000020010015000
49390869251ZIAT FILALI FATIHA            XX0000000000209750000020010015000
49390869252EL MOUSTAQIM YAMNA            XX0000000000209751000020010015000
49390871665SOULEIMANI KELTOUM            XX0000000000209752000020010015000
49390872097KOUISSEH KHADDOUJ             XX0000000000209753000020010015000
49390872913EL MOUHALHAL SAIDA            XX0000000000209754000020010015000
49390872945MANNA EL HAIBA                XX0000000000209755000020010015000
49390875755JAMALI WAFAA                  XX0000000000209756000020010015000
49390875764OUAMMAR KHADIJA               XX0000000000209757000020010015000
49390876071BOUSSAHFA KHADIJA             XX0000000000209758000020010015000
49390876092DARDAK AATIKA                 XX0000000000209760000020010015000
49390876152ZAIMI HANANE                  XX0000000000209761000020010015000
49390876156LAHLOU BAHIJA                 XX0000000000209762000020010015000
49390876160TAHRI RABIA                   XX0000000000209763000020010015000
49390893531TAOUFIKI OMAR                 XX0000000000209764000020010015000
49390893704BELBEKR NAJI                  XX0000000000209765000020010015000
49390893789OUBELLA TAYEB                 XX0000000000209767000020010015000
49390893913ELHARBI MALIKA                XX0000000000209768000020010015000
49390323956EL KHALLADI ALLAL             XX0000000000209769000020010015000
49390350526GHAZI SAID                    XX0000000000209770000020010015000
49390696056AIT NASSER BRAHIM             XX0000000000209771000020010015000
49390896522GHARIOUI FATIMA               XX0000000000209772000020010015000
49390896537HOU ABDELKADER                XX0000000000209773000020010015000
49390896540AMARIR MOHAMMED               XX0000000000209774000020010015000
49390896547EL QADDOURI FATNA             XX0000000000209775000020010015000
49390896575MABROUK MOHAMED               XX0000000000209776000020010015000
49390896580AIT OUKHALI LATIFA            XX0000000000209777000020010015000
49390896582ABAHAZEM ABDATI               XX0000000000209778000020010015000
49390896865HARNAFI LATIFA                XX0000000000209779000020010015000
49390897996ABDATI MALIKA                 XX0000000000209780000020010015000
49390898336LGO MIMOUN                    XX0000000000209781000020010015000
49390898352MARCHICH MOHAMED              XX0000000000209782000020010015000
49390898365BARRAMI FATIHA                XX0000000000209783000020010015000
49390899740KDAD FATIMA                   XX0000000000209784000020010015000
49390758789BAHAJ NADIA                   XX0000000000209785000020010015000
49390899794ELIDRISSI MEKKI               XX0000000000209786000020010015000
49390899795BERKAL AICHA                  XX0000000000209787000020010015000
49390946270EL OUTMANI ZOHRA              XX0000000000209788000020010015000
49390953198CHAKI EZZEHIRA                XX0000000000209789000020010015000
49390962553BOUKADDOUR ZOULIKHA           XX0000000000209791000020010015000
49390966181CHIGUER AICHA                 XX0000000000209792000020010015000
49390976360ESSAADI MARIA                 XX0000000000209793000020010015000
49390976607DADDA FATIHA                  XX0000000000209794000020010015000
49390977213ALIOUA KHADIJA                XX0000000000209795000020010015000
49390894229BOURHIM M HAMED               XX0000000000209796000020010015000
49390978739NAKHILI FATIMA                XX0000000000209797000020010015000
49390978741BOULAHIA FOUZIYA              XX0000000000209798000020010015000
49390978750EL FANFANI SAIDA              XX0000000000209799000020010015000
49390979680OUCHAO ZAHRA                  XX0000000000209800000020010015000
49390979783RMICH MINA                    XX0000000000209801000020010015000
49390979785NIGGA MALIKA                  XX0000000000209802000020010015000
49390979788NABIL NADIA                   XX0000000000209803000020010015000
49391000081SABRI BOUCHAIB                XX0000000000209804000020010015000
49391000096BARKA FATIMA                  XX0000000000209805000020010015000
49391000117ABAHAR BOUCHRA                XX0000000000209806000020010015000
49391000118EL BOURAKADI KHADIJA          XX0000000000209807000020010015000
49391000803MAHBOUB FATIMA                XX0000000000209808000020010015000
49391000808RHADBANE MINA                 XX0000000000209809000020010015000
49391000811BENNOUR SELOUA                XX0000000000209810000020010015000
49391000817LAKHLAIDI TOURIYA             XX0000000000209811000020010015000
49391000827ENNABATE FATIHA               XX0000000000209812000020010015000
49391000829LAKHAL ABDELLAH               XX0000000000209813000020010015000
49391000830LAMHIOUI FATIMA               XX0000000000209814000020010015000
49391001297KHAI KHADIJA                  XX0000000000209815000020010015000
49391001305FENNOUS MALIKA                XX0000000000209816000020010015000
49391001311LAZAR AICHA                   XX0000000000209817000020010015000
49391001384HOUCAIN HANANE                XX0000000000209818000020010015000
49391001394EL KEOUALI LATIFA             XX0000000000209819000020010015000
49391001399YASSINE ZOUHRA                XX0000000000209820000020010015000
49391001406QOTBI MOUNIA                  XX0000000000209821000020010015000
49391001460BOUKHENFAR AICHA              XX0000000000209822000020010015000
49391002340SAHIL ABDESLAM                XX0000000000209823000020010015000
49391002370MALKI MOHAMMED                XX0000000000209824000020010015000
49391002503BROURI FATIMA                 XX0000000000209825000020010015000
49391043258MERZGUIOUI MOHAMED            XX0000000000209826000020010015000
49391054385FAKHIR EDDINE SOUAD           XX0000000000209827000020010015000
49391054623ELKADDOURI RACHIDA            XX0000000000209829000020010015000
49391054627CHARIAI ABDERRAHIM            XX0000000000209830000020010015000
49391054629RJIMATI HASSAN                XX0000000000209831000020010015000
49391054631ZAHRI ABDERRAZAK              XX0000000000209832000020010015000
49391054633RIKHAT MINA                   XX0000000000209833000020010015000
49391054638AGOURRAM ABDERRAHIM           XX0000000000209834000020010015000
49391054647BENHIDA ABDELGHANI            XX0000000000209835000020010015000
49391054654MOUH ABDELAZIZ                XX0000000000209836000020010015000
49391054661DOGHMI MOHAMMED               XX0000000000209837000020010015000
49391054665KHADDOU OMAR                  XX0000000000209838000020010015000
49391054666EL MESBAHI MOHAMED            XX0000000000209839000020010015000
49391054672HOUR HAKIMA                   XX0000000000209840000020010015000
49391054681KINANY MOHAMMED               XX0000000000209841000020010015000
49391054682BENRHMOUCHE MOHAMMED          XX0000000000209842000020010015000
49391054684EL MAHI MOUSSA                XX0000000000209843000020010015000
49391054697AZIM AICHA                    XX0000000000209844000020010015000
49391054699MEKOUAR ADIL                  XX0000000000209845000020010015000
49391054724ABERDIN ZAHRA                 XX0000000000209846000020010015000
49391054726BENNASSEF EL GHLIMI           XX0000000000209847000020010015000
49391054728EL AIZA SAID                  XX0000000000209848000020010015000
49391054730DAFANI RAHHAL                 XX0000000000209849000020010015000
49391054770KREKER BAHIJA                 XX0000000000209850000020010015000
49391054771LAMGHARI NAZHA                XX0000000000209851000020010015000
49391054774ELMARZAK FATIMA               XX0000000000209852000020010015000
49391054790BELMAHJOUB JAMAL              XX0000000000209853000020010015000
49391054794SABRI FAWZIA                  XX0000000000209854000020010015000
49391054795BOUISSA SOUMIA                XX0000000000209855000020010015000
49391054803BOUALLAGA AMINA               XX0000000000209856000020010015000
49391054810LAHRICHI IMANE                XX0000000000209857000020010015000
49391054812ABRADA FATIMA                 XX0000000000209858000020010015000
49391054813BENAZZI MINA                  XX0000000000209859000020010015000
49391054814ES SEMLALI AICHA              XX0000000000209860000020010015000
49391054815EL OUFIR SOUAD                XX0000000000209861000020010015000
49391054827BAROURI AZIZ                  XX0000000000209862000020010015000
49391054838CHERQAOUI MOHAMMED ETTAHIR    XX0000000000209863000020010015000
49391054840EDDAH EL HAJ                  XX0000000000209864000020010015000
49391054851BOUKHARI JAOUAD               XX0000000000209865000020010015000
49391054886DAOUDI MOHAMMED               XX0000000000209866000020010015000
49391054894MORCHID HAYAT                 XX0000000000209867000020010015000
49391054898RACHIDI ZINEB                 XX0000000000209868000020010015000
49391054987YOUSFI AMAL                   XX0000000000209869000020010015000
49391054997RGUIBI DRISSIA                XX0000000000209870000020010015000
49391055003ID ELKACHA AICHA              XX0000000000209871000020010015000
49391055005TOUBAJI MAHJOUBA              XX0000000000209872000020010015000
49391055008HAMANI MOHAMED                XX0000000000209873000020010015000
49391055011SEKKAT MOUNA                  XX0000000000209874000020010015000
49391055012RHIDOUANI MOHAMMED            XX0000000000209875000020010015000
49391055037ENNOUHI SAADEDDINE            XX0000000000209876000020010015000
49391055038AZOUA MOHAMED                 XX0000000000209877000020010015000
49391055154HAJJI YOUNESS                 XX0000000000209878000020010015000
49391055156BOUSSETA MOUNIA               XX0000000000209879000020010015000
49391055198LHAINI KHADIJA                XX0000000000209880000020010015000
49391055219HAYATE MOHAMMED               XX0000000000209881000020010015000
49391055263EL MOKH HOUDA                 XX0000000000209882000020010015000
49391055266CHERTI TAZI OUADIA            XX0000000000209883000020010015000
49391055271BENNOUNA TOURIYA              XX0000000000209884000020010015000
49391055280EL MEJJATI KHALID             XX0000000000209885000020010015000
49391055281MAROUAN NAJAT                 XX0000000000209886000020010015000
49391055286NAJI FATIMA                   XX0000000000209887000020010015000
49391055288BRITEL DRISS                  XX0000000000209888000020010015000
49391055289HAMMOUR AHMED                 XX0000000000209889000020010015000
49391055290BACHIRI EL BAUCHTAOUI         XX0000000000209890000020010015000
49391055291TOUZANI NADIA                 XX0000000000209891000020010015000
49391055307BENRHMOUCHE KARIM             XX0000000000209892000020010015000
49391055314EL HMIM SAIDA                 XX0000000000209893000020010015000
49391055319DRISSI BELGASMI SIDI MOHAMME  XX0000000000209894000020010015000
49391055320BOULAAMANE RAHMA              XX0000000000209895000020010015000
49391055330ABAKARIM MINA                 XX0000000000209896000020010015000
49391055346SABRI LAHOUCINE               XX0000000000209897000020010015000
49391055356RIBGOU NAIMA                  XX0000000000209899000020010015000
49391055359ABOUHRIA SAMIA                XX0000000000209900000020010015000
49391055361SLAMA MOHAMED                 XX0000000000209901000020010015000
49391055379DHAIBI SARA                   XX0000000000209903000020010015000
49391055384ES SAID AHMED                 XX0000000000209904000020010015000
49391055385FADIL ABDELMJID               XX0000000000209905000020010015000
49391055388HRIMACHE ABDELKADER           XX0000000000209906000020010015000
49391055391CHERQAOUI MOHAMMED            XX0000000000209907000020010015000
49391055392EL AJROUDI DRISS              XX0000000000209908000020010015000
49391055406EDDOQ TOURIA                  XX0000000000209909000020010015000
49391055407FATHI AZIZA                   XX0000000000209910000020010015000
49391055408IAZOUZAN FATIMA               XX0000000000209911000020010015000
49391055409BENMESSAOUD ABDERRAHIM        XX0000000000209912000020010015000
49391055410HIMDI FATIHA                  XX0000000000209913000020010015000
49391129825OUAFI KARIMA                  XX0000000000209914000020010015000
49391142647BOURJLATE ISMAIL              XX0000000000209915000020010015000
49391142671BENKHALLOUQ MOHAMED           XX0000000000209916000020010015000
49391142675ABDELHAQ KHADIR               XX0000000000209917000020010015000
49391142677MAZIGHA MOHAMMED              XX0000000000209918000020010015000
49391142687ANOUAR MOHAMED CHAFIQ         XX0000000000209920000020010015000
49391142691AZOUA MUSTAPHA                XX0000000000209921000020010015000
49391142713FAIK BOUCHRA                  XX0000000000209923000020010015000
49391142722ZIKAR FATNA                   XX0000000000209924000020010015000
49391142729MACHFOUA NABILA               XX0000000000209925000020010015000
49391142735KHATORI NAIMA                 XX0000000000209926000020010015000
49391142755BENNANI IMANE                 XX0000000000209927000020010015000
49391142758NOUIJI HAYAT                  XX0000000000209928000020010015000
49391142766AIT BOUICHCHOU BOUCHRA        XX0000000000209929000020010015000
49391142775EL MOUTAOUKIL LAMIAA          XX0000000000209930000020010015000
49391142789MAGANI RACHIDA                XX0000000000209931000020010015000
49391142802HASSANE NORA                  XX0000000000209933000020010015000
49391142803HAMOUROU JAMILA               XX0000000000209934000020010015000
49391142807EL MASYKY FATIHA              XX0000000000209935000020010015000
49391142817RAFIK AICHA                   XX0000000000209936000020010015000
49391142821KASSIMI KHALID                XX0000000000209937000020010015000
49391142824ESSENOUSI FATIMA ZOHRA        XX0000000000209938000020010015000
49391142826EL HALIMI RIDA                XX0000000000209939000020010015000
49391142829BOUMNIDEL ANISSA              XX0000000000209940000020010015000
49391142830TALHA SOUMAYA                 XX0000000000209941000020010015000
49391142836BERD HANANE                   XX0000000000209942000020010015000
49391142837YASSINE KARIMA                XX0000000000209943000020010015000
49391142841SENHAJI AICHA                 XX0000000000209944000020010015000
49391142845SLAOUI KHADIJA                XX0000000000209945000020010015000
49391142915ABADY MOHAMED                 XX0000000000209946000020010015000
49391142925OULABASSE KHADOUJ             XX0000000000209947000020010015000
49391142934GUERTITE IDRISS               XX0000000000209949000020010015000
49391143042SEBBAR LOUBNA                 XX0000000000209950000020010015000
49391143044ZAROUALI CHAKKORI OTMAN       XX0000000000209951000020010015000
49391143051EL JARHAOUI NEZHA             XX0000000000209952000020010015000
49391143054TAHIRI MY ABDELAZIZ           XX0000000000209953000020010015000
49391143061BOUDIR FATIHA                 XX0000000000209955000020010015000
49391143065TAHIRI NOURA                  XX0000000000209956000020010015000
49391143066CHTATOU HASSANE               XX0000000000209957000020010015000
49391143068AIT IDER KHADIJA              XX0000000000209958000020010015000
49391143074IDHAMOUJAMA LAHCEN            XX0000000000209960000020010015000
49391143080EL KEMIA BENAISSA             XX0000000000209961000020010015000
49391143081OUAZZANI TOUHAMI FOUAD        XX0000000000209962000020010015000
49391143096TANTANE ABDELALI              XX0000000000209963000020010015000
49391143100OUDRHIRI KHADIJA              XX0000000000209964000020010015000
49391143126LAMZOURI SAID                 XX0000000000209965000020010015000
49391143130MOUAILY SAID                  XX0000000000209966000020010015000
49391143143CHAKIR NADIA                  XX0000000000209967000020010015000
49391143149ZIOUANI MOURAD                XX0000000000209968000020010015000
49391143318BENTAYEK HAFID                XX0000000000209969000020010015000
49391143320KLIBI HATIM                   XX0000000000209970000020010015000
49391143322EZ ZITOUNI HABBAZ             XX0000000000209971000020010015000
49391143328QESSAD HASSAN                 XX0000000000209972000020010015000
49391143330RAKCHO MOHAMMED               XX0000000000209973000020010015000
49391143331AIT BOUDAR RABHA              XX0000000000209974000020010015000
49391143333MOFADEL HASSAN                XX0000000000209975000020010015000
49391143338JANATI NAJAT                  XX0000000000209976000020010015000
49391143368OUMARI LAHOUCINE              XX0000000000209978000020010015000
49391143369ACHABAK ABDELILAH             XX0000000000209979000020010015000
49391143385SAKINE NOURADDINE             XX0000000000209983000020010015000
49391143391EL KAMLI SAID                 XX0000000000209984000020010015000
49391143392FAIZ FARIDA                   XX0000000000209985000020010015000
49391143397EL KHARBOUCHI HAMID           XX0000000000209986000020010015000
49391168808ERRADE BENAISSA               XX0000000000209987000020010015000
49391168823EL BADAOUI ABDELLAH           XX0000000000209988000020010015000
49391168824BOUJEMRI LAHOUCINE            XX0000000000209989000020010015000
49391168831ZERDAHI NADIA                 XX0000000000209990000020010015000
49391168832ZAIOUD FATIHA                 XX0000000000209991000020010015000
49391168837MARHBA MALIKA                 XX0000000000209992000020010015000
49391168838TAJE EDDINE FAIZA             XX0000000000209993000020010015000
49391168843BACHKAR ZAHIRA                XX0000000000209994000020010015000
49391168844RADI FATIMA                   XX0000000000209995000020010015000
49391168848JABIR RACHIDA                 XX0000000000209996000020010015000
49391168862OURIZ LATIFA                  XX0000000000209997000020010015000
49391168864MEROUANE MBARKA               XX0000000000209998000020010015000
49391168867LAGHMADI SAMIRA               XX0000000000209999000020010015000
49391168873HILAL BADIA                   XX0000000000210000000020010015000
49391168886LAGRAMEH RABIA                XX0000000000210001000020010015000
49391168887BIADI ILHAM                   XX0000000000210002000020010015000
49391168890ZAID LATIFA                   XX0000000000210003000020010015000
49391168893NASSIHI RABIAA                XX0000000000210004000020010015000
49391168894FOUADI NAJAT                  XX0000000000210005000020010015000
49391168895ABIDA SOUAD                   XX0000000000210006000020010015000
49391168900EL HABCHI KHADIJA             XX0000000000210007000020010015000
49391168905BENABBOU SOUAD                XX0000000000210008000020010015000
49391168906BENHAMOU KARIMA               XX0000000000210009000020010015000
49391168914CHIGUER BELAID                XX0000000000210010000020010015000
49391168915LABIYAD BOUCHRA               XX0000000000210011000020010015000
49391168916EZZIDOUNI ELMIMOUNI NAIMA     XX0000000000210012000020010015000
49391168918SAAJI MINA                    XX0000000000210013000020010015000
49391168921ESSABI ZAHRA                  XX0000000000210014000020010015000
49391168925BOUMENJEL NAJAT               XX0000000000210015000020010015000
49391168939SBAA NAJAT                    XX0000000000210016000020010015000
49391168942EL MELLIHI SAMIRA             XX0000000000210017000020010015000
49391168946MAIMOUNI MOHAMMED             XX0000000000210018000020010015000
49391168956IGIOUI LATIFA                 XX0000000000210019000020010015000
49391168960ARHIL KHADIJA                 XX0000000000210020000020010015000
49391169011AL KADAOUI SAMIRA             XX0000000000210021000020010015000
49391169013LAAZIBI NAJIHA                XX0000000000210022000020010015000
49391169029MIZOU ADIL                    XX0000000000210023000020010015000
49391169035SALHI HASSANE                 XX0000000000210024000020010015000
49391169054BOUTKROUMT FOUAD              XX0000000000210025000020010015000
49391169058RGHIOUI KAOUTAR               XX0000000000210026000020010015000
49391169069MOUSSAOUI MOHAMED             XX0000000000210027000020010015000
49391169073BOUSSENNA MINA                XX0000000000210028000020010015000
49391169081BOULAHLIB LALLA SAADIA        XX0000000000210029000020010015000
49391169082BANA ABDELOUAHED              XX0000000000210030000020010015000
49391169085ACHANDIR ABDELLAH             XX0000000000210031000020010015000
49391169109HAFDI MOHAMED                 XX0000000000210032000020010015000
49391169113KHALOUTA ABDELOUAHED          XX0000000000210033000020010015000
49391169129BAHLOU HAFIDA                 XX0000000000210034000020010015000
49391169133HAMEDDINE ABDELMJID           XX0000000000210035000020010015000
49391169136SOUIBA MERIEM                 XX0000000000210036000020010015000
49391169180EL HAIBA KHALID               XX0000000000210037000020010015000
49391169205ACHAK RIDOINE                 XX0000000000210038000020010015000
49391169208REDDAD MOHAMED                XX0000000000210039000020010015000
49391169216MAIDEN ADIL                   XX0000000000210040000020010015000
49391169218JAMJAMA SAID                  XX0000000000210041000020010015000
49391169224EL JAHOUANI NOUR EDDINE       XX0000000000210042000020010015000
49391169242IBNECHRYF HASNA               XX0000000000210043000020010015000
49391169252DAMKAL MOHAMED                XX0000000000210044000020010015000
49391169270NIFI RADOUANE                 XX0000000000210045000020010015000
49391169276LAAFISSE HICHAM               XX0000000000210046000020010015000
49391169295KALOULI ABDELKADER            XX0000000000210047000020010015000
49391169297TLOUSSI LAAZIZA               XX0000000000210048000020010015000
49391169299EL HARRADI KHADIJA            XX0000000000210049000020010015000
49391169307HAMDOUCH MALIKA               XX0000000000210050000020010015000
49391169308MERNISSI BOUJAMAA             XX0000000000210051000020010015000
49391169311ADDOU HASSAN                  XX0000000000210052000020010015000
49391169317BOULAALA BOUBCHER             XX0000000000210053000020010015000
49391169327LAABOUDI IBTIHAJ              XX0000000000210054000020010015000
49391169331HAMITI AMAL                   XX0000000000210055000020010015000
49391169332BOUAROUQ AZIZA                XX0000000000210056000020010015000
49391169333DOUKKALI SAIDA                XX0000000000210057000020010015000
49391169354EL IDRISSI MOULAY IDRISS      XX0000000000210058000020010015000
49391169364BNINECH HASSAN                XX0000000000210059000020010015000
49391169383MRANI MERYEME                 XX0000000000210060000020010015000
49391169400EL FARGALI MOHAMED            XX0000000000210061000020010015000
49391169450BENALI FATIMA ZOHRA           XX0000000000210062000020010015000
49391169459LAARIBI ABDELKADER            XX0000000000210063000020010015000
49391169470AKERMACH ISSAM                XX0000000000210064000020010015000
49391169480EL FILALI YOUSSEF             XX0000000000210065000020010015000
49391169486RHOUNI MUSTAPHA               XX0000000000210066000020010015000
49391169490ESSERADI MOHAMED              XX0000000000210067000020010015000
49391169504FETTAH ALI                    XX0000000000210068000020010015000
49391169506EL BOUKFAOUI MY RACHID        XX0000000000210069000020010015000
49391169511BARKA HASSAN                  XX0000000000210070000020010015000
49391169520CHAQRI YOUSSEF                XX0000000000210071000020010015000
49391169521NAFZAOUI HASSANIA             XX0000000000210072000020010015000
49391169523CHAHID MOHAMED                XX0000000000210073000020010015000
49391169524KHRIBECH AZYZ                 XX0000000000210074000020010015000
49391169528LAMINI SIDI MOHAMED           XX0000000000210075000020010015000
49391169532BOURAMDANE ABDELAAZIZ         XX0000000000210076000020010015000
49391169534BADRI OMAR                    XX0000000000210077000020010015000
49391169537AKDIM AHMED                   XX0000000000210078000020010015000
49391169542DAHMANI NAJIM                 XX0000000000210079000020010015000
49391169555ES SOULAMI ABDERRAHIM         XX0000000000210080000020010015000
49391169559QADRI NOR EDDINE              XX0000000000210081000020010015000
49391169560BAKKACHI MOHAMED              XX0000000000210082000020010015000
49391169569ZIANI AICHA                   XX0000000000210083000020010015000
49391169580ELOUARDI TOURIA               XX0000000000210084000020010015000
49391169583MRIBAT NAIMA                  XX0000000000210085000020010015000
49391169585ANAIOUB FATIMA ZAHRA          XX0000000000210086000020010015000
49391169594EL OIROIR MBARK               XX0000000000210087000020010015000
49391169596BEN LAZRAK FATIMA             XX0000000000210088000020010015000
49391169600SLIMANI BOUCHRA               XX0000000000210089000020010015000
49391169602IDELMOU ZAHRA                 XX0000000000210090000020010015000
49391169617EL HALOUANI JAMILA            XX0000000000210091000020010015000
49391169633AYYAD ZOUBIDA                 XX0000000000210092000020010015000
49391169638EL ABKARI NAJIA               XX0000000000210093000020010015000
49391169639RHARARA KHADIJA               XX0000000000210094000020010015000
49391169651ESSAOUDI ABDELTIF             XX0000000000210095000020010015000
49391169661CHAABI BADIAA                 XX0000000000210096000020010015000
49391169663KANNANE ZOHRA                 XX0000000000210097000020010015000
49391169667HANDAZE RAJAA                 XX0000000000210098000020010015000
49391169668OUENZA HOUDA                  XX0000000000210099000020010015000
49391169669SANAA MAKANI                  XX0000000000210100000020010015000
49391169671BAYADARA RACHIDA              XX0000000000210101000020010015000
49391169674SAMIT MALIKA                  XX0000000000210102000020010015000
49391169684CHARKI ASMAE                  XX0000000000210103000020010015000
49391169689KHADIJA TIOUASSIOUINE         XX0000000000210104000020010015000
49391169695BAROUDA SOUAD                 XX0000000000210105000020010015000
49391169696CHAOUKI HAKIMA                XX0000000000210106000020010015000
49391169702ESHAIMI ASMAE                 XX0000000000210107000020010015000
49391169703BEN HSAIN HOUDA               XX0000000000210108000020010015000
49391169714HAJJAJ NOUR EL HOUDA          XX0000000000210109000020010015000
49391169720LAZRAGUE LAAZIZA              XX0000000000210110000020010015000
49391169721BEN HADDADI SAMIRA            XX0000000000210111000020010015000
49391169723TAMOUH KELTOUM                XX0000000000210112000020010015000
49391169734LAROUSSI HASSAN               XX0000000000210113000020010015000
49391169742EL AMRAOUI SIDI MOUH          XX0000000000210114000020010015000
49391169744SAHRAOUI HANANE               XX0000000000210115000020010015000
49391169747OUARAINI FATIMA               XX0000000000210116000020010015000
49391169751MAAZOUZ NAIMA                 XX0000000000210117000020010015000
49391169754EL MOUNACHIT FADNA            XX0000000000210118000020010015000
49391169791ARDDICHE LAHCEN               XX0000000000210119000020010015000
49390899744RIKHAT FATIMA                 XX0000000000210120000020010015000
49391229748ABDELKAHAR NACEUR             XX0000000000210121000020010015000
49391229755BOUTAKY YOUNES                XX0000000000210122000020010015000
49391229757KRAICHY ABDELKABIR            XX0000000000210123000020010015000
49391229758BEN YACHOU AHMED              XX0000000000210124000020010015000
49391229767JAIT HICHAM                   XX0000000000210125000020010015000
49391229768DARDOURI MOHAMED              XX0000000000210126000020010015000
49391229772BOUGDALI MOHAMED              XX0000000000210127000020010015000
49391229780BOUSSAKKA MOHAMED ALI         XX0000000000210129000020010015000
49391229781BOUJOUJOU BRAHIM              XX0000000000210130000020010015000
49391229788HMAMOU BRAHIM                 XX0000000000210131000020010015000
49391229789BENBRAHIM EL HASSAN           XX0000000000210132000020010015000
49391229792LAGHZAL SOUILEM               XX0000000000210133000020010015000
49391229798BOUMATA EL HASSAN             XX0000000000210136000020010015000
49391229833MUSTAPHA EL ANSARI            XX0000000000210137000020010015000
49391229835LALLA LADIBA MAALAININE       XX0000000000210138000020010015000
49391229838NAJEM BRAHIM                  XX0000000000210139000020010015000
49391229846ACHBANI BRAHIM                XX0000000000210140000020010015000
49391229853BELAYDI YOUNESS               XX0000000000210141000020010015000
49391229854ARSSI FAHD                    XX0000000000210142000020010015000
49391229864MAKBOULI KHADIJA              XX0000000000210143000020010015000
49391229866WAHIB HASSAN                  XX0000000000210144000020010015000
49391229875BOUAIADI NOUZHA               XX0000000000210145000020010015000
49391229884SOUIYAH MAHMOUD               XX0000000000210146000020010015000
49391229891EZZAHOULI BRAHIM              XX0000000000210147000020010015000
49391229893BOUTEMNI M BAREK              XX0000000000210148000020010015000
49391229898AYZOUK MOHAMED                XX0000000000210149000020010015000
49391229902EL FATOUAKI ABDERRAHIM        XX0000000000210150000020010015000
49391229906RAMZANE CHAFIK                XX0000000000210151000020010015000
49391229907MELLAGUI KHALID               XX0000000000210152000020010015000
49391229915TOUIL HICHAM                  XX0000000000210153000020010015000
49391229995BENALLAL ABDELLAH             XX0000000000210154000020010015000
49391230000AIT AADI RABIAA               XX0000000000210155000020010015000
49391230005ESMAALI FOUZIYA               XX0000000000210156000020010015000
49391230045BENIZ ABDELLAH                XX0000000000210157000020010015000
49391230060SHIMI MOHAMED                 XX0000000000210158000020010015000
49391230072JBOUB MOHAMED                 XX0000000000210159000020010015000
49391230097OUAHMANE BRAHIM               XX0000000000210160000020010015000
49391230113ZAID RAHAL                    XX0000000000210161000020010015000
49391230141BENLEHROUKI LAHSEN            XX0000000000210162000020010015000
49391230154TOUATI LMEHDI                 XX0000000000210163000020010015000
49391230176BAKOUH FARIDA                 XX0000000000210164000020010015000
49391230206HALIM DRISS                   XX0000000000210166000020010015000
49391230218BRICHA SAID                   XX0000000000210167000020010015000
49391230224OULAOUCH NABIL                XX0000000000210168000020010015000
49391230309ESSOUBKI ABDERRAHIM           XX0000000000210169000020010015000
49391230310MACHFOUA MUSTAPHA             XX0000000000210170000020010015000
49391230311QADI HANANE                   XX0000000000210171000020010015000
49391230317NAKACH ABDERRAHMAN            XX0000000000210172000020010015000
49391230470OUMIMOUNE FATIMA              XX0000000000210173000020010015000
49391230474MANSOURI YASSIN               XX0000000000210174000020010015000
49391230475RAHMANI FATNA                 XX0000000000210175000020010015000
49391230479KESSOU KHADIJA                XX0000000000210176000020010015000
49391230481ALAHOUI KAMAL                 XX0000000000210177000020010015000
49391230488ABKARI BOUAMAR                XX0000000000210178000020010015000
49391230500MOUNIM RACHID                 XX0000000000210179000020010015000
49391230516ASSEFIANI MOHAMMED LARBI      XX0000000000210180000020010015000
49391230521BENBA ESSAID                  XX0000000000210181000020010015000
49391230523BENHIDA MOHAMED HALIM         XX0000000000210182000020010015000
49391230526ACHERGUI RACHID               XX0000000000210183000020010015000
49391230530AIT BOULAID MOHAMED           XX0000000000210184000020010015000
49391230531EL HASSANE RIDOUANE           XX0000000000210185000020010015000
49391230533ABOULISSANE SAID              XX0000000000210186000020010015000
49391230547MEKAOUI TAOUFIK               XX0000000000210187000020010015000
49391230557ZEJLY FATIMA                  XX0000000000210188000020010015000
49391230562BENHIDA NAJAT                 XX0000000000210189000020010015000
49391230575NEMROUCH NAOUFAL              XX0000000000210190000020010015000
49391230616ZHAD ALI                      XX0000000000210191000020010015000
49391230617TAH MOSTAFA                   XX0000000000210192000020010015000
49391230631MACHE HANANE                  XX0000000000210193000020010015000
49391230641SAMI FATIHA                   XX0000000000210194000020010015000
49391230644ERRACHIDI FAOUZIA             XX0000000000210195000020010015000
49391230650ZAGHI NAOUAL                  XX0000000000210196000020010015000
49391230669MORJANE AICHA                 XX0000000000210197000020010015000
49391230670MEADANI FIHRIA                XX0000000000210198000020010015000
49391230671ALIF JAMILA                   XX0000000000210199000020010015000
49391230672SAIDI HANANE                  XX0000000000210200000020010015000
49391230675EL QANDALI SAMIRA             XX0000000000210201000020010015000
49391230679RIZQI DALILA                  XX0000000000210202000020010015000
49391230680NAIT MOUSSA AICHA             XX0000000000210203000020010015000
49391230687CHEMAA LATIFA                 XX0000000000210204000020010015000
49391230689CHAIRI SAMIRA                 XX0000000000210205000020010015000
49391242642SAAD FOUZIA                   XX0000000000210206000020010015000
49391246650EL MESSAOUDI ABDELLAH         XX0000000000210207000020010015000
49391272271MALIKI NEZHA                  XX0000000000210208000020010015000
49391272280HIJAZI KARIMA                 XX0000000000210209000020010015000
49391272285BANNID YAMINA                 XX0000000000210210000020010015000
49391272286ZITOUNI JAMILA                XX0000000000210211000020010015000
49391272287EL YAZIOUI KARIM              XX0000000000210212000020010015000
49391272288ELOUAHDI LATIFA               XX0000000000210213000020010015000
49391272293KACHADE KHADIJA               XX0000000000210214000020010015000
49391272314RAMLY CHAIBIA                 XX0000000000210215000020010015000
49391272324EL KAHL MOHAMED LAGHDAF       XX0000000000210216000020010015000
49391272474IZIKI NAJIMA                  XX0000000000210217000020010015000
49391272484CHAFI HAMID                   XX0000000000210218000020010015000
49391272498EL MENSIFI BRAHIME            XX0000000000210219000020010015000
49391272499ZENATI SABRINE                XX0000000000210220000020010015000
49391272620ILLOUSSAMEN NOUAMA            XX0000000000210221000020010015000
49390978693OUTROUHALTE FATIMA            XX0000000000210222000020010015000
49391272670BRITEL KHADIJA                XX0000000000210223000020010015000
49391272671EL BOUZIDI ABDELILAH          XX0000000000210224000020010015000
49391272674EL KOSS SIF-EDDINE            XX0000000000210225000020010015000
49391272819SERKOUH LAHBIB                XX0000000000210226000020010015000
49391272820EL MAANAOUI EL GHALIA         XX0000000000210227000020010015000
49391272821LAKHAL ZINEB                  XX0000000000210228000020010015000
49391272825MAGANI MALIKA                 XX0000000000210229000020010015000
49391272833EL FATIMI SAADIA              XX0000000000210230000020010015000
49391272838OUSBAAI AICHA                 XX0000000000210231000020010015000
49391272841TAHIRI KARIMA                 XX0000000000210232000020010015000
49391272851ELOUATY MOHAMED               XX0000000000210233000020010015000
49391272859HAMLI FATNA                   XX0000000000210234000020010015000
49391272861ARRAJI YOUSSEF                XX0000000000210235000020010015000
49391272867EL JAMAAI NAJAT               XX0000000000210236000020010015000
49391272870EL KHATTAB KHADIJA            XX0000000000210237000020010015000
49391272871RIACHE JAMILA                 XX0000000000210238000020010015000
49391272876BAJAD KHADIJA                 XX0000000000210239000020010015000
49391272877EL ARAJI R KIA                XX0000000000210240000020010015000
49391272878KAZ BOUCHRA                   XX0000000000210241000020010015000
49391272883AIT ABDELLAH LAHBIB           XX0000000000210242000020010015000
49391272888AMAGAR FATIMA                 XX0000000000210243000020010015000
49391272889TIMNOUNI FATIHA               XX0000000000210244000020010015000
49391272894BCHIRI SAMIRA                 XX0000000000210245000020010015000
49391272900AIT OULAHYANI MUSTAPHA        XX0000000000210246000020010015000
49391272916EL ANSARI ZINEB               XX0000000000210247000020010015000
49391272917KRIMAS ASMAE                  XX0000000000210248000020010015000
49391272919EL HARRAK SOUMAYA             XX0000000000210249000020010015000
49391272927BENAISSA NADIA                XX0000000000210250000020010015000
49391272929EL KOUCHI MALIKA              XX0000000000210251000020010015000
49391272932EL KARKACHI AMAL              XX0000000000210252000020010015000
49391272936BELAFKIH LAILA                XX0000000000210253000020010015000
49391272938BIFENZI YOUSSEF               XX0000000000210254000020010015000
49391272939AFROUKH BRAHIM                XX0000000000210255000020010015000
49391272942EL AIMOURI MOHAMMED           XX0000000000210256000020010015000
49391272954ALZARI NAJOUA                 XX0000000000210257000020010015000
49391272957SABBOURI SAIDA                XX0000000000210258000020010015000
49391272958BAYCHOU ALLAL                 XX0000000000210259000020010015000
49391272971ARCHOUNE YOUSSEF              XX0000000000210260000020010015000
49391272973MAAMOUR LAILA                 XX0000000000210261000020010015000
49391272978HAZIM NAJIA                   XX0000000000210262000020010015000
49391272986LOISKARI REDOUANE             XX0000000000210263000020010015000
49391272987SAIDI FATIMA                  XX0000000000210264000020010015000
49391272995KARA ABDELLAH                 XX0000000000210265000020010015000
49391273003MOUMINE RAJA                  XX0000000000210266000020010015000
49391273058LAHOUIYAT HANANE              XX0000000000210267000020010015000
49391273072OUAID SAID                    XX0000000000210268000020010015000
49391273104BOUSSAG SAID                  XX0000000000210269000020010015000
49391273110BOUFELJA RACHIDA              XX0000000000210270000020010015000
49391273113IGHIRIGUEN SAID               XX0000000000210271000020010015000
49391273114OUGUNIR RKIA                  XX0000000000210272000020010015000
49391273234MOUDNI AHMED                  XX0000000000210274000020010015000
49391273239EL AJROUDI MOUNIR             XX0000000000210275000020010015000
49391273260OUHAMOU FATIMA                XX0000000000210276000020010015000
49391273265AHAMAM MINA                   XX0000000000210277000020010015000
49391274546OUJAK YOUSSEF                 XX0000000000210278000020010015000
49391318714BOURJA YOUSSEF                XX0000000000210279000020010015000
49391355483BENABBOU NABIL                XX0000000000210280000020010015000
49391375382ZIYANI EL FATMI               XX0000000000210281000020010015000
49391375385ASSOUANE KHADIJA              XX0000000000210282000020010015000
49391375387BOUCHALGA MANAFAL             XX0000000000210283000020010015000
49391375393SANOUAR NOURA                 XX0000000000210284000020010015000
49391375400LAGNAOUI ABDERRAHIM           XX0000000000210285000020010015000
49391375405LAHFIDI YOUSSEF               XX0000000000210286000020010015000
49391375429BOUIKOURDASSEN AHMED          XX0000000000210287000020010015000
49391375432MOUMENE BRAHIM                XX0000000000210288000020010015000
49391375436AIT SAID ADIL                 XX0000000000210289000020010015000
49391375438DAROUICH YOUNS                XX0000000000210290000020010015000
49391375442IKHLEF SOAD                   XX0000000000210291000020010015000
49391375450KHALIL HASNA                  XX0000000000210292000020010015000
49391375453BORJA RACHID                  XX0000000000210294000020010015000
49391375455OUIRRA FATIHA                 XX0000000000210295000020010015000
49391375456SAAI EL HAQ HOURIA            XX0000000000210296000020010015000
49391375457BAKHTAOUI FOUAD               XX0000000000210297000020010015000
49391375463GHAZOUANI MOHAMMED AMINE      XX0000000000210298000020010015000
49391375475ALLACH NOURA EHSAN            XX0000000000210299000020010015000
49391375478NAJJAT SOUMIA                 XX0000000000210300000020010015000
49391375480BOURQUIZ HICHAM               XX0000000000210301000020010015000
49391375481BENKRIOU SAIDA                XX0000000000210302000020010015000
49391375484SALIM YOUNESS                 XX0000000000210303000020010015000
49391375485EL MOSTAKSI SANA              XX0000000000210304000020010015000
49391375488HORR BOUTHEINA                XX0000000000210305000020010015000
49391375491BAJOURI TAMOU                 XX0000000000210306000020010015000
49391375495EL HOUARI SAID                XX0000000000210307000020010015000
49391375499ZAMAOUI MOHAMED               XX0000000000210308000020010015000
49391375500AIT HAMMOU KHADIJA            XX0000000000210309000020010015000
49391375508LAAFOUI BTISSAM               XX0000000000210310000020010015000
49391375517MAIMOUNI MERIEM               XX0000000000210311000020010015000
49391375520IMEZIREN RAMZI                XX0000000000210312000020010015000
49391375539ROUDI SAMIRA                  XX0000000000210313000020010015000
49391375571CHEIKH YOUSSEF                XX0000000000210314000020010015000
49391375572MOUSTACHI SALMAA              XX0000000000210315000020010015000
49391375578SEBBAR MARIAM                 XX0000000000210316000020010015000
49391375579BOU OUKHERS ASMA              XX0000000000210317000020010015000
49391375580DAFANI YOUSSEF                XX0000000000210318000020010015000
49391375581ELMADANI OUMNIA               XX0000000000210319000020010015000
49391375583MOHAMED OMAR-OU-BRAHIM        XX0000000000210320000020010015000
49391375593BENJELLOUL NAJOUA             XX0000000000210321000020010015000
49391375595KADDAR RACHID                 XX0000000000210322000020010015000
49391375605EL FETKHANI AMINA             XX0000000000210323000020010015000
49391375616SOUFIANE FARID                XX0000000000210324000020010015000
49391375619ENNABOULSSI FOUZIA            XX0000000000210325000020010015000
49391375623MACHROUHI MOHAMMED            XX0000000000210326000020010015000
49391375625BETIT EL MOKHTAR              XX0000000000210327000020010015000
49391375631NAJATI GHIZLANE               XX0000000000210328000020010015000
49391375632EL MOUFLIH ASMAA              XX0000000000210329000020010015000
49391375640BOUREZZA ELMOUSTAFA           XX0000000000210330000020010015000
49391375755KHAYATI LAHCEN                XX0000000000210331000020010015000
49391375774ELAIDOUNI HICHAM              XX0000000000210332000020010015000
49391375802TAKI NOURA                    XX0000000000210333000020010015000
49391375803ZAID MOHAMED                  XX0000000000210334000020010015000
49391375836FASKA ILHAM                   XX0000000000210335000020010015000
49391375845EL KARYANI AZIZ               XX0000000000210336000020010015000
49391375854SIFI HASSAN                   XX0000000000210337000020010015000
49391375878EL HARROUACH BRAHIM           XX0000000000210338000020010015000
49391375906LAMJADI BRAHIM                XX0000000000210339000020010015000
49391375935BELMEKKI LAILA                XX0000000000210340000020010015000
49391375940EL YADDALI MAHICHAINA         XX0000000000210341000020010015000
49391376136MANSOURI FATIMA ZAHRA         XX0000000000210342000020010015000
49391376142OUMEZZI HICHAM                XX0000000000210343000020010015000
49391407684ABOUTAYEB MUSTAPHA            XX0000000000210344000020010015000
49391462114OUAHID ISMAIL                 XX0000000000210345000020010015000
49391513507KHOUFALLAH HASNA              XX0000000000210346000020010015000
49391513514BENMABROUK SABAH              XX0000000000210347000020010015000
49391513521ELFAIZ SAADIA                 XX0000000000210348000020010015000
49391513564BOUALLOUCHI MOHAMED           XX0000000000210349000020010015000
49391513572AHOURRI LAILA                 XX0000000000210350000020010015000
49391513574EL AADMI MOHAMED              XX0000000000210351000020010015000
49391513578CHAMIL EL MEHDI               XX0000000000210352000020010015000
49391513581EL AKKARI HASNA               XX0000000000210353000020010015000
49391513583ABDELKHALAK YOUNES            XX0000000000210354000020010015000
49391513590BOUMEDIANE HAMID              XX0000000000210355000020010015000
49391513597MAZZAL CHEAIB                 XX0000000000210356000020010015000
49391513598RHABBARI NABIL                XX0000000000210357000020010015000
49391513600FARAS MOHAMMED                XX0000000000210358000020010015000
49391513603DAAMACH YOUSSEF               XX0000000000210359000020010015000
49391513613BAKAOUA KELTOUM               XX0000000000210360000020010015000
49391513638CHATOUANE AHMED               XX0000000000210361000020010015000
49391513639LABBAR MOHAMMED               XX0000000000210362000020010015000
49391513652LAMRAOUI BOUCHRA              XX0000000000210363000020010015000
49391513653SBAY NAIMA                    XX0000000000210364000020010015000
49391513670BANJAJ ABDENBI                XX0000000000210365000020010015000
49391513693ACHNINE RACHID                XX0000000000210366000020010015000
49391513707SOUJAA AMAL                   XX0000000000210367000020010015000
49391513714ELKHAOUAJA RADOUANE           XX0000000000210368000020010015000
49391513716MILOUDI YOUSSEF               XX0000000000210369000020010015000
49391513733BADIL MOHAMMED                XX0000000000210370000020010015000
49391513738LAFKIR RACHIDA                XX0000000000210371000020010015000
49391513740ACHIK MY ISMAIL               XX0000000000210372000020010015000
49391513741GHAOUAT MOHAMMED              XX0000000000210373000020010015000
49391513743BLATSOU TASLEM                XX0000000000210374000020010015000
49391513751EL AILI MOHAMMED              XX0000000000210375000020010015000
49391513755ABDELMOUTTALIB NAJIB          XX0000000000210376000020010015000
49391513759CHARAQA YOUNESS               XX0000000000210377000020010015000
49391513764MAZZAR HAMZAE                 XX0000000000210378000020010015000
49391513767NOUINI MOHAMMED               XX0000000000210379000020010015000
49391513776EL JALILI ILIASS              XX0000000000210380000020010015000
49391513782BOUKRIM YASSINE               XX0000000000210381000020010015000
49391513783MAJBER MOUNIR                 XX0000000000210382000020010015000
49391513787MIMOUNI YASSINE               XX0000000000210383000020010015000
49391513796MOUSTAFI ADIL                 XX0000000000210384000020010015000
49391513799EL FOUHI MOHAMMED AMINE       XX0000000000210385000020010015000
49391513804AZIZI AHMED MOHAMMED          XX0000000000210386000020010015000
49391513807NADDAM FATIMA EZZAHRA         XX0000000000210387000020010015000
49391513811EL HADOUCHI REDOUANE          XX0000000000210388000020010015000
49391513816BAKHTAOUI AMINE               XX0000000000210389000020010015000
49391513818AKOUAM SAID                   XX0000000000210390000020010015000
49391513823YANNA HANANE                  XX0000000000210392000020010015000
49391513991BERNAOUI ZINEB                XX0000000000210393000020010015000
49391513993LAROUI ZEHOUA                 XX0000000000210394000020010015000
49391514011RICH RAHMA                    XX0000000000210395000020010015000
49391514018BERNI WAFA                    XX0000000000210396000020010015000
49391514027SOUHDI SAID                   XX0000000000210397000020010015000
49391514043MOUFAKKIR ADIL                XX0000000000210398000020010015000
49391514044BAAJI SAID                    XX0000000000210399000020010015000
49391514045EL AMRI MUSTAPHA              XX0000000000210400000020010015000
49391514047BENBELAID AICHA               XX0000000000210401000020010015000
49391514050BOUAJAJ SABAH                 XX0000000000210402000020010015000
49391514061HARATI NAIMA                  XX0000000000210403000020010015000
49391514065HAMMOUCH HASNAE               XX0000000000210404000020010015000
49391514068CHAIRI AMAL                   XX0000000000210405000020010015000
49391514074BENBELAID NADIYA              XX0000000000210406000020010015000
49391514083LAGNAOUI LOUBNA               XX0000000000210407000020010015000
49391514086BOULISSE LAILA                XX0000000000210408000020010015000
49391514095OURDAL NADIA                  XX0000000000210409000020010015000
49391514096BOUGHDAD ADIL                 XX0000000000210410000020010015000
49391514106DIHAJI LAMYAE                 XX0000000000210411000020010015000
49391514109EL HAFDI ADIL                 XX0000000000210412000020010015000
49391514112MAHBOUB NAOUAL                XX0000000000210413000020010015000
49391514114EZZRHARI NADIA                XX0000000000210414000020010015000
49391514115BITCHOU SIHAM                 XX0000000000210415000020010015000
49391514119EL HAMMOUDI ASSIYA            XX0000000000210416000020010015000
49391514121EL ALAOUI HAJAR               XX0000000000210417000020010015000
49391514123CHAHID HALIMA                 XX0000000000210418000020010015000
49391514129MOUJIB RACHID                 XX0000000000210419000020010015000
49391514130ISMAOUI RACHID                XX0000000000210420000020010015000
49391514131MOUHARRIR ASMAA               XX0000000000210421000020010015000
49391514136CHTIOUI ADIL                  XX0000000000210422000020010015000
49391514137LAFTIMI RACHID                XX0000000000210423000020010015000
49391514138BENABBOU SAMYA                XX0000000000210424000020010015000
49391514144NABBAR WAFAA                  XX0000000000210425000020010015000
49391514147KAIDI YAMNA                   XX0000000000210426000020010015000
49391514151EL IDRYSY FATIMA              XX0000000000210427000020010015000
49391514152AIT IDDER NOURA               XX0000000000210428000020010015000
49391514156LASFAR DRISS                  XX0000000000210429000020010015000
49391514165NEBDAOUI NORA                 XX0000000000210430000020010015000
49391514171MABSOR SAMIRA                 XX0000000000210431000020010015000
49391514183KAHLAOUI KHADIJA              XX0000000000210432000020010015000
49391514201AMAHOUL HASSAN                XX0000000000210433000020010015000
49391514207LAMRANI LALLA HASNA           XX0000000000210434000020010015000
49391514208AZOUGUEGH EL MUSTAPHA         XX0000000000210435000020010015000
49391514213EL BACHIRY SAIDA              XX0000000000210436000020010015000
49391514222BEKRY ADYL                    XX0000000000210437000020010015000
49391514225ADEL FATIMA ZAHRA             XX0000000000210438000020010015000
49391514228BOUCHEDOR NAIMA               XX0000000000210439000020010015000
49391514229MASSAOUDI SANA                XX0000000000210440000020010015000
49391514234BAROUDA FARIDA                XX0000000000210441000020010015000
49391514236EL MANSOURI FATIMA            XX0000000000210442000020010015000
49391514240EL GHAZI SAIDA                XX0000000000210443000020010015000
49391514246HADDAD LOUBNA                 XX0000000000210444000020010015000
49391514249MEZAREA MERYEM                XX0000000000210445000020010015000
49391514250TAOUIL FATIMA                 XX0000000000210446000020010015000
49391514261EL GHAZAL SIHAM               XX0000000000210447000020010015000
49391514271SOMATI HOURIA                 XX0000000000210448000020010015000
49391514280SANDALI MOHAMED               XX0000000000210449000020010015000
49391514281ACHCHAOUI FATIMA              XX0000000000210450000020010015000
49391514282FELGHAT ABDELLAH              XX0000000000210451000020010015000
49391514284ACHEHAL MOHAMED               XX0000000000210452000020010015000
49391514285MOURHARH BOUCHRA              XX0000000000210453000020010015000
49391514287EL BIDANI FOUZI               XX0000000000210454000020010015000
49391514294EL MANDILI LALLA HASNA        XX0000000000210455000020010015000
49391514297BOUCETTA NEZHA                XX0000000000210456000020010015000
49391514298AQNOUCH MALIKA                XX0000000000210457000020010015000
49391514300HANDAJI AHLAM                 XX0000000000210458000020010015000
49391514301EL IBRAHIMI LATIFA            XX0000000000210459000020010015000
49391514302ARRAHI AZIZA                  XX0000000000210460000020010015000
49391514305LAAOUINA WAFA                 XX0000000000210461000020010015000
49391514310OUMANSOUR REDOUANE            XX0000000000210462000020010015000
49391514318EL BOUCHNANI RACHIDA          XX0000000000210463000020010015000
49391514320OUMLIL AICHA                  XX0000000000210464000020010015000
49391514339LACHGAR NAJAT                 XX0000000000210465000020010015000
49391514340LAMBARKI BATOUL               XX0000000000210466000020010015000
49391514341MAYARA AICHA                  XX0000000000210467000020010015000
49391514342EL KHOLTI KHADIJA             XX0000000000210468000020010015000
49391514344ADNAN MARIAM                  XX0000000000210469000020010015000
49391514350EDDAOUDI HASNA                XX0000000000210470000020010015000
49391514351ENNAFFAA LAMINA               XX0000000000210471000020010015000
49391514362HRIACH SOUMIA                 XX0000000000210472000020010015000
49391514390BOUKOUS RAJAA                 XX0000000000210473000020010015000
49391514397CHALLOUH HANANE               XX0000000000210474000020010015000
49391514399BENBACHIR SAMIRA              XX0000000000210475000020010015000
49391514403ZRIOUEL MERIEME               XX0000000000210476000020010015000
49391514409LAHNINE IMANE                 XX0000000000210477000020010015000
49391514411BOULAHKA HOUDA                XX0000000000210478000020010015000
49391514412LAMARTI KAOUTAR               XX0000000000210479000020010015000
49391514415BAHDA MAJDA                   XX0000000000210480000020010015000
49391514419EL BAHJA NAWAL                XX0000000000210481000020010015000
49391514424ABOUHMAD MINA                 XX0000000000210482000020010015000
49391514429FOUKAL AMAL                   XX0000000000210483000020010015000
49391514431EL BAOUDI AMINA               XX0000000000210484000020010015000
49391514440ASSAD BOUCHRA                 XX0000000000210485000020010015000
49391514447NASEF BADIA                   XX0000000000210486000020010015000
49391514449AGNAOU AICHA                  XX0000000000210487000020010015000
49391514464EL OUAHAB SAMIRA              XX0000000000210488000020010015000
49391514485KHEROUAA LOUBNA               XX0000000000210489000020010015000
49391514488CHEKYO FATIMA ZAHRA           XX0000000000210490000020010015000
49391553251TAMAOUI FARIDA                XX0000000000210491000020010015000
49391553262HAMMAD LAILA                  XX0000000000210492000020010015000
49391553266BAKKACHA LOUBNA               XX0000000000210493000020010015000
49391553267EL OUADI ZINEB                XX0000000000210494000020010015000
49391553273BELHADDAR KARIMA              XX0000000000210495000020010015000
49391553274AYCHATI MARIEM                XX0000000000210496000020010015000
49391553295ACHBOUQ NAIMA                 XX0000000000210497000020010015000
49391553296OUSBAA LOUBNA                 XX0000000000210498000020010015000
49391553302ASSAFFAR KHADIJA              XX0000000000210499000020010015000
49391553307AMZIL AZIZA                   XX0000000000210500000020010015000
49391553308CHENGLI KAOUTAR               XX0000000000210501000020010015000
49391553804NAJIA HADI                    XX0000000000210502000020010015000
49391553815FOUAD MOHSINI                 XX0000000000210503000020010015000
49391553817OUADIAE BOUKRI                XX0000000000210504000020010015000
49391553857EL MEHDI AMLOUK               XX0000000000210505000020010015000
49391553860ABDERRAHIM KARUM              XX0000000000210506000020010015000
49391553904MOSTAPHA ABDERZAK             XX0000000000210507000020010015000
49391553923FOUAD SAOUIR MANSORI          XX0000000000210508000020010015000
49391553970KHALID OUAAZIZI               XX0000000000210509000020010015000
49391553971ABDESSELAM EL WAHHABI         XX0000000000210510000020010015000
49391554012ABDALLAH MAHFOUD              XX0000000000210511000020010015000
49391554043AHMED MOUSTINE                XX0000000000210512000020010015000
49391554093SALEM BOUKHAIR                XX0000000000210513000020010015000
49391554113SAID BOUKTIB                  XX0000000000210514000020010015000
49391554126ABDESLAM ELKAMEL              XX0000000000210515000020010015000
49391554145ZAKARIA BATRAOUI              XX0000000000210516000020010015000
49391554148MOHAMED RIDA TIMLILTE         XX0000000000210517000020010015000
49391554183QADIR ABDELMAJID HICHAM       XX0000000000210518000020010015000
49391554192BELHARTI AMAL                 XX0000000000210519000020010015000
49391554194BEYAD AMINE                   XX0000000000210520000020010015000
49391554195ZIOUAL BRAHIM                 XX0000000000210521000020010015000
49391554197ELHARRAK MOHAMED              XX0000000000210522000020010015000
49391554200KACHROUD FADOUA               XX0000000000210523000020010015000
49391554203HADDIOUI ABDERRAZAK           XX0000000000210524000020010015000
49391554206BIRROU MOHAMMED               XX0000000000210525000020010015000
49391554210RGAIBI MOHAMMED SALEM         XX0000000000210526000020010015000
49391554215SAFSAFI FATIMA                XX0000000000210527000020010015000
49391554222BOUSSEKKINE ABDELLAH          XX0000000000210528000020010015000
49391554229EL-AZYZY MOULAYHFID           XX0000000000210529000020010015000
49391554230ELANSARI LOUBNA               XX0000000000210530000020010015000
49391554234ELHIMER SAIDA                 XX0000000000210531000020010015000
49391554237ABALIL ABDELAZIZ              XX0000000000210532000020010015000
49391554239KARIM MAHJOUBA                XX0000000000210533000020010015000
49391554248NAJAT JAMIL                   XX0000000000210534000020010015000
49391554251ASMA ADRAOUI                  XX0000000000210535000020010015000
49391554252AIDA JABRI                    XX0000000000210536000020010015000
49391554259FATIMA THAMMOU                XX0000000000210537000020010015000
49391554261MOHAMED ABLOUZE               XX0000000000210538000020010015000
49391554266SANAE KHALLOUQI               XX0000000000210539000020010015000
49391554268HANAN BOUTGARA                XX0000000000210540000020010015000
49391554274NORA TIZGUI                   XX0000000000210541000020010015000
49391554276ELMAHJOUB RAOUJ               XX0000000000210542000020010015000
49391554278ILHAM CHOUAOUTA               XX0000000000210543000020010015000
49391554291MARIEME HEDRANE               XX0000000000210544000020010015000
49391554300KHADIJA SAMAA                 XX0000000000210545000020010015000
49391554303NORA AKHMIM                   XX0000000000210546000020010015000
49391554304BOUCHRA HAFIDI                XX0000000000210547000020010015000
49391554321NAIMA ELAZZOUZI               XX0000000000210548000020010015000
49391554334MARIEM HAMMI                  XX0000000000210549000020010015000
49391554344MOHAMMED ELMEZIATI            XX0000000000210550000020010015000
49391554345BRAHIM MENAYCIR               XX0000000000210551000020010015000
49391554346ELMUSTAPHA SOUGRATI           XX0000000000210552000020010015000
49391554354AMINE ABID                    XX0000000000210553000020010015000
49391554359LAMIAE ELHASSNOUNI-EL-ALAOUI  XX0000000000210554000020010015000
49391554360JAMAL LOUTFI                  XX0000000000210555000020010015000
49391554362REDOUAN ALMANSUR              XX0000000000210556000020010015000
49391554376AHMED AIT TAAMART             XX0000000000210557000020010015000
49391554384MOULAY HICHAM SALFI           XX0000000000210558000020010015000
49391554387ABDELJALIL SKAITI             XX0000000000210560000020010015000
49391554391HIND FAYEK                    XX0000000000210561000020010015000
49391554393FATTOUMA ELMESBAHI            XX0000000000210562000020010015000
49391554403YOUSSEF BENIZZA               XX0000000000210563000020010015000
49391554405TAYB CHOUKRI                  XX0000000000210564000020010015000
49391554416LALLA-RAHMA EL AAKIF          XX0000000000210565000020010015000
49391554420ELMOSTAFA HIDARA              XX0000000000210566000020010015000
49391554422ILHAM ALLACH                  XX0000000000210567000020010015000
49391554427TARIK CHAHBANE                XX0000000000210568000020010015000
49391554432MOHAMMED STITOU               XX0000000000210569000020010015000
49391554433HAFID TOUGHZAOUI              XX0000000000210570000020010015000
49391554446FATIMA-ZAHRA BOUDLAL          XX0000000000210571000020010015000
49391554450HALIMA RADOUANE               XX0000000000210572000020010015000
49391554452YOUSSEF AIT DAOUA             XX0000000000210573000020010015000
49391554457ABDESSAMAD RAFI               XX0000000000210574000020010015000
49391554458BRAHIM HABLILI                XX0000000000210575000020010015000
