49390065495ARIF KHADIJA                  XX000000000020920000000020010015000
49390065497QASSAQ BOUCHRA                XX000000000020920100000020010015000
49390065714BAHTAT HASSANE                XX000000000020920200000020010015000
49390065719EZZAMRANI RACHIDA             XX000000000020920300000020010015000
49390065722OUHADI MBARK                  XX000000000020920400000020010015000
49390065734SIMOU MOHAMMED                XX000000000020920500000020010015000
49390065741MAGHRI ABDELAZIZ              XX000000000020920600000020010015000
49390065829EL YOUSFI SAMIRA              XX000000000020920700000020010015000
49390065845ADDAR ALI                     XX000000000020920800000020010015000
49390065895IKNIOUAN AMINA                XX000000000020920900000020010015000
49390065900EL MESNAOUI NOUZHA            XX000000000020921000000020010015000
49390065906YOUSSEFI LALLA MINA           XX000000000020921100000020010015000
49390065917EL ALAMI MALIKA               XX000000000020921200000020010015000
49390065944EL HADRY ABDELOUAHED          XX000000000020921300000020010015000
49390065959SALAMI LARBI                  XX000000000020921400000020010015000
49390065996GHALIBI MBARK                 XX000000000020921500000020010015000
49390066045ALAOUI LALLA KHADIJA          XX000000000020921600000020010015000
49390066188KESTRAOUI MARIA               XX000000000020921700000020010015000
49390066191EL HANOUICHI HAFIDA           XX000000000020921800000020010015000
49390066196ERRAHIOUI KHADIJA             XX000000000020921900000020010015000
49390066197BEN ALLA KARIMA               XX000000000020922000000020010015000
49390066200EL KHAFIF SOUAD               XX000000000020922100000020010015000
49390066485EL WARRASS ABDELKRIM          XX000000000020922200000020010015000
49390066561EL MAMOUN ZAHRA               XX000000000020922300000020010015000
49390066563RAKIE SAID                    XX000000000020922400000020010015000
49390068814EL BOURKHISSI FATIMA          XX000000000020922500000020010015000
49390070936ABOUKAL AICHA                 XX000000000020922600000020010015000
49390070948EL MAGOURI SAIDA              XX000000000020922700000020010015000
49390070952AMDHOUSSI ZAHRA               XX000000000020922800000020010015000
49390070954OUCHHI DRISS                  XX000000000020922900000020010015000
49390070968MESSAOUDI FATIMA ZAHRA        XX000000000020923000000020010015000
49390070981DAOUI REDOUAN                 XX000000000020923100000020010015000
49390070982BOUANGA ISMAIL                XX000000000020923200000020010015000
49390071224QAOUJI SAMIRA                 XX000000000020923300000020010015000
49390071226MOUYANE LATIFA                XX000000000020923400000020010015000
49390071235OUAZIZ DRISS                  XX000000000020923500000020010015000
49390071236SKIOUS ABDERRAHMANE           XX000000000020923600000020010015000
49390071247ZERFAOUI MERIEM               XX000000000020923800000020010015000
49390071249ABDELMALEK ABDESLAM           XX000000000020923900000020010015000
49390071252ALLAOUI MOHAMED               XX000000000020924000000020010015000
49390071259SABIR SALOUA                  XX000000000020924100000020010015000
49390071279OULAD SIDI AISSA EL IDRISSI ZAXX000000000020924200000020010015000
49390071285BEDDOUCH FATIMA               XX000000000020924300000020010015000
49390071290EL AIDOUNI SALOUA             XX000000000020924400000020010015000
49390071291ALOUANE LATIFA                XX000000000020924500000020010015000
49390071335EL EDRISSI EL HASSAN          XX000000000020924700000020010015000
49390071351CHOUIEKH ABDELAZIZ            XX000000000020924800000020010015000
49390071352AMECHIR AMINA                 XX000000000020924900000020010015000
49390071357SADEQ ABDELMAJID              XX000000000020925000000020010015000
49390071358BOUKAABA FOUAD                XX000000000020925100000020010015000
49390071360BOUGASSA ABDELAAZIZ           XX000000000020925200000020010015000
49390071361CHEBBAR ABDELHAQ              XX000000000020925300000020010015000
49390071367AOURAGH ABDESSAMAD            XX000000000020925400000020010015000
49390071500BEN HADDOU ALLAL              XX000000000020925500000020010015000
49390071508LEBBACHE FATIHA               XX000000000020925600000020010015000
49390071517EL MOUTANABBIH TOURIA         XX000000000020925700000020010015000
49390071518GHANI M HAMED                 XX000000000020925800000020010015000
49390071529AKRAB ZAID                    XX000000000020925900000020010015000
49390071591BOUAZZAOUI ABDELFATAH         XX000000000020926100000020010015000
49390071601SAIYED KHALID                 XX000000000020926200000020010015000
49390071631AYOUBI MUSTAPHA               XX000000000020926300000020010015000
49390071633OUARGAGA IDDIR                XX000000000020926400000020010015000
49390071644NACIRI HAMID                  XX000000000020926500000020010015000
49390071649EL HAMIDI MOULAY EL MAHDI     XX000000000020926600000020010015000
49390071684MEQBOUL YAHYA                 XX000000000020926700000020010015000
49390075518ABDELLAOUI SAIDA              XX000000000020926800000020010015000
49390075519JORIO CHARAF                  XX000000000020926900000020010015000
49390075816BOUALLOU MOHAMMED             XX000000000020927000000020010015000
49390075864EL MOUTAKI MOHAMED            XX000000000020927100000020010015000
49390075897OUHAMOU GHIZLANE              XX000000000020927200000020010015000
49390075938KHERAZI MOLOUD                XX000000000020927300000020010015000
49390075939KOULAN FADILA                 XX000000000020927400000020010015000
49390075998MAADANI HAFIDA                XX000000000020927500000020010015000
49390077210AIT ALI OUHMED ABDERRAHIM     XX000000000020927600000020010015000
49390078726BAKALI EL HOUSSNI             XX000000000020927900000020010015000
49390078748EL ADILA AICHA                XX000000000020928100000020010015000
49390080233LAHYANI BOUZIAN               XX000000000020928200000020010015000
49390080262JAOUATE HICHAM                XX000000000020928300000020010015000
49390080648KANDIL MOHAMMED               XX000000000020928400000020010015000
49390080666BOUHLAL KAOUTAR               XX000000000020928500000020010015000
49390081371SITLI FATIHA                  XX000000000020928600000020010015000
49390081388SAKIT RABIA                   XX000000000020928700000020010015000
49390081394LAMINE MALIKA                 XX000000000020928800000020010015000
49390081395ESSATTE BOUCHRA               XX000000000020928900000020010015000
49390082121ATIK LATIFA                   XX000000000020929000000020010015000
49390082136NAKACH NAIMA                  XX000000000020929100000020010015000
49390082138HATTAB ZAHIRA                 XX000000000020929200000020010015000
49390082150BELFATHA KARIMA               XX000000000020929300000020010015000
49390082153EL OUAHBI NAJOUA              XX000000000020929400000020010015000
49390082157JABBOUJ HALIMA                XX000000000020929600000020010015000
49390082158FATIH SAADIA                  XX000000000020929700000020010015000
49390082162RACHID ABDELOIHID             XX000000000020929800000020010015000
49390082164DEMNANE SAADIA                XX000000000020929900000020010015000
49390082168RIAJI MAJDA                   XX000000000020930000000020010015000
49390082172KHAIDARI ASMA                 XX000000000020930100000020010015000
49390082176EL HAMSS RACHIDA              XX000000000020930200000020010015000
49390082178EL BAHLOULI KHADIJA           XX000000000020930300000020010015000
49390082676EL AMRAOUI KARIMA             XX000000000020930400000020010015000
49390082686BCHIRI NADIA                  XX000000000020930500000020010015000
49390083877ZERRAB AICHA                  XX000000000020930600000020010015000
49390083946WAJFI REDOUANE                XX000000000020930700000020010015000
49390083948BOUCHRA BELMAJDOUB            XX000000000020930800000020010015000
49390083984HABLI SMAIL                   XX000000000020930900000020010015000
49390086701BEKRI AICHA                   XX000000000020931000000020010015000
49390086855LAKHDAR LAHCEN                XX000000000020931100000020010015000
49390096606EL GOUMI EL AYECH             XX000000000020931200000020010015000
49390096698SALLAY MOHAMED                XX000000000020931300000020010015000
49390096792OUMAIR YOUSSEF                XX000000000020931400000020010015000
49390098740OUIRDANI HABIB                XX000000000020931500000020010015000
49390098759BADRAOUI OMAR                 XX000000000020931600000020010015000
49390112172AISSAOUI AMAR                 XX000000000020931700000020010015000
49390124366M TALSSI HOUARI               XX000000000020931800000020010015000
49390126005LAFROUHI ABDELKADER           XX000000000020931900000020010015000
49390133958MEZIANE NOUR EDDINE           XX000000000020932000000020010015000
49390136267EL ALLAOUI JAMAL              XX000000000020932100000020010015000
49390136305EL MOUFTAHI MUSTAPHA          XX000000000020932200000020010015000
49390136318BAAMAR MOHAMED SALEM          XX000000000020932300000020010015000
49390136357HAJJI DRISS                   XX000000000020932400000020010015000
49390136360TAMIRO LHOUARI                XX000000000020932500000020010015000
49390142532KHALDI RACHID                 XX000000000020932600000020010015000
49390142803TAHAR MOHAMED                 XX000000000020932700000020010015000
49390159201FANNICH HAFID                 XX000000000020932800000020010015000
49390162316EL MAHI BOUMEDIENE            XX000000000020932900000020010015000
49390165856HENNOU ALI                    XX000000000020933000000020010015000
49390183506SRIARI CHARKI                 XX000000000020933100000020010015000
49390183511OUAGAGUE TAIEB                XX000000000020933200000020010015000
49390183515JAMALI RACHID                 XX000000000020933300000020010015000
49390183540BENHADDI ABDELALI             XX000000000020933400000020010015000
49390183574YAFOU ALLAH YASSINE           XX000000000020933500000020010015000
49390183604OULD OUADDA HASSANE           XX000000000020933600000020010015000
49390183612ELHAYA ABDELOUAHAD            XX000000000020933700000020010015000
49390183654EL MANSOURY ALI               XX000000000020933800000020010015000
49390183683ACHCHAK MOHAMED REDA          XX000000000020933900000020010015000
49390189256KHARRAZ KASSEM                XX000000000020934000000020010015000
49390189296MANSOURI MOHAMED              XX000000000020934100000020010015000
49390189586ZERYOUH MOHAMMED              XX000000000020934200000020010015000
49390219627ALIOUI REDOUANE               XX000000000020934300000020010015000
49390219635FAL COU OMAR                  XX000000000020934400000020010015000
49390219644ARAB ABDELKADER               XX000000000020934500000020010015000
49390219689DAOUDI MOHAMED                XX000000000020934600000020010015000
49390219753EL BOUKHARI HADJ BEN SELLAM   XX000000000020934700000020010015000
49390225107HAY ALLAHI MOHAMMED EL AMINE  XX000000000020934800000020010015000
49390225248BOUAZIZI MOHAMED              XX000000000020934900000020010015000
49390225271CHOUKRI JALAL                 XX000000000020935000000020010015000
49390225343EL MAYMOUNI AHMED             XX000000000020935100000020010015000
49390225396ZAHRI ABDERRAHIM              XX000000000020935200000020010015000
49390228654EL JANATI EL IDRISSI HAMID    XX000000000020935300000020010015000
49390235440ERRAMI MOHAMED                XX000000000020935400000020010015000
49390235492ID HAMOU JAMAA MOHAMED        XX000000000020935500000020010015000
49390246917SAIDI ABDELAZIZ               XX000000000020935600000020010015000
49390246923OUIDIR LAHOUCINE              XX000000000020935700000020010015000
49390246928BOULAHSEN M HAMED             XX000000000020935800000020010015000
49390255083JABBOUR RACHID                XX000000000020935900000020010015000
49390255177EL YOUSSOUFI CHERIF           XX000000000020936000000020010015000
49390265474ZIDOUNI EL MOSTAFA            XX000000000020936100000020010015000
49390265483CHEMSY ABDELALEM              XX000000000020936200000020010015000
49390269199EL AMINE ABDALLAH             XX000000000020936300000020010015000
49390269556EL BOUZIDI MOHAMED            XX000000000020936400000020010015000
49390269796RAJI ABDEL ILAH               XX000000000020936500000020010015000
49390279066MADANI ALAOUI LALLA AICHA     XX000000000020936600000020010015000
49390279067NINEFLAS RACHIDA              XX000000000020936700000020010015000
49390279171ELZZAYIA MAYMOUNA             XX000000000020936800000020010015000
49390279194OUAZZANI CHAHDI MALIKA        XX000000000020936900000020010015000
49390282006SEBBATA HASSAN                XX000000000020937000000020010015000
49390282009RHIZLANE ABOUBKER             XX000000000020937100000020010015000
49390286022OUADIFI MOHAMMED              XX000000000020937200000020010015000
49390295704ADAOUI FATIMA                 XX000000000020937300000020010015000
49390295724RAI MOUKHTAR                  XX000000000020937400000020010015000
49390298861HAJJAMI LAILA                 XX000000000020937500000020010015000
49390298994LISSAN EL HAK BOUCHRA         XX000000000020937600000020010015000
49390300543JOHRI MOHAMMED                XX000000000020937700000020010015000
49390301235IREKMANE LHOUCINE             XX000000000020937800000020010015000
49390312048ZIANI FAKHAR CHAKIB           XX000000000020937900000020010015000
49390312051MERIMI MIMOUN                 XX000000000020938000000020010015000
49390315428TAIBI CHOUAIB                 XX000000000020938100000020010015000
49390316780HADDI LALLA TFARAH            XX000000000020938200000020010015000
49390318287BERRI FATIMA                  XX000000000020938400000020010015000
49390318536ADOU RACHID                   XX000000000020938500000020010015000
49390318613MEKENCY FATIMA ZAHRA          XX000000000020938600000020010015000
49390318629MOUJERIFE ZINEB               XX000000000020938700000020010015000
49390318631AGRAT KHADIJA                 XX000000000020938800000020010015000
49390318684EL JAI MERIEM                 XX000000000020938900000020010015000
49390318692HDA NADIA                     XX000000000020939000000020010015000
49390323903HASNAOUI KHADIJA              XX000000000020939100000020010015000
49390323907SADNI HAFIDA                  XX000000000020939200000020010015000
49390323920SLIMANI LATIFA                XX000000000020939300000020010015000
49390323930OUDAHA RACHIDA                XX000000000020939400000020010015000
49390323935AZEROUAL FATIMA               XX000000000020939500000020010015000
49390323955FORCA EL KBIRA                XX000000000020939600000020010015000
49390323975EN NHIRI RACHIDA              XX000000000020939700000020010015000
49390323977ZIHA DRISS                    XX000000000020939800000020010015000
49390323978MOUTTOU OMAR                  XX000000000020939900000020010015000
49390324085TAYEB MINA                    XX000000000020940000000020010015000
49390326311MOKHTARI AICHA                XX000000000020940100000020010015000
49390327526BOUAB SALWA                   XX000000000020940200000020010015000
49390327572BRITEL NAJIB                  XX000000000020940300000020010015000
49390327614JAMAL HAFIDA                  XX000000000020940400000020010015000
49390327643LAMSIKINE HAFIDA              XX000000000020940500000020010015000
49390327659SAOUDI FATIHA                 XX000000000020940600000020010015000
49390327686GUANNI RACHID                 XX000000000020940700000020010015000
49390331803ZENFOUD MOSTAFA               XX000000000020940800000020010015000
49390331807RAQI ABDERRAZZAK              XX000000000020940900000020010015000
49390331845TAHDI HASSAN                  XX000000000020941000000020010015000
49390331918CHEIKHE MAOULAININE MIMOUNA   XX000000000020941100000020010015000
49390336685SBAI ABDELMOURHIT             XX000000000020941200000020010015000
49390346013ADOU JAMAL                    XX000000000020941300000020010015000
49390346102AOUNE HOURIA                  XX000000000020941400000020010015000
49390346116EL BAYENA EL BATOUL           XX000000000020941500000020010015000
49390346126LAMGHARI MOHAMMED             XX000000000020941600000020010015000
49390346149ZOUHAILI SAADIA               XX000000000020941700000020010015000
49390346216OUANZIL MAJDA                 XX000000000020941800000020010015000
49390346222EL KOUACH EL HASSANIA         XX000000000020941900000020010015000
49390346224EL HAMZAOUI TOURIA            XX000000000020942000000020010015000
49390346262SAHMAOUI MALIKA               XX000000000020942100000020010015000
49390346297BELLORHZAL HOURIA             XX000000000020942200000020010015000
49390350539IBRAHIMI ABDELGHANI           XX000000000020942300000020010015000
49390350547BENJILALI SABAH               XX000000000020942400000020010015000
49390353806MOUTAI ABDELHAQ               XX000000000020942500000020010015000
49390370301HACHABI ABDELKRIM             XX000000000020942600000020010015000
49390370375NOUSSAIR ALI                  XX000000000020942700000020010015000
49390370402MAMMAD AHMED                  XX000000000020942800000020010015000
49390370403EL ALAOUI LALLA SAADIA        XX000000000020942900000020010015000
49390370404BOUSSELHAM LATIFA             XX000000000020943000000020010015000
49390370406TAHIR ABDESSAMAD              XX000000000020943100000020010015000
49390370409MALIKI LALLA AMINA            XX000000000020943200000020010015000
49390370418AGOURAM KENZA                 XX000000000020943300000020010015000
49390370510BOUKAL MOHAMED                XX000000000020943400000020010015000
49390370535BENSALEM ABDELILAH            XX000000000020943500000020010015000
49390370646EL OUADI OUAFAA               XX000000000020943600000020010015000
49390370648BAMENSOUR JEMAA               XX000000000020943700000020010015000
49390371004BOULAOUI ABDELKRIM            XX000000000020943800000020010015000
49390371019RAHALI IDRISSI NADIA          XX000000000020943900000020010015000
49390371033TASSETTATE BRAHIM             XX000000000020944000000020010015000
49390371102ANIBA ABDELILAH               XX000000000020944100000020010015000
49390371104BOUNANI MAIMOUNA              XX000000000020944200000020010015000
49390371173GOURJEM ZINEB                 XX000000000020944300000020010015000
49390371211MYATT SAID                    XX000000000020944400000020010015000
49390371241EL MANSOUR ABDERRAHIM         XX000000000020944500000020010015000
49390372237DAR EL AIN MOHAMED            XX000000000020944600000020010015000
49390372241CHAKI ABDENNAIM               XX000000000020944700000020010015000
49390372242SOLO AZZOUZ                   XX000000000020944800000020010015000
49390372245NADER MOKHTAR                 XX000000000020944900000020010015000
49390372250IMEZAR ZINEB                  XX000000000020945000000020010015000
49390372254BENQASSMI SAAIDA              XX000000000020945100000020010015000
49390372255ABDELKHALEK EL MAHJOUB        XX000000000020945200000020010015000
49390372260SABER MUSTAPHA                XX000000000020945300000020010015000
49390372275EZZEBBOURI RACHID             XX000000000020945400000020010015000
49390372276EL FAROUKI ABID               XX000000000020945500000020010015000
49390376330BOULAID KHALIDA               XX000000000020945600000020010015000
49390380911JILBAB FATIMA                 XX000000000020945700000020010015000
49390381119ELOUARRADI FATIMA             XX000000000020945800000020010015000
49390381176LAHDA KHADIJA                 XX000000000020945900000020010015000
49390381177RAZZOUKI FATIMA               XX000000000020946000000020010015000
49390388566BENCHERQUI MOHAMMED           XX000000000020946100000020010015000
49390388568AIT EL MOUDEN MOHAMMED        XX000000000020946200000020010015000
49390390429JANDALI ABDERRAHIM            XX000000000020946300000020010015000
49390390444MOUHSINE AHMED                XX000000000020946400000020010015000
49390390525BOUNADEM FATIMA               XX000000000020946500000020010015000
49390390545MENSKI AZIZ                   XX000000000020946600000020010015000
49390394197CHOUAA ABDELOUAHED            XX000000000020946700000020010015000
49390394272EL BELGHITI MOHAMED           XX000000000020946800000020010015000
49390394369MENGOUCHI KHADIJA             XX000000000020946900000020010015000
49390394376ECHCHAHDI NEZHA               XX000000000020947000000020010015000
49390394702JAKANI JAMAA                  XX000000000020947100000020010015000
49390394890EL KHAIR YATTOU               XX000000000020947200000020010015000
49390396239BENHAMAD ZAHRA                XX000000000020947300000020010015000
49390396245BOUHAMIDI LALLA MERIEM        XX000000000020947400000020010015000
49390396375BAHAJJI NADIA                 XX000000000020947500000020010015000
49390396487HIDARE KHALID                 XX000000000020947600000020010015000
49390396802ARJAOUI FATIMA                XX000000000020947700000020010015000
49390396817BOUNADAH MOHAMED              XX000000000020947800000020010015000
49390396822ABDEDAIM NAIMA                XX000000000020947900000020010015000
49390396856ZIANI MOHAMMED                XX000000000020948000000020010015000
49390397019ELATI SAKINA                  XX000000000020948100000020010015000
49390397022MRANI RACHIDA                 XX000000000020948200000020010015000
49390397049AMHOUD MINA                   XX000000000020948300000020010015000
49390397059BOUSSAQSOU ABDELLAH           XX000000000020948400000020010015000
49390397068JANNAD ABDERRAHIM             XX000000000020948500000020010015000
49390397077LEMSELLAK EL MAHDI            XX000000000020948600000020010015000
49390397146BOUQARTACHA CHAFIQ            XX000000000020948700000020010015000
49390397153CHERKAOUI LALLA NEZHA         XX000000000020948800000020010015000
49390397155KOUZA FOUZIA                  XX000000000020948900000020010015000
49390397184ABBADI MUSTAPHA               XX000000000020949000000020010015000
49390397186MOUSSAOUI HASSAN              XX000000000020949100000020010015000
49390397893ALLAOUI ADDI                  XX000000000020949200000020010015000
49390399313LACHHEB ABDELAZIZ             XX000000000020949300000020010015000
49390399339HAMRI MOHAMED                 XX000000000020949400000020010015000
49390399771CHEMLAL AICHA                 XX000000000020949500000020010015000
49390399772CHARKANI ZHOR                 XX000000000020949600000020010015000
49390399775HABBAS YAMNA                  XX000000000020949700000020010015000
49390399822BENASSOU ADDI                 XX000000000020949800000020010015000
49390399842AIT HASSOU YOUSSEF            XX000000000020949900000020010015000
49390399892SAFDI JAMILA                  XX000000000020950000000020010015000
49390656816EL YAHYAOUI MOHAMED           XX000000000020950100000020010015000
49390183613DOUIRAT HAMID                 XX000000000020950200000020010015000
49390708169ESSADIK KHADIJA               XX000000000020950300000020010015000
49390708184BENRADI SAIDA                 XX000000000020950400000020010015000
49390708188BOURRAGAT JAMILA              XX000000000020950500000020010015000
49390708327DRISSI MY OMAR                XX000000000020950600000020010015000
49390708370DAFALI MY ABDERRAHMAN         XX000000000020950700000020010015000
49390711539DBIYEB SOUAD                  XX000000000020950800000020010015000
49390711592IBRAHIMI SAID                 XX000000000020950900000020010015000
49390713576BICHOU SEKKOU                 XX000000000020951000000020010015000
49390713738LAKHRISSI FARAJY              XX000000000020951100000020010015000
49390713790OUZZIR SIHAM                  XX000000000020951300000020010015000
49390713842ZEBBADI TAMOU                 XX000000000020951400000020010015000
49390713967ABRADA MOHAMED                XX000000000020951500000020010015000
49390714549MENTAGUI YOUNES               XX000000000020951600000020010015000
49390714565BOUHRIGA ABDELLAHI            XX000000000020951700000020010015000
49390714580AFARIAD EL MOSTAFA            XX000000000020951800000020010015000
49390715091EL MAKAOUI OMAR               XX000000000020951900000020010015000
49390715093EL WADNAKSSI NAJIA            XX000000000020952000000020010015000
49390716988BOUMEDIENE RACHID             XX000000000020952100000020010015000
49390716991EL HARRARI RKIA               XX000000000020952200000020010015000
49390718407OUABID NAJAT                  XX000000000020952300000020010015000
49390718411NAYMI MUSTAPHA                XX000000000020952400000020010015000
49390718412FARIDI ABDELOUAHID            XX000000000020952500000020010015000
49390718413SAHRAOUI HADDOU               XX000000000020952600000020010015000
49390720648SAMOUT TAHAR                  XX000000000020952700000020010015000
49390720653HSAINE LATIFA                 XX000000000020952800000020010015000
49390720750ENNAFFATI KHADIJA             XX000000000020952900000020010015000
49390724311MAMOUNI ALAOUI IDRISS         XX000000000020953000000020010015000
49390724364AYYAD YAMINA                  XX000000000020953100000020010015000
49390724568REGHAI ABDELILAH              XX000000000020953200000020010015000
49390724580M HAIDRA SAADIA               XX000000000020953300000020010015000
49390724648EL GARRAB FATIMA              XX000000000020953400000020010015000
49390724649QACI MOHAMMED                 XX000000000020953500000020010015000
49390724661RAOUNI ABDELHAKIM             XX000000000020953600000020010015000
49390724662CHOUAIBI EL MAHJOUB           XX000000000020953700000020010015000
49390724680MAROUAN MOHAMMED              XX000000000020953800000020010015000
49390724690MAKHLOUFI ABDELGHANI          XX000000000020953900000020010015000
49390724765LAAROUSSI LARBI               XX000000000020954100000020010015000
49390724771TAKI ABDELKRIM                XX000000000020954200000020010015000
49390724889SABRI MUSTAPHA                XX000000000020954300000020010015000
49390724891ADERMANE AOMAR                XX000000000020954400000020010015000
49390726447AMEURAOUI ZEHRA               XX000000000020954500000020010015000
49390726452LAMINI LALLA ZINEB            XX000000000020954600000020010015000
49390726514ABDOU MUSTAPHA                XX000000000020954700000020010015000
49390726565LYAMANI HALIMA                XX000000000020954800000020010015000
49390726705LAGHRIRI LHASSANE             XX000000000020954900000020010015000
49390726718BOUHADDOUCH EL HADI           XX000000000020955000000020010015000
49390726725OUADDA MIMOUN                 XX000000000020955100000020010015000
49390726770EL GHACHOUI FATIHA            XX000000000020955200000020010015000
49390731640REKAB MOHAMED                 XX000000000020955300000020010015000
49390731671BOURHIM MBAREK                XX000000000020955400000020010015000
49390731757ADDAHBI EL KOURI              XX000000000020955500000020010015000
49390731874JAMALI SAADIA                 XX000000000020955600000020010015000
49390732214SADEK HALIMA                  XX000000000020955700000020010015000
49390732656EL GHARRAS HAFIDA             XX000000000020955800000020010015000
49390732756MISKIN TOURIA                 XX000000000020955900000020010015000
49390732759ISAFIANI MALIKA               XX000000000020956000000020010015000
49390732876AZIZI JAMILA                  XX000000000020956100000020010015000
49390744666AIT ALLA MOHAMED              XX000000000020956300000020010015000
49390744743LIAMANI KHALID                XX000000000020956400000020010015000
49390744923ALLIOUI MOHAMED               XX000000000020956500000020010015000
49390744960BOUAICHI SOUMIA               XX000000000020956600000020010015000
49390758611LIMAM BRAHIM                  XX000000000020956700000020010015000
49390758612KHALDI FATIMA                 XX000000000020956800000020010015000
49390758701LHAMDANIA MUSTAPHA            XX000000000020956900000020010015000
49390758704LOUKILI HAFIDA                XX000000000020957000000020010015000
49390758705LAMRABET ABDELOUAHID          XX000000000020957100000020010015000
49390189326ANHARI MOHAMED                XX000000000020957200000020010015000
49390759804ADDAOU ASMAE                  XX000000000020957300000020010015000
49390759958IBN EL AMIN EL AALAMI A       XX000000000020957400000020010015000
49390759959LAHMAR NOURDINE               XX000000000020957500000020010015000
49390759972BERKAOUI RABHA                XX000000000020957600000020010015000
49390760308EZZINE ABDERRAHIM             XX000000000020957700000020010015000
49390760329MOUNTAKA AHMED                XX000000000020957800000020010015000
49390760367LISSER NADIA                  XX000000000020957900000020010015000
49390760368IBADISSEN HACHEM              XX000000000020958000000020010015000
49390760429CHEMITE MOHAMMED              XX000000000020958200000020010015000
49390760440ZAHRANE SAID                  XX000000000020958300000020010015000
49390760448KACIMI MUSTAPHA               XX000000000020958400000020010015000
49390760483OUARBIA MOHAMED               XX000000000020958600000020010015000
49390760488GUERRANI MOHAMED              XX000000000020958700000020010015000
49390760636SALIMI SAIDA                  XX000000000020958800000020010015000
49390760637BOUDAK ELHASSANE              XX000000000020958900000020010015000
49390769300EL KORAANI FATIMA             XX000000000020959000000020010015000
49390769318EL AMROUSSI KHALID            XX000000000020959100000020010015000
49390769338SIHI KHADIJA                  XX000000000020959200000020010015000
49390773016DRISSI FATIMA                 XX000000000020959300000020010015000
49390773017DRISSI EL MEHDI               XX000000000020959400000020010015000
49390773033BOUDDIN HLIMA                 XX000000000020959500000020010015000
49390773121AMHARECH ABDELMAJD            XX000000000020959700000020010015000
49390773122KHETTOUCH RABIA               XX000000000020959800000020010015000
49390773146AIT BOUHLAL SIDI YOUSSEF      XX000000000020959900000020010015000
49390773149ALAOUI HAKIM MOULAY HFID      XX000000000020960000000020010015000
49390774511AFKIR ABDELKRIM               XX000000000020960100000020010015000
49390774554SIAD MOULAY MOSTAPHA          XX000000000020960200000020010015000
49390774586MAGGA MOHAMED                 XX000000000020960300000020010015000
49390774590BOUMEZZOUGH KHADIJA           XX000000000020960400000020010015000
49390774597BELHAOU HALIMA                XX000000000020960500000020010015000
49390774614BOUTALEB LALLA ASMAA          XX000000000020960600000020010015000
49390774615BOUKADDOUR SAMIRA             XX000000000020960700000020010015000
49390774796AIT SAID MOHAMED              XX000000000020960800000020010015000
49390776252NFISSI NADIA                  XX000000000020960900000020010015000
49390776253BENCHRIF MOULAY EL HASSAN     XX000000000020961000000020010015000
49390228320LAKHNOUSSI ALI                XX000000000020961100000020010015000
49390777808MAROUI DRISS                  XX000000000020961200000020010015000
49390777824EL FHAIEL ABDELAZIZ           XX000000000020961300000020010015000
49390777877EL KHAOUDI KANZA              XX000000000020961400000020010015000
49390777895EL FAIDI FATIMA               XX000000000020961500000020010015000
49390777897ABDERASSOUL KHADIJA           XX000000000020961600000020010015000
49390777900BENNANI ABDELALI              XX000000000020961700000020010015000
49390777907EZZAHID OMAR                  XX000000000020961800000020010015000
49390777952ABDATI SIDATI                 XX000000000020961900000020010015000
49390777955IMOURIG MINA                  XX000000000020962000000020010015000
49390777959BAHOUH HAMID                  XX000000000020962100000020010015000
49390777965TAZROUTI ABDELKADER           XX000000000020962200000020010015000
49390228634BECHANI MOHAMED               XX000000000020962400000020010015000
49390778021ZAIDI SOUAAD                  XX000000000020962500000020010015000
49390778040AMMAR MAJIDA                  XX000000000020962600000020010015000
49390778046BELGUITI LAYLA                XX000000000020962700000020010015000
49390778077HASNI HAMID                   XX000000000020962800000020010015000
49390782346JORJI MUSTAPHA                XX000000000020962900000020010015000
49390782480FARIDI RQUIA                  XX000000000020963000000020010015000
49390782492ABKARI AHMED                  XX000000000020963100000020010015000
49390782517BENJEBBOUR LARBI              XX000000000020963200000020010015000
49390782535EL MAAROUFI MOHAMED           XX000000000020963300000020010015000
49390782580EL JAIDI KHADIJA              XX000000000020963400000020010015000
49390782804EL BARAKA NOUREDDINE          XX000000000020963500000020010015000
49390782808EL YAZIDI MOUNIR              XX000000000020963600000020010015000
49390782812MKIKA ZOHRA                   XX000000000020963700000020010015000
49390782815AYAD ILHAM                    XX000000000020963800000020010015000
49390782820AHADAOUI HASSAN               XX000000000020963900000020010015000
49390782829CHAOU NAIMA                   XX000000000020964000000020010015000
49390782837NACIRI ABDELJALIL             XX000000000020964100000020010015000
49390782846ANOUAR SALAH                  XX000000000020964200000020010015000
49390782861HAJJAMI MOHAMMED              XX000000000020964300000020010015000
49390782923MOUNIR ABDELKARIM             XX000000000020964400000020010015000
49390782931CHOUKRI HASSAN                XX000000000020964500000020010015000
49390786242EL BOUANANI NAJAT             XX000000000020964600000020010015000
49390786268SAID JAMILA                   XX000000000020964700000020010015000
49390786276EL HARA SOUAD                 XX000000000020964800000020010015000
49390786303LAADIM HLIMA                  XX000000000020964900000020010015000
49390786310DAAYF SOUAD                   XX000000000020965000000020010015000
49390786312FELLAH NASSIRA                XX000000000020965100000020010015000
49390786320ISMAILI ALAOUI HASSANIA       XX000000000020965300000020010015000
49390786323NAAIM MOULOUD                 XX000000000020965400000020010015000
49390786328BENAISSA FATIMA               XX000000000020965500000020010015000
49390786329HASMI ABDELMJID               XX000000000020965600000020010015000
49390786337BENBAKH NADIA                 XX000000000020965700000020010015000
49390786338ZEHRAOUI MUSTAPHA             XX000000000020965800000020010015000
49390786340EL MHAMMEDI BOCHRA            XX000000000020965900000020010015000
49390786341SIDI ATHMANE ABDESLAME        XX000000000020966000000020010015000
49390786343AHLRGUIBI MAIMOUNA SALMA      XX000000000020966100000020010015000
49390786346KHARIJAH MINA                 XX000000000020966200000020010015000
49390786347EZZINE ELMOSTAFA              XX000000000020966300000020010015000
49390786350ERRAHMOUNI RQUIA              XX000000000020966400000020010015000
49390786353CHAMRANI ZAHRA                XX000000000020966500000020010015000
49390786358EL BOUKILI SAID               XX000000000020966600000020010015000
49390786361MOUDDEN MILOUD                XX000000000020966700000020010015000
49390786409AKTAINI ABDELAZIZ             XX000000000020966800000020010015000
49390786417JMILI FATIMA                  XX000000000020966900000020010015000
49390786419DOUIEB SOAD                   XX000000000020967000000020010015000
49390786424REMAOUI LATIFA                XX000000000020967100000020010015000
49390786426ABID LATIFA                   XX000000000020967200000020010015000
49390786452EL FAZAZI ZOUBIDA             XX000000000020967300000020010015000
49390788935TOUGHZAOUI MUSTAPHA           XX000000000020967400000020010015000
49390788991ESSABBAK LAILA                XX000000000020967500000020010015000
49390788993EZ ZAIDI JILALI               XX000000000020967600000020010015000
49390789045AIT LARBI MOHAMED             XX000000000020967700000020010015000
49390789096KHLIFI ZAHRA                  XX000000000020967800000020010015000
49390789097KALKHA HANIA                  XX000000000020967900000020010015000
49390789141ENNAOUI ABDELHAQ              XX000000000020968000000020010015000
49390789143ESSOULI ABOUBAKER             XX000000000020968100000020010015000
49390789148SALAMA FATIMA                 XX000000000020968200000020010015000
49390789153ISMAILI LEKBIR                XX000000000020968300000020010015000
49390789251AMINOU RABHA                  XX000000000020968400000020010015000
49390789252BOUHADDOU HASSANIA            XX000000000020968500000020010015000
49390789284BEDDOUZ BRAHIM                XX000000000020968600000020010015000
49390835487SAMMAH FATIHA                 XX000000000020968700000020010015000
49390835500AHL MBAREK MOHAMED            XX000000000020968800000020010015000
49390835603BELKHALFI ZAKIA               XX000000000020969000000020010015000
49390835648IGHACHANE KASSEM              XX000000000020969100000020010015000
49390835684OUJEDDI ABDELAAZIZ            XX000000000020969200000020010015000
49390835742DINIA HANA                    XX000000000020969300000020010015000
49390836912EL ABDELLAOUI FATIMA ZOHRA    XX000000000020969400000020010015000
49390836928ZAOUG KALTOUME                XX000000000020969500000020010015000
49390837113ESSOFI AHMED                  XX000000000020969600000020010015000
49390837118JOHRI NADIA                   XX000000000020969700000020010015000
49390837120EL FHAIEL OIFAE               XX000000000020969800000020010015000
49390837124LEKHBIA NOUR REDINE           XX000000000020970000000020010015000
49390837126IDRISSI TAFRAOUTI SAMIRA      XX000000000020970100000020010015000
49390837127JAAFARI RACHID                XX000000000020970200000020010015000
49390837189DIHI YOUSSEF                  XX000000000020970300000020010015000
49390837197KHAZZARI AHMED                XX000000000020970500000020010015000
49390837202DAOUDI FATMA                  XX000000000020970600000020010015000
49390837206HOUMARE NAJAT                 XX000000000020970700000020010015000
49390837333FADIL MOHAMMED                XX000000000020970800000020010015000
49390837334MOUKDAD SALIMA                XX000000000020970900000020010015000
49390837398BENSASSI KHADIJA              XX000000000020971000000020010015000
49390837421ACHEHROUR YOUNESS             XX000000000020971100000020010015000
49390837427KHALYL ABDELHAMID             XX000000000020971200000020010015000
49390837471LAMRABET MOHAMMED             XX000000000020971300000020010015000
49390837472ICHOUHAR ABDELKRIM            XX000000000020971400000020010015000
49390837500EL AMRANI WAFAA               XX000000000020971500000020010015000
49390837504CHAQUOUR LHOUCINE             XX000000000020971600000020010015000
49390837505OUKHAYI LAHOUSSINE            XX000000000020971700000020010015000
49390837512SELLAKMINE MOHAMED            XX000000000020971800000020010015000
49390837515FOUASSI NAIMA                 XX000000000020971900000020010015000
49390837523LACHANE ISMAIL                XX000000000020972000000020010015000
49390837539MAHRI MOHAMED                 XX000000000020972100000020010015000
49390837692SOUNI MUSTAPHA                XX000000000020972200000020010015000
49390838010INEFLASS HOUDA                XX000000000020972300000020010015000
49390838064OUAGAGUE ABDERRAHMANE         XX000000000020972400000020010015000
49390844609ZANAFI YOUSSEF                XX000000000020972500000020010015000
49390844801OUALI FATIMA                  XX000000000020972600000020010015000
49390844859TAHNINE KHADIJA               XX000000000020972700000020010015000
49390846485ASSILA MAHJOUBA               XX000000000020972800000020010015000
49390846660BENYOUCEF ABDERRAZZAK         XX000000000020972900000020010015000
49390846769CHALLA NEZHA                  XX000000000020973000000020010015000
49390847101CHABBAK DRISS                 XX000000000020973100000020010015000
49390847954DRISSI FATIMA                 XX000000000020973200000020010015000
49390855248AZOKA RKIA                    XX000000000020973300000020010015000
49390855256GHALMI ZINEB                  XX000000000020973400000020010015000
49390855278ZOUGAT NAJIA                  XX000000000020973500000020010015000
49390855282AADIDOU NEZHA                 XX000000000020973600000020010015000
49390855285EL HAY MALIKA                 XX000000000020973700000020010015000
49390855431SAFIR AICHA                   XX000000000020973800000020010015000
49390856425SEFRAOUI ASMAHANE             XX000000000020973900000020010015000
49390856464GNAOUI SAADIA                 XX000000000020974000000020010015000
49390862056BAKKARI HOURIA                XX000000000020974100000020010015000
49390862058EL MENANI NADIA               XX000000000020974200000020010015000
49390862062SIDQI KHADIJA                 XX000000000020974300000020010015000
49390868558CHAMANE MINA                  XX000000000020974400000020010015000
49390869182BARAD SAIDA                   XX000000000020974500000020010015000
49390869209RAHMANI KHADIJA               XX000000000020974600000020010015000
49390265136EL MALKI EL HAJ               XX000000000020974700000020010015000
49390869239AMRANI RACHIDA                XX000000000020974800000020010015000
49390869247GHASSOULI HAFIDA              XX000000000020974900000020010015000
49390869251ZIAT FILALI FATIHA            XX000000000020975000000020010015000
49390869252EL MOUSTAQIM YAMNA            XX000000000020975100000020010015000
49390871665SOULEIMANI KELTOUM            XX000000000020975200000020010015000
49390872097KOUISSEH KHADDOUJ             XX000000000020975300000020010015000
49390872913EL MOUHALHAL SAIDA            XX000000000020975400000020010015000
49390872945MANNA EL HAIBA                XX000000000020975500000020010015000
49390875755JAMALI WAFAA                  XX000000000020975600000020010015000
49390875764OUAMMAR KHADIJA               XX000000000020975700000020010015000
49390876071BOUSSAHFA KHADIJA             XX000000000020975800000020010015000
49390876092DARDAK AATIKA                 XX000000000020976000000020010015000
49390876152ZAIMI HANANE                  XX000000000020976100000020010015000
49390876156LAHLOU BAHIJA                 XX000000000020976200000020010015000
49390876160TAHRI RABIA                   XX000000000020976300000020010015000
49390893531TAOUFIKI OMAR                 XX000000000020976400000020010015000
49390893704BELBEKR NAJI                  XX000000000020976500000020010015000
49390893789OUBELLA TAYEB                 XX000000000020976700000020010015000
49390893913ELHARBI MALIKA                XX000000000020976800000020010015000
49390323956EL KHALLADI ALLAL             XX000000000020976900000020010015000
49390350526GHAZI SAID                    XX000000000020977000000020010015000
49390696056AIT NASSER BRAHIM             XX000000000020977100000020010015000
49390896522GHARIOUI FATIMA               XX000000000020977200000020010015000
49390896537HOU ABDELKADER                XX000000000020977300000020010015000
49390896540AMARIR MOHAMMED               XX000000000020977400000020010015000
49390896547EL QADDOURI FATNA             XX000000000020977500000020010015000
49390896575MABROUK MOHAMED               XX000000000020977600000020010015000
49390896580AIT OUKHALI LATIFA            XX000000000020977700000020010015000
49390896582ABAHAZEM ABDATI               XX000000000020977800000020010015000
49390896865HARNAFI LATIFA                XX000000000020977900000020010015000
49390897996ABDATI MALIKA                 XX000000000020978000000020010015000
49390898336LGO MIMOUN                    XX000000000020978100000020010015000
49390898352MARCHICH MOHAMED              XX000000000020978200000020010015000
49390898365BARRAMI FATIHA                XX000000000020978300000020010015000
49390899740KDAD FATIMA                   XX000000000020978400000020010015000
49390758789BAHAJ NADIA                   XX000000000020978500000020010015000
49390899794ELIDRISSI MEKKI               XX000000000020978600000020010015000
49390899795BERKAL AICHA                  XX000000000020978700000020010015000
49390946270EL OUTMANI ZOHRA              XX000000000020978800000020010015000
49390953198CHAKI EZZEHIRA                XX000000000020978900000020010015000
49390962553BOUKADDOUR ZOULIKHA           XX000000000020979100000020010015000
49390966181CHIGUER AICHA                 XX000000000020979200000020010015000
49390976360ESSAADI MARIA                 XX000000000020979300000020010015000
49390976607DADDA FATIHA                  XX000000000020979400000020010015000
49390977213ALIOUA KHADIJA                XX000000000020979500000020010015000
49390894229BOURHIM M HAMED               XX000000000020979600000020010015000
49390978739NAKHILI FATIMA                XX000000000020979700000020010015000
49390978741BOULAHIA FOUZIYA              XX000000000020979800000020010015000
49390978750EL FANFANI SAIDA              XX000000000020979900000020010015000
49390979680OUCHAO ZAHRA                  XX000000000020980000000020010015000
49390979783RMICH MINA                    XX000000000020980100000020010015000
49390979785NIGGA MALIKA                  XX000000000020980200000020010015000
49390979788NABIL NADIA                   XX000000000020980300000020010015000
49391000081SABRI BOUCHAIB                XX000000000020980400000020010015000
49391000096BARKA FATIMA                  XX000000000020980500000020010015000
49391000117ABAHAR BOUCHRA                XX000000000020980600000020010015000
49391000118EL BOURAKADI KHADIJA          XX000000000020980700000020010015000
49391000803MAHBOUB FATIMA                XX000000000020980800000020010015000
49391000808RHADBANE MINA                 XX000000000020980900000020010015000
49391000811BENNOUR SELOUA                XX000000000020981000000020010015000
49391000817LAKHLAIDI TOURIYA             XX000000000020981100000020010015000
49391000827ENNABATE FATIHA               XX000000000020981200000020010015000
49391000829LAKHAL ABDELLAH               XX000000000020981300000020010015000
49391000830LAMHIOUI FATIMA               XX000000000020981400000020010015000
49391001297KHAI KHADIJA                  XX000000000020981500000020010015000
49391001305FENNOUS MALIKA                XX000000000020981600000020010015000
49391001311LAZAR AICHA                   XX000000000020981700000020010015000
49391001384HOUCAIN HANANE                XX000000000020981800000020010015000
49391001394EL KEOUALI LATIFA             XX000000000020981900000020010015000
49391001399YASSINE ZOUHRA                XX000000000020982000000020010015000
49391001406QOTBI MOUNIA                  XX000000000020982100000020010015000
49391001460BOUKHENFAR AICHA              XX000000000020982200000020010015000
49391002340SAHIL ABDESLAM                XX000000000020982300000020010015000
49391002370MALKI MOHAMMED                XX000000000020982400000020010015000
49391002503BROURI FATIMA                 XX000000000020982500000020010015000
49391043258MERZGUIOUI MOHAMED            XX000000000020982600000020010015000
49391054385FAKHIR EDDINE SOUAD           XX000000000020982700000020010015000
49391054623ELKADDOURI RACHIDA            XX000000000020982900000020010015000
49391054627CHARIAI ABDERRAHIM            XX000000000020983000000020010015000
49391054629RJIMATI HASSAN                XX000000000020983100000020010015000
49391054631ZAHRI ABDERRAZAK              XX000000000020983200000020010015000
49391054633RIKHAT MINA                   XX000000000020983300000020010015000
49391054638AGOURRAM ABDERRAHIM           XX000000000020983400000020010015000
49391054647BENHIDA ABDELGHANI            XX000000000020983500000020010015000
49391054654MOUH ABDELAZIZ                XX000000000020983600000020010015000
49391054661DOGHMI MOHAMMED               XX000000000020983700000020010015000
49391054665KHADDOU OMAR                  XX000000000020983800000020010015000
49391054666EL MESBAHI MOHAMED            XX000000000020983900000020010015000
49391054672HOUR HAKIMA                   XX000000000020984000000020010015000
49391054681KINANY MOHAMMED               XX000000000020984100000020010015000
49391054682BENRHMOUCHE MOHAMMED          XX000000000020984200000020010015000
49391054684EL MAHI MOUSSA                XX000000000020984300000020010015000
49391054697AZIM AICHA                    XX000000000020984400000020010015000
49391054699MEKOUAR ADIL                  XX000000000020984500000020010015000
49391054724ABERDIN ZAHRA                 XX000000000020984600000020010015000
49391054726BENNASSEF EL GHLIMI           XX000000000020984700000020010015000
49391054728EL AIZA SAID                  XX000000000020984800000020010015000
49391054730DAFANI RAHHAL                 XX000000000020984900000020010015000
49391054770KREKER BAHIJA                 XX000000000020985000000020010015000
49391054771LAMGHARI NAZHA                XX000000000020985100000020010015000
49391054774ELMARZAK FATIMA               XX000000000020985200000020010015000
49391054790BELMAHJOUB JAMAL              XX000000000020985300000020010015000
49391054794SABRI FAWZIA                  XX000000000020985400000020010015000
49391054795BOUISSA SOUMIA                XX000000000020985500000020010015000
49391054803BOUALLAGA AMINA               XX000000000020985600000020010015000
49391054810LAHRICHI IMANE                XX000000000020985700000020010015000
49391054812ABRADA FATIMA                 XX000000000020985800000020010015000
49391054813BENAZZI MINA                  XX000000000020985900000020010015000
49391054814ES SEMLALI AICHA              XX000000000020986000000020010015000
49391054815EL OUFIR SOUAD                XX000000000020986100000020010015000
49391054827BAROURI AZIZ                  XX000000000020986200000020010015000
49391054838CHERQAOUI MOHAMMED ETTAHIR    XX000000000020986300000020010015000
49391054840EDDAH EL HAJ                  XX000000000020986400000020010015000
49391054851BOUKHARI JAOUAD               XX000000000020986500000020010015000
49391054886DAOUDI MOHAMMED               XX000000000020986600000020010015000
49391054894MORCHID HAYAT                 XX000000000020986700000020010015000
49391054898RACHIDI ZINEB                 XX000000000020986800000020010015000
49391054987YOUSFI AMAL                   XX000000000020986900000020010015000
49391054997RGUIBI DRISSIA                XX000000000020987000000020010015000
49391055003ID ELKACHA AICHA              XX000000000020987100000020010015000
49391055005TOUBAJI MAHJOUBA              XX000000000020987200000020010015000
49391055008HAMANI MOHAMED                XX000000000020987300000020010015000
49391055011SEKKAT MOUNA                  XX000000000020987400000020010015000
49391055012RHIDOUANI MOHAMMED            XX000000000020987500000020010015000
49391055037ENNOUHI SAADEDDINE            XX000000000020987600000020010015000
49391055038AZOUA MOHAMED                 XX000000000020987700000020010015000
49391055154HAJJI YOUNESS                 XX000000000020987800000020010015000
49391055156BOUSSETA MOUNIA               XX000000000020987900000020010015000
49391055198LHAINI KHADIJA                XX000000000020988000000020010015000
49391055219HAYATE MOHAMMED               XX000000000020988100000020010015000
49391055263EL MOKH HOUDA                 XX000000000020988200000020010015000
49391055266CHERTI TAZI OUADIA            XX000000000020988300000020010015000
49391055271BENNOUNA TOURIYA              XX000000000020988400000020010015000
49391055280EL MEJJATI KHALID             XX000000000020988500000020010015000
49391055281MAROUAN NAJAT                 XX000000000020988600000020010015000
49391055286NAJI FATIMA                   XX000000000020988700000020010015000
49391055288BRITEL DRISS                  XX000000000020988800000020010015000
49391055289HAMMOUR AHMED                 XX000000000020988900000020010015000
49391055290BACHIRI EL BAUCHTAOUI         XX000000000020989000000020010015000
49391055291TOUZANI NADIA                 XX000000000020989100000020010015000
49391055307BENRHMOUCHE KARIM             XX000000000020989200000020010015000
49391055314EL HMIM SAIDA                 XX000000000020989300000020010015000
49391055319DRISSI BELGASMI SIDI MOHAMME  XX000000000020989400000020010015000
49391055320BOULAAMANE RAHMA              XX000000000020989500000020010015000
49391055330ABAKARIM MINA                 XX000000000020989600000020010015000
49391055346SABRI LAHOUCINE               XX000000000020989700000020010015000
49391055356RIBGOU NAIMA                  XX000000000020989900000020010015000
49391055359ABOUHRIA SAMIA                XX000000000020990000000020010015000
49391055361SLAMA MOHAMED                 XX000000000020990100000020010015000
49391055379DHAIBI SARA                   XX000000000020990300000020010015000
49391055384ES SAID AHMED                 XX000000000020990400000020010015000
49391055385FADIL ABDELMJID               XX000000000020990500000020010015000
49391055388HRIMACHE ABDELKADER           XX000000000020990600000020010015000
49391055391CHERQAOUI MOHAMMED            XX000000000020990700000020010015000
49391055392EL AJROUDI DRISS              XX000000000020990800000020010015000
49391055406EDDOQ TOURIA                  XX000000000020990900000020010015000
49391055407FATHI AZIZA                   XX000000000020991000000020010015000
49391055408IAZOUZAN FATIMA               XX000000000020991100000020010015000
49391055409BENMESSAOUD ABDERRAHIM        XX000000000020991200000020010015000
49391055410HIMDI FATIHA                  XX000000000020991300000020010015000
49391129825OUAFI KARIMA                  XX000000000020991400000020010015000
49391142647BOURJLATE ISMAIL              XX000000000020991500000020010015000
49391142671BENKHALLOUQ MOHAMED           XX000000000020991600000020010015000
49391142675ABDELHAQ KHADIR               XX000000000020991700000020010015000
49391142677MAZIGHA MOHAMMED              XX000000000020991800000020010015000
49391142687ANOUAR MOHAMED CHAFIQ         XX000000000020992000000020010015000
49391142691AZOUA MUSTAPHA                XX000000000020992100000020010015000
49391142713FAIK BOUCHRA                  XX000000000020992300000020010015000
49391142722ZIKAR FATNA                   XX000000000020992400000020010015000
49391142729MACHFOUA NABILA               XX000000000020992500000020010015000
49391142735KHATORI NAIMA                 XX000000000020992600000020010015000
49391142755BENNANI IMANE                 XX000000000020992700000020010015000
49391142758NOUIJI HAYAT                  XX000000000020992800000020010015000
49391142766AIT BOUICHCHOU BOUCHRA        XX000000000020992900000020010015000
49391142775EL MOUTAOUKIL LAMIAA          XX000000000020993000000020010015000
49391142789MAGANI RACHIDA                XX000000000020993100000020010015000
49391142802HASSANE NORA                  XX000000000020993300000020010015000
49391142803HAMOUROU JAMILA               XX000000000020993400000020010015000
49391142807EL MASYKY FATIHA              XX000000000020993500000020010015000
49391142817RAFIK AICHA                   XX000000000020993600000020010015000
49391142821KASSIMI KHALID                XX000000000020993700000020010015000
49391142824ESSENOUSI FATIMA ZOHRA        XX000000000020993800000020010015000
49391142826EL HALIMI RIDA                XX000000000020993900000020010015000
49391142829BOUMNIDEL ANISSA              XX000000000020994000000020010015000
49391142830TALHA SOUMAYA                 XX000000000020994100000020010015000
49391142836BERD HANANE                   XX000000000020994200000020010015000
49391142837YASSINE KARIMA                XX000000000020994300000020010015000
49391142841SENHAJI AICHA                 XX000000000020994400000020010015000
49391142845SLAOUI KHADIJA                XX000000000020994500000020010015000
49391142915ABADY MOHAMED                 XX000000000020994600000020010015000
49391142925OULABASSE KHADOUJ             XX000000000020994700000020010015000
49391142934GUERTITE IDRISS               XX000000000020994900000020010015000
49391143042SEBBAR LOUBNA                 XX000000000020995000000020010015000
49391143044ZAROUALI CHAKKORI OTMAN       XX000000000020995100000020010015000
49391143051EL JARHAOUI NEZHA             XX000000000020995200000020010015000
49391143054TAHIRI MY ABDELAZIZ           XX000000000020995300000020010015000
49391143061BOUDIR FATIHA                 XX000000000020995500000020010015000
49391143065TAHIRI NOURA                  XX000000000020995600000020010015000
49391143066CHTATOU HASSANE               XX000000000020995700000020010015000
49391143068AIT IDER KHADIJA              XX000000000020995800000020010015000
49391143074IDHAMOUJAMA LAHCEN            XX000000000020996000000020010015000
49391143080EL KEMIA BENAISSA             XX000000000020996100000020010015000
49391143081OUAZZANI TOUHAMI FOUAD        XX000000000020996200000020010015000
49391143096TANTANE ABDELALI              XX000000000020996300000020010015000
49391143100OUDRHIRI KHADIJA              XX000000000020996400000020010015000
49391143126LAMZOURI SAID                 XX000000000020996500000020010015000
49391143130MOUAILY SAID                  XX000000000020996600000020010015000
49391143143CHAKIR NADIA                  XX000000000020996700000020010015000
49391143149ZIOUANI MOURAD                XX000000000020996800000020010015000
49391143318BENTAYEK HAFID                XX000000000020996900000020010015000
49391143320KLIBI HATIM                   XX000000000020997000000020010015000
49391143322EZ ZITOUNI HABBAZ             XX000000000020997100000020010015000
49391143328QESSAD HASSAN                 XX000000000020997200000020010015000
49391143330RAKCHO MOHAMMED               XX000000000020997300000020010015000
49391143331AIT BOUDAR RABHA              XX000000000020997400000020010015000
49391143333MOFADEL HASSAN                XX000000000020997500000020010015000
49391143338JANATI NAJAT                  XX000000000020997600000020010015000
49391143368OUMARI LAHOUCINE              XX000000000020997800000020010015000
49391143369ACHABAK ABDELILAH             XX000000000020997900000020010015000
49391143385SAKINE NOURADDINE             XX000000000020998300000020010015000
49391143391EL KAMLI SAID                 XX000000000020998400000020010015000
49391143392FAIZ FARIDA                   XX000000000020998500000020010015000
49391143397EL KHARBOUCHI HAMID           XX000000000020998600000020010015000
49391168808ERRADE BENAISSA               XX000000000020998700000020010015000
49391168823EL BADAOUI ABDELLAH           XX000000000020998800000020010015000
49391168824BOUJEMRI LAHOUCINE            XX000000000020998900000020010015000
49391168831ZERDAHI NADIA                 XX000000000020999000000020010015000
49391168832ZAIOUD FATIHA                 XX000000000020999100000020010015000
49391168837MARHBA MALIKA                 XX000000000020999200000020010015000
49391168838TAJE EDDINE FAIZA             XX000000000020999300000020010015000
49391168843BACHKAR ZAHIRA                XX000000000020999400000020010015000
49391168844RADI FATIMA                   XX000000000020999500000020010015000
49391168848JABIR RACHIDA                 XX000000000020999600000020010015000
49391168862OURIZ LATIFA                  XX000000000020999700000020010015000
49391168864MEROUANE MBARKA               XX000000000020999800000020010015000
49391168867LAGHMADI SAMIRA               XX000000000020999900000020010015000
49391168873HILAL BADIA                   XX000000000021000000000020010015000
49391168886LAGRAMEH RABIA                XX000000000021000100000020010015000
49391168887BIADI ILHAM                   XX000000000021000200000020010015000
49391168890ZAID LATIFA                   XX000000000021000300000020010015000
49391168893NASSIHI RABIAA                XX000000000021000400000020010015000
49391168894FOUADI NAJAT                  XX000000000021000500000020010015000
49391168895ABIDA SOUAD                   XX000000000021000600000020010015000
49391168900EL HABCHI KHADIJA             XX000000000021000700000020010015000
49391168905BENABBOU SOUAD                XX000000000021000800000020010015000
49391168906BENHAMOU KARIMA               XX000000000021000900000020010015000
49391168914CHIGUER BELAID                XX000000000021001000000020010015000
49391168915LABIYAD BOUCHRA               XX000000000021001100000020010015000
49391168916EZZIDOUNI ELMIMOUNI NAIMA     XX000000000021001200000020010015000
49391168918SAAJI MINA                    XX000000000021001300000020010015000
49391168921ESSABI ZAHRA                  XX000000000021001400000020010015000
49391168925BOUMENJEL NAJAT               XX000000000021001500000020010015000
49391168939SBAA NAJAT                    XX000000000021001600000020010015000
49391168942EL MELLIHI SAMIRA             XX000000000021001700000020010015000
49391168946MAIMOUNI MOHAMMED             XX000000000021001800000020010015000
49391168956IGIOUI LATIFA                 XX000000000021001900000020010015000
49391168960ARHIL KHADIJA                 XX000000000021002000000020010015000
49391169011AL KADAOUI SAMIRA             XX000000000021002100000020010015000
49391169013LAAZIBI NAJIHA                XX000000000021002200000020010015000
49391169029MIZOU ADIL                    XX000000000021002300000020010015000
49391169035SALHI HASSANE                 XX000000000021002400000020010015000
49391169054BOUTKROUMT FOUAD              XX000000000021002500000020010015000
49391169058RGHIOUI KAOUTAR               XX000000000021002600000020010015000
49391169069MOUSSAOUI MOHAMED             XX000000000021002700000020010015000
49391169073BOUSSENNA MINA                XX000000000021002800000020010015000
49391169081BOULAHLIB LALLA SAADIA        XX000000000021002900000020010015000
49391169082BANA ABDELOUAHED              XX000000000021003000000020010015000
49391169085ACHANDIR ABDELLAH             XX000000000021003100000020010015000
49391169109HAFDI MOHAMED                 XX000000000021003200000020010015000
49391169113KHALOUTA ABDELOUAHED          XX000000000021003300000020010015000
49391169129BAHLOU HAFIDA                 XX000000000021003400000020010015000
49391169133HAMEDDINE ABDELMJID           XX000000000021003500000020010015000
49391169136SOUIBA MERIEM                 XX000000000021003600000020010015000
49391169180EL HAIBA KHALID               XX000000000021003700000020010015000
49391169205ACHAK RIDOINE                 XX000000000021003800000020010015000
49391169208REDDAD MOHAMED                XX000000000021003900000020010015000
49391169216MAIDEN ADIL                   XX000000000021004000000020010015000
49391169218JAMJAMA SAID                  XX000000000021004100000020010015000
49391169224EL JAHOUANI NOUR EDDINE       XX000000000021004200000020010015000
49391169242IBNECHRYF HASNA               XX000000000021004300000020010015000
49391169252DAMKAL MOHAMED                XX000000000021004400000020010015000
49391169270NIFI RADOUANE                 XX000000000021004500000020010015000
49391169276LAAFISSE HICHAM               XX000000000021004600000020010015000
49391169295KALOULI ABDELKADER            XX000000000021004700000020010015000
49391169297TLOUSSI LAAZIZA               XX000000000021004800000020010015000
49391169299EL HARRADI KHADIJA            XX000000000021004900000020010015000
49391169307HAMDOUCH MALIKA               XX000000000021005000000020010015000
49391169308MERNISSI BOUJAMAA             XX000000000021005100000020010015000
49391169311ADDOU HASSAN                  XX000000000021005200000020010015000
49391169317BOULAALA BOUBCHER             XX000000000021005300000020010015000
49391169327LAABOUDI IBTIHAJ              XX000000000021005400000020010015000
49391169331HAMITI AMAL                   XX000000000021005500000020010015000
49391169332BOUAROUQ AZIZA                XX000000000021005600000020010015000
49391169333DOUKKALI SAIDA                XX000000000021005700000020010015000
49391169354EL IDRISSI MOULAY IDRISS      XX000000000021005800000020010015000
49391169364BNINECH HASSAN                XX000000000021005900000020010015000
49391169383MRANI MERYEME                 XX000000000021006000000020010015000
49391169400EL FARGALI MOHAMED            XX000000000021006100000020010015000
49391169450BENALI FATIMA ZOHRA           XX000000000021006200000020010015000
49391169459LAARIBI ABDELKADER            XX000000000021006300000020010015000
49391169470AKERMACH ISSAM                XX000000000021006400000020010015000
49391169480EL FILALI YOUSSEF             XX000000000021006500000020010015000
49391169486RHOUNI MUSTAPHA               XX000000000021006600000020010015000
49391169490ESSERADI MOHAMED              XX000000000021006700000020010015000
49391169504FETTAH ALI                    XX000000000021006800000020010015000
49391169506EL BOUKFAOUI MY RACHID        XX000000000021006900000020010015000
49391169511BARKA HASSAN                  XX000000000021007000000020010015000
49391169520CHAQRI YOUSSEF                XX000000000021007100000020010015000
49391169521NAFZAOUI HASSANIA             XX000000000021007200000020010015000
49391169523CHAHID MOHAMED                XX000000000021007300000020010015000
49391169524KHRIBECH AZYZ                 XX000000000021007400000020010015000
49391169528LAMINI SIDI MOHAMED           XX000000000021007500000020010015000
49391169532BOURAMDANE ABDELAAZIZ         XX000000000021007600000020010015000
49391169534BADRI OMAR                    XX000000000021007700000020010015000
49391169537AKDIM AHMED                   XX000000000021007800000020010015000
49391169542DAHMANI NAJIM                 XX000000000021007900000020010015000
49391169555ES SOULAMI ABDERRAHIM         XX000000000021008000000020010015000
49391169559QADRI NOR EDDINE              XX000000000021008100000020010015000
49391169560BAKKACHI MOHAMED              XX000000000021008200000020010015000
49391169569ZIANI AICHA                   XX000000000021008300000020010015000
49391169580ELOUARDI TOURIA               XX000000000021008400000020010015000
49391169583MRIBAT NAIMA                  XX000000000021008500000020010015000
49391169585ANAIOUB FATIMA ZAHRA          XX000000000021008600000020010015000
49391169594EL OIROIR MBARK               XX000000000021008700000020010015000
49391169596BEN LAZRAK FATIMA             XX000000000021008800000020010015000
49391169600SLIMANI BOUCHRA               XX000000000021008900000020010015000
49391169602IDELMOU ZAHRA                 XX000000000021009000000020010015000
49391169617EL HALOUANI JAMILA            XX000000000021009100000020010015000
49391169633AYYAD ZOUBIDA                 XX000000000021009200000020010015000
49391169638EL ABKARI NAJIA               XX000000000021009300000020010015000
49391169639RHARARA KHADIJA               XX000000000021009400000020010015000
49391169651ESSAOUDI ABDELTIF             XX000000000021009500000020010015000
49391169661CHAABI BADIAA                 XX000000000021009600000020010015000
49391169663KANNANE ZOHRA                 XX000000000021009700000020010015000
49391169667HANDAZE RAJAA                 XX000000000021009800000020010015000
49391169668OUENZA HOUDA                  XX000000000021009900000020010015000
49391169669SANAA MAKANI                  XX000000000021010000000020010015000
49391169671BAYADARA RACHIDA              XX000000000021010100000020010015000
49391169674SAMIT MALIKA                  XX000000000021010200000020010015000
49391169684CHARKI ASMAE                  XX000000000021010300000020010015000
49391169689KHADIJA TIOUASSIOUINE         XX000000000021010400000020010015000
49391169695BAROUDA SOUAD                 XX000000000021010500000020010015000
49391169696CHAOUKI HAKIMA                XX000000000021010600000020010015000
49391169702ESHAIMI ASMAE                 XX000000000021010700000020010015000
49391169703BEN HSAIN HOUDA               XX000000000021010800000020010015000
49391169714HAJJAJ NOUR EL HOUDA          XX000000000021010900000020010015000
49391169720LAZRAGUE LAAZIZA              XX000000000021011000000020010015000
49391169721BEN HADDADI SAMIRA            XX000000000021011100000020010015000
49391169723TAMOUH KELTOUM                XX000000000021011200000020010015000
49391169734LAROUSSI HASSAN               XX000000000021011300000020010015000
49391169742EL AMRAOUI SIDI MOUH          XX000000000021011400000020010015000
49391169744SAHRAOUI HANANE               XX000000000021011500000020010015000
49391169747OUARAINI FATIMA               XX000000000021011600000020010015000
49391169751MAAZOUZ NAIMA                 XX000000000021011700000020010015000
49391169754EL MOUNACHIT FADNA            XX000000000021011800000020010015000
49391169791ARDDICHE LAHCEN               XX000000000021011900000020010015000
49390899744RIKHAT FATIMA                 XX000000000021012000000020010015000
49391229748ABDELKAHAR NACEUR             XX000000000021012100000020010015000
49391229755BOUTAKY YOUNES                XX000000000021012200000020010015000
49391229757KRAICHY ABDELKABIR            XX000000000021012300000020010015000
49391229758BEN YACHOU AHMED              XX000000000021012400000020010015000
49391229767JAIT HICHAM                   XX000000000021012500000020010015000
49391229768DARDOURI MOHAMED              XX000000000021012600000020010015000
49391229772BOUGDALI MOHAMED              XX000000000021012700000020010015000
49391229780BOUSSAKKA MOHAMED ALI         XX000000000021012900000020010015000
49391229781BOUJOUJOU BRAHIM              XX000000000021013000000020010015000
49391229788HMAMOU BRAHIM                 XX000000000021013100000020010015000
49391229789BENBRAHIM EL HASSAN           XX000000000021013200000020010015000
49391229792LAGHZAL SOUILEM               XX000000000021013300000020010015000
49391229798BOUMATA EL HASSAN             XX000000000021013600000020010015000
49391229833MUSTAPHA EL ANSARI            XX000000000021013700000020010015000
49391229835LALLA LADIBA MAALAININE       XX000000000021013800000020010015000
49391229838NAJEM BRAHIM                  XX000000000021013900000020010015000
49391229846ACHBANI BRAHIM                XX000000000021014000000020010015000
49391229853BELAYDI YOUNESS               XX000000000021014100000020010015000
49391229854ARSSI FAHD                    XX000000000021014200000020010015000
49391229864MAKBOULI KHADIJA              XX000000000021014300000020010015000
49391229866WAHIB HASSAN                  XX000000000021014400000020010015000
49391229875BOUAIADI NOUZHA               XX000000000021014500000020010015000
49391229884SOUIYAH MAHMOUD               XX000000000021014600000020010015000
49391229891EZZAHOULI BRAHIM              XX000000000021014700000020010015000
49391229893BOUTEMNI M BAREK              XX000000000021014800000020010015000
49391229898AYZOUK MOHAMED                XX000000000021014900000020010015000
49391229902EL FATOUAKI ABDERRAHIM        XX000000000021015000000020010015000
49391229906RAMZANE CHAFIK                XX000000000021015100000020010015000
49391229907MELLAGUI KHALID               XX000000000021015200000020010015000
49391229915TOUIL HICHAM                  XX000000000021015300000020010015000
49391229995BENALLAL ABDELLAH             XX000000000021015400000020010015000
49391230000AIT AADI RABIAA               XX000000000021015500000020010015000
49391230005ESMAALI FOUZIYA               XX000000000021015600000020010015000
49391230045BENIZ ABDELLAH                XX000000000021015700000020010015000
49391230060SHIMI MOHAMED                 XX000000000021015800000020010015000
49391230072JBOUB MOHAMED                 XX000000000021015900000020010015000
49391230097OUAHMANE BRAHIM               XX000000000021016000000020010015000
49391230113ZAID RAHAL                    XX000000000021016100000020010015000
49391230141BENLEHROUKI LAHSEN            XX000000000021016200000020010015000
49391230154TOUATI LMEHDI                 XX000000000021016300000020010015000
49391230176BAKOUH FARIDA                 XX000000000021016400000020010015000
49391230206HALIM DRISS                   XX000000000021016600000020010015000
49391230218BRICHA SAID                   XX000000000021016700000020010015000
49391230224OULAOUCH NABIL                XX000000000021016800000020010015000
49391230309ESSOUBKI ABDERRAHIM           XX000000000021016900000020010015000
49391230310MACHFOUA MUSTAPHA             XX000000000021017000000020010015000
49391230311QADI HANANE                   XX000000000021017100000020010015000
49391230317NAKACH ABDERRAHMAN            XX000000000021017200000020010015000
49391230470OUMIMOUNE FATIMA              XX000000000021017300000020010015000
49391230474MANSOURI YASSIN               XX000000000021017400000020010015000
49391230475RAHMANI FATNA                 XX000000000021017500000020010015000
49391230479KESSOU KHADIJA                XX000000000021017600000020010015000
49391230481ALAHOUI KAMAL                 XX000000000021017700000020010015000
49391230488ABKARI BOUAMAR                XX000000000021017800000020010015000
49391230500MOUNIM RACHID                 XX000000000021017900000020010015000
49391230516ASSEFIANI MOHAMMED LARBI      XX000000000021018000000020010015000
49391230521BENBA ESSAID                  XX000000000021018100000020010015000
49391230523BENHIDA MOHAMED HALIM         XX000000000021018200000020010015000
49391230526ACHERGUI RACHID               XX000000000021018300000020010015000
49391230530AIT BOULAID MOHAMED           XX000000000021018400000020010015000
49391230531EL HASSANE RIDOUANE           XX000000000021018500000020010015000
49391230533ABOULISSANE SAID              XX000000000021018600000020010015000
49391230547MEKAOUI TAOUFIK               XX000000000021018700000020010015000
49391230557ZEJLY FATIMA                  XX000000000021018800000020010015000
49391230562BENHIDA NAJAT                 XX000000000021018900000020010015000
49391230575NEMROUCH NAOUFAL              XX000000000021019000000020010015000
49391230616ZHAD ALI                      XX000000000021019100000020010015000
49391230617TAH MOSTAFA                   XX000000000021019200000020010015000
49391230631MACHE HANANE                  XX000000000021019300000020010015000
49391230641SAMI FATIHA                   XX000000000021019400000020010015000
49391230644ERRACHIDI FAOUZIA             XX000000000021019500000020010015000
49391230650ZAGHI NAOUAL                  XX000000000021019600000020010015000
49391230669MORJANE AICHA                 XX000000000021019700000020010015000
49391230670MEADANI FIHRIA                XX000000000021019800000020010015000
49391230671ALIF JAMILA                   XX000000000021019900000020010015000
49391230672SAIDI HANANE                  XX000000000021020000000020010015000
49391230675EL QANDALI SAMIRA             XX000000000021020100000020010015000
49391230679RIZQI DALILA                  XX000000000021020200000020010015000
49391230680NAIT MOUSSA AICHA             XX000000000021020300000020010015000
49391230687CHEMAA LATIFA                 XX000000000021020400000020010015000
49391230689CHAIRI SAMIRA                 XX000000000021020500000020010015000
49391242642SAAD FOUZIA                   XX000000000021020600000020010015000
49391246650EL MESSAOUDI ABDELLAH         XX000000000021020700000020010015000
49391272271MALIKI NEZHA                  XX000000000021020800000020010015000
49391272280HIJAZI KARIMA                 XX000000000021020900000020010015000
49391272285BANNID YAMINA                 XX000000000021021000000020010015000
49391272286ZITOUNI JAMILA                XX000000000021021100000020010015000
49391272287EL YAZIOUI KARIM              XX000000000021021200000020010015000
49391272288ELOUAHDI LATIFA               XX000000000021021300000020010015000
49391272293KACHADE KHADIJA               XX000000000021021400000020010015000
49391272314RAMLY CHAIBIA                 XX000000000021021500000020010015000
49391272324EL KAHL MOHAMED LAGHDAF       XX000000000021021600000020010015000
49391272474IZIKI NAJIMA                  XX000000000021021700000020010015000
49391272484CHAFI HAMID                   XX000000000021021800000020010015000
49391272498EL MENSIFI BRAHIME            XX000000000021021900000020010015000
49391272499ZENATI SABRINE                XX000000000021022000000020010015000
49391272620ILLOUSSAMEN NOUAMA            XX000000000021022100000020010015000
49390978693OUTROUHALTE FATIMA            XX000000000021022200000020010015000
49391272670BRITEL KHADIJA                XX000000000021022300000020010015000
49391272671EL BOUZIDI ABDELILAH          XX000000000021022400000020010015000
49391272674EL KOSS SIF-EDDINE            XX000000000021022500000020010015000
49391272819SERKOUH LAHBIB                XX000000000021022600000020010015000
49391272820EL MAANAOUI EL GHALIA         XX000000000021022700000020010015000
49391272821LAKHAL ZINEB                  XX000000000021022800000020010015000
49391272825MAGANI MALIKA                 XX000000000021022900000020010015000
49391272833EL FATIMI SAADIA              XX000000000021023000000020010015000
49391272838OUSBAAI AICHA                 XX000000000021023100000020010015000
49391272841TAHIRI KARIMA                 XX000000000021023200000020010015000
49391272851ELOUATY MOHAMED               XX000000000021023300000020010015000
49391272859HAMLI FATNA                   XX000000000021023400000020010015000
49391272861ARRAJI YOUSSEF                XX000000000021023500000020010015000
49391272867EL JAMAAI NAJAT               XX000000000021023600000020010015000
49391272870EL KHATTAB KHADIJA            XX000000000021023700000020010015000
49391272871RIACHE JAMILA                 XX000000000021023800000020010015000
49391272876BAJAD KHADIJA                 XX000000000021023900000020010015000
49391272877EL ARAJI R KIA                XX000000000021024000000020010015000
49391272878KAZ BOUCHRA                   XX000000000021024100000020010015000
49391272883AIT ABDELLAH LAHBIB           XX000000000021024200000020010015000
49391272888AMAGAR FATIMA                 XX000000000021024300000020010015000
49391272889TIMNOUNI FATIHA               XX000000000021024400000020010015000
49391272894BCHIRI SAMIRA                 XX000000000021024500000020010015000
49391272900AIT OULAHYANI MUSTAPHA        XX000000000021024600000020010015000
49391272916EL ANSARI ZINEB               XX000000000021024700000020010015000
49391272917KRIMAS ASMAE                  XX000000000021024800000020010015000
49391272919EL HARRAK SOUMAYA             XX000000000021024900000020010015000
49391272927BENAISSA NADIA                XX000000000021025000000020010015000
49391272929EL KOUCHI MALIKA              XX000000000021025100000020010015000
49391272932EL KARKACHI AMAL              XX000000000021025200000020010015000
49391272936BELAFKIH LAILA                XX000000000021025300000020010015000
49391272938BIFENZI YOUSSEF               XX000000000021025400000020010015000
49391272939AFROUKH BRAHIM                XX000000000021025500000020010015000
49391272942EL AIMOURI MOHAMMED           XX000000000021025600000020010015000
49391272954ALZARI NAJOUA                 XX000000000021025700000020010015000
49391272957SABBOURI SAIDA                XX000000000021025800000020010015000
49391272958BAYCHOU ALLAL                 XX000000000021025900000020010015000
49391272971ARCHOUNE YOUSSEF              XX000000000021026000000020010015000
49391272973MAAMOUR LAILA                 XX000000000021026100000020010015000
49391272978HAZIM NAJIA                   XX000000000021026200000020010015000
49391272986LOISKARI REDOUANE             XX000000000021026300000020010015000
49391272987SAIDI FATIMA                  XX000000000021026400000020010015000
49391272995KARA ABDELLAH                 XX000000000021026500000020010015000
49391273003MOUMINE RAJA                  XX000000000021026600000020010015000
49391273058LAHOUIYAT HANANE              XX000000000021026700000020010015000
49391273072OUAID SAID                    XX000000000021026800000020010015000
49391273104BOUSSAG SAID                  XX000000000021026900000020010015000
49391273110BOUFELJA RACHIDA              XX000000000021027000000020010015000
49391273113IGHIRIGUEN SAID               XX000000000021027100000020010015000
49391273114OUGUNIR RKIA                  XX000000000021027200000020010015000
49391273234MOUDNI AHMED                  XX000000000021027400000020010015000
49391273239EL AJROUDI MOUNIR             XX000000000021027500000020010015000
49391273260OUHAMOU FATIMA                XX000000000021027600000020010015000
49391273265AHAMAM MINA                   XX000000000021027700000020010015000
49391274546OUJAK YOUSSEF                 XX000000000021027800000020010015000
49391318714BOURJA YOUSSEF                XX000000000021027900000020010015000
49391355483BENABBOU NABIL                XX000000000021028000000020010015000
49391375382ZIYANI EL FATMI               XX000000000021028100000020010015000
49391375385ASSOUANE KHADIJA              XX000000000021028200000020010015000
49391375387BOUCHALGA MANAFAL             XX000000000021028300000020010015000
49391375393SANOUAR NOURA                 XX000000000021028400000020010015000
49391375400LAGNAOUI ABDERRAHIM           XX000000000021028500000020010015000
49391375405LAHFIDI YOUSSEF               XX000000000021028600000020010015000
49391375429BOUIKOURDASSEN AHMED          XX000000000021028700000020010015000
49391375432MOUMENE BRAHIM                XX000000000021028800000020010015000
49391375436AIT SAID ADIL                 XX000000000021028900000020010015000
49391375438DAROUICH YOUNS                XX000000000021029000000020010015000
49391375442IKHLEF SOAD                   XX000000000021029100000020010015000
49391375450KHALIL HASNA                  XX000000000021029200000020010015000
49391375453BORJA RACHID                  XX000000000021029400000020010015000
49391375455OUIRRA FATIHA                 XX000000000021029500000020010015000
49391375456SAAI EL HAQ HOURIA            XX000000000021029600000020010015000
49391375457BAKHTAOUI FOUAD               XX000000000021029700000020010015000
49391375463GHAZOUANI MOHAMMED AMINE      XX000000000021029800000020010015000
49391375475ALLACH NOURA EHSAN            XX000000000021029900000020010015000
49391375478NAJJAT SOUMIA                 XX000000000021030000000020010015000
49391375480BOURQUIZ HICHAM               XX000000000021030100000020010015000
49391375481BENKRIOU SAIDA                XX000000000021030200000020010015000
49391375484SALIM YOUNESS                 XX000000000021030300000020010015000
49391375485EL MOSTAKSI SANA              XX000000000021030400000020010015000
49391375488HORR BOUTHEINA                XX000000000021030500000020010015000
49391375491BAJOURI TAMOU                 XX000000000021030600000020010015000
49391375495EL HOUARI SAID                XX000000000021030700000020010015000
49391375499ZAMAOUI MOHAMED               XX000000000021030800000020010015000
49391375500AIT HAMMOU KHADIJA            XX000000000021030900000020010015000
49391375508LAAFOUI BTISSAM               XX000000000021031000000020010015000
49391375517MAIMOUNI MERIEM               XX000000000021031100000020010015000
49391375520IMEZIREN RAMZI                XX000000000021031200000020010015000
49391375539ROUDI SAMIRA                  XX000000000021031300000020010015000
49391375571CHEIKH YOUSSEF                XX000000000021031400000020010015000
49391375572MOUSTACHI SALMAA              XX000000000021031500000020010015000
49391375578SEBBAR MARIAM                 XX000000000021031600000020010015000
49391375579BOU OUKHERS ASMA              XX000000000021031700000020010015000
49391375580DAFANI YOUSSEF                XX000000000021031800000020010015000
49391375581ELMADANI OUMNIA               XX000000000021031900000020010015000
49391375583MOHAMED OMAR-OU-BRAHIM        XX000000000021032000000020010015000
49391375593BENJELLOUL NAJOUA             XX000000000021032100000020010015000
49391375595KADDAR RACHID                 XX000000000021032200000020010015000
49391375605EL FETKHANI AMINA             XX000000000021032300000020010015000
49391375616SOUFIANE FARID                XX000000000021032400000020010015000
49391375619ENNABOULSSI FOUZIA            XX000000000021032500000020010015000
49391375623MACHROUHI MOHAMMED            XX000000000021032600000020010015000
49391375625BETIT EL MOKHTAR              XX000000000021032700000020010015000
49391375631NAJATI GHIZLANE               XX000000000021032800000020010015000
49391375632EL MOUFLIH ASMAA              XX000000000021032900000020010015000
49391375640BOUREZZA ELMOUSTAFA           XX000000000021033000000020010015000
49391375755KHAYATI LAHCEN                XX000000000021033100000020010015000
49391375774ELAIDOUNI HICHAM              XX000000000021033200000020010015000
49391375802TAKI NOURA                    XX000000000021033300000020010015000
49391375803ZAID MOHAMED                  XX000000000021033400000020010015000
49391375836FASKA ILHAM                   XX000000000021033500000020010015000
49391375845EL KARYANI AZIZ               XX000000000021033600000020010015000
49391375854SIFI HASSAN                   XX000000000021033700000020010015000
49391375878EL HARROUACH BRAHIM           XX000000000021033800000020010015000
49391375906LAMJADI BRAHIM                XX000000000021033900000020010015000
49391375935BELMEKKI LAILA                XX000000000021034000000020010015000
49391375940EL YADDALI MAHICHAINA         XX000000000021034100000020010015000
49391376136MANSOURI FATIMA ZAHRA         XX000000000021034200000020010015000
49391376142OUMEZZI HICHAM                XX000000000021034300000020010015000
49391407684ABOUTAYEB MUSTAPHA            XX000000000021034400000020010015000
49391462114OUAHID ISMAIL                 XX000000000021034500000020010015000
49391513507KHOUFALLAH HASNA              XX000000000021034600000020010015000
49391513514BENMABROUK SABAH              XX000000000021034700000020010015000
49391513521ELFAIZ SAADIA                 XX000000000021034800000020010015000
49391513564BOUALLOUCHI MOHAMED           XX000000000021034900000020010015000
49391513572AHOURRI LAILA                 XX000000000021035000000020010015000
49391513574EL AADMI MOHAMED              XX000000000021035100000020010015000
49391513578CHAMIL EL MEHDI               XX000000000021035200000020010015000
49391513581EL AKKARI HASNA               XX000000000021035300000020010015000
49391513583ABDELKHALAK YOUNES            XX000000000021035400000020010015000
49391513590BOUMEDIANE HAMID              XX000000000021035500000020010015000
49391513597MAZZAL CHEAIB                 XX000000000021035600000020010015000
49391513598RHABBARI NABIL                XX000000000021035700000020010015000
49391513600FARAS MOHAMMED                XX000000000021035800000020010015000
49391513603DAAMACH YOUSSEF               XX000000000021035900000020010015000
49391513613BAKAOUA KELTOUM               XX000000000021036000000020010015000
49391513638CHATOUANE AHMED               XX000000000021036100000020010015000
49391513639LABBAR MOHAMMED               XX000000000021036200000020010015000
49391513652LAMRAOUI BOUCHRA              XX000000000021036300000020010015000
49391513653SBAY NAIMA                    XX000000000021036400000020010015000
49391513670BANJAJ ABDENBI                XX000000000021036500000020010015000
49391513693ACHNINE RACHID                XX000000000021036600000020010015000
49391513707SOUJAA AMAL                   XX000000000021036700000020010015000
49391513714ELKHAOUAJA RADOUANE           XX000000000021036800000020010015000
49391513716MILOUDI YOUSSEF               XX000000000021036900000020010015000
49391513733BADIL MOHAMMED                XX000000000021037000000020010015000
49391513738LAFKIR RACHIDA                XX000000000021037100000020010015000
49391513740ACHIK MY ISMAIL               XX000000000021037200000020010015000
49391513741GHAOUAT MOHAMMED              XX000000000021037300000020010015000
49391513743BLATSOU TASLEM                XX000000000021037400000020010015000
49391513751EL AILI MOHAMMED              XX000000000021037500000020010015000
49391513755ABDELMOUTTALIB NAJIB          XX000000000021037600000020010015000
49391513759CHARAQA YOUNESS               XX000000000021037700000020010015000
49391513764MAZZAR HAMZAE                 XX000000000021037800000020010015000
49391513767NOUINI MOHAMMED               XX000000000021037900000020010015000
49391513776EL JALILI ILIASS              XX000000000021038000000020010015000
49391513782BOUKRIM YASSINE               XX000000000021038100000020010015000
49391513783MAJBER MOUNIR                 XX000000000021038200000020010015000
49391513787MIMOUNI YASSINE               XX000000000021038300000020010015000
49391513796MOUSTAFI ADIL                 XX000000000021038400000020010015000
49391513799EL FOUHI MOHAMMED AMINE       XX000000000021038500000020010015000
49391513804AZIZI AHMED MOHAMMED          XX000000000021038600000020010015000
49391513807NADDAM FATIMA EZZAHRA         XX000000000021038700000020010015000
49391513811EL HADOUCHI REDOUANE          XX000000000021038800000020010015000
49391513816BAKHTAOUI AMINE               XX000000000021038900000020010015000
49391513818AKOUAM SAID                   XX000000000021039000000020010015000
49391513823YANNA HANANE                  XX000000000021039200000020010015000
49391513991BERNAOUI ZINEB                XX000000000021039300000020010015000
49391513993LAROUI ZEHOUA                 XX000000000021039400000020010015000
49391514011RICH RAHMA                    XX000000000021039500000020010015000
49391514018BERNI WAFA                    XX000000000021039600000020010015000
49391514027SOUHDI SAID                   XX000000000021039700000020010015000
49391514043MOUFAKKIR ADIL                XX000000000021039800000020010015000
49391514044BAAJI SAID                    XX000000000021039900000020010015000
49391514045EL AMRI MUSTAPHA              XX000000000021040000000020010015000
49391514047BENBELAID AICHA               XX000000000021040100000020010015000
49391514050BOUAJAJ SABAH                 XX000000000021040200000020010015000
49391514061HARATI NAIMA                  XX000000000021040300000020010015000
49391514065HAMMOUCH HASNAE               XX000000000021040400000020010015000
49391514068CHAIRI AMAL                   XX000000000021040500000020010015000
49391514074BENBELAID NADIYA              XX000000000021040600000020010015000
49391514083LAGNAOUI LOUBNA               XX000000000021040700000020010015000
49391514086BOULISSE LAILA                XX000000000021040800000020010015000
49391514095OURDAL NADIA                  XX000000000021040900000020010015000
49391514096BOUGHDAD ADIL                 XX000000000021041000000020010015000
49391514106DIHAJI LAMYAE                 XX000000000021041100000020010015000
49391514109EL HAFDI ADIL                 XX000000000021041200000020010015000
49391514112MAHBOUB NAOUAL                XX000000000021041300000020010015000
49391514114EZZRHARI NADIA                XX000000000021041400000020010015000
49391514115BITCHOU SIHAM                 XX000000000021041500000020010015000
49391514119EL HAMMOUDI ASSIYA            XX000000000021041600000020010015000
49391514121EL ALAOUI HAJAR               XX000000000021041700000020010015000
49391514123CHAHID HALIMA                 XX000000000021041800000020010015000
49391514129MOUJIB RACHID                 XX000000000021041900000020010015000
49391514130ISMAOUI RACHID                XX000000000021042000000020010015000
49391514131MOUHARRIR ASMAA               XX000000000021042100000020010015000
49391514136CHTIOUI ADIL                  XX000000000021042200000020010015000
49391514137LAFTIMI RACHID                XX000000000021042300000020010015000
49391514138BENABBOU SAMYA                XX000000000021042400000020010015000
49391514144NABBAR WAFAA                  XX000000000021042500000020010015000
49391514147KAIDI YAMNA                   XX000000000021042600000020010015000
49391514151EL IDRYSY FATIMA              XX000000000021042700000020010015000
49391514152AIT IDDER NOURA               XX000000000021042800000020010015000
49391514156LASFAR DRISS                  XX000000000021042900000020010015000
49391514165NEBDAOUI NORA                 XX000000000021043000000020010015000
49391514171MABSOR SAMIRA                 XX000000000021043100000020010015000
49391514183KAHLAOUI KHADIJA              XX000000000021043200000020010015000
49391514201AMAHOUL HASSAN                XX000000000021043300000020010015000
49391514207LAMRANI LALLA HASNA           XX000000000021043400000020010015000
49391514208AZOUGUEGH EL MUSTAPHA         XX000000000021043500000020010015000
49391514213EL BACHIRY SAIDA              XX000000000021043600000020010015000
49391514222BEKRY ADYL                    XX000000000021043700000020010015000
49391514225ADEL FATIMA ZAHRA             XX000000000021043800000020010015000
49391514228BOUCHEDOR NAIMA               XX000000000021043900000020010015000
49391514229MASSAOUDI SANA                XX000000000021044000000020010015000
49391514234BAROUDA FARIDA                XX000000000021044100000020010015000
49391514236EL MANSOURI FATIMA            XX000000000021044200000020010015000
49391514240EL GHAZI SAIDA                XX000000000021044300000020010015000
49391514246HADDAD LOUBNA                 XX000000000021044400000020010015000
49391514249MEZAREA MERYEM                XX000000000021044500000020010015000
49391514250TAOUIL FATIMA                 XX000000000021044600000020010015000
49391514261EL GHAZAL SIHAM               XX000000000021044700000020010015000
49391514271SOMATI HOURIA                 XX000000000021044800000020010015000
49391514280SANDALI MOHAMED               XX000000000021044900000020010015000
49391514281ACHCHAOUI FATIMA              XX000000000021045000000020010015000
49391514282FELGHAT ABDELLAH              XX000000000021045100000020010015000
49391514284ACHEHAL MOHAMED               XX000000000021045200000020010015000
49391514285MOURHARH BOUCHRA              XX000000000021045300000020010015000
49391514287EL BIDANI FOUZI               XX000000000021045400000020010015000
49391514294EL MANDILI LALLA HASNA        XX000000000021045500000020010015000
49391514297BOUCETTA NEZHA                XX000000000021045600000020010015000
49391514298AQNOUCH MALIKA                XX000000000021045700000020010015000
49391514300HANDAJI AHLAM                 XX000000000021045800000020010015000
49391514301EL IBRAHIMI LATIFA            XX000000000021045900000020010015000
49391514302ARRAHI AZIZA                  XX000000000021046000000020010015000
49391514305LAAOUINA WAFA                 XX000000000021046100000020010015000
49391514310OUMANSOUR REDOUANE            XX000000000021046200000020010015000
49391514318EL BOUCHNANI RACHIDA          XX000000000021046300000020010015000
49391514320OUMLIL AICHA                  XX000000000021046400000020010015000
49391514339LACHGAR NAJAT                 XX000000000021046500000020010015000
49391514340LAMBARKI BATOUL               XX000000000021046600000020010015000
49391514341MAYARA AICHA                  XX000000000021046700000020010015000
49391514342EL KHOLTI KHADIJA             XX000000000021046800000020010015000
49391514344ADNAN MARIAM                  XX000000000021046900000020010015000
49391514350EDDAOUDI HASNA                XX000000000021047000000020010015000
49391514351ENNAFFAA LAMINA               XX000000000021047100000020010015000
49391514362HRIACH SOUMIA                 XX000000000021047200000020010015000
49391514390BOUKOUS RAJAA                 XX000000000021047300000020010015000
49391514397CHALLOUH HANANE               XX000000000021047400000020010015000
49391514399BENBACHIR SAMIRA              XX000000000021047500000020010015000
49391514403ZRIOUEL MERIEME               XX000000000021047600000020010015000
49391514409LAHNINE IMANE                 XX000000000021047700000020010015000
49391514411BOULAHKA HOUDA                XX000000000021047800000020010015000
49391514412LAMARTI KAOUTAR               XX000000000021047900000020010015000
49391514415BAHDA MAJDA                   XX000000000021048000000020010015000
49391514419EL BAHJA NAWAL                XX000000000021048100000020010015000
49391514424ABOUHMAD MINA                 XX000000000021048200000020010015000
49391514429FOUKAL AMAL                   XX000000000021048300000020010015000
49391514431EL BAOUDI AMINA               XX000000000021048400000020010015000
49391514440ASSAD BOUCHRA                 XX000000000021048500000020010015000
49391514447NASEF BADIA                   XX000000000021048600000020010015000
49391514449AGNAOU AICHA                  XX000000000021048700000020010015000
49391514464EL OUAHAB SAMIRA              XX000000000021048800000020010015000
49391514485KHEROUAA LOUBNA               XX000000000021048900000020010015000
49391514488CHEKYO FATIMA ZAHRA           XX000000000021049000000020010015000
49391553251TAMAOUI FARIDA                XX000000000021049100000020010015000
49391553262HAMMAD LAILA                  XX000000000021049200000020010015000
49391553266BAKKACHA LOUBNA               XX000000000021049300000020010015000
49391553267EL OUADI ZINEB                XX000000000021049400000020010015000
49391553273BELHADDAR KARIMA              XX000000000021049500000020010015000
49391553274AYCHATI MARIEM                XX000000000021049600000020010015000
49391553295ACHBOUQ NAIMA                 XX000000000021049700000020010015000
49391553296OUSBAA LOUBNA                 XX000000000021049800000020010015000
49391553302ASSAFFAR KHADIJA              XX000000000021049900000020010015000
49391553307AMZIL AZIZA                   XX000000000021050000000020010015000
49391553308CHENGLI KAOUTAR               XX000000000021050100000020010015000
49391553804NAJIA HADI                    XX000000000021050200000020010015000
49391553815FOUAD MOHSINI                 XX000000000021050300000020010015000
49391553817OUADIAE BOUKRI                XX000000000021050400000020010015000
49391553857EL MEHDI AMLOUK               XX000000000021050500000020010015000
49391553860ABDERRAHIM KARUM              XX000000000021050600000020010015000
49391553904MOSTAPHA ABDERZAK             XX000000000021050700000020010015000
49391553923FOUAD SAOUIR MANSORI          XX000000000021050800000020010015000
49391553970KHALID OUAAZIZI               XX000000000021050900000020010015000
49391553971ABDESSELAM EL WAHHABI         XX000000000021051000000020010015000
49391554012ABDALLAH MAHFOUD              XX000000000021051100000020010015000
49391554043AHMED MOUSTINE                XX000000000021051200000020010015000
49391554093SALEM BOUKHAIR                XX000000000021051300000020010015000
49391554113SAID BOUKTIB                  XX000000000021051400000020010015000
49391554126ABDESLAM ELKAMEL              XX000000000021051500000020010015000
49391554145ZAKARIA BATRAOUI              XX000000000021051600000020010015000
49391554148MOHAMED RIDA TIMLILTE         XX000000000021051700000020010015000
49391554183QADIR ABDELMAJID HICHAM       XX000000000021051800000020010015000
49391554192BELHARTI AMAL                 XX000000000021051900000020010015000
49391554194BEYAD AMINE                   XX000000000021052000000020010015000
49391554195ZIOUAL BRAHIM                 XX000000000021052100000020010015000
49391554197ELHARRAK MOHAMED              XX000000000021052200000020010015000
49391554200KACHROUD FADOUA               XX000000000021052300000020010015000
49391554203HADDIOUI ABDERRAZAK           XX000000000021052400000020010015000
49391554206BIRROU MOHAMMED               XX000000000021052500000020010015000
49391554210RGAIBI MOHAMMED SALEM         XX000000000021052600000020010015000
49391554215SAFSAFI FATIMA                XX000000000021052700000020010015000
49391554222BOUSSEKKINE ABDELLAH          XX000000000021052800000020010015000
49391554229EL-AZYZY MOULAYHFID           XX000000000021052900000020010015000
49391554230ELANSARI LOUBNA               XX000000000021053000000020010015000
49391554234ELHIMER SAIDA                 XX000000000021053100000020010015000
49391554237ABALIL ABDELAZIZ              XX000000000021053200000020010015000
49391554239KARIM MAHJOUBA                XX000000000021053300000020010015000
49391554248NAJAT JAMIL                   XX000000000021053400000020010015000
49391554251ASMA ADRAOUI                  XX000000000021053500000020010015000
49391554252AIDA JABRI                    XX000000000021053600000020010015000
49391554259FATIMA THAMMOU                XX000000000021053700000020010015000
49391554261MOHAMED ABLOUZE               XX000000000021053800000020010015000
49391554266SANAE KHALLOUQI               XX000000000021053900000020010015000
