4939EL ASRI LATIFA                XX000000011430792001031413600
4939EL HASSANI ABDELLAH           XX000000018068212001031413700
4939EL ABBADI DRISS               XX000000007604792001031413800
4939ARHZROUQ SAID                 XX000000007449652001031413900
4939EL AMARTY AMINA               XX000000011430782001031414000
4939JAI SOUAD                     XX000000007779982001031414100
4939KARROUM MOHAMMED              XX000000001893292001031414200
4939BELFQIH HALIMA                XX000000000761772001031414300
4939ZEHRAOUI MUSTAPHA             XX000000007863382001031414400
4939EL ATTAR FATIMA               XX000000007604802001031414500
4939NOUINI MOHAMMED               XX000000015137672001031414600
4939BOUALLOUCHI MOHAMED           XX000000015135642001031414700
4939KTITAB ABDELHAKIM             XX000000015547512001031414800
4939ENNAJI SAID                   XX000000007268032001031414900
4939BELGHITI ALAOUI MY MUSTAPHA   XX000000010012932001031415000
4939EL ARQEM FATIHA               XX000000010008132001031415100
4939LALLOUCHT LAHCEN              XX000000012300502001031415200
4939HANNOUN MUSTAPHA              XX000000010552232001031415300
4939ABAR MOUHSIN                  XX000000016110772001031415400
4939AFKIR SOUAD                   XX000000015551122001031415500
4939DRISSI EL BOUZAIDI            XX000000018066972001031415600
4939CHAAIBI MOHAMED               XX000000018153732001031415700
4939IOUI M HAMED                  XX000000003721817401031415800
4939BOUNRHAIZA NORDINE            XX000000015735647401031415900
4939CHAKIR MOHAMMED               XX000000002790187401031416000
4939MOUHTAMMI AYOUB               XX000000015712167401031416100
4939HEMMA SOUAD                   XX000000016978807401031416200
4939ABI ABDELAAZIZ                XX000000015174517401031416300
4939LHAOUATI ABDERRAHIM           XX000000011853947401031416400
4939YAMANI FATHALLAH              XX000000011436017401031416500
4939EL-HROUD SOUFIANE             XX000000015711167401031416600
4939KHOUMRI ASMAE                 XX000000016109852001031416700
4939FAHIR JIHANE                  XX000000018147682001031416800
4939FADIL SAID                    XX000000011429262001031416900
4939ZORKANI HAFID                 XX000000000710007401031417000
4939OUAHMANE YASSINE              XX000000016984137401031417100
