49391143079EL ASRI LATIFA                XX000000000031413600000020010030000
49391806821EL HASSANI ABDELLAH           XX000000000031413700000020010030000
49390760479EL ABBADI DRISS               XX000000000031413800000020010030000
49390744965ARHZROUQ SAID                 XX000000000031413900000020010030000
49391143078EL AMARTY AMINA               XX000000000031414000000020010030000
49390777998JAI SOUAD                     XX000000000031414100000020010030000
49390189329KARROUM MOHAMMED              XX000000000031414200000020010030000
49390076177BELFQIH HALIMA                XX000000000031414300000020010030000
49390786338ZEHRAOUI MUSTAPHA             XX000000000031414400000020010030000
49390760480EL ATTAR FATIMA               XX000000000031414500000020010030000
49391513767NOUINI MOHAMMED               XX000000000031414600000020010030000
49391513564BOUALLOUCHI MOHAMED           XX000000000031414700000020010030000
49391554751KTITAB ABDELHAKIM             XX000000000031414800000020010030000
49390726803ENNAJI SAID                   XX000000000031414900000020010030000
49391001293BELGHITI ALAOUI MY MUSTAPHA   XX000000000031415000000020010030000
49391000813EL ARQEM FATIHA               XX000000000031415100000020010030000
49391230050LALLOUCHT LAHCEN              XX000000000031415200000020010030000
49391055223HANNOUN MUSTAPHA              XX000000000031415300000020010030000
49391611077ABAR MOUHSIN                  XX000000000031415400000020010030000
49391555112AFKIR SOUAD                   XX000000000031415500000020010030000
49391806697DRISSI EL BOUZAIDI            XX000000000031415600000020010030000
49391815373CHAAIBI MOHAMED               XX000000000031415700000020010030000
49390372181IOUI M HAMED                  XX000000000031415800000074010030000
49391573564BOUNRHAIZA NORDINE            XX000000000031415900000074010030000
49390279018CHAKIR MOHAMMED               XX000000000031416000000074010030000
49391571216MOUHTAMMI AYOUB               XX000000000031416100000074010030000
49391697880HEMMA SOUAD                   XX000000000031416200000074010030000
49391517451ABI ABDELAAZIZ                XX000000000031416300000074010030000
49391185394LHAOUATI ABDERRAHIM           XX000000000031416400000074010030000
49391143601YAMANI FATHALLAH              XX000000000031416500000074010030000
49391571116EL-HROUD SOUFIANE             XX000000000031416600000074010030000
49391610985KHOUMRI ASMAE                 XX000000000031416700000020010030000
49391814768FAHIR JIHANE                  XX000000000031416800000020010030000
49391142926FADIL SAID                    XX000000000031416900000020010030000
49390071000ZORKANI HAFID                 XX000000000031417000000074010030000
49391698413OUAHMANE YASSINE              XX000000000031417100000074010030000
